{
	"EtherTransfer.sol": {
		"EtherTransfer": {
			"abi": [
				{
					"inputs": [],
					"stateMutability": "nonpayable",
					"type": "constructor"
				},
				{
					"anonymous": false,
					"inputs": [
						{
							"indexed": true,
							"internalType": "address",
							"name": "from",
							"type": "address"
						},
						{
							"indexed": false,
							"internalType": "uint256",
							"name": "amount",
							"type": "uint256"
						}
					],
					"name": "Deposit",
					"type": "event"
				},
				{
					"anonymous": false,
					"inputs": [
						{
							"indexed": true,
							"internalType": "address",
							"name": "from",
							"type": "address"
						},
						{
							"indexed": true,
							"internalType": "address",
							"name": "to",
							"type": "address"
						},
						{
							"indexed": false,
							"internalType": "uint256",
							"name": "amount",
							"type": "uint256"
						}
					],
					"name": "Transfer",
					"type": "event"
				},
				{
					"anonymous": false,
					"inputs": [
						{
							"indexed": true,
							"internalType": "address",
							"name": "to",
							"type": "address"
						},
						{
							"indexed": false,
							"internalType": "uint256",
							"name": "amount",
							"type": "uint256"
						}
					],
					"name": "Withdrawal",
					"type": "event"
				},
				{
					"inputs": [
						{
							"internalType": "address",
							"name": "",
							"type": "address"
						}
					],
					"name": "balances",
					"outputs": [
						{
							"internalType": "uint256",
							"name": "",
							"type": "uint256"
						}
					],
					"stateMutability": "view",
					"type": "function"
				},
				{
					"inputs": [],
					"name": "deposit",
					"outputs": [],
					"stateMutability": "payable",
					"type": "function"
				},
				{
					"inputs": [],
					"name": "getContractBalance",
					"outputs": [
						{
							"internalType": "uint256",
							"name": "",
							"type": "uint256"
						}
					],
					"stateMutability": "view",
					"type": "function"
				},
				{
					"inputs": [
						{
							"internalType": "address",
							"name": "user",
							"type": "address"
						}
					],
					"name": "getUserBalance",
					"outputs": [
						{
							"internalType": "uint256",
							"name": "",
							"type": "uint256"
						}
					],
					"stateMutability": "view",
					"type": "function"
				},
				{
					"inputs": [],
					"name": "owner",
					"outputs": [
						{
							"internalType": "address",
							"name": "",
							"type": "address"
						}
					],
					"stateMutability": "view",
					"type": "function"
				},
				{
					"inputs": [
						{
							"internalType": "uint256",
							"name": "amount",
							"type": "uint256"
						}
					],
					"name": "ownerWithdraw",
					"outputs": [],
					"stateMutability": "nonpayable",
					"type": "function"
				},
				{
					"inputs": [
						{
							"internalType": "address payable",
							"name": "to",
							"type": "address"
						},
						{
							"internalType": "uint256",
							"name": "amount",
							"type": "uint256"
						}
					],
					"name": "sendEther",
					"outputs": [],
					"stateMutability": "nonpayable",
					"type": "function"
				},
				{
					"inputs": [],
					"name": "totalDeposits",
					"outputs": [
						{
							"internalType": "uint256",
							"name": "",
							"type": "uint256"
						}
					],
					"stateMutability": "view",
					"type": "function"
				},
				{
					"inputs": [],
					"name": "totalWithdrawals",
					"outputs": [
						{
							"internalType": "uint256",
							"name": "",
							"type": "uint256"
						}
					],
					"stateMutability": "view",
					"type": "function"
				},
				{
					"inputs": [
						{
							"internalType": "address payable",
							"name": "to",
							"type": "address"
						},
						{
							"internalType": "uint256",
							"name": "amount",
							"type": "uint256"
						}
					],
					"name": "transferTo",
					"outputs": [],
					"stateMutability": "nonpayable",
					"type": "function"
				},
				{
					"inputs": [
						{
							"internalType": "uint256",
							"name": "amount",
							"type": "uint256"
						}
					],
					"name": "withdraw",
					"outputs": [],
					"stateMutability": "nonpayable",
					"type": "function"
				},
				{
					"inputs": [],
					"name": "withdrawAll",
					"outputs": [],
					"stateMutability": "nonpayable",
					"type": "function"
				},
				{
					"stateMutability": "payable",
					"type": "receive"
				}
			],
			"devdoc": {
				"details": "Contract to demonstrate sending and receiving Ether",
				"kind": "dev",
				"methods": {
					"constructor": {
						"details": "Constructor sets the contract deployer as owner"
					},
					"deposit()": {
						"details": "Explicit deposit function"
					},
					"getContractBalance()": {
						"details": "Get contract's total balance",
						"returns": {
							"_0": "uint256 The contract's ETH balance"
						}
					},
					"getUserBalance(address)": {
						"details": "Get user's balance in the contract",
						"params": {
							"user": "The user's address"
						},
						"returns": {
							"_0": "uint256 The user's balance"
						}
					},
					"ownerWithdraw(uint256)": {
						"details": "Owner can withdraw contract balance (for emergencies)",
						"params": {
							"amount": "The amount to withdraw"
						}
					},
					"sendEther(address,uint256)": {
						"details": "Send ETH directly to an address (owner only)",
						"params": {
							"amount": "The amount to send",
							"to": "The recipient's address"
						}
					},
					"transferTo(address,uint256)": {
						"details": "Transfer ETH from sender to another address",
						"params": {
							"amount": "The amount to transfer",
							"to": "The recipient's address"
						}
					},
					"withdraw(uint256)": {
						"details": "Withdraw user's balance",
						"params": {
							"amount": "The amount to withdraw"
						}
					},
					"withdrawAll()": {
						"details": "Withdraw all of user's balance"
					}
				},
				"title": "EtherTransfer",
				"version": 1
			},
			"evm": {
				"assembly": "    /* \"EtherTransfer.sol\":216:4413  contract EtherTransfer {... */\n  mstore(0x40, 0x80)\n    /* \"EtherTransfer.sol\":809:858  constructor() {... */\n  callvalue\n  dup1\n  iszero\n  tag_1\n  jumpi\n  revert(0x00, 0x00)\ntag_1:\n  pop\n    /* \"EtherTransfer.sol\":841:851  msg.sender */\n  caller\n    /* \"EtherTransfer.sol\":833:838  owner */\n  0x00\n  0x00\n    /* \"EtherTransfer.sol\":833:851  owner = msg.sender */\n  0x0100\n  exp\n  dup2\n  sload\n  dup2\n  0xffffffffffffffffffffffffffffffffffffffff\n  mul\n  not\n  and\n  swap1\n  dup4\n  0xffffffffffffffffffffffffffffffffffffffff\n  and\n  mul\n  or\n  swap1\n  sstore\n  pop\n    /* \"EtherTransfer.sol\":216:4413  contract EtherTransfer {... */\n  dataSize(sub_0)\n  dup1\n  dataOffset(sub_0)\n  0x00\n  codecopy\n  0x00\n  return\nstop\n\nsub_0: assembly {\n        /* \"EtherTransfer.sol\":216:4413  contract EtherTransfer {... */\n      mstore(0x40, 0x80)\n      jumpi(tag_1, lt(calldatasize, 0x04))\n      shr(0xe0, calldataload(0x00))\n      dup1\n      0x6f9fb98a\n      gt\n      tag_15\n      jumpi\n      dup1\n      0x6f9fb98a\n      eq\n      tag_9\n      jumpi\n      dup1\n      0x7d882097\n      eq\n      tag_10\n      jumpi\n      dup1\n      0x853828b6\n      eq\n      tag_11\n      jumpi\n      dup1\n      0x8da5cb5b\n      eq\n      tag_12\n      jumpi\n      dup1\n      0xc1756a2c\n      eq\n      tag_13\n      jumpi\n      dup1\n      0xd0e30db0\n      eq\n      tag_14\n      jumpi\n      jump(tag_2)\n    tag_15:\n      dup1\n      0x27e235e3\n      eq\n      tag_3\n      jumpi\n      dup1\n      0x2ccb1b30\n      eq\n      tag_4\n      jumpi\n      dup1\n      0x2e1a7d4d\n      eq\n      tag_5\n      jumpi\n      dup1\n      0x33f707d1\n      eq\n      tag_6\n      jumpi\n      dup1\n      0x47734892\n      eq\n      tag_7\n      jumpi\n      dup1\n      0x60464627\n      eq\n      tag_8\n      jumpi\n      jump(tag_2)\n    tag_1:\n      jumpi(tag_2, calldatasize)\n        /* \"EtherTransfer.sol\":1057:1066  msg.value */\n      callvalue\n        /* \"EtherTransfer.sol\":1033:1041  balances */\n      0x03\n        /* \"EtherTransfer.sol\":1033:1053  balances[msg.sender] */\n      0x00\n        /* \"EtherTransfer.sol\":1042:1052  msg.sender */\n      caller\n        /* \"EtherTransfer.sol\":1033:1053  balances[msg.sender] */\n      0xffffffffffffffffffffffffffffffffffffffff\n      and\n      0xffffffffffffffffffffffffffffffffffffffff\n      and\n      dup2\n      mstore\n      0x20\n      add\n      swap1\n      dup2\n      mstore\n      0x20\n      add\n      0x00\n      keccak256\n      0x00\n        /* \"EtherTransfer.sol\":1033:1066  balances[msg.sender] += msg.value */\n      dup3\n      dup3\n      sload\n      tag_18\n      swap2\n      swap1\n      tag_19\n      jump\t// in\n    tag_18:\n      swap3\n      pop\n      pop\n      dup2\n      swap1\n      sstore\n      pop\n        /* \"EtherTransfer.sol\":1093:1102  msg.value */\n      callvalue\n        /* \"EtherTransfer.sol\":1076:1089  totalDeposits */\n      0x01\n      0x00\n        /* \"EtherTransfer.sol\":1076:1102  totalDeposits += msg.value */\n      dup3\n      dup3\n      sload\n      tag_20\n      swap2\n      swap1\n      tag_19\n      jump\t// in\n    tag_20:\n      swap3\n      pop\n      pop\n      dup2\n      swap1\n      sstore\n      pop\n        /* \"EtherTransfer.sol\":1125:1135  msg.sender */\n      caller\n        /* \"EtherTransfer.sol\":1117:1147  Deposit(msg.sender, msg.value) */\n      0xffffffffffffffffffffffffffffffffffffffff\n      and\n      0xe1fffcc4923d04b559f4d29a8bfc6cda04eb5b0d3c460751c2402c5c5cc9109c\n        /* \"EtherTransfer.sol\":1137:1146  msg.value */\n      callvalue\n        /* \"EtherTransfer.sol\":1117:1147  Deposit(msg.sender, msg.value) */\n      mload(0x40)\n      tag_21\n      swap2\n      swap1\n      tag_22\n      jump\t// in\n    tag_21:\n      mload(0x40)\n      dup1\n      swap2\n      sub\n      swap1\n      log2\n        /* \"EtherTransfer.sol\":216:4413  contract EtherTransfer {... */\n      stop\n    tag_2:\n      revert(0x00, 0x00)\n        /* \"EtherTransfer.sol\":467:510  mapping(address => uint256) public balances */\n    tag_3:\n      callvalue\n      dup1\n      iszero\n      tag_23\n      jumpi\n      revert(0x00, 0x00)\n    tag_23:\n      pop\n      tag_24\n      0x04\n      dup1\n      calldatasize\n      sub\n      dup2\n      add\n      swap1\n      tag_25\n      swap2\n      swap1\n      tag_26\n      jump\t// in\n    tag_25:\n      tag_27\n      jump\t// in\n    tag_24:\n      mload(0x40)\n      tag_28\n      swap2\n      swap1\n      tag_22\n      jump\t// in\n    tag_28:\n      mload(0x40)\n      dup1\n      swap2\n      sub\n      swap1\n      return\n        /* \"EtherTransfer.sol\":2985:3335  function transferTo(address payable to, uint256 amount) public {... */\n    tag_4:\n      callvalue\n      dup1\n      iszero\n      tag_29\n      jumpi\n      revert(0x00, 0x00)\n    tag_29:\n      pop\n      tag_30\n      0x04\n      dup1\n      calldatasize\n      sub\n      dup2\n      add\n      swap1\n      tag_31\n      swap2\n      swap1\n      tag_32\n      jump\t// in\n    tag_31:\n      tag_33\n      jump\t// in\n    tag_30:\n      stop\n        /* \"EtherTransfer.sol\":2078:2572  function withdraw(uint256 amount) public {... */\n    tag_5:\n      callvalue\n      dup1\n      iszero\n      tag_34\n      jumpi\n      revert(0x00, 0x00)\n    tag_34:\n      pop\n      tag_35\n      0x04\n      dup1\n      calldatasize\n      sub\n      dup2\n      add\n      swap1\n      tag_36\n      swap2\n      swap1\n      tag_37\n      jump\t// in\n    tag_36:\n      tag_38\n      jump\t// in\n    tag_35:\n      stop\n        /* \"EtherTransfer.sol\":3471:3879  function ownerWithdraw(uint256 amount) public {... */\n    tag_6:\n      callvalue\n      dup1\n      iszero\n      tag_39\n      jumpi\n      revert(0x00, 0x00)\n    tag_39:\n      pop\n      tag_40\n      0x04\n      dup1\n      calldatasize\n      sub\n      dup2\n      add\n      swap1\n      tag_41\n      swap2\n      swap1\n      tag_37\n      jump\t// in\n    tag_41:\n      tag_42\n      jump\t// in\n    tag_40:\n      stop\n        /* \"EtherTransfer.sol\":1866:1972  function getUserBalance(address user) public view returns (uint256) {... */\n    tag_7:\n      callvalue\n      dup1\n      iszero\n      tag_43\n      jumpi\n      revert(0x00, 0x00)\n    tag_43:\n      pop\n      tag_44\n      0x04\n      dup1\n      calldatasize\n      sub\n      dup2\n      add\n      swap1\n      tag_45\n      swap2\n      swap1\n      tag_26\n      jump\t// in\n    tag_45:\n      tag_46\n      jump\t// in\n    tag_44:\n      mload(0x40)\n      tag_47\n      swap2\n      swap1\n      tag_22\n      jump\t// in\n    tag_47:\n      mload(0x40)\n      dup1\n      swap2\n      sub\n      swap1\n      return\n        /* \"EtherTransfer.sol\":376:407  uint256 public totalWithdrawals */\n    tag_8:\n      callvalue\n      dup1\n      iszero\n      tag_48\n      jumpi\n      revert(0x00, 0x00)\n    tag_48:\n      pop\n      tag_49\n      tag_50\n      jump\t// in\n    tag_49:\n      mload(0x40)\n      tag_51\n      swap2\n      swap1\n      tag_22\n      jump\t// in\n    tag_51:\n      mload(0x40)\n      dup1\n      swap2\n      sub\n      swap1\n      return\n        /* \"EtherTransfer.sol\":1608:1713  function getContractBalance() public view returns (uint256) {... */\n    tag_9:\n      callvalue\n      dup1\n      iszero\n      tag_52\n      jumpi\n      revert(0x00, 0x00)\n    tag_52:\n      pop\n      tag_53\n      tag_54\n      jump\t// in\n    tag_53:\n      mload(0x40)\n      tag_55\n      swap2\n      swap1\n      tag_22\n      jump\t// in\n    tag_55:\n      mload(0x40)\n      dup1\n      swap2\n      sub\n      swap1\n      return\n        /* \"EtherTransfer.sol\":342:370  uint256 public totalDeposits */\n    tag_10:\n      callvalue\n      dup1\n      iszero\n      tag_56\n      jumpi\n      revert(0x00, 0x00)\n    tag_56:\n      pop\n      tag_57\n      tag_58\n      jump\t// in\n    tag_57:\n      mload(0x40)\n      tag_59\n      swap2\n      swap1\n      tag_22\n      jump\t// in\n    tag_59:\n      mload(0x40)\n      dup1\n      swap2\n      sub\n      swap1\n      return\n        /* \"EtherTransfer.sol\":2641:2818  function withdrawAll() public {... */\n    tag_11:\n      callvalue\n      dup1\n      iszero\n      tag_60\n      jumpi\n      revert(0x00, 0x00)\n    tag_60:\n      pop\n      tag_61\n      tag_62\n      jump\t// in\n    tag_61:\n      stop\n        /* \"EtherTransfer.sol\":267:287  address public owner */\n    tag_12:\n      callvalue\n      dup1\n      iszero\n      tag_63\n      jumpi\n      revert(0x00, 0x00)\n    tag_63:\n      pop\n      tag_64\n      tag_65\n      jump\t// in\n    tag_64:\n      mload(0x40)\n      tag_66\n      swap2\n      swap1\n      tag_67\n      jump\t// in\n    tag_66:\n      mload(0x40)\n      dup1\n      swap2\n      sub\n      swap1\n      return\n        /* \"EtherTransfer.sol\":4043:4411  function sendEther(address payable to, uint256 amount) public {... */\n    tag_13:\n      callvalue\n      dup1\n      iszero\n      tag_68\n      jumpi\n      revert(0x00, 0x00)\n    tag_68:\n      pop\n      tag_69\n      0x04\n      dup1\n      calldatasize\n      sub\n      dup2\n      add\n      swap1\n      tag_70\n      swap2\n      swap1\n      tag_32\n      jump\t// in\n    tag_70:\n      tag_71\n      jump\t// in\n    tag_69:\n      stop\n        /* \"EtherTransfer.sol\":1270:1491  function deposit() public payable {... */\n    tag_14:\n      tag_72\n      tag_73\n      jump\t// in\n    tag_72:\n      stop\n        /* \"EtherTransfer.sol\":467:510  mapping(address => uint256) public balances */\n    tag_27:\n      mstore(0x20, 0x03)\n      dup1\n      0x00\n      mstore\n      keccak256(0x00, 0x40)\n      0x00\n      swap2\n      pop\n      swap1\n      pop\n      sload\n      dup2\n      jump\t// out\n        /* \"EtherTransfer.sol\":2985:3335  function transferTo(address payable to, uint256 amount) public {... */\n    tag_33:\n        /* \"EtherTransfer.sol\":3090:3096  amount */\n      dup1\n        /* \"EtherTransfer.sol\":3066:3074  balances */\n      0x03\n        /* \"EtherTransfer.sol\":3066:3086  balances[msg.sender] */\n      0x00\n        /* \"EtherTransfer.sol\":3075:3085  msg.sender */\n      caller\n        /* \"EtherTransfer.sol\":3066:3086  balances[msg.sender] */\n      0xffffffffffffffffffffffffffffffffffffffff\n      and\n      0xffffffffffffffffffffffffffffffffffffffff\n      and\n      dup2\n      mstore\n      0x20\n      add\n      swap1\n      dup2\n      mstore\n      0x20\n      add\n      0x00\n      keccak256\n      sload\n        /* \"EtherTransfer.sol\":3066:3096  balances[msg.sender] >= amount */\n      lt\n      iszero\n        /* \"EtherTransfer.sol\":3058:3121  require(balances[msg.sender] >= amount, \"Insufficient balance\") */\n      tag_75\n      jumpi\n      mload(0x40)\n      0x08c379a000000000000000000000000000000000000000000000000000000000\n      dup2\n      mstore\n      0x04\n      add\n      tag_76\n      swap1\n      tag_77\n      jump\t// in\n    tag_76:\n      mload(0x40)\n      dup1\n      swap2\n      sub\n      swap1\n      revert\n    tag_75:\n        /* \"EtherTransfer.sol\":3153:3154  0 */\n      0x00\n        /* \"EtherTransfer.sol\":3139:3155  to != address(0) */\n      0xffffffffffffffffffffffffffffffffffffffff\n      and\n        /* \"EtherTransfer.sol\":3139:3141  to */\n      dup3\n        /* \"EtherTransfer.sol\":3139:3155  to != address(0) */\n      0xffffffffffffffffffffffffffffffffffffffff\n      and\n      sub\n        /* \"EtherTransfer.sol\":3131:3191  require(to != address(0), \"Cannot transfer to zero address\") */\n      tag_78\n      jumpi\n      mload(0x40)\n      0x08c379a000000000000000000000000000000000000000000000000000000000\n      dup2\n      mstore\n      0x04\n      add\n      tag_79\n      swap1\n      tag_80\n      jump\t// in\n    tag_79:\n      mload(0x40)\n      dup1\n      swap2\n      sub\n      swap1\n      revert\n    tag_78:\n        /* \"EtherTransfer.sol\":3234:3240  amount */\n      dup1\n        /* \"EtherTransfer.sol\":3210:3218  balances */\n      0x03\n        /* \"EtherTransfer.sol\":3210:3230  balances[msg.sender] */\n      0x00\n        /* \"EtherTransfer.sol\":3219:3229  msg.sender */\n      caller\n        /* \"EtherTransfer.sol\":3210:3230  balances[msg.sender] */\n      0xffffffffffffffffffffffffffffffffffffffff\n      and\n      0xffffffffffffffffffffffffffffffffffffffff\n      and\n      dup2\n      mstore\n      0x20\n      add\n      swap1\n      dup2\n      mstore\n      0x20\n      add\n      0x00\n      keccak256\n      0x00\n        /* \"EtherTransfer.sol\":3210:3240  balances[msg.sender] -= amount */\n      dup3\n      dup3\n      sload\n      tag_81\n      swap2\n      swap1\n      tag_82\n      jump\t// in\n    tag_81:\n      swap3\n      pop\n      pop\n      dup2\n      swap1\n      sstore\n      pop\n        /* \"EtherTransfer.sol\":3266:3272  amount */\n      dup1\n        /* \"EtherTransfer.sol\":3250:3258  balances */\n      0x03\n        /* \"EtherTransfer.sol\":3250:3262  balances[to] */\n      0x00\n        /* \"EtherTransfer.sol\":3259:3261  to */\n      dup5\n        /* \"EtherTransfer.sol\":3250:3262  balances[to] */\n      0xffffffffffffffffffffffffffffffffffffffff\n      and\n      0xffffffffffffffffffffffffffffffffffffffff\n      and\n      dup2\n      mstore\n      0x20\n      add\n      swap1\n      dup2\n      mstore\n      0x20\n      add\n      0x00\n      keccak256\n      0x00\n        /* \"EtherTransfer.sol\":3250:3272  balances[to] += amount */\n      dup3\n      dup3\n      sload\n      tag_83\n      swap2\n      swap1\n      tag_19\n      jump\t// in\n    tag_83:\n      swap3\n      pop\n      pop\n      dup2\n      swap1\n      sstore\n      pop\n        /* \"EtherTransfer.sol\":3317:3319  to */\n      dup2\n        /* \"EtherTransfer.sol\":3296:3328  Transfer(msg.sender, to, amount) */\n      0xffffffffffffffffffffffffffffffffffffffff\n      and\n        /* \"EtherTransfer.sol\":3305:3315  msg.sender */\n      caller\n        /* \"EtherTransfer.sol\":3296:3328  Transfer(msg.sender, to, amount) */\n      0xffffffffffffffffffffffffffffffffffffffff\n      and\n      0xddf252ad1be2c89b69c2b068fc378daa952ba7f163c4a11628f55a4df523b3ef\n        /* \"EtherTransfer.sol\":3321:3327  amount */\n      dup4\n        /* \"EtherTransfer.sol\":3296:3328  Transfer(msg.sender, to, amount) */\n      mload(0x40)\n      tag_84\n      swap2\n      swap1\n      tag_22\n      jump\t// in\n    tag_84:\n      mload(0x40)\n      dup1\n      swap2\n      sub\n      swap1\n      log3\n        /* \"EtherTransfer.sol\":2985:3335  function transferTo(address payable to, uint256 amount) public {... */\n      pop\n      pop\n      jump\t// out\n        /* \"EtherTransfer.sol\":2078:2572  function withdraw(uint256 amount) public {... */\n    tag_38:\n        /* \"EtherTransfer.sol\":2161:2167  amount */\n      dup1\n        /* \"EtherTransfer.sol\":2137:2145  balances */\n      0x03\n        /* \"EtherTransfer.sol\":2137:2157  balances[msg.sender] */\n      0x00\n        /* \"EtherTransfer.sol\":2146:2156  msg.sender */\n      caller\n        /* \"EtherTransfer.sol\":2137:2157  balances[msg.sender] */\n      0xffffffffffffffffffffffffffffffffffffffff\n      and\n      0xffffffffffffffffffffffffffffffffffffffff\n      and\n      dup2\n      mstore\n      0x20\n      add\n      swap1\n      dup2\n      mstore\n      0x20\n      add\n      0x00\n      keccak256\n      sload\n        /* \"EtherTransfer.sol\":2137:2167  balances[msg.sender] >= amount */\n      lt\n      iszero\n        /* \"EtherTransfer.sol\":2129:2192  require(balances[msg.sender] >= amount, \"Insufficient balance\") */\n      tag_86\n      jumpi\n      mload(0x40)\n      0x08c379a000000000000000000000000000000000000000000000000000000000\n      dup2\n      mstore\n      0x04\n      add\n      tag_87\n      swap1\n      tag_77\n      jump\t// in\n    tag_87:\n      mload(0x40)\n      dup1\n      swap2\n      sub\n      swap1\n      revert\n    tag_86:\n        /* \"EtherTransfer.sol\":2235:2241  amount */\n      dup1\n        /* \"EtherTransfer.sol\":2210:2231  address(this).balance */\n      selfbalance\n        /* \"EtherTransfer.sol\":2210:2241  address(this).balance >= amount */\n      lt\n      iszero\n        /* \"EtherTransfer.sol\":2202:2277  require(address(this).balance >= amount, \"Contract has insufficient funds\") */\n      tag_88\n      jumpi\n      mload(0x40)\n      0x08c379a000000000000000000000000000000000000000000000000000000000\n      dup2\n      mstore\n      0x04\n      add\n      tag_89\n      swap1\n      tag_90\n      jump\t// in\n    tag_89:\n      mload(0x40)\n      dup1\n      swap2\n      sub\n      swap1\n      revert\n    tag_88:\n        /* \"EtherTransfer.sol\":2320:2326  amount */\n      dup1\n        /* \"EtherTransfer.sol\":2296:2304  balances */\n      0x03\n        /* \"EtherTransfer.sol\":2296:2316  balances[msg.sender] */\n      0x00\n        /* \"EtherTransfer.sol\":2305:2315  msg.sender */\n      caller\n        /* \"EtherTransfer.sol\":2296:2316  balances[msg.sender] */\n      0xffffffffffffffffffffffffffffffffffffffff\n      and\n      0xffffffffffffffffffffffffffffffffffffffff\n      and\n      dup2\n      mstore\n      0x20\n      add\n      swap1\n      dup2\n      mstore\n      0x20\n      add\n      0x00\n      keccak256\n      0x00\n        /* \"EtherTransfer.sol\":2296:2326  balances[msg.sender] -= amount */\n      dup3\n      dup3\n      sload\n      tag_91\n      swap2\n      swap1\n      tag_82\n      jump\t// in\n    tag_91:\n      swap3\n      pop\n      pop\n      dup2\n      swap1\n      sstore\n      pop\n        /* \"EtherTransfer.sol\":2356:2362  amount */\n      dup1\n        /* \"EtherTransfer.sol\":2336:2352  totalWithdrawals */\n      0x02\n      0x00\n        /* \"EtherTransfer.sol\":2336:2362  totalWithdrawals += amount */\n      dup3\n      dup3\n      sload\n      tag_92\n      swap2\n      swap1\n      tag_19\n      jump\t// in\n    tag_92:\n      swap3\n      pop\n      pop\n      dup2\n      swap1\n      sstore\n      pop\n        /* \"EtherTransfer.sol\":2414:2426  bool success */\n      0x00\n        /* \"EtherTransfer.sol\":2432:2442  msg.sender */\n      caller\n        /* \"EtherTransfer.sol\":2432:2447  msg.sender.call */\n      0xffffffffffffffffffffffffffffffffffffffff\n      and\n        /* \"EtherTransfer.sol\":2455:2461  amount */\n      dup3\n        /* \"EtherTransfer.sol\":2432:2466  msg.sender.call{value: amount}(\"\") */\n      mload(0x40)\n      tag_93\n      swap1\n      tag_94\n      jump\t// in\n    tag_93:\n      0x00\n      mload(0x40)\n      dup1\n      dup4\n      sub\n      dup2\n      dup6\n      dup8\n      gas\n      call\n      swap3\n      pop\n      pop\n      pop\n      returndatasize\n      dup1\n      0x00\n      dup2\n      eq\n      tag_97\n      jumpi\n      mload(0x40)\n      swap2\n      pop\n      and(add(returndatasize, 0x3f), not(0x1f))\n      dup3\n      add\n      0x40\n      mstore\n      returndatasize\n      dup3\n      mstore\n      returndatasize\n      0x00\n      0x20\n      dup5\n      add\n      returndatacopy\n      jump(tag_96)\n    tag_97:\n      0x60\n      swap2\n      pop\n    tag_96:\n      pop\n        /* \"EtherTransfer.sol\":2413:2466  (bool success, ) = msg.sender.call{value: amount}(\"\") */\n      pop\n      swap1\n      pop\n        /* \"EtherTransfer.sol\":2484:2491  success */\n      dup1\n        /* \"EtherTransfer.sol\":2476:2511  require(success, \"Transfer failed\") */\n      tag_98\n      jumpi\n      mload(0x40)\n      0x08c379a000000000000000000000000000000000000000000000000000000000\n      dup2\n      mstore\n      0x04\n      add\n      tag_99\n      swap1\n      tag_100\n      jump\t// in\n    tag_99:\n      mload(0x40)\n      dup1\n      swap2\n      sub\n      swap1\n      revert\n    tag_98:\n        /* \"EtherTransfer.sol\":2546:2556  msg.sender */\n      caller\n        /* \"EtherTransfer.sol\":2535:2565  Withdrawal(msg.sender, amount) */\n      0xffffffffffffffffffffffffffffffffffffffff\n      and\n      0x7fcf532c15f0a6db0bd6d0e038bea71d30d808c7d98cb3bf7268a95bf5081b65\n        /* \"EtherTransfer.sol\":2558:2564  amount */\n      dup4\n        /* \"EtherTransfer.sol\":2535:2565  Withdrawal(msg.sender, amount) */\n      mload(0x40)\n      tag_101\n      swap2\n      swap1\n      tag_22\n      jump\t// in\n    tag_101:\n      mload(0x40)\n      dup1\n      swap2\n      sub\n      swap1\n      log2\n        /* \"EtherTransfer.sol\":2119:2572  {... */\n      pop\n        /* \"EtherTransfer.sol\":2078:2572  function withdraw(uint256 amount) public {... */\n      pop\n      jump\t// out\n        /* \"EtherTransfer.sol\":3471:3879  function ownerWithdraw(uint256 amount) public {... */\n    tag_42:\n        /* \"EtherTransfer.sol\":3549:3554  owner */\n      0x00\n      0x00\n      swap1\n      sload\n      swap1\n      0x0100\n      exp\n      swap1\n      div\n      0xffffffffffffffffffffffffffffffffffffffff\n      and\n        /* \"EtherTransfer.sol\":3535:3554  msg.sender == owner */\n      0xffffffffffffffffffffffffffffffffffffffff\n      and\n        /* \"EtherTransfer.sol\":3535:3545  msg.sender */\n      caller\n        /* \"EtherTransfer.sol\":3535:3554  msg.sender == owner */\n      0xffffffffffffffffffffffffffffffffffffffff\n      and\n      eq\n        /* \"EtherTransfer.sol\":3527:3583  require(msg.sender == owner, \"Only owner can call this\") */\n      tag_103\n      jumpi\n      mload(0x40)\n      0x08c379a000000000000000000000000000000000000000000000000000000000\n      dup2\n      mstore\n      0x04\n      add\n      tag_104\n      swap1\n      tag_105\n      jump\t// in\n    tag_104:\n      mload(0x40)\n      dup1\n      swap2\n      sub\n      swap1\n      revert\n    tag_103:\n        /* \"EtherTransfer.sol\":3626:3632  amount */\n      dup1\n        /* \"EtherTransfer.sol\":3601:3622  address(this).balance */\n      selfbalance\n        /* \"EtherTransfer.sol\":3601:3632  address(this).balance >= amount */\n      lt\n      iszero\n        /* \"EtherTransfer.sol\":3593:3666  require(address(this).balance >= amount, \"Insufficient contract balance\") */\n      tag_106\n      jumpi\n      mload(0x40)\n      0x08c379a000000000000000000000000000000000000000000000000000000000\n      dup2\n      mstore\n      0x04\n      add\n      tag_107\n      swap1\n      tag_108\n      jump\t// in\n    tag_107:\n      mload(0x40)\n      dup1\n      swap2\n      sub\n      swap1\n      revert\n    tag_106:\n        /* \"EtherTransfer.sol\":3705:3711  amount */\n      dup1\n        /* \"EtherTransfer.sol\":3685:3701  totalWithdrawals */\n      0x02\n      0x00\n        /* \"EtherTransfer.sol\":3685:3711  totalWithdrawals += amount */\n      dup3\n      dup3\n      sload\n      tag_109\n      swap2\n      swap1\n      tag_19\n      jump\t// in\n    tag_109:\n      swap3\n      pop\n      pop\n      dup2\n      swap1\n      sstore\n      pop\n        /* \"EtherTransfer.sol\":3731:3743  bool success */\n      0x00\n        /* \"EtherTransfer.sol\":3749:3754  owner */\n      0x00\n      0x00\n      swap1\n      sload\n      swap1\n      0x0100\n      exp\n      swap1\n      div\n      0xffffffffffffffffffffffffffffffffffffffff\n      and\n        /* \"EtherTransfer.sol\":3749:3759  owner.call */\n      0xffffffffffffffffffffffffffffffffffffffff\n      and\n        /* \"EtherTransfer.sol\":3767:3773  amount */\n      dup3\n        /* \"EtherTransfer.sol\":3749:3778  owner.call{value: amount}(\"\") */\n      mload(0x40)\n      tag_110\n      swap1\n      tag_94\n      jump\t// in\n    tag_110:\n      0x00\n      mload(0x40)\n      dup1\n      dup4\n      sub\n      dup2\n      dup6\n      dup8\n      gas\n      call\n      swap3\n      pop\n      pop\n      pop\n      returndatasize\n      dup1\n      0x00\n      dup2\n      eq\n      tag_113\n      jumpi\n      mload(0x40)\n      swap2\n      pop\n      and(add(returndatasize, 0x3f), not(0x1f))\n      dup3\n      add\n      0x40\n      mstore\n      returndatasize\n      dup3\n      mstore\n      returndatasize\n      0x00\n      0x20\n      dup5\n      add\n      returndatacopy\n      jump(tag_112)\n    tag_113:\n      0x60\n      swap2\n      pop\n    tag_112:\n      pop\n        /* \"EtherTransfer.sol\":3730:3778  (bool success, ) = owner.call{value: amount}(\"\") */\n      pop\n      swap1\n      pop\n        /* \"EtherTransfer.sol\":3796:3803  success */\n      dup1\n        /* \"EtherTransfer.sol\":3788:3823  require(success, \"Transfer failed\") */\n      tag_114\n      jumpi\n      mload(0x40)\n      0x08c379a000000000000000000000000000000000000000000000000000000000\n      dup2\n      mstore\n      0x04\n      add\n      tag_115\n      swap1\n      tag_100\n      jump\t// in\n    tag_115:\n      mload(0x40)\n      dup1\n      swap2\n      sub\n      swap1\n      revert\n    tag_114:\n        /* \"EtherTransfer.sol\":3858:3863  owner */\n      0x00\n      0x00\n      swap1\n      sload\n      swap1\n      0x0100\n      exp\n      swap1\n      div\n      0xffffffffffffffffffffffffffffffffffffffff\n      and\n        /* \"EtherTransfer.sol\":3847:3872  Withdrawal(owner, amount) */\n      0xffffffffffffffffffffffffffffffffffffffff\n      and\n      0x7fcf532c15f0a6db0bd6d0e038bea71d30d808c7d98cb3bf7268a95bf5081b65\n        /* \"EtherTransfer.sol\":3865:3871  amount */\n      dup4\n        /* \"EtherTransfer.sol\":3847:3872  Withdrawal(owner, amount) */\n      mload(0x40)\n      tag_116\n      swap2\n      swap1\n      tag_22\n      jump\t// in\n    tag_116:\n      mload(0x40)\n      dup1\n      swap2\n      sub\n      swap1\n      log2\n        /* \"EtherTransfer.sol\":3517:3879  {... */\n      pop\n        /* \"EtherTransfer.sol\":3471:3879  function ownerWithdraw(uint256 amount) public {... */\n      pop\n      jump\t// out\n        /* \"EtherTransfer.sol\":1866:1972  function getUserBalance(address user) public view returns (uint256) {... */\n    tag_46:\n        /* \"EtherTransfer.sol\":1925:1932  uint256 */\n      0x00\n        /* \"EtherTransfer.sol\":1951:1959  balances */\n      0x03\n        /* \"EtherTransfer.sol\":1951:1965  balances[user] */\n      0x00\n        /* \"EtherTransfer.sol\":1960:1964  user */\n      dup4\n        /* \"EtherTransfer.sol\":1951:1965  balances[user] */\n      0xffffffffffffffffffffffffffffffffffffffff\n      and\n      0xffffffffffffffffffffffffffffffffffffffff\n      and\n      dup2\n      mstore\n      0x20\n      add\n      swap1\n      dup2\n      mstore\n      0x20\n      add\n      0x00\n      keccak256\n      sload\n        /* \"EtherTransfer.sol\":1944:1965  return balances[user] */\n      swap1\n      pop\n        /* \"EtherTransfer.sol\":1866:1972  function getUserBalance(address user) public view returns (uint256) {... */\n      swap2\n      swap1\n      pop\n      jump\t// out\n        /* \"EtherTransfer.sol\":376:407  uint256 public totalWithdrawals */\n    tag_50:\n      sload(0x02)\n      dup2\n      jump\t// out\n        /* \"EtherTransfer.sol\":1608:1713  function getContractBalance() public view returns (uint256) {... */\n    tag_54:\n        /* \"EtherTransfer.sol\":1659:1666  uint256 */\n      0x00\n        /* \"EtherTransfer.sol\":1685:1706  address(this).balance */\n      selfbalance\n        /* \"EtherTransfer.sol\":1678:1706  return address(this).balance */\n      swap1\n      pop\n        /* \"EtherTransfer.sol\":1608:1713  function getContractBalance() public view returns (uint256) {... */\n      swap1\n      jump\t// out\n        /* \"EtherTransfer.sol\":342:370  uint256 public totalDeposits */\n    tag_58:\n      sload(0x01)\n      dup2\n      jump\t// out\n        /* \"EtherTransfer.sol\":2641:2818  function withdrawAll() public {... */\n    tag_62:\n        /* \"EtherTransfer.sol\":2681:2696  uint256 balance */\n      0x00\n        /* \"EtherTransfer.sol\":2699:2707  balances */\n      0x03\n        /* \"EtherTransfer.sol\":2699:2719  balances[msg.sender] */\n      0x00\n        /* \"EtherTransfer.sol\":2708:2718  msg.sender */\n      caller\n        /* \"EtherTransfer.sol\":2699:2719  balances[msg.sender] */\n      0xffffffffffffffffffffffffffffffffffffffff\n      and\n      0xffffffffffffffffffffffffffffffffffffffff\n      and\n      dup2\n      mstore\n      0x20\n      add\n      swap1\n      dup2\n      mstore\n      0x20\n      add\n      0x00\n      keccak256\n      sload\n        /* \"EtherTransfer.sol\":2681:2719  uint256 balance = balances[msg.sender] */\n      swap1\n      pop\n        /* \"EtherTransfer.sol\":2747:2748  0 */\n      0x00\n        /* \"EtherTransfer.sol\":2737:2744  balance */\n      dup2\n        /* \"EtherTransfer.sol\":2737:2748  balance > 0 */\n      gt\n        /* \"EtherTransfer.sol\":2729:2775  require(balance > 0, \"No balance to withdraw\") */\n      tag_120\n      jumpi\n      mload(0x40)\n      0x08c379a000000000000000000000000000000000000000000000000000000000\n      dup2\n      mstore\n      0x04\n      add\n      tag_121\n      swap1\n      tag_122\n      jump\t// in\n    tag_121:\n      mload(0x40)\n      dup1\n      swap2\n      sub\n      swap1\n      revert\n    tag_120:\n        /* \"EtherTransfer.sol\":2794:2811  withdraw(balance) */\n      tag_123\n        /* \"EtherTransfer.sol\":2803:2810  balance */\n      dup2\n        /* \"EtherTransfer.sol\":2794:2802  withdraw */\n      tag_38\n        /* \"EtherTransfer.sol\":2794:2811  withdraw(balance) */\n      jump\t// in\n    tag_123:\n        /* \"EtherTransfer.sol\":2671:2818  {... */\n      pop\n        /* \"EtherTransfer.sol\":2641:2818  function withdrawAll() public {... */\n      jump\t// out\n        /* \"EtherTransfer.sol\":267:287  address public owner */\n    tag_65:\n      0x00\n      0x00\n      swap1\n      sload\n      swap1\n      0x0100\n      exp\n      swap1\n      div\n      0xffffffffffffffffffffffffffffffffffffffff\n      and\n      dup2\n      jump\t// out\n        /* \"EtherTransfer.sol\":4043:4411  function sendEther(address payable to, uint256 amount) public {... */\n    tag_71:\n        /* \"EtherTransfer.sol\":4137:4142  owner */\n      0x00\n      0x00\n      swap1\n      sload\n      swap1\n      0x0100\n      exp\n      swap1\n      div\n      0xffffffffffffffffffffffffffffffffffffffff\n      and\n        /* \"EtherTransfer.sol\":4123:4142  msg.sender == owner */\n      0xffffffffffffffffffffffffffffffffffffffff\n      and\n        /* \"EtherTransfer.sol\":4123:4133  msg.sender */\n      caller\n        /* \"EtherTransfer.sol\":4123:4142  msg.sender == owner */\n      0xffffffffffffffffffffffffffffffffffffffff\n      and\n      eq\n        /* \"EtherTransfer.sol\":4115:4166  require(msg.sender == owner, \"Only owner can send\") */\n      tag_125\n      jumpi\n      mload(0x40)\n      0x08c379a000000000000000000000000000000000000000000000000000000000\n      dup2\n      mstore\n      0x04\n      add\n      tag_126\n      swap1\n      tag_127\n      jump\t// in\n    tag_126:\n      mload(0x40)\n      dup1\n      swap2\n      sub\n      swap1\n      revert\n    tag_125:\n        /* \"EtherTransfer.sol\":4209:4215  amount */\n      dup1\n        /* \"EtherTransfer.sol\":4184:4205  address(this).balance */\n      selfbalance\n        /* \"EtherTransfer.sol\":4184:4215  address(this).balance >= amount */\n      lt\n      iszero\n        /* \"EtherTransfer.sol\":4176:4240  require(address(this).balance >= amount, \"Insufficient balance\") */\n      tag_128\n      jumpi\n      mload(0x40)\n      0x08c379a000000000000000000000000000000000000000000000000000000000\n      dup2\n      mstore\n      0x04\n      add\n      tag_129\n      swap1\n      tag_77\n      jump\t// in\n    tag_129:\n      mload(0x40)\n      dup1\n      swap2\n      sub\n      swap1\n      revert\n    tag_128:\n        /* \"EtherTransfer.sol\":4260:4272  bool success */\n      0x00\n        /* \"EtherTransfer.sol\":4278:4280  to */\n      dup3\n        /* \"EtherTransfer.sol\":4278:4285  to.call */\n      0xffffffffffffffffffffffffffffffffffffffff\n      and\n        /* \"EtherTransfer.sol\":4293:4299  amount */\n      dup3\n        /* \"EtherTransfer.sol\":4278:4304  to.call{value: amount}(\"\") */\n      mload(0x40)\n      tag_130\n      swap1\n      tag_94\n      jump\t// in\n    tag_130:\n      0x00\n      mload(0x40)\n      dup1\n      dup4\n      sub\n      dup2\n      dup6\n      dup8\n      gas\n      call\n      swap3\n      pop\n      pop\n      pop\n      returndatasize\n      dup1\n      0x00\n      dup2\n      eq\n      tag_133\n      jumpi\n      mload(0x40)\n      swap2\n      pop\n      and(add(returndatasize, 0x3f), not(0x1f))\n      dup3\n      add\n      0x40\n      mstore\n      returndatasize\n      dup3\n      mstore\n      returndatasize\n      0x00\n      0x20\n      dup5\n      add\n      returndatacopy\n      jump(tag_132)\n    tag_133:\n      0x60\n      swap2\n      pop\n    tag_132:\n      pop\n        /* \"EtherTransfer.sol\":4259:4304  (bool success, ) = to.call{value: amount}(\"\") */\n      pop\n      swap1\n      pop\n        /* \"EtherTransfer.sol\":4322:4329  success */\n      dup1\n        /* \"EtherTransfer.sol\":4314:4345  require(success, \"Send failed\") */\n      tag_134\n      jumpi\n      mload(0x40)\n      0x08c379a000000000000000000000000000000000000000000000000000000000\n      dup2\n      mstore\n      0x04\n      add\n      tag_135\n      swap1\n      tag_136\n      jump\t// in\n    tag_135:\n      mload(0x40)\n      dup1\n      swap2\n      sub\n      swap1\n      revert\n    tag_134:\n        /* \"EtherTransfer.sol\":4393:4395  to */\n      dup3\n        /* \"EtherTransfer.sol\":4369:4404  Transfer(address(this), to, amount) */\n      0xffffffffffffffffffffffffffffffffffffffff\n      and\n        /* \"EtherTransfer.sol\":4386:4390  this */\n      address\n        /* \"EtherTransfer.sol\":4369:4404  Transfer(address(this), to, amount) */\n      0xffffffffffffffffffffffffffffffffffffffff\n      and\n      0xddf252ad1be2c89b69c2b068fc378daa952ba7f163c4a11628f55a4df523b3ef\n        /* \"EtherTransfer.sol\":4397:4403  amount */\n      dup5\n        /* \"EtherTransfer.sol\":4369:4404  Transfer(address(this), to, amount) */\n      mload(0x40)\n      tag_137\n      swap2\n      swap1\n      tag_22\n      jump\t// in\n    tag_137:\n      mload(0x40)\n      dup1\n      swap2\n      sub\n      swap1\n      log3\n        /* \"EtherTransfer.sol\":4105:4411  {... */\n      pop\n        /* \"EtherTransfer.sol\":4043:4411  function sendEther(address payable to, uint256 amount) public {... */\n      pop\n      pop\n      jump\t// out\n        /* \"EtherTransfer.sol\":1270:1491  function deposit() public payable {... */\n    tag_73:\n        /* \"EtherTransfer.sol\":1334:1335  0 */\n      0x00\n        /* \"EtherTransfer.sol\":1322:1331  msg.value */\n      callvalue\n        /* \"EtherTransfer.sol\":1322:1335  msg.value > 0 */\n      gt\n        /* \"EtherTransfer.sol\":1314:1360  require(msg.value > 0, \"Must send some Ether\") */\n      tag_139\n      jumpi\n      mload(0x40)\n      0x08c379a000000000000000000000000000000000000000000000000000000000\n      dup2\n      mstore\n      0x04\n      add\n      tag_140\n      swap1\n      tag_141\n      jump\t// in\n    tag_140:\n      mload(0x40)\n      dup1\n      swap2\n      sub\n      swap1\n      revert\n    tag_139:\n        /* \"EtherTransfer.sol\":1394:1403  msg.value */\n      callvalue\n        /* \"EtherTransfer.sol\":1370:1378  balances */\n      0x03\n        /* \"EtherTransfer.sol\":1370:1390  balances[msg.sender] */\n      0x00\n        /* \"EtherTransfer.sol\":1379:1389  msg.sender */\n      caller\n        /* \"EtherTransfer.sol\":1370:1390  balances[msg.sender] */\n      0xffffffffffffffffffffffffffffffffffffffff\n      and\n      0xffffffffffffffffffffffffffffffffffffffff\n      and\n      dup2\n      mstore\n      0x20\n      add\n      swap1\n      dup2\n      mstore\n      0x20\n      add\n      0x00\n      keccak256\n      0x00\n        /* \"EtherTransfer.sol\":1370:1403  balances[msg.sender] += msg.value */\n      dup3\n      dup3\n      sload\n      tag_142\n      swap2\n      swap1\n      tag_19\n      jump\t// in\n    tag_142:\n      swap3\n      pop\n      pop\n      dup2\n      swap1\n      sstore\n      pop\n        /* \"EtherTransfer.sol\":1430:1439  msg.value */\n      callvalue\n        /* \"EtherTransfer.sol\":1413:1426  totalDeposits */\n      0x01\n      0x00\n        /* \"EtherTransfer.sol\":1413:1439  totalDeposits += msg.value */\n      dup3\n      dup3\n      sload\n      tag_143\n      swap2\n      swap1\n      tag_19\n      jump\t// in\n    tag_143:\n      swap3\n      pop\n      pop\n      dup2\n      swap1\n      sstore\n      pop\n        /* \"EtherTransfer.sol\":1462:1472  msg.sender */\n      caller\n        /* \"EtherTransfer.sol\":1454:1484  Deposit(msg.sender, msg.value) */\n      0xffffffffffffffffffffffffffffffffffffffff\n      and\n      0xe1fffcc4923d04b559f4d29a8bfc6cda04eb5b0d3c460751c2402c5c5cc9109c\n        /* \"EtherTransfer.sol\":1474:1483  msg.value */\n      callvalue\n        /* \"EtherTransfer.sol\":1454:1484  Deposit(msg.sender, msg.value) */\n      mload(0x40)\n      tag_144\n      swap2\n      swap1\n      tag_22\n      jump\t// in\n    tag_144:\n      mload(0x40)\n      dup1\n      swap2\n      sub\n      swap1\n      log2\n        /* \"EtherTransfer.sol\":1270:1491  function deposit() public payable {... */\n      jump\t// out\n        /* \"#utility.yul\":7:84   */\n    tag_145:\n        /* \"#utility.yul\":44:51   */\n      0x00\n        /* \"#utility.yul\":73:78   */\n      dup2\n        /* \"#utility.yul\":62:78   */\n      swap1\n      pop\n        /* \"#utility.yul\":7:84   */\n      swap2\n      swap1\n      pop\n      jump\t// out\n        /* \"#utility.yul\":90:270   */\n    tag_146:\n        /* \"#utility.yul\":138:215   */\n      0x4e487b7100000000000000000000000000000000000000000000000000000000\n        /* \"#utility.yul\":135:136   */\n      0x00\n        /* \"#utility.yul\":128:216   */\n      mstore\n        /* \"#utility.yul\":235:239   */\n      0x11\n        /* \"#utility.yul\":232:233   */\n      0x04\n        /* \"#utility.yul\":225:240   */\n      mstore\n        /* \"#utility.yul\":259:263   */\n      0x24\n        /* \"#utility.yul\":256:257   */\n      0x00\n        /* \"#utility.yul\":249:264   */\n      revert\n        /* \"#utility.yul\":276:467   */\n    tag_19:\n        /* \"#utility.yul\":316:319   */\n      0x00\n        /* \"#utility.yul\":335:355   */\n      tag_189\n        /* \"#utility.yul\":353:354   */\n      dup3\n        /* \"#utility.yul\":335:355   */\n      tag_145\n      jump\t// in\n    tag_189:\n        /* \"#utility.yul\":330:355   */\n      swap2\n      pop\n        /* \"#utility.yul\":369:389   */\n      tag_190\n        /* \"#utility.yul\":387:388   */\n      dup4\n        /* \"#utility.yul\":369:389   */\n      tag_145\n      jump\t// in\n    tag_190:\n        /* \"#utility.yul\":364:389   */\n      swap3\n      pop\n        /* \"#utility.yul\":412:413   */\n      dup3\n        /* \"#utility.yul\":409:410   */\n      dup3\n        /* \"#utility.yul\":405:414   */\n      add\n        /* \"#utility.yul\":398:414   */\n      swap1\n      pop\n        /* \"#utility.yul\":433:436   */\n      dup1\n        /* \"#utility.yul\":430:431   */\n      dup3\n        /* \"#utility.yul\":427:437   */\n      gt\n        /* \"#utility.yul\":424:460   */\n      iszero\n      tag_191\n      jumpi\n        /* \"#utility.yul\":440:458   */\n      tag_192\n      tag_146\n      jump\t// in\n    tag_192:\n        /* \"#utility.yul\":424:460   */\n    tag_191:\n        /* \"#utility.yul\":276:467   */\n      swap3\n      swap2\n      pop\n      pop\n      jump\t// out\n        /* \"#utility.yul\":473:591   */\n    tag_147:\n        /* \"#utility.yul\":560:584   */\n      tag_194\n        /* \"#utility.yul\":578:583   */\n      dup2\n        /* \"#utility.yul\":560:584   */\n      tag_145\n      jump\t// in\n    tag_194:\n        /* \"#utility.yul\":555:558   */\n      dup3\n        /* \"#utility.yul\":548:585   */\n      mstore\n        /* \"#utility.yul\":473:591   */\n      pop\n      pop\n      jump\t// out\n        /* \"#utility.yul\":597:819   */\n    tag_22:\n        /* \"#utility.yul\":690:694   */\n      0x00\n        /* \"#utility.yul\":728:730   */\n      0x20\n        /* \"#utility.yul\":717:726   */\n      dup3\n        /* \"#utility.yul\":713:731   */\n      add\n        /* \"#utility.yul\":705:731   */\n      swap1\n      pop\n        /* \"#utility.yul\":741:812   */\n      tag_196\n        /* \"#utility.yul\":809:810   */\n      0x00\n        /* \"#utility.yul\":798:807   */\n      dup4\n        /* \"#utility.yul\":794:811   */\n      add\n        /* \"#utility.yul\":785:791   */\n      dup5\n        /* \"#utility.yul\":741:812   */\n      tag_147\n      jump\t// in\n    tag_196:\n        /* \"#utility.yul\":597:819   */\n      swap3\n      swap2\n      pop\n      pop\n      jump\t// out\n        /* \"#utility.yul\":906:1023   */\n    tag_149:\n        /* \"#utility.yul\":1015:1016   */\n      0x00\n        /* \"#utility.yul\":1012:1013   */\n      0x00\n        /* \"#utility.yul\":1005:1017   */\n      revert\n        /* \"#utility.yul\":1152:1278   */\n    tag_151:\n        /* \"#utility.yul\":1189:1196   */\n      0x00\n        /* \"#utility.yul\":1229:1271   */\n      0xffffffffffffffffffffffffffffffffffffffff\n        /* \"#utility.yul\":1222:1227   */\n      dup3\n        /* \"#utility.yul\":1218:1272   */\n      and\n        /* \"#utility.yul\":1207:1272   */\n      swap1\n      pop\n        /* \"#utility.yul\":1152:1278   */\n      swap2\n      swap1\n      pop\n      jump\t// out\n        /* \"#utility.yul\":1284:1380   */\n    tag_152:\n        /* \"#utility.yul\":1321:1328   */\n      0x00\n        /* \"#utility.yul\":1350:1374   */\n      tag_202\n        /* \"#utility.yul\":1368:1373   */\n      dup3\n        /* \"#utility.yul\":1350:1374   */\n      tag_151\n      jump\t// in\n    tag_202:\n        /* \"#utility.yul\":1339:1374   */\n      swap1\n      pop\n        /* \"#utility.yul\":1284:1380   */\n      swap2\n      swap1\n      pop\n      jump\t// out\n        /* \"#utility.yul\":1386:1508   */\n    tag_153:\n        /* \"#utility.yul\":1459:1483   */\n      tag_204\n        /* \"#utility.yul\":1477:1482   */\n      dup2\n        /* \"#utility.yul\":1459:1483   */\n      tag_152\n      jump\t// in\n    tag_204:\n        /* \"#utility.yul\":1452:1457   */\n      dup2\n        /* \"#utility.yul\":1449:1484   */\n      eq\n        /* \"#utility.yul\":1439:1502   */\n      tag_205\n      jumpi\n        /* \"#utility.yul\":1498:1499   */\n      0x00\n        /* \"#utility.yul\":1495:1496   */\n      0x00\n        /* \"#utility.yul\":1488:1500   */\n      revert\n        /* \"#utility.yul\":1439:1502   */\n    tag_205:\n        /* \"#utility.yul\":1386:1508   */\n      pop\n      jump\t// out\n        /* \"#utility.yul\":1514:1653   */\n    tag_154:\n        /* \"#utility.yul\":1560:1565   */\n      0x00\n        /* \"#utility.yul\":1598:1604   */\n      dup2\n        /* \"#utility.yul\":1585:1605   */\n      calldataload\n        /* \"#utility.yul\":1576:1605   */\n      swap1\n      pop\n        /* \"#utility.yul\":1614:1647   */\n      tag_207\n        /* \"#utility.yul\":1641:1646   */\n      dup2\n        /* \"#utility.yul\":1614:1647   */\n      tag_153\n      jump\t// in\n    tag_207:\n        /* \"#utility.yul\":1514:1653   */\n      swap3\n      swap2\n      pop\n      pop\n      jump\t// out\n        /* \"#utility.yul\":1659:1988   */\n    tag_26:\n        /* \"#utility.yul\":1718:1724   */\n      0x00\n        /* \"#utility.yul\":1767:1769   */\n      0x20\n        /* \"#utility.yul\":1755:1764   */\n      dup3\n        /* \"#utility.yul\":1746:1753   */\n      dup5\n        /* \"#utility.yul\":1742:1765   */\n      sub\n        /* \"#utility.yul\":1738:1770   */\n      slt\n        /* \"#utility.yul\":1735:1854   */\n      iszero\n      tag_209\n      jumpi\n        /* \"#utility.yul\":1773:1852   */\n      tag_210\n      tag_149\n      jump\t// in\n    tag_210:\n        /* \"#utility.yul\":1735:1854   */\n    tag_209:\n        /* \"#utility.yul\":1893:1894   */\n      0x00\n        /* \"#utility.yul\":1918:1971   */\n      tag_211\n        /* \"#utility.yul\":1963:1970   */\n      dup5\n        /* \"#utility.yul\":1954:1960   */\n      dup3\n        /* \"#utility.yul\":1943:1952   */\n      dup6\n        /* \"#utility.yul\":1939:1961   */\n      add\n        /* \"#utility.yul\":1918:1971   */\n      tag_154\n      jump\t// in\n    tag_211:\n        /* \"#utility.yul\":1908:1971   */\n      swap2\n      pop\n        /* \"#utility.yul\":1864:1981   */\n      pop\n        /* \"#utility.yul\":1659:1988   */\n      swap3\n      swap2\n      pop\n      pop\n      jump\t// out\n        /* \"#utility.yul\":1994:2098   */\n    tag_155:\n        /* \"#utility.yul\":2039:2046   */\n      0x00\n        /* \"#utility.yul\":2068:2092   */\n      tag_213\n        /* \"#utility.yul\":2086:2091   */\n      dup3\n        /* \"#utility.yul\":2068:2092   */\n      tag_151\n      jump\t// in\n    tag_213:\n        /* \"#utility.yul\":2057:2092   */\n      swap1\n      pop\n        /* \"#utility.yul\":1994:2098   */\n      swap2\n      swap1\n      pop\n      jump\t// out\n        /* \"#utility.yul\":2104:2242   */\n    tag_156:\n        /* \"#utility.yul\":2185:2217   */\n      tag_215\n        /* \"#utility.yul\":2211:2216   */\n      dup2\n        /* \"#utility.yul\":2185:2217   */\n      tag_155\n      jump\t// in\n    tag_215:\n        /* \"#utility.yul\":2178:2183   */\n      dup2\n        /* \"#utility.yul\":2175:2218   */\n      eq\n        /* \"#utility.yul\":2165:2236   */\n      tag_216\n      jumpi\n        /* \"#utility.yul\":2232:2233   */\n      0x00\n        /* \"#utility.yul\":2229:2230   */\n      0x00\n        /* \"#utility.yul\":2222:2234   */\n      revert\n        /* \"#utility.yul\":2165:2236   */\n    tag_216:\n        /* \"#utility.yul\":2104:2242   */\n      pop\n      jump\t// out\n        /* \"#utility.yul\":2248:2403   */\n    tag_157:\n        /* \"#utility.yul\":2302:2307   */\n      0x00\n        /* \"#utility.yul\":2340:2346   */\n      dup2\n        /* \"#utility.yul\":2327:2347   */\n      calldataload\n        /* \"#utility.yul\":2318:2347   */\n      swap1\n      pop\n        /* \"#utility.yul\":2356:2397   */\n      tag_218\n        /* \"#utility.yul\":2391:2396   */\n      dup2\n        /* \"#utility.yul\":2356:2397   */\n      tag_156\n      jump\t// in\n    tag_218:\n        /* \"#utility.yul\":2248:2403   */\n      swap3\n      swap2\n      pop\n      pop\n      jump\t// out\n        /* \"#utility.yul\":2409:2531   */\n    tag_158:\n        /* \"#utility.yul\":2482:2506   */\n      tag_220\n        /* \"#utility.yul\":2500:2505   */\n      dup2\n        /* \"#utility.yul\":2482:2506   */\n      tag_145\n      jump\t// in\n    tag_220:\n        /* \"#utility.yul\":2475:2480   */\n      dup2\n        /* \"#utility.yul\":2472:2507   */\n      eq\n        /* \"#utility.yul\":2462:2525   */\n      tag_221\n      jumpi\n        /* \"#utility.yul\":2521:2522   */\n      0x00\n        /* \"#utility.yul\":2518:2519   */\n      0x00\n        /* \"#utility.yul\":2511:2523   */\n      revert\n        /* \"#utility.yul\":2462:2525   */\n    tag_221:\n        /* \"#utility.yul\":2409:2531   */\n      pop\n      jump\t// out\n        /* \"#utility.yul\":2537:2676   */\n    tag_159:\n        /* \"#utility.yul\":2583:2588   */\n      0x00\n        /* \"#utility.yul\":2621:2627   */\n      dup2\n        /* \"#utility.yul\":2608:2628   */\n      calldataload\n        /* \"#utility.yul\":2599:2628   */\n      swap1\n      pop\n        /* \"#utility.yul\":2637:2670   */\n      tag_223\n        /* \"#utility.yul\":2664:2669   */\n      dup2\n        /* \"#utility.yul\":2637:2670   */\n      tag_158\n      jump\t// in\n    tag_223:\n        /* \"#utility.yul\":2537:2676   */\n      swap3\n      swap2\n      pop\n      pop\n      jump\t// out\n        /* \"#utility.yul\":2682:3172   */\n    tag_32:\n        /* \"#utility.yul\":2758:2764   */\n      0x00\n        /* \"#utility.yul\":2766:2772   */\n      0x00\n        /* \"#utility.yul\":2815:2817   */\n      0x40\n        /* \"#utility.yul\":2803:2812   */\n      dup4\n        /* \"#utility.yul\":2794:2801   */\n      dup6\n        /* \"#utility.yul\":2790:2813   */\n      sub\n        /* \"#utility.yul\":2786:2818   */\n      slt\n        /* \"#utility.yul\":2783:2902   */\n      iszero\n      tag_225\n      jumpi\n        /* \"#utility.yul\":2821:2900   */\n      tag_226\n      tag_149\n      jump\t// in\n    tag_226:\n        /* \"#utility.yul\":2783:2902   */\n    tag_225:\n        /* \"#utility.yul\":2941:2942   */\n      0x00\n        /* \"#utility.yul\":2966:3027   */\n      tag_227\n        /* \"#utility.yul\":3019:3026   */\n      dup6\n        /* \"#utility.yul\":3010:3016   */\n      dup3\n        /* \"#utility.yul\":2999:3008   */\n      dup7\n        /* \"#utility.yul\":2995:3017   */\n      add\n        /* \"#utility.yul\":2966:3027   */\n      tag_157\n      jump\t// in\n    tag_227:\n        /* \"#utility.yul\":2956:3027   */\n      swap3\n      pop\n        /* \"#utility.yul\":2912:3037   */\n      pop\n        /* \"#utility.yul\":3076:3078   */\n      0x20\n        /* \"#utility.yul\":3102:3155   */\n      tag_228\n        /* \"#utility.yul\":3147:3154   */\n      dup6\n        /* \"#utility.yul\":3138:3144   */\n      dup3\n        /* \"#utility.yul\":3127:3136   */\n      dup7\n        /* \"#utility.yul\":3123:3145   */\n      add\n        /* \"#utility.yul\":3102:3155   */\n      tag_159\n      jump\t// in\n    tag_228:\n        /* \"#utility.yul\":3092:3155   */\n      swap2\n      pop\n        /* \"#utility.yul\":3047:3165   */\n      pop\n        /* \"#utility.yul\":2682:3172   */\n      swap3\n      pop\n      swap3\n      swap1\n      pop\n      jump\t// out\n        /* \"#utility.yul\":3178:3507   */\n    tag_37:\n        /* \"#utility.yul\":3237:3243   */\n      0x00\n        /* \"#utility.yul\":3286:3288   */\n      0x20\n        /* \"#utility.yul\":3274:3283   */\n      dup3\n        /* \"#utility.yul\":3265:3272   */\n      dup5\n        /* \"#utility.yul\":3261:3284   */\n      sub\n        /* \"#utility.yul\":3257:3289   */\n      slt\n        /* \"#utility.yul\":3254:3373   */\n      iszero\n      tag_230\n      jumpi\n        /* \"#utility.yul\":3292:3371   */\n      tag_231\n      tag_149\n      jump\t// in\n    tag_231:\n        /* \"#utility.yul\":3254:3373   */\n    tag_230:\n        /* \"#utility.yul\":3412:3413   */\n      0x00\n        /* \"#utility.yul\":3437:3490   */\n      tag_232\n        /* \"#utility.yul\":3482:3489   */\n      dup5\n        /* \"#utility.yul\":3473:3479   */\n      dup3\n        /* \"#utility.yul\":3462:3471   */\n      dup6\n        /* \"#utility.yul\":3458:3480   */\n      add\n        /* \"#utility.yul\":3437:3490   */\n      tag_159\n      jump\t// in\n    tag_232:\n        /* \"#utility.yul\":3427:3490   */\n      swap2\n      pop\n        /* \"#utility.yul\":3383:3500   */\n      pop\n        /* \"#utility.yul\":3178:3507   */\n      swap3\n      swap2\n      pop\n      pop\n      jump\t// out\n        /* \"#utility.yul\":3513:3631   */\n    tag_160:\n        /* \"#utility.yul\":3600:3624   */\n      tag_234\n        /* \"#utility.yul\":3618:3623   */\n      dup2\n        /* \"#utility.yul\":3600:3624   */\n      tag_152\n      jump\t// in\n    tag_234:\n        /* \"#utility.yul\":3595:3598   */\n      dup3\n        /* \"#utility.yul\":3588:3625   */\n      mstore\n        /* \"#utility.yul\":3513:3631   */\n      pop\n      pop\n      jump\t// out\n        /* \"#utility.yul\":3637:3859   */\n    tag_67:\n        /* \"#utility.yul\":3730:3734   */\n      0x00\n        /* \"#utility.yul\":3768:3770   */\n      0x20\n        /* \"#utility.yul\":3757:3766   */\n      dup3\n        /* \"#utility.yul\":3753:3771   */\n      add\n        /* \"#utility.yul\":3745:3771   */\n      swap1\n      pop\n        /* \"#utility.yul\":3781:3852   */\n      tag_236\n        /* \"#utility.yul\":3849:3850   */\n      0x00\n        /* \"#utility.yul\":3838:3847   */\n      dup4\n        /* \"#utility.yul\":3834:3851   */\n      add\n        /* \"#utility.yul\":3825:3831   */\n      dup5\n        /* \"#utility.yul\":3781:3852   */\n      tag_160\n      jump\t// in\n    tag_236:\n        /* \"#utility.yul\":3637:3859   */\n      swap3\n      swap2\n      pop\n      pop\n      jump\t// out\n        /* \"#utility.yul\":3865:4034   */\n    tag_161:\n        /* \"#utility.yul\":3949:3960   */\n      0x00\n        /* \"#utility.yul\":3983:3989   */\n      dup3\n        /* \"#utility.yul\":3978:3981   */\n      dup3\n        /* \"#utility.yul\":3971:3990   */\n      mstore\n        /* \"#utility.yul\":4023:4027   */\n      0x20\n        /* \"#utility.yul\":4018:4021   */\n      dup3\n        /* \"#utility.yul\":4014:4028   */\n      add\n        /* \"#utility.yul\":3999:4028   */\n      swap1\n      pop\n        /* \"#utility.yul\":3865:4034   */\n      swap3\n      swap2\n      pop\n      pop\n      jump\t// out\n        /* \"#utility.yul\":4040:4210   */\n    tag_162:\n        /* \"#utility.yul\":4180:4202   */\n      0x496e73756666696369656e742062616c616e6365000000000000000000000000\n        /* \"#utility.yul\":4176:4177   */\n      0x00\n        /* \"#utility.yul\":4168:4174   */\n      dup3\n        /* \"#utility.yul\":4164:4178   */\n      add\n        /* \"#utility.yul\":4157:4203   */\n      mstore\n        /* \"#utility.yul\":4040:4210   */\n      pop\n      jump\t// out\n        /* \"#utility.yul\":4216:4582   */\n    tag_163:\n        /* \"#utility.yul\":4358:4361   */\n      0x00\n        /* \"#utility.yul\":4379:4446   */\n      tag_240\n        /* \"#utility.yul\":4443:4445   */\n      0x14\n        /* \"#utility.yul\":4438:4441   */\n      dup4\n        /* \"#utility.yul\":4379:4446   */\n      tag_161\n      jump\t// in\n    tag_240:\n        /* \"#utility.yul\":4372:4446   */\n      swap2\n      pop\n        /* \"#utility.yul\":4455:4548   */\n      tag_241\n        /* \"#utility.yul\":4544:4547   */\n      dup3\n        /* \"#utility.yul\":4455:4548   */\n      tag_162\n      jump\t// in\n    tag_241:\n        /* \"#utility.yul\":4573:4575   */\n      0x20\n        /* \"#utility.yul\":4568:4571   */\n      dup3\n        /* \"#utility.yul\":4564:4576   */\n      add\n        /* \"#utility.yul\":4557:4576   */\n      swap1\n      pop\n        /* \"#utility.yul\":4216:4582   */\n      swap2\n      swap1\n      pop\n      jump\t// out\n        /* \"#utility.yul\":4588:5007   */\n    tag_77:\n        /* \"#utility.yul\":4754:4758   */\n      0x00\n        /* \"#utility.yul\":4792:4794   */\n      0x20\n        /* \"#utility.yul\":4781:4790   */\n      dup3\n        /* \"#utility.yul\":4777:4795   */\n      add\n        /* \"#utility.yul\":4769:4795   */\n      swap1\n      pop\n        /* \"#utility.yul\":4841:4850   */\n      dup2\n        /* \"#utility.yul\":4835:4839   */\n      dup2\n        /* \"#utility.yul\":4831:4851   */\n      sub\n        /* \"#utility.yul\":4827:4828   */\n      0x00\n        /* \"#utility.yul\":4816:4825   */\n      dup4\n        /* \"#utility.yul\":4812:4829   */\n      add\n        /* \"#utility.yul\":4805:4852   */\n      mstore\n        /* \"#utility.yul\":4869:5000   */\n      tag_243\n        /* \"#utility.yul\":4995:4999   */\n      dup2\n        /* \"#utility.yul\":4869:5000   */\n      tag_163\n      jump\t// in\n    tag_243:\n        /* \"#utility.yul\":4861:5000   */\n      swap1\n      pop\n        /* \"#utility.yul\":4588:5007   */\n      swap2\n      swap1\n      pop\n      jump\t// out\n        /* \"#utility.yul\":5013:5194   */\n    tag_164:\n        /* \"#utility.yul\":5153:5186   */\n      0x43616e6e6f74207472616e7366657220746f207a65726f206164647265737300\n        /* \"#utility.yul\":5149:5150   */\n      0x00\n        /* \"#utility.yul\":5141:5147   */\n      dup3\n        /* \"#utility.yul\":5137:5151   */\n      add\n        /* \"#utility.yul\":5130:5187   */\n      mstore\n        /* \"#utility.yul\":5013:5194   */\n      pop\n      jump\t// out\n        /* \"#utility.yul\":5200:5566   */\n    tag_165:\n        /* \"#utility.yul\":5342:5345   */\n      0x00\n        /* \"#utility.yul\":5363:5430   */\n      tag_246\n        /* \"#utility.yul\":5427:5429   */\n      0x1f\n        /* \"#utility.yul\":5422:5425   */\n      dup4\n        /* \"#utility.yul\":5363:5430   */\n      tag_161\n      jump\t// in\n    tag_246:\n        /* \"#utility.yul\":5356:5430   */\n      swap2\n      pop\n        /* \"#utility.yul\":5439:5532   */\n      tag_247\n        /* \"#utility.yul\":5528:5531   */\n      dup3\n        /* \"#utility.yul\":5439:5532   */\n      tag_164\n      jump\t// in\n    tag_247:\n        /* \"#utility.yul\":5557:5559   */\n      0x20\n        /* \"#utility.yul\":5552:5555   */\n      dup3\n        /* \"#utility.yul\":5548:5560   */\n      add\n        /* \"#utility.yul\":5541:5560   */\n      swap1\n      pop\n        /* \"#utility.yul\":5200:5566   */\n      swap2\n      swap1\n      pop\n      jump\t// out\n        /* \"#utility.yul\":5572:5991   */\n    tag_80:\n        /* \"#utility.yul\":5738:5742   */\n      0x00\n        /* \"#utility.yul\":5776:5778   */\n      0x20\n        /* \"#utility.yul\":5765:5774   */\n      dup3\n        /* \"#utility.yul\":5761:5779   */\n      add\n        /* \"#utility.yul\":5753:5779   */\n      swap1\n      pop\n        /* \"#utility.yul\":5825:5834   */\n      dup2\n        /* \"#utility.yul\":5819:5823   */\n      dup2\n        /* \"#utility.yul\":5815:5835   */\n      sub\n        /* \"#utility.yul\":5811:5812   */\n      0x00\n        /* \"#utility.yul\":5800:5809   */\n      dup4\n        /* \"#utility.yul\":5796:5813   */\n      add\n        /* \"#utility.yul\":5789:5836   */\n      mstore\n        /* \"#utility.yul\":5853:5984   */\n      tag_249\n        /* \"#utility.yul\":5979:5983   */\n      dup2\n        /* \"#utility.yul\":5853:5984   */\n      tag_165\n      jump\t// in\n    tag_249:\n        /* \"#utility.yul\":5845:5984   */\n      swap1\n      pop\n        /* \"#utility.yul\":5572:5991   */\n      swap2\n      swap1\n      pop\n      jump\t// out\n        /* \"#utility.yul\":5997:6191   */\n    tag_82:\n        /* \"#utility.yul\":6037:6041   */\n      0x00\n        /* \"#utility.yul\":6057:6077   */\n      tag_251\n        /* \"#utility.yul\":6075:6076   */\n      dup3\n        /* \"#utility.yul\":6057:6077   */\n      tag_145\n      jump\t// in\n    tag_251:\n        /* \"#utility.yul\":6052:6077   */\n      swap2\n      pop\n        /* \"#utility.yul\":6091:6111   */\n      tag_252\n        /* \"#utility.yul\":6109:6110   */\n      dup4\n        /* \"#utility.yul\":6091:6111   */\n      tag_145\n      jump\t// in\n    tag_252:\n        /* \"#utility.yul\":6086:6111   */\n      swap3\n      pop\n        /* \"#utility.yul\":6135:6136   */\n      dup3\n        /* \"#utility.yul\":6132:6133   */\n      dup3\n        /* \"#utility.yul\":6128:6137   */\n      sub\n        /* \"#utility.yul\":6120:6137   */\n      swap1\n      pop\n        /* \"#utility.yul\":6159:6160   */\n      dup2\n        /* \"#utility.yul\":6153:6157   */\n      dup2\n        /* \"#utility.yul\":6150:6161   */\n      gt\n        /* \"#utility.yul\":6147:6184   */\n      iszero\n      tag_253\n      jumpi\n        /* \"#utility.yul\":6164:6182   */\n      tag_254\n      tag_146\n      jump\t// in\n    tag_254:\n        /* \"#utility.yul\":6147:6184   */\n    tag_253:\n        /* \"#utility.yul\":5997:6191   */\n      swap3\n      swap2\n      pop\n      pop\n      jump\t// out\n        /* \"#utility.yul\":6197:6378   */\n    tag_166:\n        /* \"#utility.yul\":6337:6370   */\n      0x436f6e74726163742068617320696e73756666696369656e742066756e647300\n        /* \"#utility.yul\":6333:6334   */\n      0x00\n        /* \"#utility.yul\":6325:6331   */\n      dup3\n        /* \"#utility.yul\":6321:6335   */\n      add\n        /* \"#utility.yul\":6314:6371   */\n      mstore\n        /* \"#utility.yul\":6197:6378   */\n      pop\n      jump\t// out\n        /* \"#utility.yul\":6384:6750   */\n    tag_167:\n        /* \"#utility.yul\":6526:6529   */\n      0x00\n        /* \"#utility.yul\":6547:6614   */\n      tag_257\n        /* \"#utility.yul\":6611:6613   */\n      0x1f\n        /* \"#utility.yul\":6606:6609   */\n      dup4\n        /* \"#utility.yul\":6547:6614   */\n      tag_161\n      jump\t// in\n    tag_257:\n        /* \"#utility.yul\":6540:6614   */\n      swap2\n      pop\n        /* \"#utility.yul\":6623:6716   */\n      tag_258\n        /* \"#utility.yul\":6712:6715   */\n      dup3\n        /* \"#utility.yul\":6623:6716   */\n      tag_166\n      jump\t// in\n    tag_258:\n        /* \"#utility.yul\":6741:6743   */\n      0x20\n        /* \"#utility.yul\":6736:6739   */\n      dup3\n        /* \"#utility.yul\":6732:6744   */\n      add\n        /* \"#utility.yul\":6725:6744   */\n      swap1\n      pop\n        /* \"#utility.yul\":6384:6750   */\n      swap2\n      swap1\n      pop\n      jump\t// out\n        /* \"#utility.yul\":6756:7175   */\n    tag_90:\n        /* \"#utility.yul\":6922:6926   */\n      0x00\n        /* \"#utility.yul\":6960:6962   */\n      0x20\n        /* \"#utility.yul\":6949:6958   */\n      dup3\n        /* \"#utility.yul\":6945:6963   */\n      add\n        /* \"#utility.yul\":6937:6963   */\n      swap1\n      pop\n        /* \"#utility.yul\":7009:7018   */\n      dup2\n        /* \"#utility.yul\":7003:7007   */\n      dup2\n        /* \"#utility.yul\":6999:7019   */\n      sub\n        /* \"#utility.yul\":6995:6996   */\n      0x00\n        /* \"#utility.yul\":6984:6993   */\n      dup4\n        /* \"#utility.yul\":6980:6997   */\n      add\n        /* \"#utility.yul\":6973:7020   */\n      mstore\n        /* \"#utility.yul\":7037:7168   */\n      tag_260\n        /* \"#utility.yul\":7163:7167   */\n      dup2\n        /* \"#utility.yul\":7037:7168   */\n      tag_167\n      jump\t// in\n    tag_260:\n        /* \"#utility.yul\":7029:7168   */\n      swap1\n      pop\n        /* \"#utility.yul\":6756:7175   */\n      swap2\n      swap1\n      pop\n      jump\t// out\n        /* \"#utility.yul\":7181:7328   */\n    tag_168:\n        /* \"#utility.yul\":7282:7293   */\n      0x00\n        /* \"#utility.yul\":7319:7322   */\n      dup2\n        /* \"#utility.yul\":7304:7322   */\n      swap1\n      pop\n        /* \"#utility.yul\":7181:7328   */\n      swap3\n      swap2\n      pop\n      pop\n      jump\t// out\n        /* \"#utility.yul\":7334:7448   */\n    tag_169:\n      pop\n      jump\t// out\n        /* \"#utility.yul\":7454:7852   */\n    tag_170:\n        /* \"#utility.yul\":7613:7616   */\n      0x00\n        /* \"#utility.yul\":7634:7717   */\n      tag_264\n        /* \"#utility.yul\":7715:7716   */\n      0x00\n        /* \"#utility.yul\":7710:7713   */\n      dup4\n        /* \"#utility.yul\":7634:7717   */\n      tag_168\n      jump\t// in\n    tag_264:\n        /* \"#utility.yul\":7627:7717   */\n      swap2\n      pop\n        /* \"#utility.yul\":7726:7819   */\n      tag_265\n        /* \"#utility.yul\":7815:7818   */\n      dup3\n        /* \"#utility.yul\":7726:7819   */\n      tag_169\n      jump\t// in\n    tag_265:\n        /* \"#utility.yul\":7844:7845   */\n      0x00\n        /* \"#utility.yul\":7839:7842   */\n      dup3\n        /* \"#utility.yul\":7835:7846   */\n      add\n        /* \"#utility.yul\":7828:7846   */\n      swap1\n      pop\n        /* \"#utility.yul\":7454:7852   */\n      swap2\n      swap1\n      pop\n      jump\t// out\n        /* \"#utility.yul\":7858:8237   */\n    tag_94:\n        /* \"#utility.yul\":8042:8045   */\n      0x00\n        /* \"#utility.yul\":8064:8211   */\n      tag_267\n        /* \"#utility.yul\":8207:8210   */\n      dup3\n        /* \"#utility.yul\":8064:8211   */\n      tag_170\n      jump\t// in\n    tag_267:\n        /* \"#utility.yul\":8057:8211   */\n      swap2\n      pop\n        /* \"#utility.yul\":8228:8231   */\n      dup2\n        /* \"#utility.yul\":8221:8231   */\n      swap1\n      pop\n        /* \"#utility.yul\":7858:8237   */\n      swap2\n      swap1\n      pop\n      jump\t// out\n        /* \"#utility.yul\":8243:8408   */\n    tag_171:\n        /* \"#utility.yul\":8383:8400   */\n      0x5472616e73666572206661696c65640000000000000000000000000000000000\n        /* \"#utility.yul\":8379:8380   */\n      0x00\n        /* \"#utility.yul\":8371:8377   */\n      dup3\n        /* \"#utility.yul\":8367:8381   */\n      add\n        /* \"#utility.yul\":8360:8401   */\n      mstore\n        /* \"#utility.yul\":8243:8408   */\n      pop\n      jump\t// out\n        /* \"#utility.yul\":8414:8780   */\n    tag_172:\n        /* \"#utility.yul\":8556:8559   */\n      0x00\n        /* \"#utility.yul\":8577:8644   */\n      tag_270\n        /* \"#utility.yul\":8641:8643   */\n      0x0f\n        /* \"#utility.yul\":8636:8639   */\n      dup4\n        /* \"#utility.yul\":8577:8644   */\n      tag_161\n      jump\t// in\n    tag_270:\n        /* \"#utility.yul\":8570:8644   */\n      swap2\n      pop\n        /* \"#utility.yul\":8653:8746   */\n      tag_271\n        /* \"#utility.yul\":8742:8745   */\n      dup3\n        /* \"#utility.yul\":8653:8746   */\n      tag_171\n      jump\t// in\n    tag_271:\n        /* \"#utility.yul\":8771:8773   */\n      0x20\n        /* \"#utility.yul\":8766:8769   */\n      dup3\n        /* \"#utility.yul\":8762:8774   */\n      add\n        /* \"#utility.yul\":8755:8774   */\n      swap1\n      pop\n        /* \"#utility.yul\":8414:8780   */\n      swap2\n      swap1\n      pop\n      jump\t// out\n        /* \"#utility.yul\":8786:9205   */\n    tag_100:\n        /* \"#utility.yul\":8952:8956   */\n      0x00\n        /* \"#utility.yul\":8990:8992   */\n      0x20\n        /* \"#utility.yul\":8979:8988   */\n      dup3\n        /* \"#utility.yul\":8975:8993   */\n      add\n        /* \"#utility.yul\":8967:8993   */\n      swap1\n      pop\n        /* \"#utility.yul\":9039:9048   */\n      dup2\n        /* \"#utility.yul\":9033:9037   */\n      dup2\n        /* \"#utility.yul\":9029:9049   */\n      sub\n        /* \"#utility.yul\":9025:9026   */\n      0x00\n        /* \"#utility.yul\":9014:9023   */\n      dup4\n        /* \"#utility.yul\":9010:9027   */\n      add\n        /* \"#utility.yul\":9003:9050   */\n      mstore\n        /* \"#utility.yul\":9067:9198   */\n      tag_273\n        /* \"#utility.yul\":9193:9197   */\n      dup2\n        /* \"#utility.yul\":9067:9198   */\n      tag_172\n      jump\t// in\n    tag_273:\n        /* \"#utility.yul\":9059:9198   */\n      swap1\n      pop\n        /* \"#utility.yul\":8786:9205   */\n      swap2\n      swap1\n      pop\n      jump\t// out\n        /* \"#utility.yul\":9211:9385   */\n    tag_173:\n        /* \"#utility.yul\":9351:9377   */\n      0x4f6e6c79206f776e65722063616e2063616c6c20746869730000000000000000\n        /* \"#utility.yul\":9347:9348   */\n      0x00\n        /* \"#utility.yul\":9339:9345   */\n      dup3\n        /* \"#utility.yul\":9335:9349   */\n      add\n        /* \"#utility.yul\":9328:9378   */\n      mstore\n        /* \"#utility.yul\":9211:9385   */\n      pop\n      jump\t// out\n        /* \"#utility.yul\":9391:9757   */\n    tag_174:\n        /* \"#utility.yul\":9533:9536   */\n      0x00\n        /* \"#utility.yul\":9554:9621   */\n      tag_276\n        /* \"#utility.yul\":9618:9620   */\n      0x18\n        /* \"#utility.yul\":9613:9616   */\n      dup4\n        /* \"#utility.yul\":9554:9621   */\n      tag_161\n      jump\t// in\n    tag_276:\n        /* \"#utility.yul\":9547:9621   */\n      swap2\n      pop\n        /* \"#utility.yul\":9630:9723   */\n      tag_277\n        /* \"#utility.yul\":9719:9722   */\n      dup3\n        /* \"#utility.yul\":9630:9723   */\n      tag_173\n      jump\t// in\n    tag_277:\n        /* \"#utility.yul\":9748:9750   */\n      0x20\n        /* \"#utility.yul\":9743:9746   */\n      dup3\n        /* \"#utility.yul\":9739:9751   */\n      add\n        /* \"#utility.yul\":9732:9751   */\n      swap1\n      pop\n        /* \"#utility.yul\":9391:9757   */\n      swap2\n      swap1\n      pop\n      jump\t// out\n        /* \"#utility.yul\":9763:10182   */\n    tag_105:\n        /* \"#utility.yul\":9929:9933   */\n      0x00\n        /* \"#utility.yul\":9967:9969   */\n      0x20\n        /* \"#utility.yul\":9956:9965   */\n      dup3\n        /* \"#utility.yul\":9952:9970   */\n      add\n        /* \"#utility.yul\":9944:9970   */\n      swap1\n      pop\n        /* \"#utility.yul\":10016:10025   */\n      dup2\n        /* \"#utility.yul\":10010:10014   */\n      dup2\n        /* \"#utility.yul\":10006:10026   */\n      sub\n        /* \"#utility.yul\":10002:10003   */\n      0x00\n        /* \"#utility.yul\":9991:10000   */\n      dup4\n        /* \"#utility.yul\":9987:10004   */\n      add\n        /* \"#utility.yul\":9980:10027   */\n      mstore\n        /* \"#utility.yul\":10044:10175   */\n      tag_279\n        /* \"#utility.yul\":10170:10174   */\n      dup2\n        /* \"#utility.yul\":10044:10175   */\n      tag_174\n      jump\t// in\n    tag_279:\n        /* \"#utility.yul\":10036:10175   */\n      swap1\n      pop\n        /* \"#utility.yul\":9763:10182   */\n      swap2\n      swap1\n      pop\n      jump\t// out\n        /* \"#utility.yul\":10188:10367   */\n    tag_175:\n        /* \"#utility.yul\":10328:10359   */\n      0x496e73756666696369656e7420636f6e74726163742062616c616e6365000000\n        /* \"#utility.yul\":10324:10325   */\n      0x00\n        /* \"#utility.yul\":10316:10322   */\n      dup3\n        /* \"#utility.yul\":10312:10326   */\n      add\n        /* \"#utility.yul\":10305:10360   */\n      mstore\n        /* \"#utility.yul\":10188:10367   */\n      pop\n      jump\t// out\n        /* \"#utility.yul\":10373:10739   */\n    tag_176:\n        /* \"#utility.yul\":10515:10518   */\n      0x00\n        /* \"#utility.yul\":10536:10603   */\n      tag_282\n        /* \"#utility.yul\":10600:10602   */\n      0x1d\n        /* \"#utility.yul\":10595:10598   */\n      dup4\n        /* \"#utility.yul\":10536:10603   */\n      tag_161\n      jump\t// in\n    tag_282:\n        /* \"#utility.yul\":10529:10603   */\n      swap2\n      pop\n        /* \"#utility.yul\":10612:10705   */\n      tag_283\n        /* \"#utility.yul\":10701:10704   */\n      dup3\n        /* \"#utility.yul\":10612:10705   */\n      tag_175\n      jump\t// in\n    tag_283:\n        /* \"#utility.yul\":10730:10732   */\n      0x20\n        /* \"#utility.yul\":10725:10728   */\n      dup3\n        /* \"#utility.yul\":10721:10733   */\n      add\n        /* \"#utility.yul\":10714:10733   */\n      swap1\n      pop\n        /* \"#utility.yul\":10373:10739   */\n      swap2\n      swap1\n      pop\n      jump\t// out\n        /* \"#utility.yul\":10745:11164   */\n    tag_108:\n        /* \"#utility.yul\":10911:10915   */\n      0x00\n        /* \"#utility.yul\":10949:10951   */\n      0x20\n        /* \"#utility.yul\":10938:10947   */\n      dup3\n        /* \"#utility.yul\":10934:10952   */\n      add\n        /* \"#utility.yul\":10926:10952   */\n      swap1\n      pop\n        /* \"#utility.yul\":10998:11007   */\n      dup2\n        /* \"#utility.yul\":10992:10996   */\n      dup2\n        /* \"#utility.yul\":10988:11008   */\n      sub\n        /* \"#utility.yul\":10984:10985   */\n      0x00\n        /* \"#utility.yul\":10973:10982   */\n      dup4\n        /* \"#utility.yul\":10969:10986   */\n      add\n        /* \"#utility.yul\":10962:11009   */\n      mstore\n        /* \"#utility.yul\":11026:11157   */\n      tag_285\n        /* \"#utility.yul\":11152:11156   */\n      dup2\n        /* \"#utility.yul\":11026:11157   */\n      tag_176\n      jump\t// in\n    tag_285:\n        /* \"#utility.yul\":11018:11157   */\n      swap1\n      pop\n        /* \"#utility.yul\":10745:11164   */\n      swap2\n      swap1\n      pop\n      jump\t// out\n        /* \"#utility.yul\":11170:11342   */\n    tag_177:\n        /* \"#utility.yul\":11310:11334   */\n      0x4e6f2062616c616e636520746f20776974686472617700000000000000000000\n        /* \"#utility.yul\":11306:11307   */\n      0x00\n        /* \"#utility.yul\":11298:11304   */\n      dup3\n        /* \"#utility.yul\":11294:11308   */\n      add\n        /* \"#utility.yul\":11287:11335   */\n      mstore\n        /* \"#utility.yul\":11170:11342   */\n      pop\n      jump\t// out\n        /* \"#utility.yul\":11348:11714   */\n    tag_178:\n        /* \"#utility.yul\":11490:11493   */\n      0x00\n        /* \"#utility.yul\":11511:11578   */\n      tag_288\n        /* \"#utility.yul\":11575:11577   */\n      0x16\n        /* \"#utility.yul\":11570:11573   */\n      dup4\n        /* \"#utility.yul\":11511:11578   */\n      tag_161\n      jump\t// in\n    tag_288:\n        /* \"#utility.yul\":11504:11578   */\n      swap2\n      pop\n        /* \"#utility.yul\":11587:11680   */\n      tag_289\n        /* \"#utility.yul\":11676:11679   */\n      dup3\n        /* \"#utility.yul\":11587:11680   */\n      tag_177\n      jump\t// in\n    tag_289:\n        /* \"#utility.yul\":11705:11707   */\n      0x20\n        /* \"#utility.yul\":11700:11703   */\n      dup3\n        /* \"#utility.yul\":11696:11708   */\n      add\n        /* \"#utility.yul\":11689:11708   */\n      swap1\n      pop\n        /* \"#utility.yul\":11348:11714   */\n      swap2\n      swap1\n      pop\n      jump\t// out\n        /* \"#utility.yul\":11720:12139   */\n    tag_122:\n        /* \"#utility.yul\":11886:11890   */\n      0x00\n        /* \"#utility.yul\":11924:11926   */\n      0x20\n        /* \"#utility.yul\":11913:11922   */\n      dup3\n        /* \"#utility.yul\":11909:11927   */\n      add\n        /* \"#utility.yul\":11901:11927   */\n      swap1\n      pop\n        /* \"#utility.yul\":11973:11982   */\n      dup2\n        /* \"#utility.yul\":11967:11971   */\n      dup2\n        /* \"#utility.yul\":11963:11983   */\n      sub\n        /* \"#utility.yul\":11959:11960   */\n      0x00\n        /* \"#utility.yul\":11948:11957   */\n      dup4\n        /* \"#utility.yul\":11944:11961   */\n      add\n        /* \"#utility.yul\":11937:11984   */\n      mstore\n        /* \"#utility.yul\":12001:12132   */\n      tag_291\n        /* \"#utility.yul\":12127:12131   */\n      dup2\n        /* \"#utility.yul\":12001:12132   */\n      tag_178\n      jump\t// in\n    tag_291:\n        /* \"#utility.yul\":11993:12132   */\n      swap1\n      pop\n        /* \"#utility.yul\":11720:12139   */\n      swap2\n      swap1\n      pop\n      jump\t// out\n        /* \"#utility.yul\":12145:12314   */\n    tag_179:\n        /* \"#utility.yul\":12285:12306   */\n      0x4f6e6c79206f776e65722063616e2073656e6400000000000000000000000000\n        /* \"#utility.yul\":12281:12282   */\n      0x00\n        /* \"#utility.yul\":12273:12279   */\n      dup3\n        /* \"#utility.yul\":12269:12283   */\n      add\n        /* \"#utility.yul\":12262:12307   */\n      mstore\n        /* \"#utility.yul\":12145:12314   */\n      pop\n      jump\t// out\n        /* \"#utility.yul\":12320:12686   */\n    tag_180:\n        /* \"#utility.yul\":12462:12465   */\n      0x00\n        /* \"#utility.yul\":12483:12550   */\n      tag_294\n        /* \"#utility.yul\":12547:12549   */\n      0x13\n        /* \"#utility.yul\":12542:12545   */\n      dup4\n        /* \"#utility.yul\":12483:12550   */\n      tag_161\n      jump\t// in\n    tag_294:\n        /* \"#utility.yul\":12476:12550   */\n      swap2\n      pop\n        /* \"#utility.yul\":12559:12652   */\n      tag_295\n        /* \"#utility.yul\":12648:12651   */\n      dup3\n        /* \"#utility.yul\":12559:12652   */\n      tag_179\n      jump\t// in\n    tag_295:\n        /* \"#utility.yul\":12677:12679   */\n      0x20\n        /* \"#utility.yul\":12672:12675   */\n      dup3\n        /* \"#utility.yul\":12668:12680   */\n      add\n        /* \"#utility.yul\":12661:12680   */\n      swap1\n      pop\n        /* \"#utility.yul\":12320:12686   */\n      swap2\n      swap1\n      pop\n      jump\t// out\n        /* \"#utility.yul\":12692:13111   */\n    tag_127:\n        /* \"#utility.yul\":12858:12862   */\n      0x00\n        /* \"#utility.yul\":12896:12898   */\n      0x20\n        /* \"#utility.yul\":12885:12894   */\n      dup3\n        /* \"#utility.yul\":12881:12899   */\n      add\n        /* \"#utility.yul\":12873:12899   */\n      swap1\n      pop\n        /* \"#utility.yul\":12945:12954   */\n      dup2\n        /* \"#utility.yul\":12939:12943   */\n      dup2\n        /* \"#utility.yul\":12935:12955   */\n      sub\n        /* \"#utility.yul\":12931:12932   */\n      0x00\n        /* \"#utility.yul\":12920:12929   */\n      dup4\n        /* \"#utility.yul\":12916:12933   */\n      add\n        /* \"#utility.yul\":12909:12956   */\n      mstore\n        /* \"#utility.yul\":12973:13104   */\n      tag_297\n        /* \"#utility.yul\":13099:13103   */\n      dup2\n        /* \"#utility.yul\":12973:13104   */\n      tag_180\n      jump\t// in\n    tag_297:\n        /* \"#utility.yul\":12965:13104   */\n      swap1\n      pop\n        /* \"#utility.yul\":12692:13111   */\n      swap2\n      swap1\n      pop\n      jump\t// out\n        /* \"#utility.yul\":13117:13278   */\n    tag_181:\n        /* \"#utility.yul\":13257:13270   */\n      0x53656e64206661696c6564000000000000000000000000000000000000000000\n        /* \"#utility.yul\":13253:13254   */\n      0x00\n        /* \"#utility.yul\":13245:13251   */\n      dup3\n        /* \"#utility.yul\":13241:13255   */\n      add\n        /* \"#utility.yul\":13234:13271   */\n      mstore\n        /* \"#utility.yul\":13117:13278   */\n      pop\n      jump\t// out\n        /* \"#utility.yul\":13284:13650   */\n    tag_182:\n        /* \"#utility.yul\":13426:13429   */\n      0x00\n        /* \"#utility.yul\":13447:13514   */\n      tag_300\n        /* \"#utility.yul\":13511:13513   */\n      0x0b\n        /* \"#utility.yul\":13506:13509   */\n      dup4\n        /* \"#utility.yul\":13447:13514   */\n      tag_161\n      jump\t// in\n    tag_300:\n        /* \"#utility.yul\":13440:13514   */\n      swap2\n      pop\n        /* \"#utility.yul\":13523:13616   */\n      tag_301\n        /* \"#utility.yul\":13612:13615   */\n      dup3\n        /* \"#utility.yul\":13523:13616   */\n      tag_181\n      jump\t// in\n    tag_301:\n        /* \"#utility.yul\":13641:13643   */\n      0x20\n        /* \"#utility.yul\":13636:13639   */\n      dup3\n        /* \"#utility.yul\":13632:13644   */\n      add\n        /* \"#utility.yul\":13625:13644   */\n      swap1\n      pop\n        /* \"#utility.yul\":13284:13650   */\n      swap2\n      swap1\n      pop\n      jump\t// out\n        /* \"#utility.yul\":13656:14075   */\n    tag_136:\n        /* \"#utility.yul\":13822:13826   */\n      0x00\n        /* \"#utility.yul\":13860:13862   */\n      0x20\n        /* \"#utility.yul\":13849:13858   */\n      dup3\n        /* \"#utility.yul\":13845:13863   */\n      add\n        /* \"#utility.yul\":13837:13863   */\n      swap1\n      pop\n        /* \"#utility.yul\":13909:13918   */\n      dup2\n        /* \"#utility.yul\":13903:13907   */\n      dup2\n        /* \"#utility.yul\":13899:13919   */\n      sub\n        /* \"#utility.yul\":13895:13896   */\n      0x00\n        /* \"#utility.yul\":13884:13893   */\n      dup4\n        /* \"#utility.yul\":13880:13897   */\n      add\n        /* \"#utility.yul\":13873:13920   */\n      mstore\n        /* \"#utility.yul\":13937:14068   */\n      tag_303\n        /* \"#utility.yul\":14063:14067   */\n      dup2\n        /* \"#utility.yul\":13937:14068   */\n      tag_182\n      jump\t// in\n    tag_303:\n        /* \"#utility.yul\":13929:14068   */\n      swap1\n      pop\n        /* \"#utility.yul\":13656:14075   */\n      swap2\n      swap1\n      pop\n      jump\t// out\n        /* \"#utility.yul\":14081:14251   */\n    tag_183:\n        /* \"#utility.yul\":14221:14243   */\n      0x4d7573742073656e6420736f6d65204574686572000000000000000000000000\n        /* \"#utility.yul\":14217:14218   */\n      0x00\n        /* \"#utility.yul\":14209:14215   */\n      dup3\n        /* \"#utility.yul\":14205:14219   */\n      add\n        /* \"#utility.yul\":14198:14244   */\n      mstore\n        /* \"#utility.yul\":14081:14251   */\n      pop\n      jump\t// out\n        /* \"#utility.yul\":14257:14623   */\n    tag_184:\n        /* \"#utility.yul\":14399:14402   */\n      0x00\n        /* \"#utility.yul\":14420:14487   */\n      tag_306\n        /* \"#utility.yul\":14484:14486   */\n      0x14\n        /* \"#utility.yul\":14479:14482   */\n      dup4\n        /* \"#utility.yul\":14420:14487   */\n      tag_161\n      jump\t// in\n    tag_306:\n        /* \"#utility.yul\":14413:14487   */\n      swap2\n      pop\n        /* \"#utility.yul\":14496:14589   */\n      tag_307\n        /* \"#utility.yul\":14585:14588   */\n      dup3\n        /* \"#utility.yul\":14496:14589   */\n      tag_183\n      jump\t// in\n    tag_307:\n        /* \"#utility.yul\":14614:14616   */\n      0x20\n        /* \"#utility.yul\":14609:14612   */\n      dup3\n        /* \"#utility.yul\":14605:14617   */\n      add\n        /* \"#utility.yul\":14598:14617   */\n      swap1\n      pop\n        /* \"#utility.yul\":14257:14623   */\n      swap2\n      swap1\n      pop\n      jump\t// out\n        /* \"#utility.yul\":14629:15048   */\n    tag_141:\n        /* \"#utility.yul\":14795:14799   */\n      0x00\n        /* \"#utility.yul\":14833:14835   */\n      0x20\n        /* \"#utility.yul\":14822:14831   */\n      dup3\n        /* \"#utility.yul\":14818:14836   */\n      add\n        /* \"#utility.yul\":14810:14836   */\n      swap1\n      pop\n        /* \"#utility.yul\":14882:14891   */\n      dup2\n        /* \"#utility.yul\":14876:14880   */\n      dup2\n        /* \"#utility.yul\":14872:14892   */\n      sub\n        /* \"#utility.yul\":14868:14869   */\n      0x00\n        /* \"#utility.yul\":14857:14866   */\n      dup4\n        /* \"#utility.yul\":14853:14870   */\n      add\n        /* \"#utility.yul\":14846:14893   */\n      mstore\n        /* \"#utility.yul\":14910:15041   */\n      tag_309\n        /* \"#utility.yul\":15036:15040   */\n      dup2\n        /* \"#utility.yul\":14910:15041   */\n      tag_184\n      jump\t// in\n    tag_309:\n        /* \"#utility.yul\":14902:15041   */\n      swap1\n      pop\n        /* \"#utility.yul\":14629:15048   */\n      swap2\n      swap1\n      pop\n      jump\t// out\n\n    auxdata: 0xa26469706673582212200b5c82871cea79194dc441883f096cfb8686d8dc868de4e03c4678beb92e2ff664736f6c634300081f0033\n}\n",
				"bytecode": {
					"linkReferences": {},
					"object": "6080604052348015600e575f5ffd5b50335f5f6101000a81548173ffffffffffffffffffffffffffffffffffffffff021916908373ffffffffffffffffffffffffffffffffffffffff1602179055506114718061005b5f395ff3fe6080604052600436106100aa575f3560e01c80636f9fb98a116100635780636f9fb98a146102885780637d882097146102b2578063853828b6146102dc5780638da5cb5b146102f2578063c1756a2c1461031c578063d0e30db0146103445761016a565b806327e235e31461016e5780632ccb1b30146101aa5780632e1a7d4d146101d257806333f707d1146101fa5780634773489214610222578063604646271461025e5761016a565b3661016a573460035f3373ffffffffffffffffffffffffffffffffffffffff1673ffffffffffffffffffffffffffffffffffffffff1681526020019081526020015f205f8282546100fb9190610dcd565b925050819055503460015f8282546101139190610dcd565b925050819055503373ffffffffffffffffffffffffffffffffffffffff167fe1fffcc4923d04b559f4d29a8bfc6cda04eb5b0d3c460751c2402c5c5cc9109c346040516101609190610e0f565b60405180910390a2005b5f5ffd5b348015610179575f5ffd5b50610194600480360381019061018f9190610e86565b61034e565b6040516101a19190610e0f565b60405180910390f35b3480156101b5575f5ffd5b506101d060048036038101906101cb9190610f16565b610363565b005b3480156101dd575f5ffd5b506101f860048036038101906101f39190610f54565b610560565b005b348015610205575f5ffd5b50610220600480360381019061021b9190610f54565b610788565b005b34801561022d575f5ffd5b5061024860048036038101906102439190610e86565b6109ab565b6040516102559190610e0f565b60405180910390f35b348015610269575f5ffd5b506102726109f1565b60405161027f9190610e0f565b60405180910390f35b348015610293575f5ffd5b5061029c6109f7565b6040516102a99190610e0f565b60405180910390f35b3480156102bd575f5ffd5b506102c66109fe565b6040516102d39190610e0f565b60405180910390f35b3480156102e7575f5ffd5b506102f0610a04565b005b3480156102fd575f5ffd5b50610306610a93565b6040516103139190610f8e565b60405180910390f35b348015610327575f5ffd5b50610342600480360381019061033d9190610f16565b610ab7565b005b61034c610c9a565b005b6003602052805f5260405f205f915090505481565b8060035f3373ffffffffffffffffffffffffffffffffffffffff1673ffffffffffffffffffffffffffffffffffffffff1681526020019081526020015f205410156103e3576040517f08c379a00000000000000000000000000000000000000000000000000000000081526004016103da90611001565b60405180910390fd5b5f73ffffffffffffffffffffffffffffffffffffffff168273ffffffffffffffffffffffffffffffffffffffff1603610451576040517f08c379a000000000000000000000000000000000000000000000000000000000815260040161044890611069565b60405180910390fd5b8060035f3373ffffffffffffffffffffffffffffffffffffffff1673ffffffffffffffffffffffffffffffffffffffff1681526020019081526020015f205f82825461049d9190611087565b925050819055508060035f8473ffffffffffffffffffffffffffffffffffffffff1673ffffffffffffffffffffffffffffffffffffffff1681526020019081526020015f205f8282546104f09190610dcd565b925050819055508173ffffffffffffffffffffffffffffffffffffffff163373ffffffffffffffffffffffffffffffffffffffff167fddf252ad1be2c89b69c2b068fc378daa952ba7f163c4a11628f55a4df523b3ef836040516105549190610e0f565b60405180910390a35050565b8060035f3373ffffffffffffffffffffffffffffffffffffffff1673ffffffffffffffffffffffffffffffffffffffff1681526020019081526020015f205410156105e0576040517f08c379a00000000000000000000000000000000000000000000000000000000081526004016105d790611001565b60405180910390fd5b80471015610623576040517f08c379a000000000000000000000000000000000000000000000000000000000815260040161061a90611104565b60405180910390fd5b8060035f3373ffffffffffffffffffffffffffffffffffffffff1673ffffffffffffffffffffffffffffffffffffffff1681526020019081526020015f205f82825461066f9190611087565b925050819055508060025f8282546106879190610dcd565b925050819055505f3373ffffffffffffffffffffffffffffffffffffffff16826040516106b39061114f565b5f6040518083038185875af1925050503d805f81146106ed576040519150601f19603f3d011682016040523d82523d5f602084013e6106f2565b606091505b5050905080610736576040517f08c379a000000000000000000000000000000000000000000000000000000000815260040161072d906111ad565b60405180910390fd5b3373ffffffffffffffffffffffffffffffffffffffff167f7fcf532c15f0a6db0bd6d0e038bea71d30d808c7d98cb3bf7268a95bf5081b658360405161077c9190610e0f565b60405180910390a25050565b5f5f9054906101000a900473ffffffffffffffffffffffffffffffffffffffff1673ffffffffffffffffffffffffffffffffffffffff163373ffffffffffffffffffffffffffffffffffffffff1614610816576040517f08c379a000000000000000000000000000000000000000000000000000000000815260040161080d90611215565b60405180910390fd5b80471015610859576040517f08c379a00000000000000000000000000000000000000000000000000000000081526004016108509061127d565b60405180910390fd5b8060025f82825461086a9190610dcd565b925050819055505f5f5f9054906101000a900473ffffffffffffffffffffffffffffffffffffffff1673ffffffffffffffffffffffffffffffffffffffff16826040516108b69061114f565b5f6040518083038185875af1925050503d805f81146108f0576040519150601f19603f3d011682016040523d82523d5f602084013e6108f5565b606091505b5050905080610939576040517f08c379a0000000000000000000000000000000000000000000000000000000008152600401610930906111ad565b60405180910390fd5b5f5f9054906101000a900473ffffffffffffffffffffffffffffffffffffffff1673ffffffffffffffffffffffffffffffffffffffff167f7fcf532c15f0a6db0bd6d0e038bea71d30d808c7d98cb3bf7268a95bf5081b658360405161099f9190610e0f565b60405180910390a25050565b5f60035f8373ffffffffffffffffffffffffffffffffffffffff1673ffffffffffffffffffffffffffffffffffffffff1681526020019081526020015f20549050919050565b60025481565b5f47905090565b60015481565b5f60035f3373ffffffffffffffffffffffffffffffffffffffff1673ffffffffffffffffffffffffffffffffffffffff1681526020019081526020015f205490505f8111610a87576040517f08c379a0000000000000000000000000000000000000000000000000000000008152600401610a7e906112e5565b60405180910390fd5b610a9081610560565b50565b5f5f9054906101000a900473ffffffffffffffffffffffffffffffffffffffff1681565b5f5f9054906101000a900473ffffffffffffffffffffffffffffffffffffffff1673ffffffffffffffffffffffffffffffffffffffff163373ffffffffffffffffffffffffffffffffffffffff1614610b45576040517f08c379a0000000000000000000000000000000000000000000000000000000008152600401610b3c9061134d565b60405180910390fd5b80471015610b88576040517f08c379a0000000000000000000000000000000000000000000000000000000008152600401610b7f90611001565b60405180910390fd5b5f8273ffffffffffffffffffffffffffffffffffffffff1682604051610bad9061114f565b5f6040518083038185875af1925050503d805f8114610be7576040519150601f19603f3d011682016040523d82523d5f602084013e610bec565b606091505b5050905080610c30576040517f08c379a0000000000000000000000000000000000000000000000000000000008152600401610c27906113b5565b60405180910390fd5b8273ffffffffffffffffffffffffffffffffffffffff163073ffffffffffffffffffffffffffffffffffffffff167fddf252ad1be2c89b69c2b068fc378daa952ba7f163c4a11628f55a4df523b3ef84604051610c8d9190610e0f565b60405180910390a3505050565b5f3411610cdc576040517f08c379a0000000000000000000000000000000000000000000000000000000008152600401610cd39061141d565b60405180910390fd5b3460035f3373ffffffffffffffffffffffffffffffffffffffff1673ffffffffffffffffffffffffffffffffffffffff1681526020019081526020015f205f828254610d289190610dcd565b925050819055503460015f828254610d409190610dcd565b925050819055503373ffffffffffffffffffffffffffffffffffffffff167fe1fffcc4923d04b559f4d29a8bfc6cda04eb5b0d3c460751c2402c5c5cc9109c34604051610d8d9190610e0f565b60405180910390a2565b5f819050919050565b7f4e487b71000000000000000000000000000000000000000000000000000000005f52601160045260245ffd5b5f610dd782610d97565b9150610de283610d97565b9250828201905080821115610dfa57610df9610da0565b5b92915050565b610e0981610d97565b82525050565b5f602082019050610e225f830184610e00565b92915050565b5f5ffd5b5f73ffffffffffffffffffffffffffffffffffffffff82169050919050565b5f610e5582610e2c565b9050919050565b610e6581610e4b565b8114610e6f575f5ffd5b50565b5f81359050610e8081610e5c565b92915050565b5f60208284031215610e9b57610e9a610e28565b5b5f610ea884828501610e72565b91505092915050565b5f610ebb82610e2c565b9050919050565b610ecb81610eb1565b8114610ed5575f5ffd5b50565b5f81359050610ee681610ec2565b92915050565b610ef581610d97565b8114610eff575f5ffd5b50565b5f81359050610f1081610eec565b92915050565b5f5f60408385031215610f2c57610f2b610e28565b5b5f610f3985828601610ed8565b9250506020610f4a85828601610f02565b9150509250929050565b5f60208284031215610f6957610f68610e28565b5b5f610f7684828501610f02565b91505092915050565b610f8881610e4b565b82525050565b5f602082019050610fa15f830184610f7f565b92915050565b5f82825260208201905092915050565b7f496e73756666696369656e742062616c616e63650000000000000000000000005f82015250565b5f610feb601483610fa7565b9150610ff682610fb7565b602082019050919050565b5f6020820190508181035f83015261101881610fdf565b9050919050565b7f43616e6e6f74207472616e7366657220746f207a65726f2061646472657373005f82015250565b5f611053601f83610fa7565b915061105e8261101f565b602082019050919050565b5f6020820190508181035f83015261108081611047565b9050919050565b5f61109182610d97565b915061109c83610d97565b92508282039050818111156110b4576110b3610da0565b5b92915050565b7f436f6e74726163742068617320696e73756666696369656e742066756e6473005f82015250565b5f6110ee601f83610fa7565b91506110f9826110ba565b602082019050919050565b5f6020820190508181035f83015261111b816110e2565b9050919050565b5f81905092915050565b50565b5f61113a5f83611122565b91506111458261112c565b5f82019050919050565b5f6111598261112f565b9150819050919050565b7f5472616e73666572206661696c656400000000000000000000000000000000005f82015250565b5f611197600f83610fa7565b91506111a282611163565b602082019050919050565b5f6020820190508181035f8301526111c48161118b565b9050919050565b7f4f6e6c79206f776e65722063616e2063616c6c207468697300000000000000005f82015250565b5f6111ff601883610fa7565b915061120a826111cb565b602082019050919050565b5f6020820190508181035f83015261122c816111f3565b9050919050565b7f496e73756666696369656e7420636f6e74726163742062616c616e63650000005f82015250565b5f611267601d83610fa7565b915061127282611233565b602082019050919050565b5f6020820190508181035f8301526112948161125b565b9050919050565b7f4e6f2062616c616e636520746f207769746864726177000000000000000000005f82015250565b5f6112cf601683610fa7565b91506112da8261129b565b602082019050919050565b5f6020820190508181035f8301526112fc816112c3565b9050919050565b7f4f6e6c79206f776e65722063616e2073656e64000000000000000000000000005f82015250565b5f611337601383610fa7565b915061134282611303565b602082019050919050565b5f6020820190508181035f8301526113648161132b565b9050919050565b7f53656e64206661696c65640000000000000000000000000000000000000000005f82015250565b5f61139f600b83610fa7565b91506113aa8261136b565b602082019050919050565b5f6020820190508181035f8301526113cc81611393565b9050919050565b7f4d7573742073656e6420736f6d652045746865720000000000000000000000005f82015250565b5f611407601483610fa7565b9150611412826113d3565b602082019050919050565b5f6020820190508181035f830152611434816113fb565b905091905056fea26469706673582212200b5c82871cea79194dc441883f096cfb8686d8dc868de4e03c4678beb92e2ff664736f6c634300081f0033",
					"opcodes": "PUSH1 0x80 PUSH1 0x40 MSTORE CALLVALUE DUP1 ISZERO PUSH1 0xE JUMPI PUSH0 PUSH0 REVERT JUMPDEST POP CALLER PUSH0 PUSH0 PUSH2 0x100 EXP DUP2 SLOAD DUP2 PUSH20 0xFFFFFFFFFFFFFFFFFFFFFFFFFFFFFFFFFFFFFFFF MUL NOT AND SWAP1 DUP4 PUSH20 0xFFFFFFFFFFFFFFFFFFFFFFFFFFFFFFFFFFFFFFFF AND MUL OR SWAP1 SSTORE POP PUSH2 0x1471 DUP1 PUSH2 0x5B PUSH0 CODECOPY PUSH0 RETURN INVALID PUSH1 0x80 PUSH1 0x40 MSTORE PUSH1 0x4 CALLDATASIZE LT PUSH2 0xAA JUMPI PUSH0 CALLDATALOAD PUSH1 0xE0 SHR DUP1 PUSH4 0x6F9FB98A GT PUSH2 0x63 JUMPI DUP1 PUSH4 0x6F9FB98A EQ PUSH2 0x288 JUMPI DUP1 PUSH4 0x7D882097 EQ PUSH2 0x2B2 JUMPI DUP1 PUSH4 0x853828B6 EQ PUSH2 0x2DC JUMPI DUP1 PUSH4 0x8DA5CB5B EQ PUSH2 0x2F2 JUMPI DUP1 PUSH4 0xC1756A2C EQ PUSH2 0x31C JUMPI DUP1 PUSH4 0xD0E30DB0 EQ PUSH2 0x344 JUMPI PUSH2 0x16A JUMP JUMPDEST DUP1 PUSH4 0x27E235E3 EQ PUSH2 0x16E JUMPI DUP1 PUSH4 0x2CCB1B30 EQ PUSH2 0x1AA JUMPI DUP1 PUSH4 0x2E1A7D4D EQ PUSH2 0x1D2 JUMPI DUP1 PUSH4 0x33F707D1 EQ PUSH2 0x1FA JUMPI DUP1 PUSH4 0x47734892 EQ PUSH2 0x222 JUMPI DUP1 PUSH4 0x60464627 EQ PUSH2 0x25E JUMPI PUSH2 0x16A JUMP JUMPDEST CALLDATASIZE PUSH2 0x16A JUMPI CALLVALUE PUSH1 0x3 PUSH0 CALLER PUSH20 0xFFFFFFFFFFFFFFFFFFFFFFFFFFFFFFFFFFFFFFFF AND PUSH20 0xFFFFFFFFFFFFFFFFFFFFFFFFFFFFFFFFFFFFFFFF AND DUP2 MSTORE PUSH1 0x20 ADD SWAP1 DUP2 MSTORE PUSH1 0x20 ADD PUSH0 KECCAK256 PUSH0 DUP3 DUP3 SLOAD PUSH2 0xFB SWAP2 SWAP1 PUSH2 0xDCD JUMP JUMPDEST SWAP3 POP POP DUP2 SWAP1 SSTORE POP CALLVALUE PUSH1 0x1 PUSH0 DUP3 DUP3 SLOAD PUSH2 0x113 SWAP2 SWAP1 PUSH2 0xDCD JUMP JUMPDEST SWAP3 POP POP DUP2 SWAP1 SSTORE POP CALLER PUSH20 0xFFFFFFFFFFFFFFFFFFFFFFFFFFFFFFFFFFFFFFFF AND PUSH32 0xE1FFFCC4923D04B559F4D29A8BFC6CDA04EB5B0D3C460751C2402C5C5CC9109C CALLVALUE PUSH1 0x40 MLOAD PUSH2 0x160 SWAP2 SWAP1 PUSH2 0xE0F JUMP JUMPDEST PUSH1 0x40 MLOAD DUP1 SWAP2 SUB SWAP1 LOG2 STOP JUMPDEST PUSH0 PUSH0 REVERT JUMPDEST CALLVALUE DUP1 ISZERO PUSH2 0x179 JUMPI PUSH0 PUSH0 REVERT JUMPDEST POP PUSH2 0x194 PUSH1 0x4 DUP1 CALLDATASIZE SUB DUP2 ADD SWAP1 PUSH2 0x18F SWAP2 SWAP1 PUSH2 0xE86 JUMP JUMPDEST PUSH2 0x34E JUMP JUMPDEST PUSH1 0x40 MLOAD PUSH2 0x1A1 SWAP2 SWAP1 PUSH2 0xE0F JUMP JUMPDEST PUSH1 0x40 MLOAD DUP1 SWAP2 SUB SWAP1 RETURN JUMPDEST CALLVALUE DUP1 ISZERO PUSH2 0x1B5 JUMPI PUSH0 PUSH0 REVERT JUMPDEST POP PUSH2 0x1D0 PUSH1 0x4 DUP1 CALLDATASIZE SUB DUP2 ADD SWAP1 PUSH2 0x1CB SWAP2 SWAP1 PUSH2 0xF16 JUMP JUMPDEST PUSH2 0x363 JUMP JUMPDEST STOP JUMPDEST CALLVALUE DUP1 ISZERO PUSH2 0x1DD JUMPI PUSH0 PUSH0 REVERT JUMPDEST POP PUSH2 0x1F8 PUSH1 0x4 DUP1 CALLDATASIZE SUB DUP2 ADD SWAP1 PUSH2 0x1F3 SWAP2 SWAP1 PUSH2 0xF54 JUMP JUMPDEST PUSH2 0x560 JUMP JUMPDEST STOP JUMPDEST CALLVALUE DUP1 ISZERO PUSH2 0x205 JUMPI PUSH0 PUSH0 REVERT JUMPDEST POP PUSH2 0x220 PUSH1 0x4 DUP1 CALLDATASIZE SUB DUP2 ADD SWAP1 PUSH2 0x21B SWAP2 SWAP1 PUSH2 0xF54 JUMP JUMPDEST PUSH2 0x788 JUMP JUMPDEST STOP JUMPDEST CALLVALUE DUP1 ISZERO PUSH2 0x22D JUMPI PUSH0 PUSH0 REVERT JUMPDEST POP PUSH2 0x248 PUSH1 0x4 DUP1 CALLDATASIZE SUB DUP2 ADD SWAP1 PUSH2 0x243 SWAP2 SWAP1 PUSH2 0xE86 JUMP JUMPDEST PUSH2 0x9AB JUMP JUMPDEST PUSH1 0x40 MLOAD PUSH2 0x255 SWAP2 SWAP1 PUSH2 0xE0F JUMP JUMPDEST PUSH1 0x40 MLOAD DUP1 SWAP2 SUB SWAP1 RETURN JUMPDEST CALLVALUE DUP1 ISZERO PUSH2 0x269 JUMPI PUSH0 PUSH0 REVERT JUMPDEST POP PUSH2 0x272 PUSH2 0x9F1 JUMP JUMPDEST PUSH1 0x40 MLOAD PUSH2 0x27F SWAP2 SWAP1 PUSH2 0xE0F JUMP JUMPDEST PUSH1 0x40 MLOAD DUP1 SWAP2 SUB SWAP1 RETURN JUMPDEST CALLVALUE DUP1 ISZERO PUSH2 0x293 JUMPI PUSH0 PUSH0 REVERT JUMPDEST POP PUSH2 0x29C PUSH2 0x9F7 JUMP JUMPDEST PUSH1 0x40 MLOAD PUSH2 0x2A9 SWAP2 SWAP1 PUSH2 0xE0F JUMP JUMPDEST PUSH1 0x40 MLOAD DUP1 SWAP2 SUB SWAP1 RETURN JUMPDEST CALLVALUE DUP1 ISZERO PUSH2 0x2BD JUMPI PUSH0 PUSH0 REVERT JUMPDEST POP PUSH2 0x2C6 PUSH2 0x9FE JUMP JUMPDEST PUSH1 0x40 MLOAD PUSH2 0x2D3 SWAP2 SWAP1 PUSH2 0xE0F JUMP JUMPDEST PUSH1 0x40 MLOAD DUP1 SWAP2 SUB SWAP1 RETURN JUMPDEST CALLVALUE DUP1 ISZERO PUSH2 0x2E7 JUMPI PUSH0 PUSH0 REVERT JUMPDEST POP PUSH2 0x2F0 PUSH2 0xA04 JUMP JUMPDEST STOP JUMPDEST CALLVALUE DUP1 ISZERO PUSH2 0x2FD JUMPI PUSH0 PUSH0 REVERT JUMPDEST POP PUSH2 0x306 PUSH2 0xA93 JUMP JUMPDEST PUSH1 0x40 MLOAD PUSH2 0x313 SWAP2 SWAP1 PUSH2 0xF8E JUMP JUMPDEST PUSH1 0x40 MLOAD DUP1 SWAP2 SUB SWAP1 RETURN JUMPDEST CALLVALUE DUP1 ISZERO PUSH2 0x327 JUMPI PUSH0 PUSH0 REVERT JUMPDEST POP PUSH2 0x342 PUSH1 0x4 DUP1 CALLDATASIZE SUB DUP2 ADD SWAP1 PUSH2 0x33D SWAP2 SWAP1 PUSH2 0xF16 JUMP JUMPDEST PUSH2 0xAB7 JUMP JUMPDEST STOP JUMPDEST PUSH2 0x34C PUSH2 0xC9A JUMP JUMPDEST STOP JUMPDEST PUSH1 0x3 PUSH1 0x20 MSTORE DUP1 PUSH0 MSTORE PUSH1 0x40 PUSH0 KECCAK256 PUSH0 SWAP2 POP SWAP1 POP SLOAD DUP2 JUMP JUMPDEST DUP1 PUSH1 0x3 PUSH0 CALLER PUSH20 0xFFFFFFFFFFFFFFFFFFFFFFFFFFFFFFFFFFFFFFFF AND PUSH20 0xFFFFFFFFFFFFFFFFFFFFFFFFFFFFFFFFFFFFFFFF AND DUP2 MSTORE PUSH1 0x20 ADD SWAP1 DUP2 MSTORE PUSH1 0x20 ADD PUSH0 KECCAK256 SLOAD LT ISZERO PUSH2 0x3E3 JUMPI PUSH1 0x40 MLOAD PUSH32 0x8C379A000000000000000000000000000000000000000000000000000000000 DUP2 MSTORE PUSH1 0x4 ADD PUSH2 0x3DA SWAP1 PUSH2 0x1001 JUMP JUMPDEST PUSH1 0x40 MLOAD DUP1 SWAP2 SUB SWAP1 REVERT JUMPDEST PUSH0 PUSH20 0xFFFFFFFFFFFFFFFFFFFFFFFFFFFFFFFFFFFFFFFF AND DUP3 PUSH20 0xFFFFFFFFFFFFFFFFFFFFFFFFFFFFFFFFFFFFFFFF AND SUB PUSH2 0x451 JUMPI PUSH1 0x40 MLOAD PUSH32 0x8C379A000000000000000000000000000000000000000000000000000000000 DUP2 MSTORE PUSH1 0x4 ADD PUSH2 0x448 SWAP1 PUSH2 0x1069 JUMP JUMPDEST PUSH1 0x40 MLOAD DUP1 SWAP2 SUB SWAP1 REVERT JUMPDEST DUP1 PUSH1 0x3 PUSH0 CALLER PUSH20 0xFFFFFFFFFFFFFFFFFFFFFFFFFFFFFFFFFFFFFFFF AND PUSH20 0xFFFFFFFFFFFFFFFFFFFFFFFFFFFFFFFFFFFFFFFF AND DUP2 MSTORE PUSH1 0x20 ADD SWAP1 DUP2 MSTORE PUSH1 0x20 ADD PUSH0 KECCAK256 PUSH0 DUP3 DUP3 SLOAD PUSH2 0x49D SWAP2 SWAP1 PUSH2 0x1087 JUMP JUMPDEST SWAP3 POP POP DUP2 SWAP1 SSTORE POP DUP1 PUSH1 0x3 PUSH0 DUP5 PUSH20 0xFFFFFFFFFFFFFFFFFFFFFFFFFFFFFFFFFFFFFFFF AND PUSH20 0xFFFFFFFFFFFFFFFFFFFFFFFFFFFFFFFFFFFFFFFF AND DUP2 MSTORE PUSH1 0x20 ADD SWAP1 DUP2 MSTORE PUSH1 0x20 ADD PUSH0 KECCAK256 PUSH0 DUP3 DUP3 SLOAD PUSH2 0x4F0 SWAP2 SWAP1 PUSH2 0xDCD JUMP JUMPDEST SWAP3 POP POP DUP2 SWAP1 SSTORE POP DUP2 PUSH20 0xFFFFFFFFFFFFFFFFFFFFFFFFFFFFFFFFFFFFFFFF AND CALLER PUSH20 0xFFFFFFFFFFFFFFFFFFFFFFFFFFFFFFFFFFFFFFFF AND PUSH32 0xDDF252AD1BE2C89B69C2B068FC378DAA952BA7F163C4A11628F55A4DF523B3EF DUP4 PUSH1 0x40 MLOAD PUSH2 0x554 SWAP2 SWAP1 PUSH2 0xE0F JUMP JUMPDEST PUSH1 0x40 MLOAD DUP1 SWAP2 SUB SWAP1 LOG3 POP POP JUMP JUMPDEST DUP1 PUSH1 0x3 PUSH0 CALLER PUSH20 0xFFFFFFFFFFFFFFFFFFFFFFFFFFFFFFFFFFFFFFFF AND PUSH20 0xFFFFFFFFFFFFFFFFFFFFFFFFFFFFFFFFFFFFFFFF AND DUP2 MSTORE PUSH1 0x20 ADD SWAP1 DUP2 MSTORE PUSH1 0x20 ADD PUSH0 KECCAK256 SLOAD LT ISZERO PUSH2 0x5E0 JUMPI PUSH1 0x40 MLOAD PUSH32 0x8C379A000000000000000000000000000000000000000000000000000000000 DUP2 MSTORE PUSH1 0x4 ADD PUSH2 0x5D7 SWAP1 PUSH2 0x1001 JUMP JUMPDEST PUSH1 0x40 MLOAD DUP1 SWAP2 SUB SWAP1 REVERT JUMPDEST DUP1 SELFBALANCE LT ISZERO PUSH2 0x623 JUMPI PUSH1 0x40 MLOAD PUSH32 0x8C379A000000000000000000000000000000000000000000000000000000000 DUP2 MSTORE PUSH1 0x4 ADD PUSH2 0x61A SWAP1 PUSH2 0x1104 JUMP JUMPDEST PUSH1 0x40 MLOAD DUP1 SWAP2 SUB SWAP1 REVERT JUMPDEST DUP1 PUSH1 0x3 PUSH0 CALLER PUSH20 0xFFFFFFFFFFFFFFFFFFFFFFFFFFFFFFFFFFFFFFFF AND PUSH20 0xFFFFFFFFFFFFFFFFFFFFFFFFFFFFFFFFFFFFFFFF AND DUP2 MSTORE PUSH1 0x20 ADD SWAP1 DUP2 MSTORE PUSH1 0x20 ADD PUSH0 KECCAK256 PUSH0 DUP3 DUP3 SLOAD PUSH2 0x66F SWAP2 SWAP1 PUSH2 0x1087 JUMP JUMPDEST SWAP3 POP POP DUP2 SWAP1 SSTORE POP DUP1 PUSH1 0x2 PUSH0 DUP3 DUP3 SLOAD PUSH2 0x687 SWAP2 SWAP1 PUSH2 0xDCD JUMP JUMPDEST SWAP3 POP POP DUP2 SWAP1 SSTORE POP PUSH0 CALLER PUSH20 0xFFFFFFFFFFFFFFFFFFFFFFFFFFFFFFFFFFFFFFFF AND DUP3 PUSH1 0x40 MLOAD PUSH2 0x6B3 SWAP1 PUSH2 0x114F JUMP JUMPDEST PUSH0 PUSH1 0x40 MLOAD DUP1 DUP4 SUB DUP2 DUP6 DUP8 GAS CALL SWAP3 POP POP POP RETURNDATASIZE DUP1 PUSH0 DUP2 EQ PUSH2 0x6ED JUMPI PUSH1 0x40 MLOAD SWAP2 POP PUSH1 0x1F NOT PUSH1 0x3F RETURNDATASIZE ADD AND DUP3 ADD PUSH1 0x40 MSTORE RETURNDATASIZE DUP3 MSTORE RETURNDATASIZE PUSH0 PUSH1 0x20 DUP5 ADD RETURNDATACOPY PUSH2 0x6F2 JUMP JUMPDEST PUSH1 0x60 SWAP2 POP JUMPDEST POP POP SWAP1 POP DUP1 PUSH2 0x736 JUMPI PUSH1 0x40 MLOAD PUSH32 0x8C379A000000000000000000000000000000000000000000000000000000000 DUP2 MSTORE PUSH1 0x4 ADD PUSH2 0x72D SWAP1 PUSH2 0x11AD JUMP JUMPDEST PUSH1 0x40 MLOAD DUP1 SWAP2 SUB SWAP1 REVERT JUMPDEST CALLER PUSH20 0xFFFFFFFFFFFFFFFFFFFFFFFFFFFFFFFFFFFFFFFF AND PUSH32 0x7FCF532C15F0A6DB0BD6D0E038BEA71D30D808C7D98CB3BF7268A95BF5081B65 DUP4 PUSH1 0x40 MLOAD PUSH2 0x77C SWAP2 SWAP1 PUSH2 0xE0F JUMP JUMPDEST PUSH1 0x40 MLOAD DUP1 SWAP2 SUB SWAP1 LOG2 POP POP JUMP JUMPDEST PUSH0 PUSH0 SWAP1 SLOAD SWAP1 PUSH2 0x100 EXP SWAP1 DIV PUSH20 0xFFFFFFFFFFFFFFFFFFFFFFFFFFFFFFFFFFFFFFFF AND PUSH20 0xFFFFFFFFFFFFFFFFFFFFFFFFFFFFFFFFFFFFFFFF AND CALLER PUSH20 0xFFFFFFFFFFFFFFFFFFFFFFFFFFFFFFFFFFFFFFFF AND EQ PUSH2 0x816 JUMPI PUSH1 0x40 MLOAD PUSH32 0x8C379A000000000000000000000000000000000000000000000000000000000 DUP2 MSTORE PUSH1 0x4 ADD PUSH2 0x80D SWAP1 PUSH2 0x1215 JUMP JUMPDEST PUSH1 0x40 MLOAD DUP1 SWAP2 SUB SWAP1 REVERT JUMPDEST DUP1 SELFBALANCE LT ISZERO PUSH2 0x859 JUMPI PUSH1 0x40 MLOAD PUSH32 0x8C379A000000000000000000000000000000000000000000000000000000000 DUP2 MSTORE PUSH1 0x4 ADD PUSH2 0x850 SWAP1 PUSH2 0x127D JUMP JUMPDEST PUSH1 0x40 MLOAD DUP1 SWAP2 SUB SWAP1 REVERT JUMPDEST DUP1 PUSH1 0x2 PUSH0 DUP3 DUP3 SLOAD PUSH2 0x86A SWAP2 SWAP1 PUSH2 0xDCD JUMP JUMPDEST SWAP3 POP POP DUP2 SWAP1 SSTORE POP PUSH0 PUSH0 PUSH0 SWAP1 SLOAD SWAP1 PUSH2 0x100 EXP SWAP1 DIV PUSH20 0xFFFFFFFFFFFFFFFFFFFFFFFFFFFFFFFFFFFFFFFF AND PUSH20 0xFFFFFFFFFFFFFFFFFFFFFFFFFFFFFFFFFFFFFFFF AND DUP3 PUSH1 0x40 MLOAD PUSH2 0x8B6 SWAP1 PUSH2 0x114F JUMP JUMPDEST PUSH0 PUSH1 0x40 MLOAD DUP1 DUP4 SUB DUP2 DUP6 DUP8 GAS CALL SWAP3 POP POP POP RETURNDATASIZE DUP1 PUSH0 DUP2 EQ PUSH2 0x8F0 JUMPI PUSH1 0x40 MLOAD SWAP2 POP PUSH1 0x1F NOT PUSH1 0x3F RETURNDATASIZE ADD AND DUP3 ADD PUSH1 0x40 MSTORE RETURNDATASIZE DUP3 MSTORE RETURNDATASIZE PUSH0 PUSH1 0x20 DUP5 ADD RETURNDATACOPY PUSH2 0x8F5 JUMP JUMPDEST PUSH1 0x60 SWAP2 POP JUMPDEST POP POP SWAP1 POP DUP1 PUSH2 0x939 JUMPI PUSH1 0x40 MLOAD PUSH32 0x8C379A000000000000000000000000000000000000000000000000000000000 DUP2 MSTORE PUSH1 0x4 ADD PUSH2 0x930 SWAP1 PUSH2 0x11AD JUMP JUMPDEST PUSH1 0x40 MLOAD DUP1 SWAP2 SUB SWAP1 REVERT JUMPDEST PUSH0 PUSH0 SWAP1 SLOAD SWAP1 PUSH2 0x100 EXP SWAP1 DIV PUSH20 0xFFFFFFFFFFFFFFFFFFFFFFFFFFFFFFFFFFFFFFFF AND PUSH20 0xFFFFFFFFFFFFFFFFFFFFFFFFFFFFFFFFFFFFFFFF AND PUSH32 0x7FCF532C15F0A6DB0BD6D0E038BEA71D30D808C7D98CB3BF7268A95BF5081B65 DUP4 PUSH1 0x40 MLOAD PUSH2 0x99F SWAP2 SWAP1 PUSH2 0xE0F JUMP JUMPDEST PUSH1 0x40 MLOAD DUP1 SWAP2 SUB SWAP1 LOG2 POP POP JUMP JUMPDEST PUSH0 PUSH1 0x3 PUSH0 DUP4 PUSH20 0xFFFFFFFFFFFFFFFFFFFFFFFFFFFFFFFFFFFFFFFF AND PUSH20 0xFFFFFFFFFFFFFFFFFFFFFFFFFFFFFFFFFFFFFFFF AND DUP2 MSTORE PUSH1 0x20 ADD SWAP1 DUP2 MSTORE PUSH1 0x20 ADD PUSH0 KECCAK256 SLOAD SWAP1 POP SWAP2 SWAP1 POP JUMP JUMPDEST PUSH1 0x2 SLOAD DUP2 JUMP JUMPDEST PUSH0 SELFBALANCE SWAP1 POP SWAP1 JUMP JUMPDEST PUSH1 0x1 SLOAD DUP2 JUMP JUMPDEST PUSH0 PUSH1 0x3 PUSH0 CALLER PUSH20 0xFFFFFFFFFFFFFFFFFFFFFFFFFFFFFFFFFFFFFFFF AND PUSH20 0xFFFFFFFFFFFFFFFFFFFFFFFFFFFFFFFFFFFFFFFF AND DUP2 MSTORE PUSH1 0x20 ADD SWAP1 DUP2 MSTORE PUSH1 0x20 ADD PUSH0 KECCAK256 SLOAD SWAP1 POP PUSH0 DUP2 GT PUSH2 0xA87 JUMPI PUSH1 0x40 MLOAD PUSH32 0x8C379A000000000000000000000000000000000000000000000000000000000 DUP2 MSTORE PUSH1 0x4 ADD PUSH2 0xA7E SWAP1 PUSH2 0x12E5 JUMP JUMPDEST PUSH1 0x40 MLOAD DUP1 SWAP2 SUB SWAP1 REVERT JUMPDEST PUSH2 0xA90 DUP2 PUSH2 0x560 JUMP JUMPDEST POP JUMP JUMPDEST PUSH0 PUSH0 SWAP1 SLOAD SWAP1 PUSH2 0x100 EXP SWAP1 DIV PUSH20 0xFFFFFFFFFFFFFFFFFFFFFFFFFFFFFFFFFFFFFFFF AND DUP2 JUMP JUMPDEST PUSH0 PUSH0 SWAP1 SLOAD SWAP1 PUSH2 0x100 EXP SWAP1 DIV PUSH20 0xFFFFFFFFFFFFFFFFFFFFFFFFFFFFFFFFFFFFFFFF AND PUSH20 0xFFFFFFFFFFFFFFFFFFFFFFFFFFFFFFFFFFFFFFFF AND CALLER PUSH20 0xFFFFFFFFFFFFFFFFFFFFFFFFFFFFFFFFFFFFFFFF AND EQ PUSH2 0xB45 JUMPI PUSH1 0x40 MLOAD PUSH32 0x8C379A000000000000000000000000000000000000000000000000000000000 DUP2 MSTORE PUSH1 0x4 ADD PUSH2 0xB3C SWAP1 PUSH2 0x134D JUMP JUMPDEST PUSH1 0x40 MLOAD DUP1 SWAP2 SUB SWAP1 REVERT JUMPDEST DUP1 SELFBALANCE LT ISZERO PUSH2 0xB88 JUMPI PUSH1 0x40 MLOAD PUSH32 0x8C379A000000000000000000000000000000000000000000000000000000000 DUP2 MSTORE PUSH1 0x4 ADD PUSH2 0xB7F SWAP1 PUSH2 0x1001 JUMP JUMPDEST PUSH1 0x40 MLOAD DUP1 SWAP2 SUB SWAP1 REVERT JUMPDEST PUSH0 DUP3 PUSH20 0xFFFFFFFFFFFFFFFFFFFFFFFFFFFFFFFFFFFFFFFF AND DUP3 PUSH1 0x40 MLOAD PUSH2 0xBAD SWAP1 PUSH2 0x114F JUMP JUMPDEST PUSH0 PUSH1 0x40 MLOAD DUP1 DUP4 SUB DUP2 DUP6 DUP8 GAS CALL SWAP3 POP POP POP RETURNDATASIZE DUP1 PUSH0 DUP2 EQ PUSH2 0xBE7 JUMPI PUSH1 0x40 MLOAD SWAP2 POP PUSH1 0x1F NOT PUSH1 0x3F RETURNDATASIZE ADD AND DUP3 ADD PUSH1 0x40 MSTORE RETURNDATASIZE DUP3 MSTORE RETURNDATASIZE PUSH0 PUSH1 0x20 DUP5 ADD RETURNDATACOPY PUSH2 0xBEC JUMP JUMPDEST PUSH1 0x60 SWAP2 POP JUMPDEST POP POP SWAP1 POP DUP1 PUSH2 0xC30 JUMPI PUSH1 0x40 MLOAD PUSH32 0x8C379A000000000000000000000000000000000000000000000000000000000 DUP2 MSTORE PUSH1 0x4 ADD PUSH2 0xC27 SWAP1 PUSH2 0x13B5 JUMP JUMPDEST PUSH1 0x40 MLOAD DUP1 SWAP2 SUB SWAP1 REVERT JUMPDEST DUP3 PUSH20 0xFFFFFFFFFFFFFFFFFFFFFFFFFFFFFFFFFFFFFFFF AND ADDRESS PUSH20 0xFFFFFFFFFFFFFFFFFFFFFFFFFFFFFFFFFFFFFFFF AND PUSH32 0xDDF252AD1BE2C89B69C2B068FC378DAA952BA7F163C4A11628F55A4DF523B3EF DUP5 PUSH1 0x40 MLOAD PUSH2 0xC8D SWAP2 SWAP1 PUSH2 0xE0F JUMP JUMPDEST PUSH1 0x40 MLOAD DUP1 SWAP2 SUB SWAP1 LOG3 POP POP POP JUMP JUMPDEST PUSH0 CALLVALUE GT PUSH2 0xCDC JUMPI PUSH1 0x40 MLOAD PUSH32 0x8C379A000000000000000000000000000000000000000000000000000000000 DUP2 MSTORE PUSH1 0x4 ADD PUSH2 0xCD3 SWAP1 PUSH2 0x141D JUMP JUMPDEST PUSH1 0x40 MLOAD DUP1 SWAP2 SUB SWAP1 REVERT JUMPDEST CALLVALUE PUSH1 0x3 PUSH0 CALLER PUSH20 0xFFFFFFFFFFFFFFFFFFFFFFFFFFFFFFFFFFFFFFFF AND PUSH20 0xFFFFFFFFFFFFFFFFFFFFFFFFFFFFFFFFFFFFFFFF AND DUP2 MSTORE PUSH1 0x20 ADD SWAP1 DUP2 MSTORE PUSH1 0x20 ADD PUSH0 KECCAK256 PUSH0 DUP3 DUP3 SLOAD PUSH2 0xD28 SWAP2 SWAP1 PUSH2 0xDCD JUMP JUMPDEST SWAP3 POP POP DUP2 SWAP1 SSTORE POP CALLVALUE PUSH1 0x1 PUSH0 DUP3 DUP3 SLOAD PUSH2 0xD40 SWAP2 SWAP1 PUSH2 0xDCD JUMP JUMPDEST SWAP3 POP POP DUP2 SWAP1 SSTORE POP CALLER PUSH20 0xFFFFFFFFFFFFFFFFFFFFFFFFFFFFFFFFFFFFFFFF AND PUSH32 0xE1FFFCC4923D04B559F4D29A8BFC6CDA04EB5B0D3C460751C2402C5C5CC9109C CALLVALUE PUSH1 0x40 MLOAD PUSH2 0xD8D SWAP2 SWAP1 PUSH2 0xE0F JUMP JUMPDEST PUSH1 0x40 MLOAD DUP1 SWAP2 SUB SWAP1 LOG2 JUMP JUMPDEST PUSH0 DUP2 SWAP1 POP SWAP2 SWAP1 POP JUMP JUMPDEST PUSH32 0x4E487B7100000000000000000000000000000000000000000000000000000000 PUSH0 MSTORE PUSH1 0x11 PUSH1 0x4 MSTORE PUSH1 0x24 PUSH0 REVERT JUMPDEST PUSH0 PUSH2 0xDD7 DUP3 PUSH2 0xD97 JUMP JUMPDEST SWAP2 POP PUSH2 0xDE2 DUP4 PUSH2 0xD97 JUMP JUMPDEST SWAP3 POP DUP3 DUP3 ADD SWAP1 POP DUP1 DUP3 GT ISZERO PUSH2 0xDFA JUMPI PUSH2 0xDF9 PUSH2 0xDA0 JUMP JUMPDEST JUMPDEST SWAP3 SWAP2 POP POP JUMP JUMPDEST PUSH2 0xE09 DUP2 PUSH2 0xD97 JUMP JUMPDEST DUP3 MSTORE POP POP JUMP JUMPDEST PUSH0 PUSH1 0x20 DUP3 ADD SWAP1 POP PUSH2 0xE22 PUSH0 DUP4 ADD DUP5 PUSH2 0xE00 JUMP JUMPDEST SWAP3 SWAP2 POP POP JUMP JUMPDEST PUSH0 PUSH0 REVERT JUMPDEST PUSH0 PUSH20 0xFFFFFFFFFFFFFFFFFFFFFFFFFFFFFFFFFFFFFFFF DUP3 AND SWAP1 POP SWAP2 SWAP1 POP JUMP JUMPDEST PUSH0 PUSH2 0xE55 DUP3 PUSH2 0xE2C JUMP JUMPDEST SWAP1 POP SWAP2 SWAP1 POP JUMP JUMPDEST PUSH2 0xE65 DUP2 PUSH2 0xE4B JUMP JUMPDEST DUP2 EQ PUSH2 0xE6F JUMPI PUSH0 PUSH0 REVERT JUMPDEST POP JUMP JUMPDEST PUSH0 DUP2 CALLDATALOAD SWAP1 POP PUSH2 0xE80 DUP2 PUSH2 0xE5C JUMP JUMPDEST SWAP3 SWAP2 POP POP JUMP JUMPDEST PUSH0 PUSH1 0x20 DUP3 DUP5 SUB SLT ISZERO PUSH2 0xE9B JUMPI PUSH2 0xE9A PUSH2 0xE28 JUMP JUMPDEST JUMPDEST PUSH0 PUSH2 0xEA8 DUP5 DUP3 DUP6 ADD PUSH2 0xE72 JUMP JUMPDEST SWAP2 POP POP SWAP3 SWAP2 POP POP JUMP JUMPDEST PUSH0 PUSH2 0xEBB DUP3 PUSH2 0xE2C JUMP JUMPDEST SWAP1 POP SWAP2 SWAP1 POP JUMP JUMPDEST PUSH2 0xECB DUP2 PUSH2 0xEB1 JUMP JUMPDEST DUP2 EQ PUSH2 0xED5 JUMPI PUSH0 PUSH0 REVERT JUMPDEST POP JUMP JUMPDEST PUSH0 DUP2 CALLDATALOAD SWAP1 POP PUSH2 0xEE6 DUP2 PUSH2 0xEC2 JUMP JUMPDEST SWAP3 SWAP2 POP POP JUMP JUMPDEST PUSH2 0xEF5 DUP2 PUSH2 0xD97 JUMP JUMPDEST DUP2 EQ PUSH2 0xEFF JUMPI PUSH0 PUSH0 REVERT JUMPDEST POP JUMP JUMPDEST PUSH0 DUP2 CALLDATALOAD SWAP1 POP PUSH2 0xF10 DUP2 PUSH2 0xEEC JUMP JUMPDEST SWAP3 SWAP2 POP POP JUMP JUMPDEST PUSH0 PUSH0 PUSH1 0x40 DUP4 DUP6 SUB SLT ISZERO PUSH2 0xF2C JUMPI PUSH2 0xF2B PUSH2 0xE28 JUMP JUMPDEST JUMPDEST PUSH0 PUSH2 0xF39 DUP6 DUP3 DUP7 ADD PUSH2 0xED8 JUMP JUMPDEST SWAP3 POP POP PUSH1 0x20 PUSH2 0xF4A DUP6 DUP3 DUP7 ADD PUSH2 0xF02 JUMP JUMPDEST SWAP2 POP POP SWAP3 POP SWAP3 SWAP1 POP JUMP JUMPDEST PUSH0 PUSH1 0x20 DUP3 DUP5 SUB SLT ISZERO PUSH2 0xF69 JUMPI PUSH2 0xF68 PUSH2 0xE28 JUMP JUMPDEST JUMPDEST PUSH0 PUSH2 0xF76 DUP5 DUP3 DUP6 ADD PUSH2 0xF02 JUMP JUMPDEST SWAP2 POP POP SWAP3 SWAP2 POP POP JUMP JUMPDEST PUSH2 0xF88 DUP2 PUSH2 0xE4B JUMP JUMPDEST DUP3 MSTORE POP POP JUMP JUMPDEST PUSH0 PUSH1 0x20 DUP3 ADD SWAP1 POP PUSH2 0xFA1 PUSH0 DUP4 ADD DUP5 PUSH2 0xF7F JUMP JUMPDEST SWAP3 SWAP2 POP POP JUMP JUMPDEST PUSH0 DUP3 DUP3 MSTORE PUSH1 0x20 DUP3 ADD SWAP1 POP SWAP3 SWAP2 POP POP JUMP JUMPDEST PUSH32 0x496E73756666696369656E742062616C616E6365000000000000000000000000 PUSH0 DUP3 ADD MSTORE POP JUMP JUMPDEST PUSH0 PUSH2 0xFEB PUSH1 0x14 DUP4 PUSH2 0xFA7 JUMP JUMPDEST SWAP2 POP PUSH2 0xFF6 DUP3 PUSH2 0xFB7 JUMP JUMPDEST PUSH1 0x20 DUP3 ADD SWAP1 POP SWAP2 SWAP1 POP JUMP JUMPDEST PUSH0 PUSH1 0x20 DUP3 ADD SWAP1 POP DUP2 DUP2 SUB PUSH0 DUP4 ADD MSTORE PUSH2 0x1018 DUP2 PUSH2 0xFDF JUMP JUMPDEST SWAP1 POP SWAP2 SWAP1 POP JUMP JUMPDEST PUSH32 0x43616E6E6F74207472616E7366657220746F207A65726F206164647265737300 PUSH0 DUP3 ADD MSTORE POP JUMP JUMPDEST PUSH0 PUSH2 0x1053 PUSH1 0x1F DUP4 PUSH2 0xFA7 JUMP JUMPDEST SWAP2 POP PUSH2 0x105E DUP3 PUSH2 0x101F JUMP JUMPDEST PUSH1 0x20 DUP3 ADD SWAP1 POP SWAP2 SWAP1 POP JUMP JUMPDEST PUSH0 PUSH1 0x20 DUP3 ADD SWAP1 POP DUP2 DUP2 SUB PUSH0 DUP4 ADD MSTORE PUSH2 0x1080 DUP2 PUSH2 0x1047 JUMP JUMPDEST SWAP1 POP SWAP2 SWAP1 POP JUMP JUMPDEST PUSH0 PUSH2 0x1091 DUP3 PUSH2 0xD97 JUMP JUMPDEST SWAP2 POP PUSH2 0x109C DUP4 PUSH2 0xD97 JUMP JUMPDEST SWAP3 POP DUP3 DUP3 SUB SWAP1 POP DUP2 DUP2 GT ISZERO PUSH2 0x10B4 JUMPI PUSH2 0x10B3 PUSH2 0xDA0 JUMP JUMPDEST JUMPDEST SWAP3 SWAP2 POP POP JUMP JUMPDEST PUSH32 0x436F6E74726163742068617320696E73756666696369656E742066756E647300 PUSH0 DUP3 ADD MSTORE POP JUMP JUMPDEST PUSH0 PUSH2 0x10EE PUSH1 0x1F DUP4 PUSH2 0xFA7 JUMP JUMPDEST SWAP2 POP PUSH2 0x10F9 DUP3 PUSH2 0x10BA JUMP JUMPDEST PUSH1 0x20 DUP3 ADD SWAP1 POP SWAP2 SWAP1 POP JUMP JUMPDEST PUSH0 PUSH1 0x20 DUP3 ADD SWAP1 POP DUP2 DUP2 SUB PUSH0 DUP4 ADD MSTORE PUSH2 0x111B DUP2 PUSH2 0x10E2 JUMP JUMPDEST SWAP1 POP SWAP2 SWAP1 POP JUMP JUMPDEST PUSH0 DUP2 SWAP1 POP SWAP3 SWAP2 POP POP JUMP JUMPDEST POP JUMP JUMPDEST PUSH0 PUSH2 0x113A PUSH0 DUP4 PUSH2 0x1122 JUMP JUMPDEST SWAP2 POP PUSH2 0x1145 DUP3 PUSH2 0x112C JUMP JUMPDEST PUSH0 DUP3 ADD SWAP1 POP SWAP2 SWAP1 POP JUMP JUMPDEST PUSH0 PUSH2 0x1159 DUP3 PUSH2 0x112F JUMP JUMPDEST SWAP2 POP DUP2 SWAP1 POP SWAP2 SWAP1 POP JUMP JUMPDEST PUSH32 0x5472616E73666572206661696C65640000000000000000000000000000000000 PUSH0 DUP3 ADD MSTORE POP JUMP JUMPDEST PUSH0 PUSH2 0x1197 PUSH1 0xF DUP4 PUSH2 0xFA7 JUMP JUMPDEST SWAP2 POP PUSH2 0x11A2 DUP3 PUSH2 0x1163 JUMP JUMPDEST PUSH1 0x20 DUP3 ADD SWAP1 POP SWAP2 SWAP1 POP JUMP JUMPDEST PUSH0 PUSH1 0x20 DUP3 ADD SWAP1 POP DUP2 DUP2 SUB PUSH0 DUP4 ADD MSTORE PUSH2 0x11C4 DUP2 PUSH2 0x118B JUMP JUMPDEST SWAP1 POP SWAP2 SWAP1 POP JUMP JUMPDEST PUSH32 0x4F6E6C79206F776E65722063616E2063616C6C20746869730000000000000000 PUSH0 DUP3 ADD MSTORE POP JUMP JUMPDEST PUSH0 PUSH2 0x11FF PUSH1 0x18 DUP4 PUSH2 0xFA7 JUMP JUMPDEST SWAP2 POP PUSH2 0x120A DUP3 PUSH2 0x11CB JUMP JUMPDEST PUSH1 0x20 DUP3 ADD SWAP1 POP SWAP2 SWAP1 POP JUMP JUMPDEST PUSH0 PUSH1 0x20 DUP3 ADD SWAP1 POP DUP2 DUP2 SUB PUSH0 DUP4 ADD MSTORE PUSH2 0x122C DUP2 PUSH2 0x11F3 JUMP JUMPDEST SWAP1 POP SWAP2 SWAP1 POP JUMP JUMPDEST PUSH32 0x496E73756666696369656E7420636F6E74726163742062616C616E6365000000 PUSH0 DUP3 ADD MSTORE POP JUMP JUMPDEST PUSH0 PUSH2 0x1267 PUSH1 0x1D DUP4 PUSH2 0xFA7 JUMP JUMPDEST SWAP2 POP PUSH2 0x1272 DUP3 PUSH2 0x1233 JUMP JUMPDEST PUSH1 0x20 DUP3 ADD SWAP1 POP SWAP2 SWAP1 POP JUMP JUMPDEST PUSH0 PUSH1 0x20 DUP3 ADD SWAP1 POP DUP2 DUP2 SUB PUSH0 DUP4 ADD MSTORE PUSH2 0x1294 DUP2 PUSH2 0x125B JUMP JUMPDEST SWAP1 POP SWAP2 SWAP1 POP JUMP JUMPDEST PUSH32 0x4E6F2062616C616E636520746F20776974686472617700000000000000000000 PUSH0 DUP3 ADD MSTORE POP JUMP JUMPDEST PUSH0 PUSH2 0x12CF PUSH1 0x16 DUP4 PUSH2 0xFA7 JUMP JUMPDEST SWAP2 POP PUSH2 0x12DA DUP3 PUSH2 0x129B JUMP JUMPDEST PUSH1 0x20 DUP3 ADD SWAP1 POP SWAP2 SWAP1 POP JUMP JUMPDEST PUSH0 PUSH1 0x20 DUP3 ADD SWAP1 POP DUP2 DUP2 SUB PUSH0 DUP4 ADD MSTORE PUSH2 0x12FC DUP2 PUSH2 0x12C3 JUMP JUMPDEST SWAP1 POP SWAP2 SWAP1 POP JUMP JUMPDEST PUSH32 0x4F6E6C79206F776E65722063616E2073656E6400000000000000000000000000 PUSH0 DUP3 ADD MSTORE POP JUMP JUMPDEST PUSH0 PUSH2 0x1337 PUSH1 0x13 DUP4 PUSH2 0xFA7 JUMP JUMPDEST SWAP2 POP PUSH2 0x1342 DUP3 PUSH2 0x1303 JUMP JUMPDEST PUSH1 0x20 DUP3 ADD SWAP1 POP SWAP2 SWAP1 POP JUMP JUMPDEST PUSH0 PUSH1 0x20 DUP3 ADD SWAP1 POP DUP2 DUP2 SUB PUSH0 DUP4 ADD MSTORE PUSH2 0x1364 DUP2 PUSH2 0x132B JUMP JUMPDEST SWAP1 POP SWAP2 SWAP1 POP JUMP JUMPDEST PUSH32 0x53656E64206661696C6564000000000000000000000000000000000000000000 PUSH0 DUP3 ADD MSTORE POP JUMP JUMPDEST PUSH0 PUSH2 0x139F PUSH1 0xB DUP4 PUSH2 0xFA7 JUMP JUMPDEST SWAP2 POP PUSH2 0x13AA DUP3 PUSH2 0x136B JUMP JUMPDEST PUSH1 0x20 DUP3 ADD SWAP1 POP SWAP2 SWAP1 POP JUMP JUMPDEST PUSH0 PUSH1 0x20 DUP3 ADD SWAP1 POP DUP2 DUP2 SUB PUSH0 DUP4 ADD MSTORE PUSH2 0x13CC DUP2 PUSH2 0x1393 JUMP JUMPDEST SWAP1 POP SWAP2 SWAP1 POP JUMP JUMPDEST PUSH32 0x4D7573742073656E6420736F6D65204574686572000000000000000000000000 PUSH0 DUP3 ADD MSTORE POP JUMP JUMPDEST PUSH0 PUSH2 0x1407 PUSH1 0x14 DUP4 PUSH2 0xFA7 JUMP JUMPDEST SWAP2 POP PUSH2 0x1412 DUP3 PUSH2 0x13D3 JUMP JUMPDEST PUSH1 0x20 DUP3 ADD SWAP1 POP SWAP2 SWAP1 POP JUMP JUMPDEST PUSH0 PUSH1 0x20 DUP3 ADD SWAP1 POP DUP2 DUP2 SUB PUSH0 DUP4 ADD MSTORE PUSH2 0x1434 DUP2 PUSH2 0x13FB JUMP JUMPDEST SWAP1 POP SWAP2 SWAP1 POP JUMP INVALID LOG2 PUSH5 0x6970667358 0x22 SLT KECCAK256 SIGNEXTEND TLOAD DUP3 DUP8 SHR 0xEA PUSH26 0x194DC441883F096CFB8686D8DC868DE4E03C4678BEB92E2FF664 PUSH20 0x6F6C634300081F00330000000000000000000000 "
				},
				"gasEstimates": {
					"creation": {
						"codeDepositCost": "1046600",
						"executionCost": "25349",
						"totalCost": "1071949"
					},
					"external": {
						"balances(address)": "2803",
						"deposit()": "infinite",
						"getContractBalance()": "334",
						"getUserBalance(address)": "2918",
						"owner()": "2573",
						"ownerWithdraw(uint256)": "infinite",
						"sendEther(address,uint256)": "infinite",
						"totalDeposits()": "2447",
						"totalWithdrawals()": "2536",
						"transferTo(address,uint256)": "infinite",
						"withdraw(uint256)": "infinite",
						"withdrawAll()": "infinite"
					}
				},
				"methodIdentifiers": {
					"balances(address)": "27e235e3",
					"deposit()": "d0e30db0",
					"getContractBalance()": "6f9fb98a",
					"getUserBalance(address)": "47734892",
					"owner()": "8da5cb5b",
					"ownerWithdraw(uint256)": "33f707d1",
					"sendEther(address,uint256)": "c1756a2c",
					"totalDeposits()": "7d882097",
					"totalWithdrawals()": "60464627",
					"transferTo(address,uint256)": "2ccb1b30",
					"withdraw(uint256)": "2e1a7d4d",
					"withdrawAll()": "853828b6"
				}
			},
			"storageLayout": {
				"storage": [
					{
						"astId": 4,
						"contract": "EtherTransfer.sol:EtherTransfer",
						"label": "owner",
						"offset": 0,
						"slot": "0",
						"type": "t_address"
					},
					{
						"astId": 6,
						"contract": "EtherTransfer.sol:EtherTransfer",
						"label": "totalDeposits",
						"offset": 0,
						"slot": "1",
						"type": "t_uint256"
					},
					{
						"astId": 8,
						"contract": "EtherTransfer.sol:EtherTransfer",
						"label": "totalWithdrawals",
						"offset": 0,
						"slot": "2",
						"type": "t_uint256"
					},
					{
						"astId": 12,
						"contract": "EtherTransfer.sol:EtherTransfer",
						"label": "balances",
						"offset": 0,
						"slot": "3",
						"type": "t_mapping(t_address,t_uint256)"
					}
				],
				"types": {
					"t_address": {
						"encoding": "inplace",
						"label": "address",
						"numberOfBytes": "20"
					},
					"t_mapping(t_address,t_uint256)": {
						"encoding": "mapping",
						"key": "t_address",
						"label": "mapping(address => uint256)",
						"numberOfBytes": "32",
						"value": "t_uint256"
					},
					"t_uint256": {
						"encoding": "inplace",
						"label": "uint256",
						"numberOfBytes": "32"
					}
				}
			},
			"userdoc": {
				"kind": "user",
				"methods": {
					"deposit()": {
						"notice": "Send ETH along with this transaction"
					}
				},
				"notice": "Learn how to handle ETH transactions in smart contracts",
				"version": 1
			}
		}
	}
}