{
	"blank.sol": {
		"SimpleVoting": {
			"abi": [
				{
					"inputs": [],
					"stateMutability": "nonpayable",
					"type": "constructor"
				},
				{
					"anonymous": false,
					"inputs": [
						{
							"indexed": true,
							"internalType": "uint256",
							"name": "proposalId",
							"type": "uint256"
						}
					],
					"name": "ProposalClosed",
					"type": "event"
				},
				{
					"anonymous": false,
					"inputs": [
						{
							"indexed": true,
							"internalType": "uint256",
							"name": "proposalId",
							"type": "uint256"
						},
						{
							"indexed": false,
							"internalType": "string",
							"name": "title",
							"type": "string"
						},
						{
							"indexed": true,
							"internalType": "address",
							"name": "proposer",
							"type": "address"
						},
						{
							"indexed": false,
							"internalType": "uint256",
							"name": "deadline",
							"type": "uint256"
						}
					],
					"name": "ProposalCreated",
					"type": "event"
				},
				{
					"anonymous": false,
					"inputs": [
						{
							"indexed": true,
							"internalType": "uint256",
							"name": "proposalId",
							"type": "uint256"
						},
						{
							"indexed": true,
							"internalType": "address",
							"name": "voter",
							"type": "address"
						},
						{
							"indexed": false,
							"internalType": "bool",
							"name": "vote",
							"type": "bool"
						}
					],
					"name": "VoteCast",
					"type": "event"
				},
				{
					"inputs": [],
					"name": "admin",
					"outputs": [
						{
							"internalType": "address",
							"name": "",
							"type": "address"
						}
					],
					"stateMutability": "view",
					"type": "function"
				},
				{
					"inputs": [
						{
							"internalType": "uint256",
							"name": "_proposalId",
							"type": "uint256"
						}
					],
					"name": "closeProposal",
					"outputs": [],
					"stateMutability": "nonpayable",
					"type": "function"
				},
				{
					"inputs": [
						{
							"internalType": "string",
							"name": "_title",
							"type": "string"
						},
						{
							"internalType": "string",
							"name": "_description",
							"type": "string"
						},
						{
							"internalType": "uint256",
							"name": "_votingPeriodDays",
							"type": "uint256"
						}
					],
					"name": "createProposal",
					"outputs": [
						{
							"internalType": "uint256",
							"name": "",
							"type": "uint256"
						}
					],
					"stateMutability": "nonpayable",
					"type": "function"
				},
				{
					"inputs": [],
					"name": "defaultVotingPeriod",
					"outputs": [
						{
							"internalType": "uint256",
							"name": "",
							"type": "uint256"
						}
					],
					"stateMutability": "view",
					"type": "function"
				},
				{
					"inputs": [],
					"name": "getActiveProposalsCount",
					"outputs": [
						{
							"internalType": "uint256",
							"name": "",
							"type": "uint256"
						}
					],
					"stateMutability": "view",
					"type": "function"
				},
				{
					"inputs": [
						{
							"internalType": "uint256",
							"name": "_proposalId",
							"type": "uint256"
						}
					],
					"name": "getProposal",
					"outputs": [
						{
							"internalType": "uint256",
							"name": "id",
							"type": "uint256"
						},
						{
							"internalType": "string",
							"name": "title",
							"type": "string"
						},
						{
							"internalType": "string",
							"name": "description",
							"type": "string"
						},
						{
							"internalType": "address",
							"name": "proposer",
							"type": "address"
						},
						{
							"internalType": "uint256",
							"name": "yesVotes",
							"type": "uint256"
						},
						{
							"internalType": "uint256",
							"name": "noVotes",
							"type": "uint256"
						},
						{
							"internalType": "uint256",
							"name": "createdAt",
							"type": "uint256"
						},
						{
							"internalType": "uint256",
							"name": "votingDeadline",
							"type": "uint256"
						},
						{
							"internalType": "bool",
							"name": "isActive",
							"type": "bool"
						}
					],
					"stateMutability": "view",
					"type": "function"
				},
				{
					"inputs": [
						{
							"internalType": "uint256",
							"name": "_proposalId",
							"type": "uint256"
						}
					],
					"name": "getProposalStatus",
					"outputs": [
						{
							"internalType": "string",
							"name": "status",
							"type": "string"
						}
					],
					"stateMutability": "view",
					"type": "function"
				},
				{
					"inputs": [
						{
							"internalType": "uint256",
							"name": "_proposalId",
							"type": "uint256"
						}
					],
					"name": "getResults",
					"outputs": [
						{
							"internalType": "uint256",
							"name": "yesVotes",
							"type": "uint256"
						},
						{
							"internalType": "uint256",
							"name": "noVotes",
							"type": "uint256"
						},
						{
							"internalType": "uint256",
							"name": "totalVotes",
							"type": "uint256"
						}
					],
					"stateMutability": "view",
					"type": "function"
				},
				{
					"inputs": [
						{
							"internalType": "uint256",
							"name": "_proposalId",
							"type": "uint256"
						}
					],
					"name": "getTimeRemaining",
					"outputs": [
						{
							"internalType": "uint256",
							"name": "",
							"type": "uint256"
						}
					],
					"stateMutability": "view",
					"type": "function"
				},
				{
					"inputs": [
						{
							"internalType": "uint256",
							"name": "_proposalId",
							"type": "uint256"
						},
						{
							"internalType": "address",
							"name": "_voter",
							"type": "address"
						}
					],
					"name": "hasVoted",
					"outputs": [
						{
							"internalType": "bool",
							"name": "",
							"type": "bool"
						}
					],
					"stateMutability": "view",
					"type": "function"
				},
				{
					"inputs": [],
					"name": "proposalCount",
					"outputs": [
						{
							"internalType": "uint256",
							"name": "",
							"type": "uint256"
						}
					],
					"stateMutability": "view",
					"type": "function"
				},
				{
					"inputs": [
						{
							"internalType": "uint256",
							"name": "",
							"type": "uint256"
						}
					],
					"name": "proposals",
					"outputs": [
						{
							"internalType": "uint256",
							"name": "id",
							"type": "uint256"
						},
						{
							"internalType": "string",
							"name": "title",
							"type": "string"
						},
						{
							"internalType": "string",
							"name": "description",
							"type": "string"
						},
						{
							"internalType": "address",
							"name": "proposer",
							"type": "address"
						},
						{
							"internalType": "uint256",
							"name": "yesVotes",
							"type": "uint256"
						},
						{
							"internalType": "uint256",
							"name": "noVotes",
							"type": "uint256"
						},
						{
							"internalType": "uint256",
							"name": "createdAt",
							"type": "uint256"
						},
						{
							"internalType": "uint256",
							"name": "votingDeadline",
							"type": "uint256"
						},
						{
							"internalType": "bool",
							"name": "isActive",
							"type": "bool"
						}
					],
					"stateMutability": "view",
					"type": "function"
				},
				{
					"inputs": [
						{
							"internalType": "uint256",
							"name": "_days",
							"type": "uint256"
						}
					],
					"name": "setDefaultVotingPeriod",
					"outputs": [],
					"stateMutability": "nonpayable",
					"type": "function"
				},
				{
					"inputs": [
						{
							"internalType": "uint256",
							"name": "_proposalId",
							"type": "uint256"
						},
						{
							"internalType": "bool",
							"name": "_vote",
							"type": "bool"
						}
					],
					"name": "vote",
					"outputs": [],
					"stateMutability": "nonpayable",
					"type": "function"
				}
			],
			"devdoc": {
				"details": "A decentralized voting system for proposals",
				"kind": "dev",
				"methods": {
					"closeProposal(uint256)": {
						"details": "Close a proposal manually (admin only)",
						"params": {
							"_proposalId": "The proposal ID"
						}
					},
					"constructor": {
						"details": "Constructor sets deployer as admin"
					},
					"createProposal(string,string,uint256)": {
						"details": "Create a new proposal",
						"params": {
							"_description": "Proposal description",
							"_title": "Proposal title",
							"_votingPeriodDays": "Voting period in days (0 = use default)"
						},
						"returns": {
							"_0": "uint256 The proposal ID"
						}
					},
					"getActiveProposalsCount()": {
						"details": "Get all active proposals count",
						"returns": {
							"_0": "uint256 Number of active proposals"
						}
					},
					"getProposalStatus(uint256)": {
						"details": "Get proposal status",
						"params": {
							"_proposalId": "The proposal ID"
						},
						"returns": {
							"status": "\"Passed\", \"Rejected\", \"Active\", or \"Ended\""
						}
					},
					"getResults(uint256)": {
						"details": "Get voting results",
						"params": {
							"_proposalId": "The proposal ID"
						},
						"returns": {
							"noVotes": "Number of no votes",
							"totalVotes": "Total number of votes",
							"yesVotes": "Number of yes votes"
						}
					},
					"getTimeRemaining(uint256)": {
						"details": "Get time remaining for voting",
						"params": {
							"_proposalId": "The proposal ID"
						},
						"returns": {
							"_0": "uint256 Seconds remaining (0 if ended)"
						}
					},
					"hasVoted(uint256,address)": {
						"details": "Check if an address has voted on a proposal",
						"params": {
							"_proposalId": "The proposal ID",
							"_voter": "The voter's address"
						},
						"returns": {
							"_0": "bool True if voted"
						}
					},
					"setDefaultVotingPeriod(uint256)": {
						"details": "Set default voting period (admin only)",
						"params": {
							"_days": "Number of days"
						}
					},
					"vote(uint256,bool)": {
						"details": "Cast a vote on a proposal",
						"params": {
							"_proposalId": "The proposal ID",
							"_vote": "True for yes, false for no"
						}
					}
				},
				"title": "SimpleVoting",
				"version": 1
			},
			"evm": {
				"assembly": "    /* \"blank.sol\":220:7855  contract SimpleVoting {... */\n  mstore(0x40, 0x80)\n    /* \"blank.sol\":750:756  7 days */\n  0x093a80\n    /* \"blank.sol\":713:756  uint256 public defaultVotingPeriod = 7 days */\n  0x03\n  sstore\n    /* \"blank.sol\":1678:1727  constructor() {... */\n  callvalue\n  dup1\n  iszero\n  tag_1\n  jumpi\n  revert(0x00, 0x00)\ntag_1:\n  pop\n    /* \"blank.sol\":1710:1720  msg.sender */\n  caller\n    /* \"blank.sol\":1702:1707  admin */\n  0x02\n  0x00\n    /* \"blank.sol\":1702:1720  admin = msg.sender */\n  0x0100\n  exp\n  dup2\n  sload\n  dup2\n  0xffffffffffffffffffffffffffffffffffffffff\n  mul\n  not\n  and\n  swap1\n  dup4\n  0xffffffffffffffffffffffffffffffffffffffff\n  and\n  mul\n  or\n  swap1\n  sstore\n  pop\n    /* \"blank.sol\":220:7855  contract SimpleVoting {... */\n  dataSize(sub_0)\n  dup1\n  dataOffset(sub_0)\n  0x00\n  codecopy\n  0x00\n  return\nstop\n\nsub_0: assembly {\n        /* \"blank.sol\":220:7855  contract SimpleVoting {... */\n      mstore(0x40, 0x80)\n      callvalue\n      dup1\n      iszero\n      tag_1\n      jumpi\n      revert(0x00, 0x00)\n    tag_1:\n      pop\n      jumpi(tag_2, lt(calldatasize, 0x04))\n      shr(0xe0, calldataload(0x00))\n      dup1\n      0x81a60c0d\n      gt\n      tag_17\n      jumpi\n      dup1\n      0xc7f758a8\n      gt\n      tag_18\n      jumpi\n      dup1\n      0xc7f758a8\n      eq\n      tag_13\n      jumpi\n      dup1\n      0xc9d27afe\n      eq\n      tag_14\n      jumpi\n      dup1\n      0xda35c664\n      eq\n      tag_15\n      jumpi\n      dup1\n      0xf851a440\n      eq\n      tag_16\n      jumpi\n      jump(tag_2)\n    tag_18:\n      dup1\n      0x81a60c0d\n      eq\n      tag_10\n      jumpi\n      dup1\n      0x8cd42991\n      eq\n      tag_11\n      jumpi\n      dup1\n      0xa83bf50a\n      eq\n      tag_12\n      jumpi\n      jump(tag_2)\n    tag_17:\n      dup1\n      0x19f3dad1\n      gt\n      tag_19\n      jumpi\n      dup1\n      0x19f3dad1\n      eq\n      tag_6\n      jumpi\n      dup1\n      0x3eb9b79b\n      eq\n      tag_7\n      jumpi\n      dup1\n      0x401853b7\n      eq\n      tag_8\n      jumpi\n      dup1\n      0x43859632\n      eq\n      tag_9\n      jumpi\n      jump(tag_2)\n    tag_19:\n      dup1\n      0x013cf08b\n      eq\n      tag_3\n      jumpi\n      dup1\n      0x0386a016\n      eq\n      tag_4\n      jumpi\n      dup1\n      0x0ce0ebf4\n      eq\n      tag_5\n      jumpi\n    tag_2:\n      revert(0x00, 0x00)\n        /* \"blank.sol\":602:647  mapping(uint256 => Proposal) public proposals */\n    tag_3:\n      tag_20\n      0x04\n      dup1\n      calldatasize\n      sub\n      dup2\n      add\n      swap1\n      tag_21\n      swap2\n      swap1\n      tag_22\n      jump\t// in\n    tag_21:\n      tag_23\n      jump\t// in\n    tag_20:\n      mload(0x40)\n      tag_24\n      swap10\n      swap9\n      swap8\n      swap7\n      swap6\n      swap5\n      swap4\n      swap3\n      swap2\n      swap1\n      tag_25\n      jump\t// in\n    tag_24:\n      mload(0x40)\n      dup1\n      swap2\n      sub\n      swap1\n      return\n        /* \"blank.sol\":3965:4257  function closeProposal(uint256 _proposalId)... */\n    tag_4:\n      tag_26\n      0x04\n      dup1\n      calldatasize\n      sub\n      dup2\n      add\n      swap1\n      tag_27\n      swap2\n      swap1\n      tag_22\n      jump\t// in\n    tag_27:\n      tag_28\n      jump\t// in\n    tag_26:\n      stop\n        /* \"blank.sol\":1982:3185  function createProposal(... */\n    tag_5:\n      tag_29\n      0x04\n      dup1\n      calldatasize\n      sub\n      dup2\n      add\n      swap1\n      tag_30\n      swap2\n      swap1\n      tag_31\n      jump\t// in\n    tag_30:\n      tag_32\n      jump\t// in\n    tag_29:\n      mload(0x40)\n      tag_33\n      swap2\n      swap1\n      tag_34\n      jump\t// in\n    tag_33:\n      mload(0x40)\n      dup1\n      swap2\n      sub\n      swap1\n      return\n        /* \"blank.sol\":7539:7853  function getActiveProposalsCount() public view returns (uint256) {... */\n    tag_6:\n      tag_35\n      tag_36\n      jump\t// in\n    tag_35:\n      mload(0x40)\n      tag_37\n      swap2\n      swap1\n      tag_34\n      jump\t// in\n    tag_37:\n      mload(0x40)\n      dup1\n      swap2\n      sub\n      swap1\n      return\n        /* \"blank.sol\":7242:7420  function setDefaultVotingPeriod(uint256 _days) public onlyAdmin {... */\n    tag_7:\n      tag_38\n      0x04\n      dup1\n      calldatasize\n      sub\n      dup2\n      add\n      swap1\n      tag_39\n      swap2\n      swap1\n      tag_22\n      jump\t// in\n    tag_39:\n      tag_40\n      jump\t// in\n    tag_38:\n      stop\n        /* \"blank.sol\":6098:6631  function getProposalStatus(uint256 _proposalId)... */\n    tag_8:\n      tag_41\n      0x04\n      dup1\n      calldatasize\n      sub\n      dup2\n      add\n      swap1\n      tag_42\n      swap2\n      swap1\n      tag_22\n      jump\t// in\n    tag_42:\n      tag_43\n      jump\t// in\n    tag_41:\n      mload(0x40)\n      tag_44\n      swap2\n      swap1\n      tag_45\n      jump\t// in\n    tag_44:\n      mload(0x40)\n      dup1\n      swap2\n      sub\n      swap1\n      return\n        /* \"blank.sol\":5186:5395  function hasVoted(uint256 _proposalId, address _voter)... */\n    tag_9:\n      tag_46\n      0x04\n      dup1\n      calldatasize\n      sub\n      dup2\n      add\n      swap1\n      tag_47\n      swap2\n      swap1\n      tag_48\n      jump\t// in\n    tag_47:\n      tag_49\n      jump\t// in\n    tag_46:\n      mload(0x40)\n      tag_50\n      swap2\n      swap1\n      tag_51\n      jump\t// in\n    tag_50:\n      mload(0x40)\n      dup1\n      swap2\n      sub\n      swap1\n      return\n        /* \"blank.sol\":5628:5933  function getResults(uint256 _proposalId)... */\n    tag_10:\n      tag_52\n      0x04\n      dup1\n      calldatasize\n      sub\n      dup2\n      add\n      swap1\n      tag_53\n      swap2\n      swap1\n      tag_22\n      jump\t// in\n    tag_53:\n      tag_54\n      jump\t// in\n    tag_52:\n      mload(0x40)\n      tag_55\n      swap4\n      swap3\n      swap2\n      swap1\n      tag_56\n      jump\t// in\n    tag_55:\n      mload(0x40)\n      dup1\n      swap2\n      sub\n      swap1\n      return\n        /* \"blank.sol\":6795:7130  function getTimeRemaining(uint256 _proposalId)... */\n    tag_11:\n      tag_57\n      0x04\n      dup1\n      calldatasize\n      sub\n      dup2\n      add\n      swap1\n      tag_58\n      swap2\n      swap1\n      tag_22\n      jump\t// in\n    tag_58:\n      tag_59\n      jump\t// in\n    tag_57:\n      mload(0x40)\n      tag_60\n      swap2\n      swap1\n      tag_34\n      jump\t// in\n    tag_60:\n      mload(0x40)\n      dup1\n      swap2\n      sub\n      swap1\n      return\n        /* \"blank.sol\":713:756  uint256 public defaultVotingPeriod = 7 days */\n    tag_12:\n      tag_61\n      tag_62\n      jump\t// in\n    tag_61:\n      mload(0x40)\n      tag_63\n      swap2\n      swap1\n      tag_34\n      jump\t// in\n    tag_63:\n      mload(0x40)\n      dup1\n      swap2\n      sub\n      swap1\n      return\n        /* \"blank.sol\":4268:4987  function getProposal(uint256 _proposalId)... */\n    tag_13:\n      tag_64\n      0x04\n      dup1\n      calldatasize\n      sub\n      dup2\n      add\n      swap1\n      tag_65\n      swap2\n      swap1\n      tag_22\n      jump\t// in\n    tag_65:\n      tag_66\n      jump\t// in\n    tag_64:\n      mload(0x40)\n      tag_67\n      swap10\n      swap9\n      swap8\n      swap7\n      swap6\n      swap5\n      swap4\n      swap3\n      swap2\n      swap1\n      tag_25\n      jump\t// in\n    tag_67:\n      mload(0x40)\n      dup1\n      swap2\n      sub\n      swap1\n      return\n        /* \"blank.sol\":3338:3846  function vote(uint256 _proposalId, bool _vote)... */\n    tag_14:\n      tag_68\n      0x04\n      dup1\n      calldatasize\n      sub\n      dup2\n      add\n      swap1\n      tag_69\n      swap2\n      swap1\n      tag_70\n      jump\t// in\n    tag_69:\n      tag_71\n      jump\t// in\n    tag_68:\n      stop\n        /* \"blank.sol\":653:681  uint256 public proposalCount */\n    tag_15:\n      tag_72\n      tag_73\n      jump\t// in\n    tag_72:\n      mload(0x40)\n      tag_74\n      swap2\n      swap1\n      tag_34\n      jump\t// in\n    tag_74:\n      mload(0x40)\n      dup1\n      swap2\n      sub\n      swap1\n      return\n        /* \"blank.sol\":687:707  address public admin */\n    tag_16:\n      tag_75\n      tag_76\n      jump\t// in\n    tag_75:\n      mload(0x40)\n      tag_77\n      swap2\n      swap1\n      tag_78\n      jump\t// in\n    tag_77:\n      mload(0x40)\n      dup1\n      swap2\n      sub\n      swap1\n      return\n        /* \"blank.sol\":602:647  mapping(uint256 => Proposal) public proposals */\n    tag_23:\n      mstore(0x20, 0x00)\n      dup1\n      0x00\n      mstore\n      keccak256(0x00, 0x40)\n      0x00\n      swap2\n      pop\n      swap1\n      pop\n      dup1\n      0x00\n      add\n      sload\n      swap1\n      dup1\n      0x01\n      add\n      dup1\n      sload\n      tag_79\n      swap1\n      tag_80\n      jump\t// in\n    tag_79:\n      dup1\n      0x1f\n      add\n      0x20\n      dup1\n      swap2\n      div\n      mul\n      0x20\n      add\n      mload(0x40)\n      swap1\n      dup2\n      add\n      0x40\n      mstore\n      dup1\n      swap3\n      swap2\n      swap1\n      dup2\n      dup2\n      mstore\n      0x20\n      add\n      dup3\n      dup1\n      sload\n      tag_81\n      swap1\n      tag_80\n      jump\t// in\n    tag_81:\n      dup1\n      iszero\n      tag_82\n      jumpi\n      dup1\n      0x1f\n      lt\n      tag_83\n      jumpi\n      0x0100\n      dup1\n      dup4\n      sload\n      div\n      mul\n      dup4\n      mstore\n      swap2\n      0x20\n      add\n      swap2\n      jump(tag_82)\n    tag_83:\n      dup3\n      add\n      swap2\n      swap1\n      0x00\n      mstore\n      keccak256(0x00, 0x20)\n      swap1\n    tag_84:\n      dup2\n      sload\n      dup2\n      mstore\n      swap1\n      0x01\n      add\n      swap1\n      0x20\n      add\n      dup1\n      dup4\n      gt\n      tag_84\n      jumpi\n      dup3\n      swap1\n      sub\n      0x1f\n      and\n      dup3\n      add\n      swap2\n    tag_82:\n      pop\n      pop\n      pop\n      pop\n      pop\n      swap1\n      dup1\n      0x02\n      add\n      dup1\n      sload\n      tag_85\n      swap1\n      tag_80\n      jump\t// in\n    tag_85:\n      dup1\n      0x1f\n      add\n      0x20\n      dup1\n      swap2\n      div\n      mul\n      0x20\n      add\n      mload(0x40)\n      swap1\n      dup2\n      add\n      0x40\n      mstore\n      dup1\n      swap3\n      swap2\n      swap1\n      dup2\n      dup2\n      mstore\n      0x20\n      add\n      dup3\n      dup1\n      sload\n      tag_86\n      swap1\n      tag_80\n      jump\t// in\n    tag_86:\n      dup1\n      iszero\n      tag_87\n      jumpi\n      dup1\n      0x1f\n      lt\n      tag_88\n      jumpi\n      0x0100\n      dup1\n      dup4\n      sload\n      div\n      mul\n      dup4\n      mstore\n      swap2\n      0x20\n      add\n      swap2\n      jump(tag_87)\n    tag_88:\n      dup3\n      add\n      swap2\n      swap1\n      0x00\n      mstore\n      keccak256(0x00, 0x20)\n      swap1\n    tag_89:\n      dup2\n      sload\n      dup2\n      mstore\n      swap1\n      0x01\n      add\n      swap1\n      0x20\n      add\n      dup1\n      dup4\n      gt\n      tag_89\n      jumpi\n      dup3\n      swap1\n      sub\n      0x1f\n      and\n      dup3\n      add\n      swap2\n    tag_87:\n      pop\n      pop\n      pop\n      pop\n      pop\n      swap1\n      dup1\n      0x03\n      add\n      0x00\n      swap1\n      sload\n      swap1\n      0x0100\n      exp\n      swap1\n      div\n      0xffffffffffffffffffffffffffffffffffffffff\n      and\n      swap1\n      dup1\n      0x04\n      add\n      sload\n      swap1\n      dup1\n      0x05\n      add\n      sload\n      swap1\n      dup1\n      0x06\n      add\n      sload\n      swap1\n      dup1\n      0x07\n      add\n      sload\n      swap1\n      dup1\n      0x08\n      add\n      0x00\n      swap1\n      sload\n      swap1\n      0x0100\n      exp\n      swap1\n      div\n      0xff\n      and\n      swap1\n      pop\n      dup10\n      jump\t// out\n        /* \"blank.sol\":3965:4257  function closeProposal(uint256 _proposalId)... */\n    tag_28:\n        /* \"blank.sol\":1173:1178  admin */\n      0x02\n      0x00\n      swap1\n      sload\n      swap1\n      0x0100\n      exp\n      swap1\n      div\n      0xffffffffffffffffffffffffffffffffffffffff\n      and\n        /* \"blank.sol\":1159:1178  msg.sender == admin */\n      0xffffffffffffffffffffffffffffffffffffffff\n      and\n        /* \"blank.sol\":1159:1169  msg.sender */\n      caller\n        /* \"blank.sol\":1159:1178  msg.sender == admin */\n      0xffffffffffffffffffffffffffffffffffffffff\n      and\n      eq\n        /* \"blank.sol\":1151:1210  require(msg.sender == admin, \"Only admin can perform this\") */\n      tag_91\n      jumpi\n      mload(0x40)\n      0x08c379a000000000000000000000000000000000000000000000000000000000\n      dup2\n      mstore\n      0x04\n      add\n      tag_92\n      swap1\n      tag_93\n      jump\t// in\n    tag_92:\n      mload(0x40)\n      dup1\n      swap2\n      sub\n      swap1\n      revert\n    tag_91:\n        /* \"blank.sol\":4065:4076  _proposalId */\n      dup1\n        /* \"blank.sol\":1313:1326  proposalCount */\n      sload(0x01)\n        /* \"blank.sol\":1300:1310  proposalId */\n      dup2\n        /* \"blank.sol\":1300:1326  proposalId < proposalCount */\n      lt\n        /* \"blank.sol\":1292:1354  require(proposalId < proposalCount, \"Proposal does not exist\") */\n      tag_95\n      jumpi\n      mload(0x40)\n      0x08c379a000000000000000000000000000000000000000000000000000000000\n      dup2\n      mstore\n      0x04\n      add\n      tag_96\n      swap1\n      tag_97\n      jump\t// in\n    tag_96:\n      mload(0x40)\n      dup1\n      swap2\n      sub\n      swap1\n      revert\n    tag_95:\n        /* \"blank.sol\":4100:4109  proposals */\n      0x00\n        /* \"blank.sol\":4100:4122  proposals[_proposalId] */\n      0x00\n        /* \"blank.sol\":4110:4121  _proposalId */\n      dup4\n        /* \"blank.sol\":4100:4122  proposals[_proposalId] */\n      dup2\n      mstore\n      0x20\n      add\n      swap1\n      dup2\n      mstore\n      0x20\n      add\n      0x00\n      keccak256\n        /* \"blank.sol\":4100:4131  proposals[_proposalId].isActive */\n      0x08\n      add\n      0x00\n      swap1\n      sload\n      swap1\n      0x0100\n      exp\n      swap1\n      div\n      0xff\n      and\n        /* \"blank.sol\":4092:4159  require(proposals[_proposalId].isActive, \"Proposal already closed\") */\n      tag_99\n      jumpi\n      mload(0x40)\n      0x08c379a000000000000000000000000000000000000000000000000000000000\n      dup2\n      mstore\n      0x04\n      add\n      tag_100\n      swap1\n      tag_101\n      jump\t// in\n    tag_100:\n      mload(0x40)\n      dup1\n      swap2\n      sub\n      swap1\n      revert\n    tag_99:\n        /* \"blank.sol\":4203:4208  false */\n      0x00\n        /* \"blank.sol\":4169:4178  proposals */\n      0x00\n        /* \"blank.sol\":4169:4191  proposals[_proposalId] */\n      0x00\n        /* \"blank.sol\":4179:4190  _proposalId */\n      dup5\n        /* \"blank.sol\":4169:4191  proposals[_proposalId] */\n      dup2\n      mstore\n      0x20\n      add\n      swap1\n      dup2\n      mstore\n      0x20\n      add\n      0x00\n      keccak256\n        /* \"blank.sol\":4169:4200  proposals[_proposalId].isActive */\n      0x08\n      add\n      0x00\n        /* \"blank.sol\":4169:4208  proposals[_proposalId].isActive = false */\n      0x0100\n      exp\n      dup2\n      sload\n      dup2\n      0xff\n      mul\n      not\n      and\n      swap1\n      dup4\n      iszero\n      iszero\n      mul\n      or\n      swap1\n      sstore\n      pop\n        /* \"blank.sol\":4238:4249  _proposalId */\n      dup2\n        /* \"blank.sol\":4223:4250  ProposalClosed(_proposalId) */\n      0x887777ccf43690541bed9e00b10d0fccfa7520b11875f09847a57b3085d8ab92\n      mload(0x40)\n      mload(0x40)\n      dup1\n      swap2\n      sub\n      swap1\n      log2\n        /* \"blank.sol\":1220:1221  _ */\n      pop\n        /* \"blank.sol\":3965:4257  function closeProposal(uint256 _proposalId)... */\n      pop\n      jump\t// out\n        /* \"blank.sol\":1982:3185  function createProposal(... */\n    tag_32:\n        /* \"blank.sol\":2129:2136  uint256 */\n      0x00\n        /* \"blank.sol\":2179:2180  0 */\n      0x00\n        /* \"blank.sol\":2162:2168  _title */\n      dup5\n        /* \"blank.sol\":2156:2176  bytes(_title).length */\n      mload\n        /* \"blank.sol\":2156:2180  bytes(_title).length > 0 */\n      gt\n        /* \"blank.sol\":2148:2206  require(bytes(_title).length > 0, \"Title cannot be empty\") */\n      tag_103\n      jumpi\n      mload(0x40)\n      0x08c379a000000000000000000000000000000000000000000000000000000000\n      dup2\n      mstore\n      0x04\n      add\n      tag_104\n      swap1\n      tag_105\n      jump\t// in\n    tag_104:\n      mload(0x40)\n      dup1\n      swap2\n      sub\n      swap1\n      revert\n    tag_103:\n        /* \"blank.sol\":2253:2254  0 */\n      0x00\n        /* \"blank.sol\":2230:2242  _description */\n      dup4\n        /* \"blank.sol\":2224:2250  bytes(_description).length */\n      mload\n        /* \"blank.sol\":2224:2254  bytes(_description).length > 0 */\n      gt\n        /* \"blank.sol\":2216:2286  require(bytes(_description).length > 0, \"Description cannot be empty\") */\n      tag_106\n      jumpi\n      mload(0x40)\n      0x08c379a000000000000000000000000000000000000000000000000000000000\n      dup2\n      mstore\n      0x04\n      add\n      tag_107\n      swap1\n      tag_108\n      jump\t// in\n    tag_107:\n      mload(0x40)\n      dup1\n      swap2\n      sub\n      swap1\n      revert\n    tag_106:\n        /* \"blank.sol\":2305:2325  uint256 votingPeriod */\n      0x00\n        /* \"blank.sol\":2348:2349  0 */\n      0x00\n        /* \"blank.sol\":2328:2345  _votingPeriodDays */\n      dup4\n        /* \"blank.sol\":2328:2349  _votingPeriodDays > 0 */\n      gt\n        /* \"blank.sol\":2328:2426  _votingPeriodDays > 0 ... */\n      tag_109\n      jumpi\n        /* \"blank.sol\":2407:2426  defaultVotingPeriod */\n      sload(0x03)\n        /* \"blank.sol\":2328:2426  _votingPeriodDays > 0 ... */\n      jump(tag_110)\n    tag_109:\n        /* \"blank.sol\":2385:2391  1 days */\n      0x015180\n        /* \"blank.sol\":2365:2382  _votingPeriodDays */\n      dup4\n        /* \"blank.sol\":2365:2391  _votingPeriodDays * 1 days */\n      tag_111\n      swap2\n      swap1\n      tag_112\n      jump\t// in\n    tag_111:\n        /* \"blank.sol\":2328:2426  _votingPeriodDays > 0 ... */\n    tag_110:\n        /* \"blank.sol\":2305:2426  uint256 votingPeriod = _votingPeriodDays > 0 ... */\n      swap1\n      pop\n        /* \"blank.sol\":2445:2466  uint256 newProposalId */\n      0x00\n        /* \"blank.sol\":2469:2482  proposalCount */\n      sload(0x01)\n        /* \"blank.sol\":2445:2482  uint256 newProposalId = proposalCount */\n      swap1\n      pop\n        /* \"blank.sol\":2492:2520  Proposal storage newProposal */\n      0x00\n        /* \"blank.sol\":2523:2532  proposals */\n      0x00\n        /* \"blank.sol\":2523:2547  proposals[newProposalId] */\n      0x00\n        /* \"blank.sol\":2533:2546  newProposalId */\n      dup4\n        /* \"blank.sol\":2523:2547  proposals[newProposalId] */\n      dup2\n      mstore\n      0x20\n      add\n      swap1\n      dup2\n      mstore\n      0x20\n      add\n      0x00\n      keccak256\n        /* \"blank.sol\":2492:2547  Proposal storage newProposal = proposals[newProposalId] */\n      swap1\n      pop\n        /* \"blank.sol\":2583:2596  newProposalId */\n      dup2\n        /* \"blank.sol\":2566:2577  newProposal */\n      dup2\n        /* \"blank.sol\":2566:2580  newProposal.id */\n      0x00\n      add\n        /* \"blank.sol\":2566:2596  newProposal.id = newProposalId */\n      dup2\n      swap1\n      sstore\n      pop\n        /* \"blank.sol\":2626:2632  _title */\n      dup7\n        /* \"blank.sol\":2606:2617  newProposal */\n      dup2\n        /* \"blank.sol\":2606:2623  newProposal.title */\n      0x01\n      add\n        /* \"blank.sol\":2606:2632  newProposal.title = _title */\n      swap1\n      dup2\n      tag_113\n      swap2\n      swap1\n      tag_114\n      jump\t// in\n    tag_113:\n      pop\n        /* \"blank.sol\":2668:2680  _description */\n      dup6\n        /* \"blank.sol\":2642:2653  newProposal */\n      dup2\n        /* \"blank.sol\":2642:2665  newProposal.description */\n      0x02\n      add\n        /* \"blank.sol\":2642:2680  newProposal.description = _description */\n      swap1\n      dup2\n      tag_115\n      swap2\n      swap1\n      tag_114\n      jump\t// in\n    tag_115:\n      pop\n        /* \"blank.sol\":2713:2723  msg.sender */\n      caller\n        /* \"blank.sol\":2690:2701  newProposal */\n      dup2\n        /* \"blank.sol\":2690:2710  newProposal.proposer */\n      0x03\n      add\n      0x00\n        /* \"blank.sol\":2690:2723  newProposal.proposer = msg.sender */\n      0x0100\n      exp\n      dup2\n      sload\n      dup2\n      0xffffffffffffffffffffffffffffffffffffffff\n      mul\n      not\n      and\n      swap1\n      dup4\n      0xffffffffffffffffffffffffffffffffffffffff\n      and\n      mul\n      or\n      swap1\n      sstore\n      pop\n        /* \"blank.sol\":2756:2757  0 */\n      0x00\n        /* \"blank.sol\":2733:2744  newProposal */\n      dup2\n        /* \"blank.sol\":2733:2753  newProposal.yesVotes */\n      0x04\n      add\n        /* \"blank.sol\":2733:2757  newProposal.yesVotes = 0 */\n      dup2\n      swap1\n      sstore\n      pop\n        /* \"blank.sol\":2789:2790  0 */\n      0x00\n        /* \"blank.sol\":2767:2778  newProposal */\n      dup2\n        /* \"blank.sol\":2767:2786  newProposal.noVotes */\n      0x05\n      add\n        /* \"blank.sol\":2767:2790  newProposal.noVotes = 0 */\n      dup2\n      swap1\n      sstore\n      pop\n        /* \"blank.sol\":2824:2839  block.timestamp */\n      timestamp\n        /* \"blank.sol\":2800:2811  newProposal */\n      dup2\n        /* \"blank.sol\":2800:2821  newProposal.createdAt */\n      0x06\n      add\n        /* \"blank.sol\":2800:2839  newProposal.createdAt = block.timestamp */\n      dup2\n      swap1\n      sstore\n      pop\n        /* \"blank.sol\":2896:2908  votingPeriod */\n      dup3\n        /* \"blank.sol\":2878:2893  block.timestamp */\n      timestamp\n        /* \"blank.sol\":2878:2908  block.timestamp + votingPeriod */\n      tag_116\n      swap2\n      swap1\n      tag_117\n      jump\t// in\n    tag_116:\n        /* \"blank.sol\":2849:2860  newProposal */\n      dup2\n        /* \"blank.sol\":2849:2875  newProposal.votingDeadline */\n      0x07\n      add\n        /* \"blank.sol\":2849:2908  newProposal.votingDeadline = block.timestamp + votingPeriod */\n      dup2\n      swap1\n      sstore\n      pop\n        /* \"blank.sol\":2941:2945  true */\n      0x01\n        /* \"blank.sol\":2918:2929  newProposal */\n      dup2\n        /* \"blank.sol\":2918:2938  newProposal.isActive */\n      0x08\n      add\n      0x00\n        /* \"blank.sol\":2918:2945  newProposal.isActive = true */\n      0x0100\n      exp\n      dup2\n      sload\n      dup2\n      0xff\n      mul\n      not\n      and\n      swap1\n      dup4\n      iszero\n      iszero\n      mul\n      or\n      swap1\n      sstore\n      pop\n        /* \"blank.sol\":2964:2977  proposalCount */\n      0x01\n      0x00\n        /* \"blank.sol\":2964:2979  proposalCount++ */\n      dup2\n      sload\n      dup1\n      swap3\n      swap2\n      swap1\n      tag_118\n      swap1\n      tag_119\n      jump\t// in\n    tag_118:\n      swap2\n      swap1\n      pop\n      sstore\n      pop\n        /* \"blank.sol\":3079:3089  msg.sender */\n      caller\n        /* \"blank.sol\":3003:3139  ProposalCreated(... */\n      0xffffffffffffffffffffffffffffffffffffffff\n      and\n        /* \"blank.sol\":3032:3045  newProposalId */\n      dup3\n        /* \"blank.sol\":3003:3139  ProposalCreated(... */\n      0x9cc3d9dd626042cdefb76484b91708c3207b637214b44f20111c893548d9c85f\n        /* \"blank.sol\":3059:3065  _title */\n      dup10\n        /* \"blank.sol\":3103:3114  newProposal */\n      dup5\n        /* \"blank.sol\":3103:3129  newProposal.votingDeadline */\n      0x07\n      add\n      sload\n        /* \"blank.sol\":3003:3139  ProposalCreated(... */\n      mload(0x40)\n      tag_120\n      swap3\n      swap2\n      swap1\n      tag_121\n      jump\t// in\n    tag_120:\n      mload(0x40)\n      dup1\n      swap2\n      sub\n      swap1\n      log3\n        /* \"blank.sol\":3165:3178  newProposalId */\n      dup2\n        /* \"blank.sol\":3158:3178  return newProposalId */\n      swap4\n      pop\n      pop\n      pop\n      pop\n        /* \"blank.sol\":1982:3185  function createProposal(... */\n      swap4\n      swap3\n      pop\n      pop\n      pop\n      jump\t// out\n        /* \"blank.sol\":7539:7853  function getActiveProposalsCount() public view returns (uint256) {... */\n    tag_36:\n        /* \"blank.sol\":7595:7602  uint256 */\n      0x00\n        /* \"blank.sol\":7614:7627  uint256 count */\n      0x00\n        /* \"blank.sol\":7630:7631  0 */\n      0x00\n        /* \"blank.sol\":7614:7631  uint256 count = 0 */\n      swap1\n      pop\n        /* \"blank.sol\":7646:7655  uint256 i */\n      0x00\n        /* \"blank.sol\":7658:7659  0 */\n      0x00\n        /* \"blank.sol\":7646:7659  uint256 i = 0 */\n      swap1\n      pop\n        /* \"blank.sol\":7641:7825  for (uint256 i = 0; i < proposalCount; i++) {... */\n    tag_123:\n        /* \"blank.sol\":7665:7678  proposalCount */\n      sload(0x01)\n        /* \"blank.sol\":7661:7662  i */\n      dup2\n        /* \"blank.sol\":7661:7678  i < proposalCount */\n      lt\n        /* \"blank.sol\":7641:7825  for (uint256 i = 0; i < proposalCount; i++) {... */\n      iszero\n      tag_124\n      jumpi\n        /* \"blank.sol\":7703:7712  proposals */\n      0x00\n        /* \"blank.sol\":7703:7715  proposals[i] */\n      0x00\n        /* \"blank.sol\":7713:7714  i */\n      dup3\n        /* \"blank.sol\":7703:7715  proposals[i] */\n      dup2\n      mstore\n      0x20\n      add\n      swap1\n      dup2\n      mstore\n      0x20\n      add\n      0x00\n      keccak256\n        /* \"blank.sol\":7703:7724  proposals[i].isActive */\n      0x08\n      add\n      0x00\n      swap1\n      sload\n      swap1\n      0x0100\n      exp\n      swap1\n      div\n      0xff\n      and\n        /* \"blank.sol\":7703:7773  proposals[i].isActive && block.timestamp < proposals[i].votingDeadline */\n      dup1\n      iszero\n      tag_126\n      jumpi\n      pop\n        /* \"blank.sol\":7746:7755  proposals */\n      0x00\n        /* \"blank.sol\":7746:7758  proposals[i] */\n      0x00\n        /* \"blank.sol\":7756:7757  i */\n      dup3\n        /* \"blank.sol\":7746:7758  proposals[i] */\n      dup2\n      mstore\n      0x20\n      add\n      swap1\n      dup2\n      mstore\n      0x20\n      add\n      0x00\n      keccak256\n        /* \"blank.sol\":7746:7773  proposals[i].votingDeadline */\n      0x07\n      add\n      sload\n        /* \"blank.sol\":7728:7743  block.timestamp */\n      timestamp\n        /* \"blank.sol\":7728:7773  block.timestamp < proposals[i].votingDeadline */\n      lt\n        /* \"blank.sol\":7703:7773  proposals[i].isActive && block.timestamp < proposals[i].votingDeadline */\n    tag_126:\n        /* \"blank.sol\":7699:7815  if (proposals[i].isActive && block.timestamp < proposals[i].votingDeadline) {... */\n      iszero\n      tag_127\n      jumpi\n        /* \"blank.sol\":7793:7800  count++ */\n      dup2\n      dup1\n      tag_128\n      swap1\n      tag_119\n      jump\t// in\n    tag_128:\n      swap3\n      pop\n      pop\n        /* \"blank.sol\":7699:7815  if (proposals[i].isActive && block.timestamp < proposals[i].votingDeadline) {... */\n    tag_127:\n        /* \"blank.sol\":7680:7683  i++ */\n      dup1\n      dup1\n      0x01\n      add\n      swap2\n      pop\n      pop\n        /* \"blank.sol\":7641:7825  for (uint256 i = 0; i < proposalCount; i++) {... */\n      jump(tag_123)\n    tag_124:\n      pop\n        /* \"blank.sol\":7841:7846  count */\n      dup1\n        /* \"blank.sol\":7834:7846  return count */\n      swap2\n      pop\n      pop\n        /* \"blank.sol\":7539:7853  function getActiveProposalsCount() public view returns (uint256) {... */\n      swap1\n      jump\t// out\n        /* \"blank.sol\":7242:7420  function setDefaultVotingPeriod(uint256 _days) public onlyAdmin {... */\n    tag_40:\n        /* \"blank.sol\":1173:1178  admin */\n      0x02\n      0x00\n      swap1\n      sload\n      swap1\n      0x0100\n      exp\n      swap1\n      div\n      0xffffffffffffffffffffffffffffffffffffffff\n      and\n        /* \"blank.sol\":1159:1178  msg.sender == admin */\n      0xffffffffffffffffffffffffffffffffffffffff\n      and\n        /* \"blank.sol\":1159:1169  msg.sender */\n      caller\n        /* \"blank.sol\":1159:1178  msg.sender == admin */\n      0xffffffffffffffffffffffffffffffffffffffff\n      and\n      eq\n        /* \"blank.sol\":1151:1210  require(msg.sender == admin, \"Only admin can perform this\") */\n      tag_130\n      jumpi\n      mload(0x40)\n      0x08c379a000000000000000000000000000000000000000000000000000000000\n      dup2\n      mstore\n      0x04\n      add\n      tag_131\n      swap1\n      tag_93\n      jump\t// in\n    tag_131:\n      mload(0x40)\n      dup1\n      swap2\n      sub\n      swap1\n      revert\n    tag_130:\n        /* \"blank.sol\":7332:7333  0 */\n      0x00\n        /* \"blank.sol\":7324:7329  _days */\n      dup2\n        /* \"blank.sol\":7324:7333  _days > 0 */\n      gt\n        /* \"blank.sol\":7316:7367  require(_days > 0, \"Period must be greater than 0\") */\n      tag_133\n      jumpi\n      mload(0x40)\n      0x08c379a000000000000000000000000000000000000000000000000000000000\n      dup2\n      mstore\n      0x04\n      add\n      tag_134\n      swap1\n      tag_135\n      jump\t// in\n    tag_134:\n      mload(0x40)\n      dup1\n      swap2\n      sub\n      swap1\n      revert\n    tag_133:\n        /* \"blank.sol\":7407:7413  1 days */\n      0x015180\n        /* \"blank.sol\":7399:7404  _days */\n      dup2\n        /* \"blank.sol\":7399:7413  _days * 1 days */\n      tag_136\n      swap2\n      swap1\n      tag_112\n      jump\t// in\n    tag_136:\n        /* \"blank.sol\":7377:7396  defaultVotingPeriod */\n      0x03\n        /* \"blank.sol\":7377:7413  defaultVotingPeriod = _days * 1 days */\n      dup2\n      swap1\n      sstore\n      pop\n        /* \"blank.sol\":7242:7420  function setDefaultVotingPeriod(uint256 _days) public onlyAdmin {... */\n      pop\n      jump\t// out\n        /* \"blank.sol\":6098:6631  function getProposalStatus(uint256 _proposalId)... */\n    tag_43:\n        /* \"blank.sol\":6227:6247  string memory status */\n      0x60\n        /* \"blank.sol\":6197:6208  _proposalId */\n      dup2\n        /* \"blank.sol\":1313:1326  proposalCount */\n      sload(0x01)\n        /* \"blank.sol\":1300:1310  proposalId */\n      dup2\n        /* \"blank.sol\":1300:1326  proposalId < proposalCount */\n      lt\n        /* \"blank.sol\":1292:1354  require(proposalId < proposalCount, \"Proposal does not exist\") */\n      tag_138\n      jumpi\n      mload(0x40)\n      0x08c379a000000000000000000000000000000000000000000000000000000000\n      dup2\n      mstore\n      0x04\n      add\n      tag_139\n      swap1\n      tag_97\n      jump\t// in\n    tag_139:\n      mload(0x40)\n      dup1\n      swap2\n      sub\n      swap1\n      revert\n    tag_138:\n        /* \"blank.sol\":6263:6281  Proposal storage p */\n      0x00\n        /* \"blank.sol\":6284:6293  proposals */\n      0x00\n        /* \"blank.sol\":6284:6306  proposals[_proposalId] */\n      0x00\n        /* \"blank.sol\":6294:6305  _proposalId */\n      dup6\n        /* \"blank.sol\":6284:6306  proposals[_proposalId] */\n      dup2\n      mstore\n      0x20\n      add\n      swap1\n      dup2\n      mstore\n      0x20\n      add\n      0x00\n      keccak256\n        /* \"blank.sol\":6263:6306  Proposal storage p = proposals[_proposalId] */\n      swap1\n      pop\n        /* \"blank.sol\":6329:6330  p */\n      dup1\n        /* \"blank.sol\":6329:6339  p.isActive */\n      0x08\n      add\n      0x00\n      swap1\n      sload\n      swap1\n      0x0100\n      exp\n      swap1\n      div\n      0xff\n      and\n        /* \"blank.sol\":6329:6377  p.isActive && block.timestamp < p.votingDeadline */\n      dup1\n      iszero\n      tag_141\n      jumpi\n      pop\n        /* \"blank.sol\":6361:6362  p */\n      dup1\n        /* \"blank.sol\":6361:6377  p.votingDeadline */\n      0x07\n      add\n      sload\n        /* \"blank.sol\":6343:6358  block.timestamp */\n      timestamp\n        /* \"blank.sol\":6343:6377  block.timestamp < p.votingDeadline */\n      lt\n        /* \"blank.sol\":6329:6377  p.isActive && block.timestamp < p.votingDeadline */\n    tag_141:\n        /* \"blank.sol\":6325:6419  if (p.isActive && block.timestamp < p.votingDeadline) {... */\n      iszero\n      tag_142\n      jumpi\n        /* \"blank.sol\":6393:6408  return \"Active\" */\n      mload(0x40)\n      dup1\n      0x40\n      add\n      0x40\n      mstore\n      dup1\n      0x06\n      dup2\n      mstore\n      0x20\n      add\n      0x4163746976650000000000000000000000000000000000000000000000000000\n      dup2\n      mstore\n      pop\n      swap3\n      pop\n      pop\n      jump(tag_140)\n        /* \"blank.sol\":6325:6419  if (p.isActive && block.timestamp < p.votingDeadline) {... */\n    tag_142:\n        /* \"blank.sol\":6454:6455  p */\n      dup1\n        /* \"blank.sol\":6454:6463  p.noVotes */\n      0x05\n      add\n      sload\n        /* \"blank.sol\":6441:6442  p */\n      dup2\n        /* \"blank.sol\":6441:6451  p.yesVotes */\n      0x04\n      add\n      sload\n        /* \"blank.sol\":6441:6463  p.yesVotes > p.noVotes */\n      gt\n        /* \"blank.sol\":6437:6625  if (p.yesVotes > p.noVotes) {... */\n      iszero\n      tag_143\n      jumpi\n        /* \"blank.sol\":6479:6494  return \"Passed\" */\n      mload(0x40)\n      dup1\n      0x40\n      add\n      0x40\n      mstore\n      dup1\n      0x06\n      dup2\n      mstore\n      0x20\n      add\n      0x5061737365640000000000000000000000000000000000000000000000000000\n      dup2\n      mstore\n      pop\n      swap3\n      pop\n      pop\n      jump(tag_140)\n        /* \"blank.sol\":6437:6625  if (p.yesVotes > p.noVotes) {... */\n    tag_143:\n        /* \"blank.sol\":6527:6528  p */\n      dup1\n        /* \"blank.sol\":6527:6537  p.yesVotes */\n      0x04\n      add\n      sload\n        /* \"blank.sol\":6515:6516  p */\n      dup2\n        /* \"blank.sol\":6515:6524  p.noVotes */\n      0x05\n      add\n      sload\n        /* \"blank.sol\":6515:6537  p.noVotes > p.yesVotes */\n      gt\n        /* \"blank.sol\":6511:6625  if (p.noVotes > p.yesVotes) {... */\n      iszero\n      tag_145\n      jumpi\n        /* \"blank.sol\":6553:6570  return \"Rejected\" */\n      mload(0x40)\n      dup1\n      0x40\n      add\n      0x40\n      mstore\n      dup1\n      0x08\n      dup2\n      mstore\n      0x20\n      add\n      0x52656a6563746564000000000000000000000000000000000000000000000000\n      dup2\n      mstore\n      pop\n      swap3\n      pop\n      pop\n      jump(tag_140)\n        /* \"blank.sol\":6511:6625  if (p.noVotes > p.yesVotes) {... */\n    tag_145:\n        /* \"blank.sol\":6601:6614  return \"Tied\" */\n      mload(0x40)\n      dup1\n      0x40\n      add\n      0x40\n      mstore\n      dup1\n      0x04\n      dup2\n      mstore\n      0x20\n      add\n      0x5469656400000000000000000000000000000000000000000000000000000000\n      dup2\n      mstore\n      pop\n      swap3\n      pop\n      pop\n        /* \"blank.sol\":1364:1365  _ */\n    tag_140:\n        /* \"blank.sol\":6098:6631  function getProposalStatus(uint256 _proposalId)... */\n      pop\n      swap2\n      swap1\n      pop\n      jump\t// out\n        /* \"blank.sol\":5186:5395  function hasVoted(uint256 _proposalId, address _voter)... */\n    tag_49:\n        /* \"blank.sol\":5322:5326  bool */\n      0x00\n        /* \"blank.sol\":5292:5303  _proposalId */\n      dup3\n        /* \"blank.sol\":1313:1326  proposalCount */\n      sload(0x01)\n        /* \"blank.sol\":1300:1310  proposalId */\n      dup2\n        /* \"blank.sol\":1300:1326  proposalId < proposalCount */\n      lt\n        /* \"blank.sol\":1292:1354  require(proposalId < proposalCount, \"Proposal does not exist\") */\n      tag_148\n      jumpi\n      mload(0x40)\n      0x08c379a000000000000000000000000000000000000000000000000000000000\n      dup2\n      mstore\n      0x04\n      add\n      tag_149\n      swap1\n      tag_97\n      jump\t// in\n    tag_149:\n      mload(0x40)\n      dup1\n      swap2\n      sub\n      swap1\n      revert\n    tag_148:\n        /* \"blank.sol\":5349:5358  proposals */\n      0x00\n        /* \"blank.sol\":5349:5371  proposals[_proposalId] */\n      0x00\n        /* \"blank.sol\":5359:5370  _proposalId */\n      dup6\n        /* \"blank.sol\":5349:5371  proposals[_proposalId] */\n      dup2\n      mstore\n      0x20\n      add\n      swap1\n      dup2\n      mstore\n      0x20\n      add\n      0x00\n      keccak256\n        /* \"blank.sol\":5349:5380  proposals[_proposalId].hasVoted */\n      0x09\n      add\n        /* \"blank.sol\":5349:5388  proposals[_proposalId].hasVoted[_voter] */\n      0x00\n        /* \"blank.sol\":5381:5387  _voter */\n      dup5\n        /* \"blank.sol\":5349:5388  proposals[_proposalId].hasVoted[_voter] */\n      0xffffffffffffffffffffffffffffffffffffffff\n      and\n      0xffffffffffffffffffffffffffffffffffffffff\n      and\n      dup2\n      mstore\n      0x20\n      add\n      swap1\n      dup2\n      mstore\n      0x20\n      add\n      0x00\n      keccak256\n      0x00\n      swap1\n      sload\n      swap1\n      0x0100\n      exp\n      swap1\n      div\n      0xff\n      and\n        /* \"blank.sol\":5342:5388  return proposals[_proposalId].hasVoted[_voter] */\n      swap2\n      pop\n        /* \"blank.sol\":5186:5395  function hasVoted(uint256 _proposalId, address _voter)... */\n      pop\n      swap3\n      swap2\n      pop\n      pop\n      jump\t// out\n        /* \"blank.sol\":5628:5933  function getResults(uint256 _proposalId)... */\n    tag_54:\n        /* \"blank.sol\":5750:5766  uint256 yesVotes */\n      0x00\n        /* \"blank.sol\":5768:5783  uint256 noVotes */\n      0x00\n        /* \"blank.sol\":5785:5803  uint256 totalVotes */\n      0x00\n        /* \"blank.sol\":5720:5731  _proposalId */\n      dup4\n        /* \"blank.sol\":1313:1326  proposalCount */\n      sload(0x01)\n        /* \"blank.sol\":1300:1310  proposalId */\n      dup2\n        /* \"blank.sol\":1300:1326  proposalId < proposalCount */\n      lt\n        /* \"blank.sol\":1292:1354  require(proposalId < proposalCount, \"Proposal does not exist\") */\n      tag_152\n      jumpi\n      mload(0x40)\n      0x08c379a000000000000000000000000000000000000000000000000000000000\n      dup2\n      mstore\n      0x04\n      add\n      tag_153\n      swap1\n      tag_97\n      jump\t// in\n    tag_153:\n      mload(0x40)\n      dup1\n      swap2\n      sub\n      swap1\n      revert\n    tag_152:\n        /* \"blank.sol\":5819:5837  Proposal storage p */\n      0x00\n        /* \"blank.sol\":5840:5849  proposals */\n      0x00\n        /* \"blank.sol\":5840:5862  proposals[_proposalId] */\n      0x00\n        /* \"blank.sol\":5850:5861  _proposalId */\n      dup8\n        /* \"blank.sol\":5840:5862  proposals[_proposalId] */\n      dup2\n      mstore\n      0x20\n      add\n      swap1\n      dup2\n      mstore\n      0x20\n      add\n      0x00\n      keccak256\n        /* \"blank.sol\":5819:5862  Proposal storage p = proposals[_proposalId] */\n      swap1\n      pop\n        /* \"blank.sol\":5880:5881  p */\n      dup1\n        /* \"blank.sol\":5880:5890  p.yesVotes */\n      0x04\n      add\n      sload\n        /* \"blank.sol\":5892:5893  p */\n      dup2\n        /* \"blank.sol\":5892:5901  p.noVotes */\n      0x05\n      add\n      sload\n        /* \"blank.sol\":5916:5917  p */\n      dup3\n        /* \"blank.sol\":5916:5925  p.noVotes */\n      0x05\n      add\n      sload\n        /* \"blank.sol\":5903:5904  p */\n      dup4\n        /* \"blank.sol\":5903:5913  p.yesVotes */\n      0x04\n      add\n      sload\n        /* \"blank.sol\":5903:5925  p.yesVotes + p.noVotes */\n      tag_155\n      swap2\n      swap1\n      tag_117\n      jump\t// in\n    tag_155:\n        /* \"blank.sol\":5872:5926  return (p.yesVotes, p.noVotes, p.yesVotes + p.noVotes) */\n      swap5\n      pop\n      swap5\n      pop\n      swap5\n      pop\n      pop\n        /* \"blank.sol\":5628:5933  function getResults(uint256 _proposalId)... */\n      pop\n      swap2\n      swap4\n      swap1\n      swap3\n      pop\n      jump\t// out\n        /* \"blank.sol\":6795:7130  function getTimeRemaining(uint256 _proposalId)... */\n    tag_59:\n        /* \"blank.sol\":6923:6930  uint256 */\n      0x00\n        /* \"blank.sol\":6893:6904  _proposalId */\n      dup2\n        /* \"blank.sol\":1313:1326  proposalCount */\n      sload(0x01)\n        /* \"blank.sol\":1300:1310  proposalId */\n      dup2\n        /* \"blank.sol\":1300:1326  proposalId < proposalCount */\n      lt\n        /* \"blank.sol\":1292:1354  require(proposalId < proposalCount, \"Proposal does not exist\") */\n      tag_157\n      jumpi\n      mload(0x40)\n      0x08c379a000000000000000000000000000000000000000000000000000000000\n      dup2\n      mstore\n      0x04\n      add\n      tag_158\n      swap1\n      tag_97\n      jump\t// in\n    tag_158:\n      mload(0x40)\n      dup1\n      swap2\n      sub\n      swap1\n      revert\n    tag_157:\n        /* \"blank.sol\":6946:6964  Proposal storage p */\n      0x00\n        /* \"blank.sol\":6967:6976  proposals */\n      0x00\n        /* \"blank.sol\":6967:6989  proposals[_proposalId] */\n      0x00\n        /* \"blank.sol\":6977:6988  _proposalId */\n      dup6\n        /* \"blank.sol\":6967:6989  proposals[_proposalId] */\n      dup2\n      mstore\n      0x20\n      add\n      swap1\n      dup2\n      mstore\n      0x20\n      add\n      0x00\n      keccak256\n        /* \"blank.sol\":6946:6989  Proposal storage p = proposals[_proposalId] */\n      swap1\n      pop\n        /* \"blank.sol\":7022:7023  p */\n      dup1\n        /* \"blank.sol\":7022:7038  p.votingDeadline */\n      0x07\n      add\n      sload\n        /* \"blank.sol\":7003:7018  block.timestamp */\n      timestamp\n        /* \"blank.sol\":7003:7038  block.timestamp >= p.votingDeadline */\n      lt\n        /* \"blank.sol\":6999:7073  if (block.timestamp >= p.votingDeadline) {... */\n      tag_160\n      jumpi\n        /* \"blank.sol\":7061:7062  0 */\n      0x00\n        /* \"blank.sol\":7054:7062  return 0 */\n      swap3\n      pop\n      pop\n      jump(tag_159)\n        /* \"blank.sol\":6999:7073  if (block.timestamp >= p.votingDeadline) {... */\n    tag_160:\n        /* \"blank.sol\":7108:7123  block.timestamp */\n      timestamp\n        /* \"blank.sol\":7089:7090  p */\n      dup2\n        /* \"blank.sol\":7089:7105  p.votingDeadline */\n      0x07\n      add\n      sload\n        /* \"blank.sol\":7089:7123  p.votingDeadline - block.timestamp */\n      tag_161\n      swap2\n      swap1\n      tag_162\n      jump\t// in\n    tag_161:\n        /* \"blank.sol\":7082:7123  return p.votingDeadline - block.timestamp */\n      swap3\n      pop\n      pop\n        /* \"blank.sol\":1364:1365  _ */\n    tag_159:\n        /* \"blank.sol\":6795:7130  function getTimeRemaining(uint256 _proposalId)... */\n      pop\n      swap2\n      swap1\n      pop\n      jump\t// out\n        /* \"blank.sol\":713:756  uint256 public defaultVotingPeriod = 7 days */\n    tag_62:\n      sload(0x03)\n      dup2\n      jump\t// out\n        /* \"blank.sol\":4268:4987  function getProposal(uint256 _proposalId)... */\n    tag_66:\n        /* \"blank.sol\":4404:4414  uint256 id */\n      0x00\n        /* \"blank.sol\":4428:4447  string memory title */\n      0x60\n        /* \"blank.sol\":4461:4486  string memory description */\n      dup1\n        /* \"blank.sol\":4500:4516  address proposer */\n      0x00\n        /* \"blank.sol\":4530:4546  uint256 yesVotes */\n      0x00\n        /* \"blank.sol\":4560:4575  uint256 noVotes */\n      0x00\n        /* \"blank.sol\":4589:4606  uint256 createdAt */\n      0x00\n        /* \"blank.sol\":4620:4642  uint256 votingDeadline */\n      0x00\n        /* \"blank.sol\":4656:4669  bool isActive */\n      0x00\n        /* \"blank.sol\":4361:4372  _proposalId */\n      dup10\n        /* \"blank.sol\":1313:1326  proposalCount */\n      sload(0x01)\n        /* \"blank.sol\":1300:1310  proposalId */\n      dup2\n        /* \"blank.sol\":1300:1326  proposalId < proposalCount */\n      lt\n        /* \"blank.sol\":1292:1354  require(proposalId < proposalCount, \"Proposal does not exist\") */\n      tag_164\n      jumpi\n      mload(0x40)\n      0x08c379a000000000000000000000000000000000000000000000000000000000\n      dup2\n      mstore\n      0x04\n      add\n      tag_165\n      swap1\n      tag_97\n      jump\t// in\n    tag_165:\n      mload(0x40)\n      dup1\n      swap2\n      sub\n      swap1\n      revert\n    tag_164:\n        /* \"blank.sol\":4694:4712  Proposal storage p */\n      0x00\n        /* \"blank.sol\":4715:4724  proposals */\n      0x00\n        /* \"blank.sol\":4715:4737  proposals[_proposalId] */\n      0x00\n        /* \"blank.sol\":4725:4736  _proposalId */\n      dup14\n        /* \"blank.sol\":4715:4737  proposals[_proposalId] */\n      dup2\n      mstore\n      0x20\n      add\n      swap1\n      dup2\n      mstore\n      0x20\n      add\n      0x00\n      keccak256\n        /* \"blank.sol\":4694:4737  Proposal storage p = proposals[_proposalId] */\n      swap1\n      pop\n        /* \"blank.sol\":4768:4769  p */\n      dup1\n        /* \"blank.sol\":4768:4772  p.id */\n      0x00\n      add\n      sload\n        /* \"blank.sol\":4786:4787  p */\n      dup2\n        /* \"blank.sol\":4786:4793  p.title */\n      0x01\n      add\n        /* \"blank.sol\":4807:4808  p */\n      dup3\n        /* \"blank.sol\":4807:4820  p.description */\n      0x02\n      add\n        /* \"blank.sol\":4834:4835  p */\n      dup4\n        /* \"blank.sol\":4834:4844  p.proposer */\n      0x03\n      add\n      0x00\n      swap1\n      sload\n      swap1\n      0x0100\n      exp\n      swap1\n      div\n      0xffffffffffffffffffffffffffffffffffffffff\n      and\n        /* \"blank.sol\":4858:4859  p */\n      dup5\n        /* \"blank.sol\":4858:4868  p.yesVotes */\n      0x04\n      add\n      sload\n        /* \"blank.sol\":4882:4883  p */\n      dup6\n        /* \"blank.sol\":4882:4891  p.noVotes */\n      0x05\n      add\n      sload\n        /* \"blank.sol\":4905:4906  p */\n      dup7\n        /* \"blank.sol\":4905:4916  p.createdAt */\n      0x06\n      add\n      sload\n        /* \"blank.sol\":4930:4931  p */\n      dup8\n        /* \"blank.sol\":4930:4946  p.votingDeadline */\n      0x07\n      add\n      sload\n        /* \"blank.sol\":4960:4961  p */\n      dup9\n        /* \"blank.sol\":4960:4970  p.isActive */\n      0x08\n      add\n      0x00\n      swap1\n      sload\n      swap1\n      0x0100\n      exp\n      swap1\n      div\n      0xff\n      and\n        /* \"blank.sol\":4747:4980  return (... */\n      dup8\n      dup1\n      sload\n      tag_167\n      swap1\n      tag_80\n      jump\t// in\n    tag_167:\n      dup1\n      0x1f\n      add\n      0x20\n      dup1\n      swap2\n      div\n      mul\n      0x20\n      add\n      mload(0x40)\n      swap1\n      dup2\n      add\n      0x40\n      mstore\n      dup1\n      swap3\n      swap2\n      swap1\n      dup2\n      dup2\n      mstore\n      0x20\n      add\n      dup3\n      dup1\n      sload\n      tag_168\n      swap1\n      tag_80\n      jump\t// in\n    tag_168:\n      dup1\n      iszero\n      tag_169\n      jumpi\n      dup1\n      0x1f\n      lt\n      tag_170\n      jumpi\n      0x0100\n      dup1\n      dup4\n      sload\n      div\n      mul\n      dup4\n      mstore\n      swap2\n      0x20\n      add\n      swap2\n      jump(tag_169)\n    tag_170:\n      dup3\n      add\n      swap2\n      swap1\n      0x00\n      mstore\n      keccak256(0x00, 0x20)\n      swap1\n    tag_171:\n      dup2\n      sload\n      dup2\n      mstore\n      swap1\n      0x01\n      add\n      swap1\n      0x20\n      add\n      dup1\n      dup4\n      gt\n      tag_171\n      jumpi\n      dup3\n      swap1\n      sub\n      0x1f\n      and\n      dup3\n      add\n      swap2\n    tag_169:\n      pop\n      pop\n      pop\n      pop\n      pop\n      swap8\n      pop\n      dup7\n      dup1\n      sload\n      tag_172\n      swap1\n      tag_80\n      jump\t// in\n    tag_172:\n      dup1\n      0x1f\n      add\n      0x20\n      dup1\n      swap2\n      div\n      mul\n      0x20\n      add\n      mload(0x40)\n      swap1\n      dup2\n      add\n      0x40\n      mstore\n      dup1\n      swap3\n      swap2\n      swap1\n      dup2\n      dup2\n      mstore\n      0x20\n      add\n      dup3\n      dup1\n      sload\n      tag_173\n      swap1\n      tag_80\n      jump\t// in\n    tag_173:\n      dup1\n      iszero\n      tag_174\n      jumpi\n      dup1\n      0x1f\n      lt\n      tag_175\n      jumpi\n      0x0100\n      dup1\n      dup4\n      sload\n      div\n      mul\n      dup4\n      mstore\n      swap2\n      0x20\n      add\n      swap2\n      jump(tag_174)\n    tag_175:\n      dup3\n      add\n      swap2\n      swap1\n      0x00\n      mstore\n      keccak256(0x00, 0x20)\n      swap1\n    tag_176:\n      dup2\n      sload\n      dup2\n      mstore\n      swap1\n      0x01\n      add\n      swap1\n      0x20\n      add\n      dup1\n      dup4\n      gt\n      tag_176\n      jumpi\n      dup3\n      swap1\n      sub\n      0x1f\n      and\n      dup3\n      add\n      swap2\n    tag_174:\n      pop\n      pop\n      pop\n      pop\n      pop\n      swap7\n      pop\n      swap11\n      pop\n      swap11\n      pop\n      swap11\n      pop\n      swap11\n      pop\n      swap11\n      pop\n      swap11\n      pop\n      swap11\n      pop\n      swap11\n      pop\n      swap11\n      pop\n      pop\n        /* \"blank.sol\":4268:4987  function getProposal(uint256 _proposalId)... */\n      pop\n      swap2\n      swap4\n      swap6\n      swap8\n      swap10\n      swap1\n      swap3\n      swap5\n      swap7\n      swap9\n      pop\n      jump\t// out\n        /* \"blank.sol\":3338:3846  function vote(uint256 _proposalId, bool _vote)... */\n    tag_71:\n        /* \"blank.sol\":3423:3434  _proposalId */\n      dup2\n        /* \"blank.sol\":1313:1326  proposalCount */\n      sload(0x01)\n        /* \"blank.sol\":1300:1310  proposalId */\n      dup2\n        /* \"blank.sol\":1300:1326  proposalId < proposalCount */\n      lt\n        /* \"blank.sol\":1292:1354  require(proposalId < proposalCount, \"Proposal does not exist\") */\n      tag_178\n      jumpi\n      mload(0x40)\n      0x08c379a000000000000000000000000000000000000000000000000000000000\n      dup2\n      mstore\n      0x04\n      add\n      tag_179\n      swap1\n      tag_97\n      jump\t// in\n    tag_179:\n      mload(0x40)\n      dup1\n      swap2\n      sub\n      swap1\n      revert\n    tag_178:\n        /* \"blank.sol\":3455:3466  _proposalId */\n      dup3\n        /* \"blank.sol\":1440:1449  proposals */\n      0x00\n        /* \"blank.sol\":1440:1461  proposals[proposalId] */\n      0x00\n        /* \"blank.sol\":1450:1460  proposalId */\n      dup3\n        /* \"blank.sol\":1440:1461  proposals[proposalId] */\n      dup2\n      mstore\n      0x20\n      add\n      swap1\n      dup2\n      mstore\n      0x20\n      add\n      0x00\n      keccak256\n        /* \"blank.sol\":1440:1470  proposals[proposalId].isActive */\n      0x08\n      add\n      0x00\n      swap1\n      sload\n      swap1\n      0x0100\n      exp\n      swap1\n      div\n      0xff\n      and\n        /* \"blank.sol\":1432:1491  require(proposals[proposalId].isActive, \"Voting is closed\") */\n      tag_181\n      jumpi\n      mload(0x40)\n      0x08c379a000000000000000000000000000000000000000000000000000000000\n      dup2\n      mstore\n      0x04\n      add\n      tag_182\n      swap1\n      tag_183\n      jump\t// in\n    tag_182:\n      mload(0x40)\n      dup1\n      swap2\n      sub\n      swap1\n      revert\n    tag_181:\n        /* \"blank.sol\":1527:1536  proposals */\n      0x00\n        /* \"blank.sol\":1527:1548  proposals[proposalId] */\n      0x00\n        /* \"blank.sol\":1537:1547  proposalId */\n      dup3\n        /* \"blank.sol\":1527:1548  proposals[proposalId] */\n      dup2\n      mstore\n      0x20\n      add\n      swap1\n      dup2\n      mstore\n      0x20\n      add\n      0x00\n      keccak256\n        /* \"blank.sol\":1527:1563  proposals[proposalId].votingDeadline */\n      0x07\n      add\n      sload\n        /* \"blank.sol\":1509:1524  block.timestamp */\n      timestamp\n        /* \"blank.sol\":1509:1563  block.timestamp < proposals[proposalId].votingDeadline */\n      lt\n        /* \"blank.sol\":1501:1587  require(block.timestamp < proposals[proposalId].votingDeadline, \"Voting period ended\") */\n      tag_184\n      jumpi\n      mload(0x40)\n      0x08c379a000000000000000000000000000000000000000000000000000000000\n      dup2\n      mstore\n      0x04\n      add\n      tag_185\n      swap1\n      tag_186\n      jump\t// in\n    tag_185:\n      mload(0x40)\n      dup1\n      swap2\n      sub\n      swap1\n      revert\n    tag_184:\n        /* \"blank.sol\":3482:3507  Proposal storage proposal */\n      0x00\n        /* \"blank.sol\":3510:3519  proposals */\n      0x00\n        /* \"blank.sol\":3510:3532  proposals[_proposalId] */\n      0x00\n        /* \"blank.sol\":3520:3531  _proposalId */\n      dup7\n        /* \"blank.sol\":3510:3532  proposals[_proposalId] */\n      dup2\n      mstore\n      0x20\n      add\n      swap1\n      dup2\n      mstore\n      0x20\n      add\n      0x00\n      keccak256\n        /* \"blank.sol\":3482:3532  Proposal storage proposal = proposals[_proposalId] */\n      swap1\n      pop\n        /* \"blank.sol\":3551:3559  proposal */\n      dup1\n        /* \"blank.sol\":3551:3568  proposal.hasVoted */\n      0x09\n      add\n        /* \"blank.sol\":3551:3580  proposal.hasVoted[msg.sender] */\n      0x00\n        /* \"blank.sol\":3569:3579  msg.sender */\n      caller\n        /* \"blank.sol\":3551:3580  proposal.hasVoted[msg.sender] */\n      0xffffffffffffffffffffffffffffffffffffffff\n      and\n      0xffffffffffffffffffffffffffffffffffffffff\n      and\n      dup2\n      mstore\n      0x20\n      add\n      swap1\n      dup2\n      mstore\n      0x20\n      add\n      0x00\n      keccak256\n      0x00\n      swap1\n      sload\n      swap1\n      0x0100\n      exp\n      swap1\n      div\n      0xff\n      and\n        /* \"blank.sol\":3550:3580  !proposal.hasVoted[msg.sender] */\n      iszero\n        /* \"blank.sol\":3542:3598  require(!proposal.hasVoted[msg.sender], \"Already voted\") */\n      tag_188\n      jumpi\n      mload(0x40)\n      0x08c379a000000000000000000000000000000000000000000000000000000000\n      dup2\n      mstore\n      0x04\n      add\n      tag_189\n      swap1\n      tag_190\n      jump\t// in\n    tag_189:\n      mload(0x40)\n      dup1\n      swap2\n      sub\n      swap1\n      revert\n    tag_188:\n        /* \"blank.sol\":3649:3653  true */\n      0x01\n        /* \"blank.sol\":3617:3625  proposal */\n      dup2\n        /* \"blank.sol\":3617:3634  proposal.hasVoted */\n      0x09\n      add\n        /* \"blank.sol\":3617:3646  proposal.hasVoted[msg.sender] */\n      0x00\n        /* \"blank.sol\":3635:3645  msg.sender */\n      caller\n        /* \"blank.sol\":3617:3646  proposal.hasVoted[msg.sender] */\n      0xffffffffffffffffffffffffffffffffffffffff\n      and\n      0xffffffffffffffffffffffffffffffffffffffff\n      and\n      dup2\n      mstore\n      0x20\n      add\n      swap1\n      dup2\n      mstore\n      0x20\n      add\n      0x00\n      keccak256\n      0x00\n        /* \"blank.sol\":3617:3653  proposal.hasVoted[msg.sender] = true */\n      0x0100\n      exp\n      dup2\n      sload\n      dup2\n      0xff\n      mul\n      not\n      and\n      swap1\n      dup4\n      iszero\n      iszero\n      mul\n      or\n      swap1\n      sstore\n      pop\n        /* \"blank.sol\":3676:3681  _vote */\n      dup4\n        /* \"blank.sol\":3672:3776  if (_vote) {... */\n      iszero\n      tag_191\n      jumpi\n        /* \"blank.sol\":3697:3705  proposal */\n      dup1\n        /* \"blank.sol\":3697:3714  proposal.yesVotes */\n      0x04\n      add\n      0x00\n        /* \"blank.sol\":3697:3716  proposal.yesVotes++ */\n      dup2\n      sload\n      dup1\n      swap3\n      swap2\n      swap1\n      tag_192\n      swap1\n      tag_119\n      jump\t// in\n    tag_192:\n      swap2\n      swap1\n      pop\n      sstore\n      pop\n        /* \"blank.sol\":3672:3776  if (_vote) {... */\n      jump(tag_193)\n    tag_191:\n        /* \"blank.sol\":3747:3755  proposal */\n      dup1\n        /* \"blank.sol\":3747:3763  proposal.noVotes */\n      0x05\n      add\n      0x00\n        /* \"blank.sol\":3747:3765  proposal.noVotes++ */\n      dup2\n      sload\n      dup1\n      swap3\n      swap2\n      swap1\n      tag_194\n      swap1\n      tag_119\n      jump\t// in\n    tag_194:\n      swap2\n      swap1\n      pop\n      sstore\n      pop\n        /* \"blank.sol\":3672:3776  if (_vote) {... */\n    tag_193:\n        /* \"blank.sol\":3821:3831  msg.sender */\n      caller\n        /* \"blank.sol\":3799:3839  VoteCast(_proposalId, msg.sender, _vote) */\n      0xffffffffffffffffffffffffffffffffffffffff\n      and\n        /* \"blank.sol\":3808:3819  _proposalId */\n      dup6\n        /* \"blank.sol\":3799:3839  VoteCast(_proposalId, msg.sender, _vote) */\n      0xe71fcdac32df1877c1700e7bda2a03157e20993363a28fc35ac495cefc76e4d4\n        /* \"blank.sol\":3833:3838  _vote */\n      dup7\n        /* \"blank.sol\":3799:3839  VoteCast(_proposalId, msg.sender, _vote) */\n      mload(0x40)\n      tag_195\n      swap2\n      swap1\n      tag_51\n      jump\t// in\n    tag_195:\n      mload(0x40)\n      dup1\n      swap2\n      sub\n      swap1\n      log3\n        /* \"blank.sol\":3472:3846  {... */\n      pop\n        /* \"blank.sol\":1364:1365  _ */\n      pop\n        /* \"blank.sol\":3338:3846  function vote(uint256 _proposalId, bool _vote)... */\n      pop\n      pop\n      pop\n      jump\t// out\n        /* \"blank.sol\":653:681  uint256 public proposalCount */\n    tag_73:\n      sload(0x01)\n      dup2\n      jump\t// out\n        /* \"blank.sol\":687:707  address public admin */\n    tag_76:\n      0x02\n      0x00\n      swap1\n      sload\n      swap1\n      0x0100\n      exp\n      swap1\n      div\n      0xffffffffffffffffffffffffffffffffffffffff\n      and\n      dup2\n      jump\t// out\n        /* \"#utility.yul\":7:82   */\n    tag_196:\n        /* \"#utility.yul\":40:46   */\n      0x00\n        /* \"#utility.yul\":73:75   */\n      0x40\n        /* \"#utility.yul\":67:76   */\n      mload\n        /* \"#utility.yul\":57:76   */\n      swap1\n      pop\n        /* \"#utility.yul\":7:82   */\n      swap1\n      jump\t// out\n        /* \"#utility.yul\":88:205   */\n    tag_197:\n        /* \"#utility.yul\":197:198   */\n      0x00\n        /* \"#utility.yul\":194:195   */\n      0x00\n        /* \"#utility.yul\":187:199   */\n      revert\n        /* \"#utility.yul\":211:328   */\n    tag_198:\n        /* \"#utility.yul\":320:321   */\n      0x00\n        /* \"#utility.yul\":317:318   */\n      0x00\n        /* \"#utility.yul\":310:322   */\n      revert\n        /* \"#utility.yul\":334:411   */\n    tag_199:\n        /* \"#utility.yul\":371:378   */\n      0x00\n        /* \"#utility.yul\":400:405   */\n      dup2\n        /* \"#utility.yul\":389:405   */\n      swap1\n      pop\n        /* \"#utility.yul\":334:411   */\n      swap2\n      swap1\n      pop\n      jump\t// out\n        /* \"#utility.yul\":417:539   */\n    tag_200:\n        /* \"#utility.yul\":490:514   */\n      tag_267\n        /* \"#utility.yul\":508:513   */\n      dup2\n        /* \"#utility.yul\":490:514   */\n      tag_199\n      jump\t// in\n    tag_267:\n        /* \"#utility.yul\":483:488   */\n      dup2\n        /* \"#utility.yul\":480:515   */\n      eq\n        /* \"#utility.yul\":470:533   */\n      tag_268\n      jumpi\n        /* \"#utility.yul\":529:530   */\n      0x00\n        /* \"#utility.yul\":526:527   */\n      0x00\n        /* \"#utility.yul\":519:531   */\n      revert\n        /* \"#utility.yul\":470:533   */\n    tag_268:\n        /* \"#utility.yul\":417:539   */\n      pop\n      jump\t// out\n        /* \"#utility.yul\":545:684   */\n    tag_201:\n        /* \"#utility.yul\":591:596   */\n      0x00\n        /* \"#utility.yul\":629:635   */\n      dup2\n        /* \"#utility.yul\":616:636   */\n      calldataload\n        /* \"#utility.yul\":607:636   */\n      swap1\n      pop\n        /* \"#utility.yul\":645:678   */\n      tag_270\n        /* \"#utility.yul\":672:677   */\n      dup2\n        /* \"#utility.yul\":645:678   */\n      tag_200\n      jump\t// in\n    tag_270:\n        /* \"#utility.yul\":545:684   */\n      swap3\n      swap2\n      pop\n      pop\n      jump\t// out\n        /* \"#utility.yul\":690:1019   */\n    tag_22:\n        /* \"#utility.yul\":749:755   */\n      0x00\n        /* \"#utility.yul\":798:800   */\n      0x20\n        /* \"#utility.yul\":786:795   */\n      dup3\n        /* \"#utility.yul\":777:784   */\n      dup5\n        /* \"#utility.yul\":773:796   */\n      sub\n        /* \"#utility.yul\":769:801   */\n      slt\n        /* \"#utility.yul\":766:885   */\n      iszero\n      tag_272\n      jumpi\n        /* \"#utility.yul\":804:883   */\n      tag_273\n      tag_197\n      jump\t// in\n    tag_273:\n        /* \"#utility.yul\":766:885   */\n    tag_272:\n        /* \"#utility.yul\":924:925   */\n      0x00\n        /* \"#utility.yul\":949:1002   */\n      tag_274\n        /* \"#utility.yul\":994:1001   */\n      dup5\n        /* \"#utility.yul\":985:991   */\n      dup3\n        /* \"#utility.yul\":974:983   */\n      dup6\n        /* \"#utility.yul\":970:992   */\n      add\n        /* \"#utility.yul\":949:1002   */\n      tag_201\n      jump\t// in\n    tag_274:\n        /* \"#utility.yul\":939:1002   */\n      swap2\n      pop\n        /* \"#utility.yul\":895:1012   */\n      pop\n        /* \"#utility.yul\":690:1019   */\n      swap3\n      swap2\n      pop\n      pop\n      jump\t// out\n        /* \"#utility.yul\":1025:1143   */\n    tag_202:\n        /* \"#utility.yul\":1112:1136   */\n      tag_276\n        /* \"#utility.yul\":1130:1135   */\n      dup2\n        /* \"#utility.yul\":1112:1136   */\n      tag_199\n      jump\t// in\n    tag_276:\n        /* \"#utility.yul\":1107:1110   */\n      dup3\n        /* \"#utility.yul\":1100:1137   */\n      mstore\n        /* \"#utility.yul\":1025:1143   */\n      pop\n      pop\n      jump\t// out\n        /* \"#utility.yul\":1149:1248   */\n    tag_203:\n        /* \"#utility.yul\":1201:1207   */\n      0x00\n        /* \"#utility.yul\":1235:1240   */\n      dup2\n        /* \"#utility.yul\":1229:1241   */\n      mload\n        /* \"#utility.yul\":1219:1241   */\n      swap1\n      pop\n        /* \"#utility.yul\":1149:1248   */\n      swap2\n      swap1\n      pop\n      jump\t// out\n        /* \"#utility.yul\":1254:1423   */\n    tag_204:\n        /* \"#utility.yul\":1338:1349   */\n      0x00\n        /* \"#utility.yul\":1372:1378   */\n      dup3\n        /* \"#utility.yul\":1367:1370   */\n      dup3\n        /* \"#utility.yul\":1360:1379   */\n      mstore\n        /* \"#utility.yul\":1412:1416   */\n      0x20\n        /* \"#utility.yul\":1407:1410   */\n      dup3\n        /* \"#utility.yul\":1403:1417   */\n      add\n        /* \"#utility.yul\":1388:1417   */\n      swap1\n      pop\n        /* \"#utility.yul\":1254:1423   */\n      swap3\n      swap2\n      pop\n      pop\n      jump\t// out\n        /* \"#utility.yul\":1429:1568   */\n    tag_205:\n        /* \"#utility.yul\":1518:1524   */\n      dup3\n        /* \"#utility.yul\":1513:1516   */\n      dup2\n        /* \"#utility.yul\":1508:1511   */\n      dup4\n        /* \"#utility.yul\":1502:1525   */\n      mcopy\n        /* \"#utility.yul\":1559:1560   */\n      0x00\n        /* \"#utility.yul\":1550:1556   */\n      dup4\n        /* \"#utility.yul\":1545:1548   */\n      dup4\n        /* \"#utility.yul\":1541:1557   */\n      add\n        /* \"#utility.yul\":1534:1561   */\n      mstore\n        /* \"#utility.yul\":1429:1568   */\n      pop\n      pop\n      pop\n      jump\t// out\n        /* \"#utility.yul\":1574:1676   */\n    tag_206:\n        /* \"#utility.yul\":1615:1621   */\n      0x00\n        /* \"#utility.yul\":1666:1668   */\n      0x1f\n        /* \"#utility.yul\":1662:1669   */\n      not\n        /* \"#utility.yul\":1657:1659   */\n      0x1f\n        /* \"#utility.yul\":1650:1655   */\n      dup4\n        /* \"#utility.yul\":1646:1660   */\n      add\n        /* \"#utility.yul\":1642:1670   */\n      and\n        /* \"#utility.yul\":1632:1670   */\n      swap1\n      pop\n        /* \"#utility.yul\":1574:1676   */\n      swap2\n      swap1\n      pop\n      jump\t// out\n        /* \"#utility.yul\":1682:2059   */\n    tag_207:\n        /* \"#utility.yul\":1770:1773   */\n      0x00\n        /* \"#utility.yul\":1798:1837   */\n      tag_282\n        /* \"#utility.yul\":1831:1836   */\n      dup3\n        /* \"#utility.yul\":1798:1837   */\n      tag_203\n      jump\t// in\n    tag_282:\n        /* \"#utility.yul\":1853:1924   */\n      tag_283\n        /* \"#utility.yul\":1917:1923   */\n      dup2\n        /* \"#utility.yul\":1912:1915   */\n      dup6\n        /* \"#utility.yul\":1853:1924   */\n      tag_204\n      jump\t// in\n    tag_283:\n        /* \"#utility.yul\":1846:1924   */\n      swap4\n      pop\n        /* \"#utility.yul\":1933:1998   */\n      tag_284\n        /* \"#utility.yul\":1991:1997   */\n      dup2\n        /* \"#utility.yul\":1986:1989   */\n      dup6\n        /* \"#utility.yul\":1979:1983   */\n      0x20\n        /* \"#utility.yul\":1972:1977   */\n      dup7\n        /* \"#utility.yul\":1968:1984   */\n      add\n        /* \"#utility.yul\":1933:1998   */\n      tag_205\n      jump\t// in\n    tag_284:\n        /* \"#utility.yul\":2023:2052   */\n      tag_285\n        /* \"#utility.yul\":2045:2051   */\n      dup2\n        /* \"#utility.yul\":2023:2052   */\n      tag_206\n      jump\t// in\n    tag_285:\n        /* \"#utility.yul\":2018:2021   */\n      dup5\n        /* \"#utility.yul\":2014:2053   */\n      add\n        /* \"#utility.yul\":2007:2053   */\n      swap2\n      pop\n        /* \"#utility.yul\":1774:2059   */\n      pop\n        /* \"#utility.yul\":1682:2059   */\n      swap3\n      swap2\n      pop\n      pop\n      jump\t// out\n        /* \"#utility.yul\":2065:2191   */\n    tag_208:\n        /* \"#utility.yul\":2102:2109   */\n      0x00\n        /* \"#utility.yul\":2142:2184   */\n      0xffffffffffffffffffffffffffffffffffffffff\n        /* \"#utility.yul\":2135:2140   */\n      dup3\n        /* \"#utility.yul\":2131:2185   */\n      and\n        /* \"#utility.yul\":2120:2185   */\n      swap1\n      pop\n        /* \"#utility.yul\":2065:2191   */\n      swap2\n      swap1\n      pop\n      jump\t// out\n        /* \"#utility.yul\":2197:2293   */\n    tag_209:\n        /* \"#utility.yul\":2234:2241   */\n      0x00\n        /* \"#utility.yul\":2263:2287   */\n      tag_288\n        /* \"#utility.yul\":2281:2286   */\n      dup3\n        /* \"#utility.yul\":2263:2287   */\n      tag_208\n      jump\t// in\n    tag_288:\n        /* \"#utility.yul\":2252:2287   */\n      swap1\n      pop\n        /* \"#utility.yul\":2197:2293   */\n      swap2\n      swap1\n      pop\n      jump\t// out\n        /* \"#utility.yul\":2299:2417   */\n    tag_210:\n        /* \"#utility.yul\":2386:2410   */\n      tag_290\n        /* \"#utility.yul\":2404:2409   */\n      dup2\n        /* \"#utility.yul\":2386:2410   */\n      tag_209\n      jump\t// in\n    tag_290:\n        /* \"#utility.yul\":2381:2384   */\n      dup3\n        /* \"#utility.yul\":2374:2411   */\n      mstore\n        /* \"#utility.yul\":2299:2417   */\n      pop\n      pop\n      jump\t// out\n        /* \"#utility.yul\":2423:2513   */\n    tag_211:\n        /* \"#utility.yul\":2457:2464   */\n      0x00\n        /* \"#utility.yul\":2500:2505   */\n      dup2\n        /* \"#utility.yul\":2493:2506   */\n      iszero\n        /* \"#utility.yul\":2486:2507   */\n      iszero\n        /* \"#utility.yul\":2475:2507   */\n      swap1\n      pop\n        /* \"#utility.yul\":2423:2513   */\n      swap2\n      swap1\n      pop\n      jump\t// out\n        /* \"#utility.yul\":2519:2628   */\n    tag_212:\n        /* \"#utility.yul\":2600:2621   */\n      tag_293\n        /* \"#utility.yul\":2615:2620   */\n      dup2\n        /* \"#utility.yul\":2600:2621   */\n      tag_211\n      jump\t// in\n    tag_293:\n        /* \"#utility.yul\":2595:2598   */\n      dup3\n        /* \"#utility.yul\":2588:2622   */\n      mstore\n        /* \"#utility.yul\":2519:2628   */\n      pop\n      pop\n      jump\t// out\n        /* \"#utility.yul\":2634:3912   */\n    tag_25:\n        /* \"#utility.yul\":2985:2989   */\n      0x00\n        /* \"#utility.yul\":3023:3026   */\n      0x0120\n        /* \"#utility.yul\":3012:3021   */\n      dup3\n        /* \"#utility.yul\":3008:3027   */\n      add\n        /* \"#utility.yul\":3000:3027   */\n      swap1\n      pop\n        /* \"#utility.yul\":3037:3108   */\n      tag_295\n        /* \"#utility.yul\":3105:3106   */\n      0x00\n        /* \"#utility.yul\":3094:3103   */\n      dup4\n        /* \"#utility.yul\":3090:3107   */\n      add\n        /* \"#utility.yul\":3081:3087   */\n      dup13\n        /* \"#utility.yul\":3037:3108   */\n      tag_202\n      jump\t// in\n    tag_295:\n        /* \"#utility.yul\":3155:3164   */\n      dup2\n        /* \"#utility.yul\":3149:3153   */\n      dup2\n        /* \"#utility.yul\":3145:3165   */\n      sub\n        /* \"#utility.yul\":3140:3142   */\n      0x20\n        /* \"#utility.yul\":3129:3138   */\n      dup4\n        /* \"#utility.yul\":3125:3143   */\n      add\n        /* \"#utility.yul\":3118:3166   */\n      mstore\n        /* \"#utility.yul\":3183:3261   */\n      tag_296\n        /* \"#utility.yul\":3256:3260   */\n      dup2\n        /* \"#utility.yul\":3247:3253   */\n      dup12\n        /* \"#utility.yul\":3183:3261   */\n      tag_207\n      jump\t// in\n    tag_296:\n        /* \"#utility.yul\":3175:3261   */\n      swap1\n      pop\n        /* \"#utility.yul\":3308:3317   */\n      dup2\n        /* \"#utility.yul\":3302:3306   */\n      dup2\n        /* \"#utility.yul\":3298:3318   */\n      sub\n        /* \"#utility.yul\":3293:3295   */\n      0x40\n        /* \"#utility.yul\":3282:3291   */\n      dup4\n        /* \"#utility.yul\":3278:3296   */\n      add\n        /* \"#utility.yul\":3271:3319   */\n      mstore\n        /* \"#utility.yul\":3336:3414   */\n      tag_297\n        /* \"#utility.yul\":3409:3413   */\n      dup2\n        /* \"#utility.yul\":3400:3406   */\n      dup11\n        /* \"#utility.yul\":3336:3414   */\n      tag_207\n      jump\t// in\n    tag_297:\n        /* \"#utility.yul\":3328:3414   */\n      swap1\n      pop\n        /* \"#utility.yul\":3424:3496   */\n      tag_298\n        /* \"#utility.yul\":3492:3494   */\n      0x60\n        /* \"#utility.yul\":3481:3490   */\n      dup4\n        /* \"#utility.yul\":3477:3495   */\n      add\n        /* \"#utility.yul\":3468:3474   */\n      dup10\n        /* \"#utility.yul\":3424:3496   */\n      tag_210\n      jump\t// in\n    tag_298:\n        /* \"#utility.yul\":3506:3579   */\n      tag_299\n        /* \"#utility.yul\":3574:3577   */\n      0x80\n        /* \"#utility.yul\":3563:3572   */\n      dup4\n        /* \"#utility.yul\":3559:3578   */\n      add\n        /* \"#utility.yul\":3550:3556   */\n      dup9\n        /* \"#utility.yul\":3506:3579   */\n      tag_202\n      jump\t// in\n    tag_299:\n        /* \"#utility.yul\":3589:3662   */\n      tag_300\n        /* \"#utility.yul\":3657:3660   */\n      0xa0\n        /* \"#utility.yul\":3646:3655   */\n      dup4\n        /* \"#utility.yul\":3642:3661   */\n      add\n        /* \"#utility.yul\":3633:3639   */\n      dup8\n        /* \"#utility.yul\":3589:3662   */\n      tag_202\n      jump\t// in\n    tag_300:\n        /* \"#utility.yul\":3672:3745   */\n      tag_301\n        /* \"#utility.yul\":3740:3743   */\n      0xc0\n        /* \"#utility.yul\":3729:3738   */\n      dup4\n        /* \"#utility.yul\":3725:3744   */\n      add\n        /* \"#utility.yul\":3716:3722   */\n      dup7\n        /* \"#utility.yul\":3672:3745   */\n      tag_202\n      jump\t// in\n    tag_301:\n        /* \"#utility.yul\":3755:3828   */\n      tag_302\n        /* \"#utility.yul\":3823:3826   */\n      0xe0\n        /* \"#utility.yul\":3812:3821   */\n      dup4\n        /* \"#utility.yul\":3808:3827   */\n      add\n        /* \"#utility.yul\":3799:3805   */\n      dup6\n        /* \"#utility.yul\":3755:3828   */\n      tag_202\n      jump\t// in\n    tag_302:\n        /* \"#utility.yul\":3838:3905   */\n      tag_303\n        /* \"#utility.yul\":3900:3903   */\n      0x0100\n        /* \"#utility.yul\":3889:3898   */\n      dup4\n        /* \"#utility.yul\":3885:3904   */\n      add\n        /* \"#utility.yul\":3876:3882   */\n      dup5\n        /* \"#utility.yul\":3838:3905   */\n      tag_212\n      jump\t// in\n    tag_303:\n        /* \"#utility.yul\":2634:3912   */\n      swap11\n      swap10\n      pop\n      pop\n      pop\n      pop\n      pop\n      pop\n      pop\n      pop\n      pop\n      pop\n      jump\t// out\n        /* \"#utility.yul\":3918:4035   */\n    tag_213:\n        /* \"#utility.yul\":4027:4028   */\n      0x00\n        /* \"#utility.yul\":4024:4025   */\n      0x00\n        /* \"#utility.yul\":4017:4029   */\n      revert\n        /* \"#utility.yul\":4041:4158   */\n    tag_214:\n        /* \"#utility.yul\":4150:4151   */\n      0x00\n        /* \"#utility.yul\":4147:4148   */\n      0x00\n        /* \"#utility.yul\":4140:4152   */\n      revert\n        /* \"#utility.yul\":4164:4344   */\n    tag_215:\n        /* \"#utility.yul\":4212:4289   */\n      0x4e487b7100000000000000000000000000000000000000000000000000000000\n        /* \"#utility.yul\":4209:4210   */\n      0x00\n        /* \"#utility.yul\":4202:4290   */\n      mstore\n        /* \"#utility.yul\":4309:4313   */\n      0x41\n        /* \"#utility.yul\":4306:4307   */\n      0x04\n        /* \"#utility.yul\":4299:4314   */\n      mstore\n        /* \"#utility.yul\":4333:4337   */\n      0x24\n        /* \"#utility.yul\":4330:4331   */\n      0x00\n        /* \"#utility.yul\":4323:4338   */\n      revert\n        /* \"#utility.yul\":4350:4631   */\n    tag_216:\n        /* \"#utility.yul\":4433:4460   */\n      tag_308\n        /* \"#utility.yul\":4455:4459   */\n      dup3\n        /* \"#utility.yul\":4433:4460   */\n      tag_206\n      jump\t// in\n    tag_308:\n        /* \"#utility.yul\":4425:4431   */\n      dup2\n        /* \"#utility.yul\":4421:4461   */\n      add\n        /* \"#utility.yul\":4563:4569   */\n      dup2\n        /* \"#utility.yul\":4551:4561   */\n      dup2\n        /* \"#utility.yul\":4548:4570   */\n      lt\n        /* \"#utility.yul\":4527:4545   */\n      0xffffffffffffffff\n        /* \"#utility.yul\":4515:4525   */\n      dup3\n        /* \"#utility.yul\":4512:4546   */\n      gt\n        /* \"#utility.yul\":4509:4571   */\n      or\n        /* \"#utility.yul\":4506:4594   */\n      iszero\n      tag_309\n      jumpi\n        /* \"#utility.yul\":4574:4592   */\n      tag_310\n      tag_215\n      jump\t// in\n    tag_310:\n        /* \"#utility.yul\":4506:4594   */\n    tag_309:\n        /* \"#utility.yul\":4614:4624   */\n      dup1\n        /* \"#utility.yul\":4610:4612   */\n      0x40\n        /* \"#utility.yul\":4603:4625   */\n      mstore\n        /* \"#utility.yul\":4393:4631   */\n      pop\n        /* \"#utility.yul\":4350:4631   */\n      pop\n      pop\n      jump\t// out\n        /* \"#utility.yul\":4637:4766   */\n    tag_217:\n        /* \"#utility.yul\":4671:4677   */\n      0x00\n        /* \"#utility.yul\":4698:4718   */\n      tag_312\n      tag_196\n      jump\t// in\n    tag_312:\n        /* \"#utility.yul\":4688:4718   */\n      swap1\n      pop\n        /* \"#utility.yul\":4727:4760   */\n      tag_313\n        /* \"#utility.yul\":4755:4759   */\n      dup3\n        /* \"#utility.yul\":4747:4753   */\n      dup3\n        /* \"#utility.yul\":4727:4760   */\n      tag_216\n      jump\t// in\n    tag_313:\n        /* \"#utility.yul\":4637:4766   */\n      swap2\n      swap1\n      pop\n      jump\t// out\n        /* \"#utility.yul\":4772:5080   */\n    tag_218:\n        /* \"#utility.yul\":4834:4838   */\n      0x00\n        /* \"#utility.yul\":4924:4942   */\n      0xffffffffffffffff\n        /* \"#utility.yul\":4916:4922   */\n      dup3\n        /* \"#utility.yul\":4913:4943   */\n      gt\n        /* \"#utility.yul\":4910:4966   */\n      iszero\n      tag_315\n      jumpi\n        /* \"#utility.yul\":4946:4964   */\n      tag_316\n      tag_215\n      jump\t// in\n    tag_316:\n        /* \"#utility.yul\":4910:4966   */\n    tag_315:\n        /* \"#utility.yul\":4984:5013   */\n      tag_317\n        /* \"#utility.yul\":5006:5012   */\n      dup3\n        /* \"#utility.yul\":4984:5013   */\n      tag_206\n      jump\t// in\n    tag_317:\n        /* \"#utility.yul\":4976:5013   */\n      swap1\n      pop\n        /* \"#utility.yul\":5068:5072   */\n      0x20\n        /* \"#utility.yul\":5062:5066   */\n      dup2\n        /* \"#utility.yul\":5058:5073   */\n      add\n        /* \"#utility.yul\":5050:5073   */\n      swap1\n      pop\n        /* \"#utility.yul\":4772:5080   */\n      swap2\n      swap1\n      pop\n      jump\t// out\n        /* \"#utility.yul\":5086:5234   */\n    tag_219:\n        /* \"#utility.yul\":5184:5190   */\n      dup3\n        /* \"#utility.yul\":5179:5182   */\n      dup2\n        /* \"#utility.yul\":5174:5177   */\n      dup4\n        /* \"#utility.yul\":5161:5191   */\n      calldatacopy\n        /* \"#utility.yul\":5225:5226   */\n      0x00\n        /* \"#utility.yul\":5216:5222   */\n      dup4\n        /* \"#utility.yul\":5211:5214   */\n      dup4\n        /* \"#utility.yul\":5207:5223   */\n      add\n        /* \"#utility.yul\":5200:5227   */\n      mstore\n        /* \"#utility.yul\":5086:5234   */\n      pop\n      pop\n      pop\n      jump\t// out\n        /* \"#utility.yul\":5240:5665   */\n    tag_220:\n        /* \"#utility.yul\":5318:5323   */\n      0x00\n        /* \"#utility.yul\":5343:5409   */\n      tag_320\n        /* \"#utility.yul\":5359:5408   */\n      tag_321\n        /* \"#utility.yul\":5401:5407   */\n      dup5\n        /* \"#utility.yul\":5359:5408   */\n      tag_218\n      jump\t// in\n    tag_321:\n        /* \"#utility.yul\":5343:5409   */\n      tag_217\n      jump\t// in\n    tag_320:\n        /* \"#utility.yul\":5334:5409   */\n      swap1\n      pop\n        /* \"#utility.yul\":5432:5438   */\n      dup3\n        /* \"#utility.yul\":5425:5430   */\n      dup2\n        /* \"#utility.yul\":5418:5439   */\n      mstore\n        /* \"#utility.yul\":5470:5474   */\n      0x20\n        /* \"#utility.yul\":5463:5468   */\n      dup2\n        /* \"#utility.yul\":5459:5475   */\n      add\n        /* \"#utility.yul\":5508:5511   */\n      dup5\n        /* \"#utility.yul\":5499:5505   */\n      dup5\n        /* \"#utility.yul\":5494:5497   */\n      dup5\n        /* \"#utility.yul\":5490:5506   */\n      add\n        /* \"#utility.yul\":5487:5512   */\n      gt\n        /* \"#utility.yul\":5484:5596   */\n      iszero\n      tag_322\n      jumpi\n        /* \"#utility.yul\":5515:5594   */\n      tag_323\n      tag_214\n      jump\t// in\n    tag_323:\n        /* \"#utility.yul\":5484:5596   */\n    tag_322:\n        /* \"#utility.yul\":5605:5659   */\n      tag_324\n        /* \"#utility.yul\":5652:5658   */\n      dup5\n        /* \"#utility.yul\":5647:5650   */\n      dup3\n        /* \"#utility.yul\":5642:5645   */\n      dup6\n        /* \"#utility.yul\":5605:5659   */\n      tag_219\n      jump\t// in\n    tag_324:\n        /* \"#utility.yul\":5324:5665   */\n      pop\n        /* \"#utility.yul\":5240:5665   */\n      swap4\n      swap3\n      pop\n      pop\n      pop\n      jump\t// out\n        /* \"#utility.yul\":5685:6025   */\n    tag_221:\n        /* \"#utility.yul\":5741:5746   */\n      0x00\n        /* \"#utility.yul\":5790:5793   */\n      dup3\n        /* \"#utility.yul\":5783:5787   */\n      0x1f\n        /* \"#utility.yul\":5775:5781   */\n      dup4\n        /* \"#utility.yul\":5771:5788   */\n      add\n        /* \"#utility.yul\":5767:5794   */\n      slt\n        /* \"#utility.yul\":5757:5879   */\n      tag_326\n      jumpi\n        /* \"#utility.yul\":5798:5877   */\n      tag_327\n      tag_213\n      jump\t// in\n    tag_327:\n        /* \"#utility.yul\":5757:5879   */\n    tag_326:\n        /* \"#utility.yul\":5915:5921   */\n      dup2\n        /* \"#utility.yul\":5902:5922   */\n      calldataload\n        /* \"#utility.yul\":5940:6019   */\n      tag_328\n        /* \"#utility.yul\":6015:6018   */\n      dup5\n        /* \"#utility.yul\":6007:6013   */\n      dup3\n        /* \"#utility.yul\":6000:6004   */\n      0x20\n        /* \"#utility.yul\":5992:5998   */\n      dup7\n        /* \"#utility.yul\":5988:6005   */\n      add\n        /* \"#utility.yul\":5940:6019   */\n      tag_220\n      jump\t// in\n    tag_328:\n        /* \"#utility.yul\":5931:6019   */\n      swap2\n      pop\n        /* \"#utility.yul\":5747:6025   */\n      pop\n        /* \"#utility.yul\":5685:6025   */\n      swap3\n      swap2\n      pop\n      pop\n      jump\t// out\n        /* \"#utility.yul\":6031:7010   */\n    tag_31:\n        /* \"#utility.yul\":6128:6134   */\n      0x00\n        /* \"#utility.yul\":6136:6142   */\n      0x00\n        /* \"#utility.yul\":6144:6150   */\n      0x00\n        /* \"#utility.yul\":6193:6195   */\n      0x60\n        /* \"#utility.yul\":6181:6190   */\n      dup5\n        /* \"#utility.yul\":6172:6179   */\n      dup7\n        /* \"#utility.yul\":6168:6191   */\n      sub\n        /* \"#utility.yul\":6164:6196   */\n      slt\n        /* \"#utility.yul\":6161:6280   */\n      iszero\n      tag_330\n      jumpi\n        /* \"#utility.yul\":6199:6278   */\n      tag_331\n      tag_197\n      jump\t// in\n    tag_331:\n        /* \"#utility.yul\":6161:6280   */\n    tag_330:\n        /* \"#utility.yul\":6347:6348   */\n      0x00\n        /* \"#utility.yul\":6336:6345   */\n      dup5\n        /* \"#utility.yul\":6332:6349   */\n      add\n        /* \"#utility.yul\":6319:6350   */\n      calldataload\n        /* \"#utility.yul\":6377:6395   */\n      0xffffffffffffffff\n        /* \"#utility.yul\":6369:6375   */\n      dup2\n        /* \"#utility.yul\":6366:6396   */\n      gt\n        /* \"#utility.yul\":6363:6480   */\n      iszero\n      tag_332\n      jumpi\n        /* \"#utility.yul\":6399:6478   */\n      tag_333\n      tag_198\n      jump\t// in\n    tag_333:\n        /* \"#utility.yul\":6363:6480   */\n    tag_332:\n        /* \"#utility.yul\":6504:6567   */\n      tag_334\n        /* \"#utility.yul\":6559:6566   */\n      dup7\n        /* \"#utility.yul\":6550:6556   */\n      dup3\n        /* \"#utility.yul\":6539:6548   */\n      dup8\n        /* \"#utility.yul\":6535:6557   */\n      add\n        /* \"#utility.yul\":6504:6567   */\n      tag_221\n      jump\t// in\n    tag_334:\n        /* \"#utility.yul\":6494:6567   */\n      swap4\n      pop\n        /* \"#utility.yul\":6290:6577   */\n      pop\n        /* \"#utility.yul\":6644:6646   */\n      0x20\n        /* \"#utility.yul\":6633:6642   */\n      dup5\n        /* \"#utility.yul\":6629:6647   */\n      add\n        /* \"#utility.yul\":6616:6648   */\n      calldataload\n        /* \"#utility.yul\":6675:6693   */\n      0xffffffffffffffff\n        /* \"#utility.yul\":6667:6673   */\n      dup2\n        /* \"#utility.yul\":6664:6694   */\n      gt\n        /* \"#utility.yul\":6661:6778   */\n      iszero\n      tag_335\n      jumpi\n        /* \"#utility.yul\":6697:6776   */\n      tag_336\n      tag_198\n      jump\t// in\n    tag_336:\n        /* \"#utility.yul\":6661:6778   */\n    tag_335:\n        /* \"#utility.yul\":6802:6865   */\n      tag_337\n        /* \"#utility.yul\":6857:6864   */\n      dup7\n        /* \"#utility.yul\":6848:6854   */\n      dup3\n        /* \"#utility.yul\":6837:6846   */\n      dup8\n        /* \"#utility.yul\":6833:6855   */\n      add\n        /* \"#utility.yul\":6802:6865   */\n      tag_221\n      jump\t// in\n    tag_337:\n        /* \"#utility.yul\":6792:6865   */\n      swap3\n      pop\n        /* \"#utility.yul\":6587:6875   */\n      pop\n        /* \"#utility.yul\":6914:6916   */\n      0x40\n        /* \"#utility.yul\":6940:6993   */\n      tag_338\n        /* \"#utility.yul\":6985:6992   */\n      dup7\n        /* \"#utility.yul\":6976:6982   */\n      dup3\n        /* \"#utility.yul\":6965:6974   */\n      dup8\n        /* \"#utility.yul\":6961:6983   */\n      add\n        /* \"#utility.yul\":6940:6993   */\n      tag_201\n      jump\t// in\n    tag_338:\n        /* \"#utility.yul\":6930:6993   */\n      swap2\n      pop\n        /* \"#utility.yul\":6885:7003   */\n      pop\n        /* \"#utility.yul\":6031:7010   */\n      swap3\n      pop\n      swap3\n      pop\n      swap3\n      jump\t// out\n        /* \"#utility.yul\":7016:7238   */\n    tag_34:\n        /* \"#utility.yul\":7109:7113   */\n      0x00\n        /* \"#utility.yul\":7147:7149   */\n      0x20\n        /* \"#utility.yul\":7136:7145   */\n      dup3\n        /* \"#utility.yul\":7132:7150   */\n      add\n        /* \"#utility.yul\":7124:7150   */\n      swap1\n      pop\n        /* \"#utility.yul\":7160:7231   */\n      tag_340\n        /* \"#utility.yul\":7228:7229   */\n      0x00\n        /* \"#utility.yul\":7217:7226   */\n      dup4\n        /* \"#utility.yul\":7213:7230   */\n      add\n        /* \"#utility.yul\":7204:7210   */\n      dup5\n        /* \"#utility.yul\":7160:7231   */\n      tag_202\n      jump\t// in\n    tag_340:\n        /* \"#utility.yul\":7016:7238   */\n      swap3\n      swap2\n      pop\n      pop\n      jump\t// out\n        /* \"#utility.yul\":7244:7557   */\n    tag_45:\n        /* \"#utility.yul\":7357:7361   */\n      0x00\n        /* \"#utility.yul\":7395:7397   */\n      0x20\n        /* \"#utility.yul\":7384:7393   */\n      dup3\n        /* \"#utility.yul\":7380:7398   */\n      add\n        /* \"#utility.yul\":7372:7398   */\n      swap1\n      pop\n        /* \"#utility.yul\":7444:7453   */\n      dup2\n        /* \"#utility.yul\":7438:7442   */\n      dup2\n        /* \"#utility.yul\":7434:7454   */\n      sub\n        /* \"#utility.yul\":7430:7431   */\n      0x00\n        /* \"#utility.yul\":7419:7428   */\n      dup4\n        /* \"#utility.yul\":7415:7432   */\n      add\n        /* \"#utility.yul\":7408:7455   */\n      mstore\n        /* \"#utility.yul\":7472:7550   */\n      tag_342\n        /* \"#utility.yul\":7545:7549   */\n      dup2\n        /* \"#utility.yul\":7536:7542   */\n      dup5\n        /* \"#utility.yul\":7472:7550   */\n      tag_207\n      jump\t// in\n    tag_342:\n        /* \"#utility.yul\":7464:7550   */\n      swap1\n      pop\n        /* \"#utility.yul\":7244:7557   */\n      swap3\n      swap2\n      pop\n      pop\n      jump\t// out\n        /* \"#utility.yul\":7563:7685   */\n    tag_222:\n        /* \"#utility.yul\":7636:7660   */\n      tag_344\n        /* \"#utility.yul\":7654:7659   */\n      dup2\n        /* \"#utility.yul\":7636:7660   */\n      tag_209\n      jump\t// in\n    tag_344:\n        /* \"#utility.yul\":7629:7634   */\n      dup2\n        /* \"#utility.yul\":7626:7661   */\n      eq\n        /* \"#utility.yul\":7616:7679   */\n      tag_345\n      jumpi\n        /* \"#utility.yul\":7675:7676   */\n      0x00\n        /* \"#utility.yul\":7672:7673   */\n      0x00\n        /* \"#utility.yul\":7665:7677   */\n      revert\n        /* \"#utility.yul\":7616:7679   */\n    tag_345:\n        /* \"#utility.yul\":7563:7685   */\n      pop\n      jump\t// out\n        /* \"#utility.yul\":7691:7830   */\n    tag_223:\n        /* \"#utility.yul\":7737:7742   */\n      0x00\n        /* \"#utility.yul\":7775:7781   */\n      dup2\n        /* \"#utility.yul\":7762:7782   */\n      calldataload\n        /* \"#utility.yul\":7753:7782   */\n      swap1\n      pop\n        /* \"#utility.yul\":7791:7824   */\n      tag_347\n        /* \"#utility.yul\":7818:7823   */\n      dup2\n        /* \"#utility.yul\":7791:7824   */\n      tag_222\n      jump\t// in\n    tag_347:\n        /* \"#utility.yul\":7691:7830   */\n      swap3\n      swap2\n      pop\n      pop\n      jump\t// out\n        /* \"#utility.yul\":7836:8310   */\n    tag_48:\n        /* \"#utility.yul\":7904:7910   */\n      0x00\n        /* \"#utility.yul\":7912:7918   */\n      0x00\n        /* \"#utility.yul\":7961:7963   */\n      0x40\n        /* \"#utility.yul\":7949:7958   */\n      dup4\n        /* \"#utility.yul\":7940:7947   */\n      dup6\n        /* \"#utility.yul\":7936:7959   */\n      sub\n        /* \"#utility.yul\":7932:7964   */\n      slt\n        /* \"#utility.yul\":7929:8048   */\n      iszero\n      tag_349\n      jumpi\n        /* \"#utility.yul\":7967:8046   */\n      tag_350\n      tag_197\n      jump\t// in\n    tag_350:\n        /* \"#utility.yul\":7929:8048   */\n    tag_349:\n        /* \"#utility.yul\":8087:8088   */\n      0x00\n        /* \"#utility.yul\":8112:8165   */\n      tag_351\n        /* \"#utility.yul\":8157:8164   */\n      dup6\n        /* \"#utility.yul\":8148:8154   */\n      dup3\n        /* \"#utility.yul\":8137:8146   */\n      dup7\n        /* \"#utility.yul\":8133:8155   */\n      add\n        /* \"#utility.yul\":8112:8165   */\n      tag_201\n      jump\t// in\n    tag_351:\n        /* \"#utility.yul\":8102:8165   */\n      swap3\n      pop\n        /* \"#utility.yul\":8058:8175   */\n      pop\n        /* \"#utility.yul\":8214:8216   */\n      0x20\n        /* \"#utility.yul\":8240:8293   */\n      tag_352\n        /* \"#utility.yul\":8285:8292   */\n      dup6\n        /* \"#utility.yul\":8276:8282   */\n      dup3\n        /* \"#utility.yul\":8265:8274   */\n      dup7\n        /* \"#utility.yul\":8261:8283   */\n      add\n        /* \"#utility.yul\":8240:8293   */\n      tag_223\n      jump\t// in\n    tag_352:\n        /* \"#utility.yul\":8230:8293   */\n      swap2\n      pop\n        /* \"#utility.yul\":8185:8303   */\n      pop\n        /* \"#utility.yul\":7836:8310   */\n      swap3\n      pop\n      swap3\n      swap1\n      pop\n      jump\t// out\n        /* \"#utility.yul\":8316:8526   */\n    tag_51:\n        /* \"#utility.yul\":8403:8407   */\n      0x00\n        /* \"#utility.yul\":8441:8443   */\n      0x20\n        /* \"#utility.yul\":8430:8439   */\n      dup3\n        /* \"#utility.yul\":8426:8444   */\n      add\n        /* \"#utility.yul\":8418:8444   */\n      swap1\n      pop\n        /* \"#utility.yul\":8454:8519   */\n      tag_354\n        /* \"#utility.yul\":8516:8517   */\n      0x00\n        /* \"#utility.yul\":8505:8514   */\n      dup4\n        /* \"#utility.yul\":8501:8518   */\n      add\n        /* \"#utility.yul\":8492:8498   */\n      dup5\n        /* \"#utility.yul\":8454:8519   */\n      tag_212\n      jump\t// in\n    tag_354:\n        /* \"#utility.yul\":8316:8526   */\n      swap3\n      swap2\n      pop\n      pop\n      jump\t// out\n        /* \"#utility.yul\":8532:8974   */\n    tag_56:\n        /* \"#utility.yul\":8681:8685   */\n      0x00\n        /* \"#utility.yul\":8719:8721   */\n      0x60\n        /* \"#utility.yul\":8708:8717   */\n      dup3\n        /* \"#utility.yul\":8704:8722   */\n      add\n        /* \"#utility.yul\":8696:8722   */\n      swap1\n      pop\n        /* \"#utility.yul\":8732:8803   */\n      tag_356\n        /* \"#utility.yul\":8800:8801   */\n      0x00\n        /* \"#utility.yul\":8789:8798   */\n      dup4\n        /* \"#utility.yul\":8785:8802   */\n      add\n        /* \"#utility.yul\":8776:8782   */\n      dup7\n        /* \"#utility.yul\":8732:8803   */\n      tag_202\n      jump\t// in\n    tag_356:\n        /* \"#utility.yul\":8813:8885   */\n      tag_357\n        /* \"#utility.yul\":8881:8883   */\n      0x20\n        /* \"#utility.yul\":8870:8879   */\n      dup4\n        /* \"#utility.yul\":8866:8884   */\n      add\n        /* \"#utility.yul\":8857:8863   */\n      dup6\n        /* \"#utility.yul\":8813:8885   */\n      tag_202\n      jump\t// in\n    tag_357:\n        /* \"#utility.yul\":8895:8967   */\n      tag_358\n        /* \"#utility.yul\":8963:8965   */\n      0x40\n        /* \"#utility.yul\":8952:8961   */\n      dup4\n        /* \"#utility.yul\":8948:8966   */\n      add\n        /* \"#utility.yul\":8939:8945   */\n      dup5\n        /* \"#utility.yul\":8895:8967   */\n      tag_202\n      jump\t// in\n    tag_358:\n        /* \"#utility.yul\":8532:8974   */\n      swap5\n      swap4\n      pop\n      pop\n      pop\n      pop\n      jump\t// out\n        /* \"#utility.yul\":8980:9096   */\n    tag_224:\n        /* \"#utility.yul\":9050:9071   */\n      tag_360\n        /* \"#utility.yul\":9065:9070   */\n      dup2\n        /* \"#utility.yul\":9050:9071   */\n      tag_211\n      jump\t// in\n    tag_360:\n        /* \"#utility.yul\":9043:9048   */\n      dup2\n        /* \"#utility.yul\":9040:9072   */\n      eq\n        /* \"#utility.yul\":9030:9090   */\n      tag_361\n      jumpi\n        /* \"#utility.yul\":9086:9087   */\n      0x00\n        /* \"#utility.yul\":9083:9084   */\n      0x00\n        /* \"#utility.yul\":9076:9088   */\n      revert\n        /* \"#utility.yul\":9030:9090   */\n    tag_361:\n        /* \"#utility.yul\":8980:9096   */\n      pop\n      jump\t// out\n        /* \"#utility.yul\":9102:9235   */\n    tag_225:\n        /* \"#utility.yul\":9145:9150   */\n      0x00\n        /* \"#utility.yul\":9183:9189   */\n      dup2\n        /* \"#utility.yul\":9170:9190   */\n      calldataload\n        /* \"#utility.yul\":9161:9190   */\n      swap1\n      pop\n        /* \"#utility.yul\":9199:9229   */\n      tag_363\n        /* \"#utility.yul\":9223:9228   */\n      dup2\n        /* \"#utility.yul\":9199:9229   */\n      tag_224\n      jump\t// in\n    tag_363:\n        /* \"#utility.yul\":9102:9235   */\n      swap3\n      swap2\n      pop\n      pop\n      jump\t// out\n        /* \"#utility.yul\":9241:9709   */\n    tag_70:\n        /* \"#utility.yul\":9306:9312   */\n      0x00\n        /* \"#utility.yul\":9314:9320   */\n      0x00\n        /* \"#utility.yul\":9363:9365   */\n      0x40\n        /* \"#utility.yul\":9351:9360   */\n      dup4\n        /* \"#utility.yul\":9342:9349   */\n      dup6\n        /* \"#utility.yul\":9338:9361   */\n      sub\n        /* \"#utility.yul\":9334:9366   */\n      slt\n        /* \"#utility.yul\":9331:9450   */\n      iszero\n      tag_365\n      jumpi\n        /* \"#utility.yul\":9369:9448   */\n      tag_366\n      tag_197\n      jump\t// in\n    tag_366:\n        /* \"#utility.yul\":9331:9450   */\n    tag_365:\n        /* \"#utility.yul\":9489:9490   */\n      0x00\n        /* \"#utility.yul\":9514:9567   */\n      tag_367\n        /* \"#utility.yul\":9559:9566   */\n      dup6\n        /* \"#utility.yul\":9550:9556   */\n      dup3\n        /* \"#utility.yul\":9539:9548   */\n      dup7\n        /* \"#utility.yul\":9535:9557   */\n      add\n        /* \"#utility.yul\":9514:9567   */\n      tag_201\n      jump\t// in\n    tag_367:\n        /* \"#utility.yul\":9504:9567   */\n      swap3\n      pop\n        /* \"#utility.yul\":9460:9577   */\n      pop\n        /* \"#utility.yul\":9616:9618   */\n      0x20\n        /* \"#utility.yul\":9642:9692   */\n      tag_368\n        /* \"#utility.yul\":9684:9691   */\n      dup6\n        /* \"#utility.yul\":9675:9681   */\n      dup3\n        /* \"#utility.yul\":9664:9673   */\n      dup7\n        /* \"#utility.yul\":9660:9682   */\n      add\n        /* \"#utility.yul\":9642:9692   */\n      tag_225\n      jump\t// in\n    tag_368:\n        /* \"#utility.yul\":9632:9692   */\n      swap2\n      pop\n        /* \"#utility.yul\":9587:9702   */\n      pop\n        /* \"#utility.yul\":9241:9709   */\n      swap3\n      pop\n      swap3\n      swap1\n      pop\n      jump\t// out\n        /* \"#utility.yul\":9715:9937   */\n    tag_78:\n        /* \"#utility.yul\":9808:9812   */\n      0x00\n        /* \"#utility.yul\":9846:9848   */\n      0x20\n        /* \"#utility.yul\":9835:9844   */\n      dup3\n        /* \"#utility.yul\":9831:9849   */\n      add\n        /* \"#utility.yul\":9823:9849   */\n      swap1\n      pop\n        /* \"#utility.yul\":9859:9930   */\n      tag_370\n        /* \"#utility.yul\":9927:9928   */\n      0x00\n        /* \"#utility.yul\":9916:9925   */\n      dup4\n        /* \"#utility.yul\":9912:9929   */\n      add\n        /* \"#utility.yul\":9903:9909   */\n      dup5\n        /* \"#utility.yul\":9859:9930   */\n      tag_210\n      jump\t// in\n    tag_370:\n        /* \"#utility.yul\":9715:9937   */\n      swap3\n      swap2\n      pop\n      pop\n      jump\t// out\n        /* \"#utility.yul\":9943:10123   */\n    tag_226:\n        /* \"#utility.yul\":9991:10068   */\n      0x4e487b7100000000000000000000000000000000000000000000000000000000\n        /* \"#utility.yul\":9988:9989   */\n      0x00\n        /* \"#utility.yul\":9981:10069   */\n      mstore\n        /* \"#utility.yul\":10088:10092   */\n      0x22\n        /* \"#utility.yul\":10085:10086   */\n      0x04\n        /* \"#utility.yul\":10078:10093   */\n      mstore\n        /* \"#utility.yul\":10112:10116   */\n      0x24\n        /* \"#utility.yul\":10109:10110   */\n      0x00\n        /* \"#utility.yul\":10102:10117   */\n      revert\n        /* \"#utility.yul\":10129:10449   */\n    tag_80:\n        /* \"#utility.yul\":10173:10179   */\n      0x00\n        /* \"#utility.yul\":10210:10211   */\n      0x02\n        /* \"#utility.yul\":10204:10208   */\n      dup3\n        /* \"#utility.yul\":10200:10212   */\n      div\n        /* \"#utility.yul\":10190:10212   */\n      swap1\n      pop\n        /* \"#utility.yul\":10257:10258   */\n      0x01\n        /* \"#utility.yul\":10251:10255   */\n      dup3\n        /* \"#utility.yul\":10247:10259   */\n      and\n        /* \"#utility.yul\":10278:10296   */\n      dup1\n        /* \"#utility.yul\":10268:10349   */\n      tag_373\n      jumpi\n        /* \"#utility.yul\":10334:10338   */\n      0x7f\n        /* \"#utility.yul\":10326:10332   */\n      dup3\n        /* \"#utility.yul\":10322:10339   */\n      and\n        /* \"#utility.yul\":10312:10339   */\n      swap2\n      pop\n        /* \"#utility.yul\":10268:10349   */\n    tag_373:\n        /* \"#utility.yul\":10396:10398   */\n      0x20\n        /* \"#utility.yul\":10388:10394   */\n      dup3\n        /* \"#utility.yul\":10385:10399   */\n      lt\n        /* \"#utility.yul\":10365:10383   */\n      dup2\n        /* \"#utility.yul\":10362:10400   */\n      sub\n        /* \"#utility.yul\":10359:10443   */\n      tag_374\n      jumpi\n        /* \"#utility.yul\":10415:10433   */\n      tag_375\n      tag_226\n      jump\t// in\n    tag_375:\n        /* \"#utility.yul\":10359:10443   */\n    tag_374:\n        /* \"#utility.yul\":10180:10449   */\n      pop\n        /* \"#utility.yul\":10129:10449   */\n      swap2\n      swap1\n      pop\n      jump\t// out\n        /* \"#utility.yul\":10455:10632   */\n    tag_227:\n        /* \"#utility.yul\":10595:10624   */\n      0x4f6e6c792061646d696e2063616e20706572666f726d20746869730000000000\n        /* \"#utility.yul\":10591:10592   */\n      0x00\n        /* \"#utility.yul\":10583:10589   */\n      dup3\n        /* \"#utility.yul\":10579:10593   */\n      add\n        /* \"#utility.yul\":10572:10625   */\n      mstore\n        /* \"#utility.yul\":10455:10632   */\n      pop\n      jump\t// out\n        /* \"#utility.yul\":10638:11004   */\n    tag_228:\n        /* \"#utility.yul\":10780:10783   */\n      0x00\n        /* \"#utility.yul\":10801:10868   */\n      tag_378\n        /* \"#utility.yul\":10865:10867   */\n      0x1b\n        /* \"#utility.yul\":10860:10863   */\n      dup4\n        /* \"#utility.yul\":10801:10868   */\n      tag_204\n      jump\t// in\n    tag_378:\n        /* \"#utility.yul\":10794:10868   */\n      swap2\n      pop\n        /* \"#utility.yul\":10877:10970   */\n      tag_379\n        /* \"#utility.yul\":10966:10969   */\n      dup3\n        /* \"#utility.yul\":10877:10970   */\n      tag_227\n      jump\t// in\n    tag_379:\n        /* \"#utility.yul\":10995:10997   */\n      0x20\n        /* \"#utility.yul\":10990:10993   */\n      dup3\n        /* \"#utility.yul\":10986:10998   */\n      add\n        /* \"#utility.yul\":10979:10998   */\n      swap1\n      pop\n        /* \"#utility.yul\":10638:11004   */\n      swap2\n      swap1\n      pop\n      jump\t// out\n        /* \"#utility.yul\":11010:11429   */\n    tag_93:\n        /* \"#utility.yul\":11176:11180   */\n      0x00\n        /* \"#utility.yul\":11214:11216   */\n      0x20\n        /* \"#utility.yul\":11203:11212   */\n      dup3\n        /* \"#utility.yul\":11199:11217   */\n      add\n        /* \"#utility.yul\":11191:11217   */\n      swap1\n      pop\n        /* \"#utility.yul\":11263:11272   */\n      dup2\n        /* \"#utility.yul\":11257:11261   */\n      dup2\n        /* \"#utility.yul\":11253:11273   */\n      sub\n        /* \"#utility.yul\":11249:11250   */\n      0x00\n        /* \"#utility.yul\":11238:11247   */\n      dup4\n        /* \"#utility.yul\":11234:11251   */\n      add\n        /* \"#utility.yul\":11227:11274   */\n      mstore\n        /* \"#utility.yul\":11291:11422   */\n      tag_381\n        /* \"#utility.yul\":11417:11421   */\n      dup2\n        /* \"#utility.yul\":11291:11422   */\n      tag_228\n      jump\t// in\n    tag_381:\n        /* \"#utility.yul\":11283:11422   */\n      swap1\n      pop\n        /* \"#utility.yul\":11010:11429   */\n      swap2\n      swap1\n      pop\n      jump\t// out\n        /* \"#utility.yul\":11435:11608   */\n    tag_229:\n        /* \"#utility.yul\":11575:11600   */\n      0x50726f706f73616c20646f6573206e6f74206578697374000000000000000000\n        /* \"#utility.yul\":11571:11572   */\n      0x00\n        /* \"#utility.yul\":11563:11569   */\n      dup3\n        /* \"#utility.yul\":11559:11573   */\n      add\n        /* \"#utility.yul\":11552:11601   */\n      mstore\n        /* \"#utility.yul\":11435:11608   */\n      pop\n      jump\t// out\n        /* \"#utility.yul\":11614:11980   */\n    tag_230:\n        /* \"#utility.yul\":11756:11759   */\n      0x00\n        /* \"#utility.yul\":11777:11844   */\n      tag_384\n        /* \"#utility.yul\":11841:11843   */\n      0x17\n        /* \"#utility.yul\":11836:11839   */\n      dup4\n        /* \"#utility.yul\":11777:11844   */\n      tag_204\n      jump\t// in\n    tag_384:\n        /* \"#utility.yul\":11770:11844   */\n      swap2\n      pop\n        /* \"#utility.yul\":11853:11946   */\n      tag_385\n        /* \"#utility.yul\":11942:11945   */\n      dup3\n        /* \"#utility.yul\":11853:11946   */\n      tag_229\n      jump\t// in\n    tag_385:\n        /* \"#utility.yul\":11971:11973   */\n      0x20\n        /* \"#utility.yul\":11966:11969   */\n      dup3\n        /* \"#utility.yul\":11962:11974   */\n      add\n        /* \"#utility.yul\":11955:11974   */\n      swap1\n      pop\n        /* \"#utility.yul\":11614:11980   */\n      swap2\n      swap1\n      pop\n      jump\t// out\n        /* \"#utility.yul\":11986:12405   */\n    tag_97:\n        /* \"#utility.yul\":12152:12156   */\n      0x00\n        /* \"#utility.yul\":12190:12192   */\n      0x20\n        /* \"#utility.yul\":12179:12188   */\n      dup3\n        /* \"#utility.yul\":12175:12193   */\n      add\n        /* \"#utility.yul\":12167:12193   */\n      swap1\n      pop\n        /* \"#utility.yul\":12239:12248   */\n      dup2\n        /* \"#utility.yul\":12233:12237   */\n      dup2\n        /* \"#utility.yul\":12229:12249   */\n      sub\n        /* \"#utility.yul\":12225:12226   */\n      0x00\n        /* \"#utility.yul\":12214:12223   */\n      dup4\n        /* \"#utility.yul\":12210:12227   */\n      add\n        /* \"#utility.yul\":12203:12250   */\n      mstore\n        /* \"#utility.yul\":12267:12398   */\n      tag_387\n        /* \"#utility.yul\":12393:12397   */\n      dup2\n        /* \"#utility.yul\":12267:12398   */\n      tag_230\n      jump\t// in\n    tag_387:\n        /* \"#utility.yul\":12259:12398   */\n      swap1\n      pop\n        /* \"#utility.yul\":11986:12405   */\n      swap2\n      swap1\n      pop\n      jump\t// out\n        /* \"#utility.yul\":12411:12584   */\n    tag_231:\n        /* \"#utility.yul\":12551:12576   */\n      0x50726f706f73616c20616c726561647920636c6f736564000000000000000000\n        /* \"#utility.yul\":12547:12548   */\n      0x00\n        /* \"#utility.yul\":12539:12545   */\n      dup3\n        /* \"#utility.yul\":12535:12549   */\n      add\n        /* \"#utility.yul\":12528:12577   */\n      mstore\n        /* \"#utility.yul\":12411:12584   */\n      pop\n      jump\t// out\n        /* \"#utility.yul\":12590:12956   */\n    tag_232:\n        /* \"#utility.yul\":12732:12735   */\n      0x00\n        /* \"#utility.yul\":12753:12820   */\n      tag_390\n        /* \"#utility.yul\":12817:12819   */\n      0x17\n        /* \"#utility.yul\":12812:12815   */\n      dup4\n        /* \"#utility.yul\":12753:12820   */\n      tag_204\n      jump\t// in\n    tag_390:\n        /* \"#utility.yul\":12746:12820   */\n      swap2\n      pop\n        /* \"#utility.yul\":12829:12922   */\n      tag_391\n        /* \"#utility.yul\":12918:12921   */\n      dup3\n        /* \"#utility.yul\":12829:12922   */\n      tag_231\n      jump\t// in\n    tag_391:\n        /* \"#utility.yul\":12947:12949   */\n      0x20\n        /* \"#utility.yul\":12942:12945   */\n      dup3\n        /* \"#utility.yul\":12938:12950   */\n      add\n        /* \"#utility.yul\":12931:12950   */\n      swap1\n      pop\n        /* \"#utility.yul\":12590:12956   */\n      swap2\n      swap1\n      pop\n      jump\t// out\n        /* \"#utility.yul\":12962:13381   */\n    tag_101:\n        /* \"#utility.yul\":13128:13132   */\n      0x00\n        /* \"#utility.yul\":13166:13168   */\n      0x20\n        /* \"#utility.yul\":13155:13164   */\n      dup3\n        /* \"#utility.yul\":13151:13169   */\n      add\n        /* \"#utility.yul\":13143:13169   */\n      swap1\n      pop\n        /* \"#utility.yul\":13215:13224   */\n      dup2\n        /* \"#utility.yul\":13209:13213   */\n      dup2\n        /* \"#utility.yul\":13205:13225   */\n      sub\n        /* \"#utility.yul\":13201:13202   */\n      0x00\n        /* \"#utility.yul\":13190:13199   */\n      dup4\n        /* \"#utility.yul\":13186:13203   */\n      add\n        /* \"#utility.yul\":13179:13226   */\n      mstore\n        /* \"#utility.yul\":13243:13374   */\n      tag_393\n        /* \"#utility.yul\":13369:13373   */\n      dup2\n        /* \"#utility.yul\":13243:13374   */\n      tag_232\n      jump\t// in\n    tag_393:\n        /* \"#utility.yul\":13235:13374   */\n      swap1\n      pop\n        /* \"#utility.yul\":12962:13381   */\n      swap2\n      swap1\n      pop\n      jump\t// out\n        /* \"#utility.yul\":13387:13558   */\n    tag_233:\n        /* \"#utility.yul\":13527:13550   */\n      0x5469746c652063616e6e6f7420626520656d7074790000000000000000000000\n        /* \"#utility.yul\":13523:13524   */\n      0x00\n        /* \"#utility.yul\":13515:13521   */\n      dup3\n        /* \"#utility.yul\":13511:13525   */\n      add\n        /* \"#utility.yul\":13504:13551   */\n      mstore\n        /* \"#utility.yul\":13387:13558   */\n      pop\n      jump\t// out\n        /* \"#utility.yul\":13564:13930   */\n    tag_234:\n        /* \"#utility.yul\":13706:13709   */\n      0x00\n        /* \"#utility.yul\":13727:13794   */\n      tag_396\n        /* \"#utility.yul\":13791:13793   */\n      0x15\n        /* \"#utility.yul\":13786:13789   */\n      dup4\n        /* \"#utility.yul\":13727:13794   */\n      tag_204\n      jump\t// in\n    tag_396:\n        /* \"#utility.yul\":13720:13794   */\n      swap2\n      pop\n        /* \"#utility.yul\":13803:13896   */\n      tag_397\n        /* \"#utility.yul\":13892:13895   */\n      dup3\n        /* \"#utility.yul\":13803:13896   */\n      tag_233\n      jump\t// in\n    tag_397:\n        /* \"#utility.yul\":13921:13923   */\n      0x20\n        /* \"#utility.yul\":13916:13919   */\n      dup3\n        /* \"#utility.yul\":13912:13924   */\n      add\n        /* \"#utility.yul\":13905:13924   */\n      swap1\n      pop\n        /* \"#utility.yul\":13564:13930   */\n      swap2\n      swap1\n      pop\n      jump\t// out\n        /* \"#utility.yul\":13936:14355   */\n    tag_105:\n        /* \"#utility.yul\":14102:14106   */\n      0x00\n        /* \"#utility.yul\":14140:14142   */\n      0x20\n        /* \"#utility.yul\":14129:14138   */\n      dup3\n        /* \"#utility.yul\":14125:14143   */\n      add\n        /* \"#utility.yul\":14117:14143   */\n      swap1\n      pop\n        /* \"#utility.yul\":14189:14198   */\n      dup2\n        /* \"#utility.yul\":14183:14187   */\n      dup2\n        /* \"#utility.yul\":14179:14199   */\n      sub\n        /* \"#utility.yul\":14175:14176   */\n      0x00\n        /* \"#utility.yul\":14164:14173   */\n      dup4\n        /* \"#utility.yul\":14160:14177   */\n      add\n        /* \"#utility.yul\":14153:14200   */\n      mstore\n        /* \"#utility.yul\":14217:14348   */\n      tag_399\n        /* \"#utility.yul\":14343:14347   */\n      dup2\n        /* \"#utility.yul\":14217:14348   */\n      tag_234\n      jump\t// in\n    tag_399:\n        /* \"#utility.yul\":14209:14348   */\n      swap1\n      pop\n        /* \"#utility.yul\":13936:14355   */\n      swap2\n      swap1\n      pop\n      jump\t// out\n        /* \"#utility.yul\":14361:14538   */\n    tag_235:\n        /* \"#utility.yul\":14501:14530   */\n      0x4465736372697074696f6e2063616e6e6f7420626520656d7074790000000000\n        /* \"#utility.yul\":14497:14498   */\n      0x00\n        /* \"#utility.yul\":14489:14495   */\n      dup3\n        /* \"#utility.yul\":14485:14499   */\n      add\n        /* \"#utility.yul\":14478:14531   */\n      mstore\n        /* \"#utility.yul\":14361:14538   */\n      pop\n      jump\t// out\n        /* \"#utility.yul\":14544:14910   */\n    tag_236:\n        /* \"#utility.yul\":14686:14689   */\n      0x00\n        /* \"#utility.yul\":14707:14774   */\n      tag_402\n        /* \"#utility.yul\":14771:14773   */\n      0x1b\n        /* \"#utility.yul\":14766:14769   */\n      dup4\n        /* \"#utility.yul\":14707:14774   */\n      tag_204\n      jump\t// in\n    tag_402:\n        /* \"#utility.yul\":14700:14774   */\n      swap2\n      pop\n        /* \"#utility.yul\":14783:14876   */\n      tag_403\n        /* \"#utility.yul\":14872:14875   */\n      dup3\n        /* \"#utility.yul\":14783:14876   */\n      tag_235\n      jump\t// in\n    tag_403:\n        /* \"#utility.yul\":14901:14903   */\n      0x20\n        /* \"#utility.yul\":14896:14899   */\n      dup3\n        /* \"#utility.yul\":14892:14904   */\n      add\n        /* \"#utility.yul\":14885:14904   */\n      swap1\n      pop\n        /* \"#utility.yul\":14544:14910   */\n      swap2\n      swap1\n      pop\n      jump\t// out\n        /* \"#utility.yul\":14916:15335   */\n    tag_108:\n        /* \"#utility.yul\":15082:15086   */\n      0x00\n        /* \"#utility.yul\":15120:15122   */\n      0x20\n        /* \"#utility.yul\":15109:15118   */\n      dup3\n        /* \"#utility.yul\":15105:15123   */\n      add\n        /* \"#utility.yul\":15097:15123   */\n      swap1\n      pop\n        /* \"#utility.yul\":15169:15178   */\n      dup2\n        /* \"#utility.yul\":15163:15167   */\n      dup2\n        /* \"#utility.yul\":15159:15179   */\n      sub\n        /* \"#utility.yul\":15155:15156   */\n      0x00\n        /* \"#utility.yul\":15144:15153   */\n      dup4\n        /* \"#utility.yul\":15140:15157   */\n      add\n        /* \"#utility.yul\":15133:15180   */\n      mstore\n        /* \"#utility.yul\":15197:15328   */\n      tag_405\n        /* \"#utility.yul\":15323:15327   */\n      dup2\n        /* \"#utility.yul\":15197:15328   */\n      tag_236\n      jump\t// in\n    tag_405:\n        /* \"#utility.yul\":15189:15328   */\n      swap1\n      pop\n        /* \"#utility.yul\":14916:15335   */\n      swap2\n      swap1\n      pop\n      jump\t// out\n        /* \"#utility.yul\":15341:15521   */\n    tag_237:\n        /* \"#utility.yul\":15389:15466   */\n      0x4e487b7100000000000000000000000000000000000000000000000000000000\n        /* \"#utility.yul\":15386:15387   */\n      0x00\n        /* \"#utility.yul\":15379:15467   */\n      mstore\n        /* \"#utility.yul\":15486:15490   */\n      0x11\n        /* \"#utility.yul\":15483:15484   */\n      0x04\n        /* \"#utility.yul\":15476:15491   */\n      mstore\n        /* \"#utility.yul\":15510:15514   */\n      0x24\n        /* \"#utility.yul\":15507:15508   */\n      0x00\n        /* \"#utility.yul\":15500:15515   */\n      revert\n        /* \"#utility.yul\":15527:15937   */\n    tag_112:\n        /* \"#utility.yul\":15567:15574   */\n      0x00\n        /* \"#utility.yul\":15590:15610   */\n      tag_408\n        /* \"#utility.yul\":15608:15609   */\n      dup3\n        /* \"#utility.yul\":15590:15610   */\n      tag_199\n      jump\t// in\n    tag_408:\n        /* \"#utility.yul\":15585:15610   */\n      swap2\n      pop\n        /* \"#utility.yul\":15624:15644   */\n      tag_409\n        /* \"#utility.yul\":15642:15643   */\n      dup4\n        /* \"#utility.yul\":15624:15644   */\n      tag_199\n      jump\t// in\n    tag_409:\n        /* \"#utility.yul\":15619:15644   */\n      swap3\n      pop\n        /* \"#utility.yul\":15679:15680   */\n      dup3\n        /* \"#utility.yul\":15676:15677   */\n      dup3\n        /* \"#utility.yul\":15672:15681   */\n      mul\n        /* \"#utility.yul\":15701:15731   */\n      tag_410\n        /* \"#utility.yul\":15719:15730   */\n      dup2\n        /* \"#utility.yul\":15701:15731   */\n      tag_199\n      jump\t// in\n    tag_410:\n        /* \"#utility.yul\":15690:15731   */\n      swap2\n      pop\n        /* \"#utility.yul\":15880:15881   */\n      dup3\n        /* \"#utility.yul\":15871:15878   */\n      dup3\n        /* \"#utility.yul\":15867:15882   */\n      div\n        /* \"#utility.yul\":15864:15865   */\n      dup5\n        /* \"#utility.yul\":15861:15883   */\n      eq\n        /* \"#utility.yul\":15841:15842   */\n      dup4\n        /* \"#utility.yul\":15834:15843   */\n      iszero\n        /* \"#utility.yul\":15814:15897   */\n      or\n        /* \"#utility.yul\":15791:15930   */\n      tag_411\n      jumpi\n        /* \"#utility.yul\":15910:15928   */\n      tag_412\n      tag_237\n      jump\t// in\n    tag_412:\n        /* \"#utility.yul\":15791:15930   */\n    tag_411:\n        /* \"#utility.yul\":15575:15937   */\n      pop\n        /* \"#utility.yul\":15527:15937   */\n      swap3\n      swap2\n      pop\n      pop\n      jump\t// out\n        /* \"#utility.yul\":15943:16084   */\n    tag_238:\n        /* \"#utility.yul\":15992:15996   */\n      0x00\n        /* \"#utility.yul\":16015:16018   */\n      dup2\n        /* \"#utility.yul\":16007:16018   */\n      swap1\n      pop\n        /* \"#utility.yul\":16038:16041   */\n      dup2\n        /* \"#utility.yul\":16035:16036   */\n      0x00\n        /* \"#utility.yul\":16028:16042   */\n      mstore\n        /* \"#utility.yul\":16072:16076   */\n      0x20\n        /* \"#utility.yul\":16069:16070   */\n      0x00\n        /* \"#utility.yul\":16059:16077   */\n      keccak256\n        /* \"#utility.yul\":16051:16077   */\n      swap1\n      pop\n        /* \"#utility.yul\":15943:16084   */\n      swap2\n      swap1\n      pop\n      jump\t// out\n        /* \"#utility.yul\":16090:16183   */\n    tag_239:\n        /* \"#utility.yul\":16127:16133   */\n      0x00\n        /* \"#utility.yul\":16174:16176   */\n      0x20\n        /* \"#utility.yul\":16169:16171   */\n      0x1f\n        /* \"#utility.yul\":16162:16167   */\n      dup4\n        /* \"#utility.yul\":16158:16172   */\n      add\n        /* \"#utility.yul\":16154:16177   */\n      div\n        /* \"#utility.yul\":16144:16177   */\n      swap1\n      pop\n        /* \"#utility.yul\":16090:16183   */\n      swap2\n      swap1\n      pop\n      jump\t// out\n        /* \"#utility.yul\":16189:16296   */\n    tag_240:\n        /* \"#utility.yul\":16233:16241   */\n      0x00\n        /* \"#utility.yul\":16283:16288   */\n      dup3\n        /* \"#utility.yul\":16277:16281   */\n      dup3\n        /* \"#utility.yul\":16273:16289   */\n      shl\n        /* \"#utility.yul\":16252:16289   */\n      swap1\n      pop\n        /* \"#utility.yul\":16189:16296   */\n      swap3\n      swap2\n      pop\n      pop\n      jump\t// out\n        /* \"#utility.yul\":16302:16695   */\n    tag_241:\n        /* \"#utility.yul\":16371:16377   */\n      0x00\n        /* \"#utility.yul\":16421:16422   */\n      0x08\n        /* \"#utility.yul\":16409:16419   */\n      dup4\n        /* \"#utility.yul\":16405:16423   */\n      mul\n        /* \"#utility.yul\":16444:16541   */\n      tag_417\n        /* \"#utility.yul\":16474:16540   */\n      0xffffffffffffffffffffffffffffffffffffffffffffffffffffffffffffffff\n        /* \"#utility.yul\":16463:16472   */\n      dup3\n        /* \"#utility.yul\":16444:16541   */\n      tag_240\n      jump\t// in\n    tag_417:\n        /* \"#utility.yul\":16562:16601   */\n      tag_418\n        /* \"#utility.yul\":16592:16600   */\n      dup7\n        /* \"#utility.yul\":16581:16590   */\n      dup4\n        /* \"#utility.yul\":16562:16601   */\n      tag_240\n      jump\t// in\n    tag_418:\n        /* \"#utility.yul\":16550:16601   */\n      swap6\n      pop\n        /* \"#utility.yul\":16634:16638   */\n      dup1\n        /* \"#utility.yul\":16630:16639   */\n      not\n        /* \"#utility.yul\":16623:16628   */\n      dup5\n        /* \"#utility.yul\":16619:16640   */\n      and\n        /* \"#utility.yul\":16610:16640   */\n      swap4\n      pop\n        /* \"#utility.yul\":16683:16687   */\n      dup1\n        /* \"#utility.yul\":16673:16681   */\n      dup7\n        /* \"#utility.yul\":16669:16688   */\n      and\n        /* \"#utility.yul\":16662:16667   */\n      dup5\n        /* \"#utility.yul\":16659:16689   */\n      or\n        /* \"#utility.yul\":16649:16689   */\n      swap3\n      pop\n        /* \"#utility.yul\":16378:16695   */\n      pop\n      pop\n        /* \"#utility.yul\":16302:16695   */\n      swap4\n      swap3\n      pop\n      pop\n      pop\n      jump\t// out\n        /* \"#utility.yul\":16701:16761   */\n    tag_242:\n        /* \"#utility.yul\":16729:16732   */\n      0x00\n        /* \"#utility.yul\":16750:16755   */\n      dup2\n        /* \"#utility.yul\":16743:16755   */\n      swap1\n      pop\n        /* \"#utility.yul\":16701:16761   */\n      swap2\n      swap1\n      pop\n      jump\t// out\n        /* \"#utility.yul\":16767:16909   */\n    tag_243:\n        /* \"#utility.yul\":16817:16826   */\n      0x00\n        /* \"#utility.yul\":16850:16903   */\n      tag_421\n        /* \"#utility.yul\":16868:16902   */\n      tag_422\n        /* \"#utility.yul\":16877:16901   */\n      tag_423\n        /* \"#utility.yul\":16895:16900   */\n      dup5\n        /* \"#utility.yul\":16877:16901   */\n      tag_199\n      jump\t// in\n    tag_423:\n        /* \"#utility.yul\":16868:16902   */\n      tag_242\n      jump\t// in\n    tag_422:\n        /* \"#utility.yul\":16850:16903   */\n      tag_199\n      jump\t// in\n    tag_421:\n        /* \"#utility.yul\":16837:16903   */\n      swap1\n      pop\n        /* \"#utility.yul\":16767:16909   */\n      swap2\n      swap1\n      pop\n      jump\t// out\n        /* \"#utility.yul\":16915:16990   */\n    tag_244:\n        /* \"#utility.yul\":16958:16961   */\n      0x00\n        /* \"#utility.yul\":16979:16984   */\n      dup2\n        /* \"#utility.yul\":16972:16984   */\n      swap1\n      pop\n        /* \"#utility.yul\":16915:16990   */\n      swap2\n      swap1\n      pop\n      jump\t// out\n        /* \"#utility.yul\":16996:17265   */\n    tag_245:\n        /* \"#utility.yul\":17106:17145   */\n      tag_426\n        /* \"#utility.yul\":17137:17144   */\n      dup4\n        /* \"#utility.yul\":17106:17145   */\n      tag_243\n      jump\t// in\n    tag_426:\n        /* \"#utility.yul\":17167:17258   */\n      tag_427\n        /* \"#utility.yul\":17216:17257   */\n      tag_428\n        /* \"#utility.yul\":17240:17256   */\n      dup3\n        /* \"#utility.yul\":17216:17257   */\n      tag_244\n      jump\t// in\n    tag_428:\n        /* \"#utility.yul\":17208:17214   */\n      dup5\n        /* \"#utility.yul\":17201:17205   */\n      dup5\n        /* \"#utility.yul\":17195:17206   */\n      sload\n        /* \"#utility.yul\":17167:17258   */\n      tag_241\n      jump\t// in\n    tag_427:\n        /* \"#utility.yul\":17161:17165   */\n      dup3\n        /* \"#utility.yul\":17154:17259   */\n      sstore\n        /* \"#utility.yul\":17072:17265   */\n      pop\n        /* \"#utility.yul\":16996:17265   */\n      pop\n      pop\n      pop\n      jump\t// out\n        /* \"#utility.yul\":17271:17344   */\n    tag_246:\n        /* \"#utility.yul\":17316:17319   */\n      0x00\n        /* \"#utility.yul\":17337:17338   */\n      0x00\n        /* \"#utility.yul\":17330:17338   */\n      swap1\n      pop\n        /* \"#utility.yul\":17271:17344   */\n      swap1\n      jump\t// out\n        /* \"#utility.yul\":17350:17539   */\n    tag_247:\n        /* \"#utility.yul\":17427:17459   */\n      tag_431\n      tag_246\n      jump\t// in\n    tag_431:\n        /* \"#utility.yul\":17468:17533   */\n      tag_432\n        /* \"#utility.yul\":17526:17532   */\n      dup2\n        /* \"#utility.yul\":17518:17524   */\n      dup5\n        /* \"#utility.yul\":17512:17516   */\n      dup5\n        /* \"#utility.yul\":17468:17533   */\n      tag_245\n      jump\t// in\n    tag_432:\n        /* \"#utility.yul\":17403:17539   */\n      pop\n        /* \"#utility.yul\":17350:17539   */\n      pop\n      pop\n      jump\t// out\n        /* \"#utility.yul\":17545:17731   */\n    tag_248:\n        /* \"#utility.yul\":17605:17725   */\n    tag_434:\n        /* \"#utility.yul\":17622:17625   */\n      dup2\n        /* \"#utility.yul\":17615:17620   */\n      dup2\n        /* \"#utility.yul\":17612:17626   */\n      lt\n        /* \"#utility.yul\":17605:17725   */\n      iszero\n      tag_436\n      jumpi\n        /* \"#utility.yul\":17676:17715   */\n      tag_437\n        /* \"#utility.yul\":17713:17714   */\n      0x00\n        /* \"#utility.yul\":17706:17711   */\n      dup3\n        /* \"#utility.yul\":17676:17715   */\n      tag_247\n      jump\t// in\n    tag_437:\n        /* \"#utility.yul\":17649:17650   */\n      0x01\n        /* \"#utility.yul\":17642:17647   */\n      dup2\n        /* \"#utility.yul\":17638:17651   */\n      add\n        /* \"#utility.yul\":17629:17651   */\n      swap1\n      pop\n        /* \"#utility.yul\":17605:17725   */\n      jump(tag_434)\n    tag_436:\n        /* \"#utility.yul\":17545:17731   */\n      pop\n      pop\n      jump\t// out\n        /* \"#utility.yul\":17737:18280   */\n    tag_249:\n        /* \"#utility.yul\":17838:17840   */\n      0x1f\n        /* \"#utility.yul\":17833:17836   */\n      dup3\n        /* \"#utility.yul\":17830:17841   */\n      gt\n        /* \"#utility.yul\":17827:18273   */\n      iszero\n      tag_439\n      jumpi\n        /* \"#utility.yul\":17872:17910   */\n      tag_440\n        /* \"#utility.yul\":17904:17909   */\n      dup2\n        /* \"#utility.yul\":17872:17910   */\n      tag_238\n      jump\t// in\n    tag_440:\n        /* \"#utility.yul\":17956:17985   */\n      tag_441\n        /* \"#utility.yul\":17974:17984   */\n      dup5\n        /* \"#utility.yul\":17956:17985   */\n      tag_239\n      jump\t// in\n    tag_441:\n        /* \"#utility.yul\":17946:17954   */\n      dup2\n        /* \"#utility.yul\":17942:17986   */\n      add\n        /* \"#utility.yul\":18139:18141   */\n      0x20\n        /* \"#utility.yul\":18127:18137   */\n      dup6\n        /* \"#utility.yul\":18124:18142   */\n      lt\n        /* \"#utility.yul\":18121:18170   */\n      iszero\n      tag_442\n      jumpi\n        /* \"#utility.yul\":18160:18168   */\n      dup2\n        /* \"#utility.yul\":18145:18168   */\n      swap1\n      pop\n        /* \"#utility.yul\":18121:18170   */\n    tag_442:\n        /* \"#utility.yul\":18183:18263   */\n      tag_443\n        /* \"#utility.yul\":18239:18261   */\n      tag_444\n        /* \"#utility.yul\":18257:18260   */\n      dup6\n        /* \"#utility.yul\":18239:18261   */\n      tag_239\n      jump\t// in\n    tag_444:\n        /* \"#utility.yul\":18229:18237   */\n      dup4\n        /* \"#utility.yul\":18225:18262   */\n      add\n        /* \"#utility.yul\":18212:18223   */\n      dup3\n        /* \"#utility.yul\":18183:18263   */\n      tag_248\n      jump\t// in\n    tag_443:\n        /* \"#utility.yul\":17842:18273   */\n      pop\n      pop\n        /* \"#utility.yul\":17827:18273   */\n    tag_439:\n        /* \"#utility.yul\":17737:18280   */\n      pop\n      pop\n      pop\n      jump\t// out\n        /* \"#utility.yul\":18286:18403   */\n    tag_250:\n        /* \"#utility.yul\":18340:18348   */\n      0x00\n        /* \"#utility.yul\":18390:18395   */\n      dup3\n        /* \"#utility.yul\":18384:18388   */\n      dup3\n        /* \"#utility.yul\":18380:18396   */\n      shr\n        /* \"#utility.yul\":18359:18396   */\n      swap1\n      pop\n        /* \"#utility.yul\":18286:18403   */\n      swap3\n      swap2\n      pop\n      pop\n      jump\t// out\n        /* \"#utility.yul\":18409:18578   */\n    tag_251:\n        /* \"#utility.yul\":18453:18459   */\n      0x00\n        /* \"#utility.yul\":18486:18537   */\n      tag_447\n        /* \"#utility.yul\":18534:18535   */\n      0x00\n        /* \"#utility.yul\":18530:18536   */\n      not\n        /* \"#utility.yul\":18522:18527   */\n      dup5\n        /* \"#utility.yul\":18519:18520   */\n      0x08\n        /* \"#utility.yul\":18515:18528   */\n      mul\n        /* \"#utility.yul\":18486:18537   */\n      tag_250\n      jump\t// in\n    tag_447:\n        /* \"#utility.yul\":18482:18538   */\n      not\n        /* \"#utility.yul\":18567:18571   */\n      dup1\n        /* \"#utility.yul\":18561:18565   */\n      dup4\n        /* \"#utility.yul\":18557:18572   */\n      and\n        /* \"#utility.yul\":18547:18572   */\n      swap2\n      pop\n        /* \"#utility.yul\":18460:18578   */\n      pop\n        /* \"#utility.yul\":18409:18578   */\n      swap3\n      swap2\n      pop\n      pop\n      jump\t// out\n        /* \"#utility.yul\":18583:18878   */\n    tag_252:\n        /* \"#utility.yul\":18659:18663   */\n      0x00\n        /* \"#utility.yul\":18805:18834   */\n      tag_449\n        /* \"#utility.yul\":18830:18833   */\n      dup4\n        /* \"#utility.yul\":18824:18828   */\n      dup4\n        /* \"#utility.yul\":18805:18834   */\n      tag_251\n      jump\t// in\n    tag_449:\n        /* \"#utility.yul\":18797:18834   */\n      swap2\n      pop\n        /* \"#utility.yul\":18867:18870   */\n      dup3\n        /* \"#utility.yul\":18864:18865   */\n      0x02\n        /* \"#utility.yul\":18860:18871   */\n      mul\n        /* \"#utility.yul\":18854:18858   */\n      dup3\n        /* \"#utility.yul\":18851:18872   */\n      or\n        /* \"#utility.yul\":18843:18872   */\n      swap1\n      pop\n        /* \"#utility.yul\":18583:18878   */\n      swap3\n      swap2\n      pop\n      pop\n      jump\t// out\n        /* \"#utility.yul\":18883:20278   */\n    tag_114:\n        /* \"#utility.yul\":19000:19037   */\n      tag_451\n        /* \"#utility.yul\":19033:19036   */\n      dup3\n        /* \"#utility.yul\":19000:19037   */\n      tag_203\n      jump\t// in\n    tag_451:\n        /* \"#utility.yul\":19102:19120   */\n      0xffffffffffffffff\n        /* \"#utility.yul\":19094:19100   */\n      dup2\n        /* \"#utility.yul\":19091:19121   */\n      gt\n        /* \"#utility.yul\":19088:19144   */\n      iszero\n      tag_452\n      jumpi\n        /* \"#utility.yul\":19124:19142   */\n      tag_453\n      tag_215\n      jump\t// in\n    tag_453:\n        /* \"#utility.yul\":19088:19144   */\n    tag_452:\n        /* \"#utility.yul\":19168:19206   */\n      tag_454\n        /* \"#utility.yul\":19200:19204   */\n      dup3\n        /* \"#utility.yul\":19194:19205   */\n      sload\n        /* \"#utility.yul\":19168:19206   */\n      tag_80\n      jump\t// in\n    tag_454:\n        /* \"#utility.yul\":19253:19320   */\n      tag_455\n        /* \"#utility.yul\":19313:19319   */\n      dup3\n        /* \"#utility.yul\":19305:19311   */\n      dup3\n        /* \"#utility.yul\":19299:19303   */\n      dup6\n        /* \"#utility.yul\":19253:19320   */\n      tag_249\n      jump\t// in\n    tag_455:\n        /* \"#utility.yul\":19347:19348   */\n      0x00\n        /* \"#utility.yul\":19371:19375   */\n      0x20\n        /* \"#utility.yul\":19358:19375   */\n      swap1\n      pop\n        /* \"#utility.yul\":19403:19405   */\n      0x1f\n        /* \"#utility.yul\":19395:19401   */\n      dup4\n        /* \"#utility.yul\":19392:19406   */\n      gt\n        /* \"#utility.yul\":19420:19421   */\n      0x01\n        /* \"#utility.yul\":19415:20033   */\n      dup2\n      eq\n      tag_457\n      jumpi\n        /* \"#utility.yul\":20077:20078   */\n      0x00\n        /* \"#utility.yul\":20094:20100   */\n      dup5\n        /* \"#utility.yul\":20091:20168   */\n      iszero\n      tag_458\n      jumpi\n        /* \"#utility.yul\":20143:20152   */\n      dup3\n        /* \"#utility.yul\":20138:20141   */\n      dup8\n        /* \"#utility.yul\":20134:20153   */\n      add\n        /* \"#utility.yul\":20128:20154   */\n      mload\n        /* \"#utility.yul\":20119:20154   */\n      swap1\n      pop\n        /* \"#utility.yul\":20091:20168   */\n    tag_458:\n        /* \"#utility.yul\":20194:20261   */\n      tag_459\n        /* \"#utility.yul\":20254:20260   */\n      dup6\n        /* \"#utility.yul\":20247:20252   */\n      dup3\n        /* \"#utility.yul\":20194:20261   */\n      tag_252\n      jump\t// in\n    tag_459:\n        /* \"#utility.yul\":20188:20192   */\n      dup7\n        /* \"#utility.yul\":20181:20262   */\n      sstore\n        /* \"#utility.yul\":20050:20272   */\n      pop\n        /* \"#utility.yul\":19385:20272   */\n      jump(tag_456)\n        /* \"#utility.yul\":19415:20033   */\n    tag_457:\n        /* \"#utility.yul\":19467:19471   */\n      0x1f\n        /* \"#utility.yul\":19463:19472   */\n      not\n        /* \"#utility.yul\":19455:19461   */\n      dup5\n        /* \"#utility.yul\":19451:19473   */\n      and\n        /* \"#utility.yul\":19501:19538   */\n      tag_460\n        /* \"#utility.yul\":19533:19537   */\n      dup7\n        /* \"#utility.yul\":19501:19538   */\n      tag_238\n      jump\t// in\n    tag_460:\n        /* \"#utility.yul\":19560:19561   */\n      0x00\n        /* \"#utility.yul\":19574:19782   */\n    tag_461:\n        /* \"#utility.yul\":19588:19595   */\n      dup3\n        /* \"#utility.yul\":19585:19586   */\n      dup2\n        /* \"#utility.yul\":19582:19596   */\n      lt\n        /* \"#utility.yul\":19574:19782   */\n      iszero\n      tag_463\n      jumpi\n        /* \"#utility.yul\":19667:19676   */\n      dup5\n        /* \"#utility.yul\":19662:19665   */\n      dup10\n        /* \"#utility.yul\":19658:19677   */\n      add\n        /* \"#utility.yul\":19652:19678   */\n      mload\n        /* \"#utility.yul\":19644:19650   */\n      dup3\n        /* \"#utility.yul\":19637:19679   */\n      sstore\n        /* \"#utility.yul\":19718:19719   */\n      0x01\n        /* \"#utility.yul\":19710:19716   */\n      dup3\n        /* \"#utility.yul\":19706:19720   */\n      add\n        /* \"#utility.yul\":19696:19720   */\n      swap2\n      pop\n        /* \"#utility.yul\":19765:19767   */\n      0x20\n        /* \"#utility.yul\":19754:19763   */\n      dup6\n        /* \"#utility.yul\":19750:19768   */\n      add\n        /* \"#utility.yul\":19737:19768   */\n      swap5\n      pop\n        /* \"#utility.yul\":19611:19615   */\n      0x20\n        /* \"#utility.yul\":19608:19609   */\n      dup2\n        /* \"#utility.yul\":19604:19616   */\n      add\n        /* \"#utility.yul\":19599:19616   */\n      swap1\n      pop\n        /* \"#utility.yul\":19574:19782   */\n      jump(tag_461)\n    tag_463:\n        /* \"#utility.yul\":19810:19816   */\n      dup7\n        /* \"#utility.yul\":19801:19808   */\n      dup4\n        /* \"#utility.yul\":19798:19817   */\n      lt\n        /* \"#utility.yul\":19795:19974   */\n      iszero\n      tag_464\n      jumpi\n        /* \"#utility.yul\":19868:19877   */\n      dup5\n        /* \"#utility.yul\":19863:19866   */\n      dup10\n        /* \"#utility.yul\":19859:19878   */\n      add\n        /* \"#utility.yul\":19853:19879   */\n      mload\n        /* \"#utility.yul\":19911:19959   */\n      tag_465\n        /* \"#utility.yul\":19953:19957   */\n      0x1f\n        /* \"#utility.yul\":19945:19951   */\n      dup10\n        /* \"#utility.yul\":19941:19958   */\n      and\n        /* \"#utility.yul\":19930:19939   */\n      dup3\n        /* \"#utility.yul\":19911:19959   */\n      tag_251\n      jump\t// in\n    tag_465:\n        /* \"#utility.yul\":19903:19909   */\n      dup4\n        /* \"#utility.yul\":19896:19960   */\n      sstore\n        /* \"#utility.yul\":19818:19974   */\n      pop\n        /* \"#utility.yul\":19795:19974   */\n    tag_464:\n        /* \"#utility.yul\":20020:20021   */\n      0x01\n        /* \"#utility.yul\":20016:20017   */\n      0x02\n        /* \"#utility.yul\":20008:20014   */\n      dup9\n        /* \"#utility.yul\":20004:20018   */\n      mul\n        /* \"#utility.yul\":20000:20022   */\n      add\n        /* \"#utility.yul\":19994:19998   */\n      dup9\n        /* \"#utility.yul\":19987:20023   */\n      sstore\n        /* \"#utility.yul\":19422:20033   */\n      pop\n      pop\n      pop\n        /* \"#utility.yul\":19385:20272   */\n    tag_456:\n      pop\n        /* \"#utility.yul\":18975:20278   */\n      pop\n      pop\n      pop\n        /* \"#utility.yul\":18883:20278   */\n      pop\n      pop\n      jump\t// out\n        /* \"#utility.yul\":20284:20475   */\n    tag_117:\n        /* \"#utility.yul\":20324:20327   */\n      0x00\n        /* \"#utility.yul\":20343:20363   */\n      tag_467\n        /* \"#utility.yul\":20361:20362   */\n      dup3\n        /* \"#utility.yul\":20343:20363   */\n      tag_199\n      jump\t// in\n    tag_467:\n        /* \"#utility.yul\":20338:20363   */\n      swap2\n      pop\n        /* \"#utility.yul\":20377:20397   */\n      tag_468\n        /* \"#utility.yul\":20395:20396   */\n      dup4\n        /* \"#utility.yul\":20377:20397   */\n      tag_199\n      jump\t// in\n    tag_468:\n        /* \"#utility.yul\":20372:20397   */\n      swap3\n      pop\n        /* \"#utility.yul\":20420:20421   */\n      dup3\n        /* \"#utility.yul\":20417:20418   */\n      dup3\n        /* \"#utility.yul\":20413:20422   */\n      add\n        /* \"#utility.yul\":20406:20422   */\n      swap1\n      pop\n        /* \"#utility.yul\":20441:20444   */\n      dup1\n        /* \"#utility.yul\":20438:20439   */\n      dup3\n        /* \"#utility.yul\":20435:20445   */\n      gt\n        /* \"#utility.yul\":20432:20468   */\n      iszero\n      tag_469\n      jumpi\n        /* \"#utility.yul\":20448:20466   */\n      tag_470\n      tag_237\n      jump\t// in\n    tag_470:\n        /* \"#utility.yul\":20432:20468   */\n    tag_469:\n        /* \"#utility.yul\":20284:20475   */\n      swap3\n      swap2\n      pop\n      pop\n      jump\t// out\n        /* \"#utility.yul\":20481:20714   */\n    tag_119:\n        /* \"#utility.yul\":20520:20523   */\n      0x00\n        /* \"#utility.yul\":20543:20567   */\n      tag_472\n        /* \"#utility.yul\":20561:20566   */\n      dup3\n        /* \"#utility.yul\":20543:20567   */\n      tag_199\n      jump\t// in\n    tag_472:\n        /* \"#utility.yul\":20534:20567   */\n      swap2\n      pop\n        /* \"#utility.yul\":20589:20655   */\n      0xffffffffffffffffffffffffffffffffffffffffffffffffffffffffffffffff\n        /* \"#utility.yul\":20582:20587   */\n      dup3\n        /* \"#utility.yul\":20579:20656   */\n      sub\n        /* \"#utility.yul\":20576:20679   */\n      tag_473\n      jumpi\n        /* \"#utility.yul\":20659:20677   */\n      tag_474\n      tag_237\n      jump\t// in\n    tag_474:\n        /* \"#utility.yul\":20576:20679   */\n    tag_473:\n        /* \"#utility.yul\":20706:20707   */\n      0x01\n        /* \"#utility.yul\":20699:20704   */\n      dup3\n        /* \"#utility.yul\":20695:20708   */\n      add\n        /* \"#utility.yul\":20688:20708   */\n      swap1\n      pop\n        /* \"#utility.yul\":20481:20714   */\n      swap2\n      swap1\n      pop\n      jump\t// out\n        /* \"#utility.yul\":20720:21143   */\n    tag_121:\n        /* \"#utility.yul\":20861:20865   */\n      0x00\n        /* \"#utility.yul\":20899:20901   */\n      0x40\n        /* \"#utility.yul\":20888:20897   */\n      dup3\n        /* \"#utility.yul\":20884:20902   */\n      add\n        /* \"#utility.yul\":20876:20902   */\n      swap1\n      pop\n        /* \"#utility.yul\":20948:20957   */\n      dup2\n        /* \"#utility.yul\":20942:20946   */\n      dup2\n        /* \"#utility.yul\":20938:20958   */\n      sub\n        /* \"#utility.yul\":20934:20935   */\n      0x00\n        /* \"#utility.yul\":20923:20932   */\n      dup4\n        /* \"#utility.yul\":20919:20936   */\n      add\n        /* \"#utility.yul\":20912:20959   */\n      mstore\n        /* \"#utility.yul\":20976:21054   */\n      tag_476\n        /* \"#utility.yul\":21049:21053   */\n      dup2\n        /* \"#utility.yul\":21040:21046   */\n      dup6\n        /* \"#utility.yul\":20976:21054   */\n      tag_207\n      jump\t// in\n    tag_476:\n        /* \"#utility.yul\":20968:21054   */\n      swap1\n      pop\n        /* \"#utility.yul\":21064:21136   */\n      tag_477\n        /* \"#utility.yul\":21132:21134   */\n      0x20\n        /* \"#utility.yul\":21121:21130   */\n      dup4\n        /* \"#utility.yul\":21117:21135   */\n      add\n        /* \"#utility.yul\":21108:21114   */\n      dup5\n        /* \"#utility.yul\":21064:21136   */\n      tag_202\n      jump\t// in\n    tag_477:\n        /* \"#utility.yul\":20720:21143   */\n      swap4\n      swap3\n      pop\n      pop\n      pop\n      jump\t// out\n        /* \"#utility.yul\":21149:21328   */\n    tag_253:\n        /* \"#utility.yul\":21289:21320   */\n      0x506572696f64206d7573742062652067726561746572207468616e2030000000\n        /* \"#utility.yul\":21285:21286   */\n      0x00\n        /* \"#utility.yul\":21277:21283   */\n      dup3\n        /* \"#utility.yul\":21273:21287   */\n      add\n        /* \"#utility.yul\":21266:21321   */\n      mstore\n        /* \"#utility.yul\":21149:21328   */\n      pop\n      jump\t// out\n        /* \"#utility.yul\":21334:21700   */\n    tag_254:\n        /* \"#utility.yul\":21476:21479   */\n      0x00\n        /* \"#utility.yul\":21497:21564   */\n      tag_480\n        /* \"#utility.yul\":21561:21563   */\n      0x1d\n        /* \"#utility.yul\":21556:21559   */\n      dup4\n        /* \"#utility.yul\":21497:21564   */\n      tag_204\n      jump\t// in\n    tag_480:\n        /* \"#utility.yul\":21490:21564   */\n      swap2\n      pop\n        /* \"#utility.yul\":21573:21666   */\n      tag_481\n        /* \"#utility.yul\":21662:21665   */\n      dup3\n        /* \"#utility.yul\":21573:21666   */\n      tag_253\n      jump\t// in\n    tag_481:\n        /* \"#utility.yul\":21691:21693   */\n      0x20\n        /* \"#utility.yul\":21686:21689   */\n      dup3\n        /* \"#utility.yul\":21682:21694   */\n      add\n        /* \"#utility.yul\":21675:21694   */\n      swap1\n      pop\n        /* \"#utility.yul\":21334:21700   */\n      swap2\n      swap1\n      pop\n      jump\t// out\n        /* \"#utility.yul\":21706:22125   */\n    tag_135:\n        /* \"#utility.yul\":21872:21876   */\n      0x00\n        /* \"#utility.yul\":21910:21912   */\n      0x20\n        /* \"#utility.yul\":21899:21908   */\n      dup3\n        /* \"#utility.yul\":21895:21913   */\n      add\n        /* \"#utility.yul\":21887:21913   */\n      swap1\n      pop\n        /* \"#utility.yul\":21959:21968   */\n      dup2\n        /* \"#utility.yul\":21953:21957   */\n      dup2\n        /* \"#utility.yul\":21949:21969   */\n      sub\n        /* \"#utility.yul\":21945:21946   */\n      0x00\n        /* \"#utility.yul\":21934:21943   */\n      dup4\n        /* \"#utility.yul\":21930:21947   */\n      add\n        /* \"#utility.yul\":21923:21970   */\n      mstore\n        /* \"#utility.yul\":21987:22118   */\n      tag_483\n        /* \"#utility.yul\":22113:22117   */\n      dup2\n        /* \"#utility.yul\":21987:22118   */\n      tag_254\n      jump\t// in\n    tag_483:\n        /* \"#utility.yul\":21979:22118   */\n      swap1\n      pop\n        /* \"#utility.yul\":21706:22125   */\n      swap2\n      swap1\n      pop\n      jump\t// out\n        /* \"#utility.yul\":22131:22325   */\n    tag_162:\n        /* \"#utility.yul\":22171:22175   */\n      0x00\n        /* \"#utility.yul\":22191:22211   */\n      tag_485\n        /* \"#utility.yul\":22209:22210   */\n      dup3\n        /* \"#utility.yul\":22191:22211   */\n      tag_199\n      jump\t// in\n    tag_485:\n        /* \"#utility.yul\":22186:22211   */\n      swap2\n      pop\n        /* \"#utility.yul\":22225:22245   */\n      tag_486\n        /* \"#utility.yul\":22243:22244   */\n      dup4\n        /* \"#utility.yul\":22225:22245   */\n      tag_199\n      jump\t// in\n    tag_486:\n        /* \"#utility.yul\":22220:22245   */\n      swap3\n      pop\n        /* \"#utility.yul\":22269:22270   */\n      dup3\n        /* \"#utility.yul\":22266:22267   */\n      dup3\n        /* \"#utility.yul\":22262:22271   */\n      sub\n        /* \"#utility.yul\":22254:22271   */\n      swap1\n      pop\n        /* \"#utility.yul\":22293:22294   */\n      dup2\n        /* \"#utility.yul\":22287:22291   */\n      dup2\n        /* \"#utility.yul\":22284:22295   */\n      gt\n        /* \"#utility.yul\":22281:22318   */\n      iszero\n      tag_487\n      jumpi\n        /* \"#utility.yul\":22298:22316   */\n      tag_488\n      tag_237\n      jump\t// in\n    tag_488:\n        /* \"#utility.yul\":22281:22318   */\n    tag_487:\n        /* \"#utility.yul\":22131:22325   */\n      swap3\n      swap2\n      pop\n      pop\n      jump\t// out\n        /* \"#utility.yul\":22331:22497   */\n    tag_255:\n        /* \"#utility.yul\":22471:22489   */\n      0x566f74696e6720697320636c6f73656400000000000000000000000000000000\n        /* \"#utility.yul\":22467:22468   */\n      0x00\n        /* \"#utility.yul\":22459:22465   */\n      dup3\n        /* \"#utility.yul\":22455:22469   */\n      add\n        /* \"#utility.yul\":22448:22490   */\n      mstore\n        /* \"#utility.yul\":22331:22497   */\n      pop\n      jump\t// out\n        /* \"#utility.yul\":22503:22869   */\n    tag_256:\n        /* \"#utility.yul\":22645:22648   */\n      0x00\n        /* \"#utility.yul\":22666:22733   */\n      tag_491\n        /* \"#utility.yul\":22730:22732   */\n      0x10\n        /* \"#utility.yul\":22725:22728   */\n      dup4\n        /* \"#utility.yul\":22666:22733   */\n      tag_204\n      jump\t// in\n    tag_491:\n        /* \"#utility.yul\":22659:22733   */\n      swap2\n      pop\n        /* \"#utility.yul\":22742:22835   */\n      tag_492\n        /* \"#utility.yul\":22831:22834   */\n      dup3\n        /* \"#utility.yul\":22742:22835   */\n      tag_255\n      jump\t// in\n    tag_492:\n        /* \"#utility.yul\":22860:22862   */\n      0x20\n        /* \"#utility.yul\":22855:22858   */\n      dup3\n        /* \"#utility.yul\":22851:22863   */\n      add\n        /* \"#utility.yul\":22844:22863   */\n      swap1\n      pop\n        /* \"#utility.yul\":22503:22869   */\n      swap2\n      swap1\n      pop\n      jump\t// out\n        /* \"#utility.yul\":22875:23294   */\n    tag_183:\n        /* \"#utility.yul\":23041:23045   */\n      0x00\n        /* \"#utility.yul\":23079:23081   */\n      0x20\n        /* \"#utility.yul\":23068:23077   */\n      dup3\n        /* \"#utility.yul\":23064:23082   */\n      add\n        /* \"#utility.yul\":23056:23082   */\n      swap1\n      pop\n        /* \"#utility.yul\":23128:23137   */\n      dup2\n        /* \"#utility.yul\":23122:23126   */\n      dup2\n        /* \"#utility.yul\":23118:23138   */\n      sub\n        /* \"#utility.yul\":23114:23115   */\n      0x00\n        /* \"#utility.yul\":23103:23112   */\n      dup4\n        /* \"#utility.yul\":23099:23116   */\n      add\n        /* \"#utility.yul\":23092:23139   */\n      mstore\n        /* \"#utility.yul\":23156:23287   */\n      tag_494\n        /* \"#utility.yul\":23282:23286   */\n      dup2\n        /* \"#utility.yul\":23156:23287   */\n      tag_256\n      jump\t// in\n    tag_494:\n        /* \"#utility.yul\":23148:23287   */\n      swap1\n      pop\n        /* \"#utility.yul\":22875:23294   */\n      swap2\n      swap1\n      pop\n      jump\t// out\n        /* \"#utility.yul\":23300:23469   */\n    tag_257:\n        /* \"#utility.yul\":23440:23461   */\n      0x566f74696e6720706572696f6420656e64656400000000000000000000000000\n        /* \"#utility.yul\":23436:23437   */\n      0x00\n        /* \"#utility.yul\":23428:23434   */\n      dup3\n        /* \"#utility.yul\":23424:23438   */\n      add\n        /* \"#utility.yul\":23417:23462   */\n      mstore\n        /* \"#utility.yul\":23300:23469   */\n      pop\n      jump\t// out\n        /* \"#utility.yul\":23475:23841   */\n    tag_258:\n        /* \"#utility.yul\":23617:23620   */\n      0x00\n        /* \"#utility.yul\":23638:23705   */\n      tag_497\n        /* \"#utility.yul\":23702:23704   */\n      0x13\n        /* \"#utility.yul\":23697:23700   */\n      dup4\n        /* \"#utility.yul\":23638:23705   */\n      tag_204\n      jump\t// in\n    tag_497:\n        /* \"#utility.yul\":23631:23705   */\n      swap2\n      pop\n        /* \"#utility.yul\":23714:23807   */\n      tag_498\n        /* \"#utility.yul\":23803:23806   */\n      dup3\n        /* \"#utility.yul\":23714:23807   */\n      tag_257\n      jump\t// in\n    tag_498:\n        /* \"#utility.yul\":23832:23834   */\n      0x20\n        /* \"#utility.yul\":23827:23830   */\n      dup3\n        /* \"#utility.yul\":23823:23835   */\n      add\n        /* \"#utility.yul\":23816:23835   */\n      swap1\n      pop\n        /* \"#utility.yul\":23475:23841   */\n      swap2\n      swap1\n      pop\n      jump\t// out\n        /* \"#utility.yul\":23847:24266   */\n    tag_186:\n        /* \"#utility.yul\":24013:24017   */\n      0x00\n        /* \"#utility.yul\":24051:24053   */\n      0x20\n        /* \"#utility.yul\":24040:24049   */\n      dup3\n        /* \"#utility.yul\":24036:24054   */\n      add\n        /* \"#utility.yul\":24028:24054   */\n      swap1\n      pop\n        /* \"#utility.yul\":24100:24109   */\n      dup2\n        /* \"#utility.yul\":24094:24098   */\n      dup2\n        /* \"#utility.yul\":24090:24110   */\n      sub\n        /* \"#utility.yul\":24086:24087   */\n      0x00\n        /* \"#utility.yul\":24075:24084   */\n      dup4\n        /* \"#utility.yul\":24071:24088   */\n      add\n        /* \"#utility.yul\":24064:24111   */\n      mstore\n        /* \"#utility.yul\":24128:24259   */\n      tag_500\n        /* \"#utility.yul\":24254:24258   */\n      dup2\n        /* \"#utility.yul\":24128:24259   */\n      tag_258\n      jump\t// in\n    tag_500:\n        /* \"#utility.yul\":24120:24259   */\n      swap1\n      pop\n        /* \"#utility.yul\":23847:24266   */\n      swap2\n      swap1\n      pop\n      jump\t// out\n        /* \"#utility.yul\":24272:24435   */\n    tag_259:\n        /* \"#utility.yul\":24412:24427   */\n      0x416c726561647920766f74656400000000000000000000000000000000000000\n        /* \"#utility.yul\":24408:24409   */\n      0x00\n        /* \"#utility.yul\":24400:24406   */\n      dup3\n        /* \"#utility.yul\":24396:24410   */\n      add\n        /* \"#utility.yul\":24389:24428   */\n      mstore\n        /* \"#utility.yul\":24272:24435   */\n      pop\n      jump\t// out\n        /* \"#utility.yul\":24441:24807   */\n    tag_260:\n        /* \"#utility.yul\":24583:24586   */\n      0x00\n        /* \"#utility.yul\":24604:24671   */\n      tag_503\n        /* \"#utility.yul\":24668:24670   */\n      0x0d\n        /* \"#utility.yul\":24663:24666   */\n      dup4\n        /* \"#utility.yul\":24604:24671   */\n      tag_204\n      jump\t// in\n    tag_503:\n        /* \"#utility.yul\":24597:24671   */\n      swap2\n      pop\n        /* \"#utility.yul\":24680:24773   */\n      tag_504\n        /* \"#utility.yul\":24769:24772   */\n      dup3\n        /* \"#utility.yul\":24680:24773   */\n      tag_259\n      jump\t// in\n    tag_504:\n        /* \"#utility.yul\":24798:24800   */\n      0x20\n        /* \"#utility.yul\":24793:24796   */\n      dup3\n        /* \"#utility.yul\":24789:24801   */\n      add\n        /* \"#utility.yul\":24782:24801   */\n      swap1\n      pop\n        /* \"#utility.yul\":24441:24807   */\n      swap2\n      swap1\n      pop\n      jump\t// out\n        /* \"#utility.yul\":24813:25232   */\n    tag_190:\n        /* \"#utility.yul\":24979:24983   */\n      0x00\n        /* \"#utility.yul\":25017:25019   */\n      0x20\n        /* \"#utility.yul\":25006:25015   */\n      dup3\n        /* \"#utility.yul\":25002:25020   */\n      add\n        /* \"#utility.yul\":24994:25020   */\n      swap1\n      pop\n        /* \"#utility.yul\":25066:25075   */\n      dup2\n        /* \"#utility.yul\":25060:25064   */\n      dup2\n        /* \"#utility.yul\":25056:25076   */\n      sub\n        /* \"#utility.yul\":25052:25053   */\n      0x00\n        /* \"#utility.yul\":25041:25050   */\n      dup4\n        /* \"#utility.yul\":25037:25054   */\n      add\n        /* \"#utility.yul\":25030:25077   */\n      mstore\n        /* \"#utility.yul\":25094:25225   */\n      tag_506\n        /* \"#utility.yul\":25220:25224   */\n      dup2\n        /* \"#utility.yul\":25094:25225   */\n      tag_260\n      jump\t// in\n    tag_506:\n        /* \"#utility.yul\":25086:25225   */\n      swap1\n      pop\n        /* \"#utility.yul\":24813:25232   */\n      swap2\n      swap1\n      pop\n      jump\t// out\n\n    auxdata: 0xa26469706673582212207b8a0086291d4cefeb1023a474ac00da7db226fcd1f9c32268809436a821fde864736f6c634300081f0033\n}\n",
				"bytecode": {
					"linkReferences": {},
					"object": "608060405262093a806003553480156015575f5ffd5b503360025f6101000a81548173ffffffffffffffffffffffffffffffffffffffff021916908373ffffffffffffffffffffffffffffffffffffffff160217905550611e6a806100635f395ff3fe608060405234801561000f575f5ffd5b50600436106100e8575f3560e01c806381a60c0d1161008a578063c7f758a811610064578063c7f758a81461028a578063c9d27afe146102c2578063da35c664146102de578063f851a440146102fc576100e8565b806381a60c0d1461020a5780638cd429911461023c578063a83bf50a1461026c576100e8565b806319f3dad1116100c657806319f3dad1146101705780633eb9b79b1461018e578063401853b7146101aa57806343859632146101da576100e8565b8063013cf08b146100ec5780630386a016146101245780630ce0ebf414610140575b5f5ffd5b610106600480360381019061010191906111b7565b61031a565b60405161011b999897969594939291906112ba565b60405180910390f35b61013e600480360381019061013991906111b7565b61049a565b005b61015a6004803603810190610155919061147f565b610628565b6040516101679190611507565b60405180910390f35b61017861081c565b6040516101859190611507565b60405180910390f35b6101a860048036038101906101a391906111b7565b610897565b005b6101c460048036038101906101bf91906111b7565b610980565b6040516101d19190611520565b60405180910390f35b6101f460048036038101906101ef919061156a565b610b19565b60405161020191906115a8565b60405180910390f35b610224600480360381019061021f91906111b7565b610bc3565b604051610233939291906115c1565b60405180910390f35b610256600480360381019061025191906111b7565b610c4b565b6040516102639190611507565b60405180910390f35b610274610cd2565b6040516102819190611507565b60405180910390f35b6102a4600480360381019061029f91906111b7565b610cd8565b6040516102b9999897969594939291906112ba565b60405180910390f35b6102dc60048036038101906102d79190611620565b610ec4565b005b6102e6611148565b6040516102f39190611507565b60405180910390f35b61030461114e565b604051610311919061165e565b60405180910390f35b5f602052805f5260405f205f91509050805f01549080600101805461033e906116a4565b80601f016020809104026020016040519081016040528092919081815260200182805461036a906116a4565b80156103b55780601f1061038c576101008083540402835291602001916103b5565b820191905f5260205f20905b81548152906001019060200180831161039857829003601f168201915b5050505050908060020180546103ca906116a4565b80601f01602080910402602001604051908101604052809291908181526020018280546103f6906116a4565b80156104415780601f1061041857610100808354040283529160200191610441565b820191905f5260205f20905b81548152906001019060200180831161042457829003601f168201915b505050505090806003015f9054906101000a900473ffffffffffffffffffffffffffffffffffffffff1690806004015490806005015490806006015490806007015490806008015f9054906101000a900460ff16905089565b60025f9054906101000a900473ffffffffffffffffffffffffffffffffffffffff1673ffffffffffffffffffffffffffffffffffffffff163373ffffffffffffffffffffffffffffffffffffffff1614610529576040517f08c379a00000000000000000000000000000000000000000000000000000000081526004016105209061171e565b60405180910390fd5b80600154811061056e576040517f08c379a000000000000000000000000000000000000000000000000000000000815260040161056590611786565b60405180910390fd5b5f5f8381526020019081526020015f206008015f9054906101000a900460ff166105cd576040517f08c379a00000000000000000000000000000000000000000000000000000000081526004016105c4906117ee565b60405180910390fd5b5f5f5f8481526020019081526020015f206008015f6101000a81548160ff021916908315150217905550817f887777ccf43690541bed9e00b10d0fccfa7520b11875f09847a57b3085d8ab9260405160405180910390a25050565b5f5f84511161066c576040517f08c379a000000000000000000000000000000000000000000000000000000000815260040161066390611856565b60405180910390fd5b5f8351116106af576040517f08c379a00000000000000000000000000000000000000000000000000000000081526004016106a6906118be565b60405180910390fd5b5f5f83116106bf576003546106cf565b62015180836106ce9190611909565b5b90505f60015490505f5f5f8381526020019081526020015f20905081815f0181905550868160010190816107039190611aea565b50858160020190816107159190611aea565b5033816003015f6101000a81548173ffffffffffffffffffffffffffffffffffffffff021916908373ffffffffffffffffffffffffffffffffffffffff1602179055505f81600401819055505f8160050181905550428160060181905550824261077f9190611bb9565b81600701819055506001816008015f6101000a81548160ff02191690831515021790555060015f8154809291906107b590611bec565b91905055503373ffffffffffffffffffffffffffffffffffffffff16827f9cc3d9dd626042cdefb76484b91708c3207b637214b44f20111c893548d9c85f898460070154604051610807929190611c33565b60405180910390a38193505050509392505050565b5f5f5f90505f5f90505b60015481101561088f575f5f8281526020019081526020015f206008015f9054906101000a900460ff16801561086e57505f5f8281526020019081526020015f206007015442105b1561088257818061087e90611bec565b9250505b8080600101915050610826565b508091505090565b60025f9054906101000a900473ffffffffffffffffffffffffffffffffffffffff1673ffffffffffffffffffffffffffffffffffffffff163373ffffffffffffffffffffffffffffffffffffffff1614610926576040517f08c379a000000000000000000000000000000000000000000000000000000000815260040161091d9061171e565b60405180910390fd5b5f8111610968576040517f08c379a000000000000000000000000000000000000000000000000000000000815260040161095f90611cab565b60405180910390fd5b62015180816109779190611909565b60038190555050565b60608160015481106109c7576040517f08c379a00000000000000000000000000000000000000000000000000000000081526004016109be90611786565b60405180910390fd5b5f5f5f8581526020019081526020015f209050806008015f9054906101000a900460ff1680156109fa5750806007015442105b15610a3d576040518060400160405280600681526020017f4163746976650000000000000000000000000000000000000000000000000000815250925050610b13565b806005015481600401541115610a8b576040518060400160405280600681526020017f5061737365640000000000000000000000000000000000000000000000000000815250925050610b13565b806004015481600501541115610ad9576040518060400160405280600881526020017f52656a6563746564000000000000000000000000000000000000000000000000815250925050610b13565b6040518060400160405280600481526020017f54696564000000000000000000000000000000000000000000000000000000008152509250505b50919050565b5f826001548110610b5f576040517f08c379a0000000000000000000000000000000000000000000000000000000008152600401610b5690611786565b60405180910390fd5b5f5f8581526020019081526020015f206009015f8473ffffffffffffffffffffffffffffffffffffffff1673ffffffffffffffffffffffffffffffffffffffff1681526020019081526020015f205f9054906101000a900460ff1691505092915050565b5f5f5f836001548110610c0b576040517f08c379a0000000000000000000000000000000000000000000000000000000008152600401610c0290611786565b60405180910390fd5b5f5f5f8781526020019081526020015f2090508060040154816005015482600501548360040154610c3c9190611bb9565b94509450945050509193909250565b5f816001548110610c91576040517f08c379a0000000000000000000000000000000000000000000000000000000008152600401610c8890611786565b60405180910390fd5b5f5f5f8581526020019081526020015f20905080600701544210610cb8575f925050610ccc565b428160070154610cc89190611cc9565b9250505b50919050565b60035481565b5f6060805f5f5f5f5f5f896001548110610d27576040517f08c379a0000000000000000000000000000000000000000000000000000000008152600401610d1e90611786565b60405180910390fd5b5f5f5f8d81526020019081526020015f209050805f01548160010182600201836003015f9054906101000a900473ffffffffffffffffffffffffffffffffffffffff168460040154856005015486600601548760070154886008015f9054906101000a900460ff16878054610d9b906116a4565b80601f0160208091040260200160405190810160405280929190818152602001828054610dc7906116a4565b8015610e125780601f10610de957610100808354040283529160200191610e12565b820191905f5260205f20905b815481529060010190602001808311610df557829003601f168201915b50505050509750868054610e25906116a4565b80601f0160208091040260200160405190810160405280929190818152602001828054610e51906116a4565b8015610e9c5780601f10610e7357610100808354040283529160200191610e9c565b820191905f5260205f20905b815481529060010190602001808311610e7f57829003601f168201915b505050505096509a509a509a509a509a509a509a509a509a5050509193959799909294969850565b816001548110610f09576040517f08c379a0000000000000000000000000000000000000000000000000000000008152600401610f0090611786565b60405180910390fd5b825f5f8281526020019081526020015f206008015f9054906101000a900460ff16610f69576040517f08c379a0000000000000000000000000000000000000000000000000000000008152600401610f6090611d46565b60405180910390fd5b5f5f8281526020019081526020015f20600701544210610fbe576040517f08c379a0000000000000000000000000000000000000000000000000000000008152600401610fb590611dae565b60405180910390fd5b5f5f5f8681526020019081526020015f209050806009015f3373ffffffffffffffffffffffffffffffffffffffff1673ffffffffffffffffffffffffffffffffffffffff1681526020019081526020015f205f9054906101000a900460ff161561105d576040517f08c379a000000000000000000000000000000000000000000000000000000000815260040161105490611e16565b60405180910390fd5b6001816009015f3373ffffffffffffffffffffffffffffffffffffffff1673ffffffffffffffffffffffffffffffffffffffff1681526020019081526020015f205f6101000a81548160ff02191690831515021790555083156110d857806004015f8154809291906110ce90611bec565b91905055506110f2565b806005015f8154809291906110ec90611bec565b91905055505b3373ffffffffffffffffffffffffffffffffffffffff16857fe71fcdac32df1877c1700e7bda2a03157e20993363a28fc35ac495cefc76e4d48660405161113991906115a8565b60405180910390a35050505050565b60015481565b60025f9054906101000a900473ffffffffffffffffffffffffffffffffffffffff1681565b5f604051905090565b5f5ffd5b5f5ffd5b5f819050919050565b61119681611184565b81146111a0575f5ffd5b50565b5f813590506111b18161118d565b92915050565b5f602082840312156111cc576111cb61117c565b5b5f6111d9848285016111a3565b91505092915050565b6111eb81611184565b82525050565b5f81519050919050565b5f82825260208201905092915050565b8281835e5f83830152505050565b5f601f19601f8301169050919050565b5f611233826111f1565b61123d81856111fb565b935061124d81856020860161120b565b61125681611219565b840191505092915050565b5f73ffffffffffffffffffffffffffffffffffffffff82169050919050565b5f61128a82611261565b9050919050565b61129a81611280565b82525050565b5f8115159050919050565b6112b4816112a0565b82525050565b5f610120820190506112ce5f83018c6111e2565b81810360208301526112e0818b611229565b905081810360408301526112f4818a611229565b90506113036060830189611291565b61131060808301886111e2565b61131d60a08301876111e2565b61132a60c08301866111e2565b61133760e08301856111e2565b6113456101008301846112ab565b9a9950505050505050505050565b5f5ffd5b5f5ffd5b7f4e487b71000000000000000000000000000000000000000000000000000000005f52604160045260245ffd5b61139182611219565b810181811067ffffffffffffffff821117156113b0576113af61135b565b5b80604052505050565b5f6113c2611173565b90506113ce8282611388565b919050565b5f67ffffffffffffffff8211156113ed576113ec61135b565b5b6113f682611219565b9050602081019050919050565b828183375f83830152505050565b5f61142361141e846113d3565b6113b9565b90508281526020810184848401111561143f5761143e611357565b5b61144a848285611403565b509392505050565b5f82601f83011261146657611465611353565b5b8135611476848260208601611411565b91505092915050565b5f5f5f606084860312156114965761149561117c565b5b5f84013567ffffffffffffffff8111156114b3576114b2611180565b5b6114bf86828701611452565b935050602084013567ffffffffffffffff8111156114e0576114df611180565b5b6114ec86828701611452565b92505060406114fd868287016111a3565b9150509250925092565b5f60208201905061151a5f8301846111e2565b92915050565b5f6020820190508181035f8301526115388184611229565b905092915050565b61154981611280565b8114611553575f5ffd5b50565b5f8135905061156481611540565b92915050565b5f5f604083850312156115805761157f61117c565b5b5f61158d858286016111a3565b925050602061159e85828601611556565b9150509250929050565b5f6020820190506115bb5f8301846112ab565b92915050565b5f6060820190506115d45f8301866111e2565b6115e160208301856111e2565b6115ee60408301846111e2565b949350505050565b6115ff816112a0565b8114611609575f5ffd5b50565b5f8135905061161a816115f6565b92915050565b5f5f604083850312156116365761163561117c565b5b5f611643858286016111a3565b92505060206116548582860161160c565b9150509250929050565b5f6020820190506116715f830184611291565b92915050565b7f4e487b71000000000000000000000000000000000000000000000000000000005f52602260045260245ffd5b5f60028204905060018216806116bb57607f821691505b6020821081036116ce576116cd611677565b5b50919050565b7f4f6e6c792061646d696e2063616e20706572666f726d207468697300000000005f82015250565b5f611708601b836111fb565b9150611713826116d4565b602082019050919050565b5f6020820190508181035f830152611735816116fc565b9050919050565b7f50726f706f73616c20646f6573206e6f742065786973740000000000000000005f82015250565b5f6117706017836111fb565b915061177b8261173c565b602082019050919050565b5f6020820190508181035f83015261179d81611764565b9050919050565b7f50726f706f73616c20616c726561647920636c6f7365640000000000000000005f82015250565b5f6117d86017836111fb565b91506117e3826117a4565b602082019050919050565b5f6020820190508181035f830152611805816117cc565b9050919050565b7f5469746c652063616e6e6f7420626520656d70747900000000000000000000005f82015250565b5f6118406015836111fb565b915061184b8261180c565b602082019050919050565b5f6020820190508181035f83015261186d81611834565b9050919050565b7f4465736372697074696f6e2063616e6e6f7420626520656d70747900000000005f82015250565b5f6118a8601b836111fb565b91506118b382611874565b602082019050919050565b5f6020820190508181035f8301526118d58161189c565b9050919050565b7f4e487b71000000000000000000000000000000000000000000000000000000005f52601160045260245ffd5b5f61191382611184565b915061191e83611184565b925082820261192c81611184565b91508282048414831517611943576119426118dc565b5b5092915050565b5f819050815f5260205f209050919050565b5f6020601f8301049050919050565b5f82821b905092915050565b5f600883026119a67fffffffffffffffffffffffffffffffffffffffffffffffffffffffffffffffff8261196b565b6119b0868361196b565b95508019841693508086168417925050509392505050565b5f819050919050565b5f6119eb6119e66119e184611184565b6119c8565b611184565b9050919050565b5f819050919050565b611a04836119d1565b611a18611a10826119f2565b848454611977565b825550505050565b5f5f905090565b611a2f611a20565b611a3a8184846119fb565b505050565b5b81811015611a5d57611a525f82611a27565b600181019050611a40565b5050565b601f821115611aa257611a738161194a565b611a7c8461195c565b81016020851015611a8b578190505b611a9f611a978561195c565b830182611a3f565b50505b505050565b5f82821c905092915050565b5f611ac25f1984600802611aa7565b1980831691505092915050565b5f611ada8383611ab3565b9150826002028217905092915050565b611af3826111f1565b67ffffffffffffffff811115611b0c57611b0b61135b565b5b611b1682546116a4565b611b21828285611a61565b5f60209050601f831160018114611b52575f8415611b40578287015190505b611b4a8582611acf565b865550611bb1565b601f198416611b608661194a565b5f5b82811015611b8757848901518255600182019150602085019450602081019050611b62565b86831015611ba45784890151611ba0601f891682611ab3565b8355505b6001600288020188555050505b505050505050565b5f611bc382611184565b9150611bce83611184565b9250828201905080821115611be657611be56118dc565b5b92915050565b5f611bf682611184565b91507fffffffffffffffffffffffffffffffffffffffffffffffffffffffffffffffff8203611c2857611c276118dc565b5b600182019050919050565b5f6040820190508181035f830152611c4b8185611229565b9050611c5a60208301846111e2565b9392505050565b7f506572696f64206d7573742062652067726561746572207468616e20300000005f82015250565b5f611c95601d836111fb565b9150611ca082611c61565b602082019050919050565b5f6020820190508181035f830152611cc281611c89565b9050919050565b5f611cd382611184565b9150611cde83611184565b9250828203905081811115611cf657611cf56118dc565b5b92915050565b7f566f74696e6720697320636c6f736564000000000000000000000000000000005f82015250565b5f611d306010836111fb565b9150611d3b82611cfc565b602082019050919050565b5f6020820190508181035f830152611d5d81611d24565b9050919050565b7f566f74696e6720706572696f6420656e646564000000000000000000000000005f82015250565b5f611d986013836111fb565b9150611da382611d64565b602082019050919050565b5f6020820190508181035f830152611dc581611d8c565b9050919050565b7f416c726561647920766f746564000000000000000000000000000000000000005f82015250565b5f611e00600d836111fb565b9150611e0b82611dcc565b602082019050919050565b5f6020820190508181035f830152611e2d81611df4565b905091905056fea26469706673582212207b8a0086291d4cefeb1023a474ac00da7db226fcd1f9c32268809436a821fde864736f6c634300081f0033",
					"opcodes": "PUSH1 0x80 PUSH1 0x40 MSTORE PUSH3 0x93A80 PUSH1 0x3 SSTORE CALLVALUE DUP1 ISZERO PUSH1 0x15 JUMPI PUSH0 PUSH0 REVERT JUMPDEST POP CALLER PUSH1 0x2 PUSH0 PUSH2 0x100 EXP DUP2 SLOAD DUP2 PUSH20 0xFFFFFFFFFFFFFFFFFFFFFFFFFFFFFFFFFFFFFFFF MUL NOT AND SWAP1 DUP4 PUSH20 0xFFFFFFFFFFFFFFFFFFFFFFFFFFFFFFFFFFFFFFFF AND MUL OR SWAP1 SSTORE POP PUSH2 0x1E6A DUP1 PUSH2 0x63 PUSH0 CODECOPY PUSH0 RETURN INVALID PUSH1 0x80 PUSH1 0x40 MSTORE CALLVALUE DUP1 ISZERO PUSH2 0xF JUMPI PUSH0 PUSH0 REVERT JUMPDEST POP PUSH1 0x4 CALLDATASIZE LT PUSH2 0xE8 JUMPI PUSH0 CALLDATALOAD PUSH1 0xE0 SHR DUP1 PUSH4 0x81A60C0D GT PUSH2 0x8A JUMPI DUP1 PUSH4 0xC7F758A8 GT PUSH2 0x64 JUMPI DUP1 PUSH4 0xC7F758A8 EQ PUSH2 0x28A JUMPI DUP1 PUSH4 0xC9D27AFE EQ PUSH2 0x2C2 JUMPI DUP1 PUSH4 0xDA35C664 EQ PUSH2 0x2DE JUMPI DUP1 PUSH4 0xF851A440 EQ PUSH2 0x2FC JUMPI PUSH2 0xE8 JUMP JUMPDEST DUP1 PUSH4 0x81A60C0D EQ PUSH2 0x20A JUMPI DUP1 PUSH4 0x8CD42991 EQ PUSH2 0x23C JUMPI DUP1 PUSH4 0xA83BF50A EQ PUSH2 0x26C JUMPI PUSH2 0xE8 JUMP JUMPDEST DUP1 PUSH4 0x19F3DAD1 GT PUSH2 0xC6 JUMPI DUP1 PUSH4 0x19F3DAD1 EQ PUSH2 0x170 JUMPI DUP1 PUSH4 0x3EB9B79B EQ PUSH2 0x18E JUMPI DUP1 PUSH4 0x401853B7 EQ PUSH2 0x1AA JUMPI DUP1 PUSH4 0x43859632 EQ PUSH2 0x1DA JUMPI PUSH2 0xE8 JUMP JUMPDEST DUP1 PUSH4 0x13CF08B EQ PUSH2 0xEC JUMPI DUP1 PUSH4 0x386A016 EQ PUSH2 0x124 JUMPI DUP1 PUSH4 0xCE0EBF4 EQ PUSH2 0x140 JUMPI JUMPDEST PUSH0 PUSH0 REVERT JUMPDEST PUSH2 0x106 PUSH1 0x4 DUP1 CALLDATASIZE SUB DUP2 ADD SWAP1 PUSH2 0x101 SWAP2 SWAP1 PUSH2 0x11B7 JUMP JUMPDEST PUSH2 0x31A JUMP JUMPDEST PUSH1 0x40 MLOAD PUSH2 0x11B SWAP10 SWAP9 SWAP8 SWAP7 SWAP6 SWAP5 SWAP4 SWAP3 SWAP2 SWAP1 PUSH2 0x12BA JUMP JUMPDEST PUSH1 0x40 MLOAD DUP1 SWAP2 SUB SWAP1 RETURN JUMPDEST PUSH2 0x13E PUSH1 0x4 DUP1 CALLDATASIZE SUB DUP2 ADD SWAP1 PUSH2 0x139 SWAP2 SWAP1 PUSH2 0x11B7 JUMP JUMPDEST PUSH2 0x49A JUMP JUMPDEST STOP JUMPDEST PUSH2 0x15A PUSH1 0x4 DUP1 CALLDATASIZE SUB DUP2 ADD SWAP1 PUSH2 0x155 SWAP2 SWAP1 PUSH2 0x147F JUMP JUMPDEST PUSH2 0x628 JUMP JUMPDEST PUSH1 0x40 MLOAD PUSH2 0x167 SWAP2 SWAP1 PUSH2 0x1507 JUMP JUMPDEST PUSH1 0x40 MLOAD DUP1 SWAP2 SUB SWAP1 RETURN JUMPDEST PUSH2 0x178 PUSH2 0x81C JUMP JUMPDEST PUSH1 0x40 MLOAD PUSH2 0x185 SWAP2 SWAP1 PUSH2 0x1507 JUMP JUMPDEST PUSH1 0x40 MLOAD DUP1 SWAP2 SUB SWAP1 RETURN JUMPDEST PUSH2 0x1A8 PUSH1 0x4 DUP1 CALLDATASIZE SUB DUP2 ADD SWAP1 PUSH2 0x1A3 SWAP2 SWAP1 PUSH2 0x11B7 JUMP JUMPDEST PUSH2 0x897 JUMP JUMPDEST STOP JUMPDEST PUSH2 0x1C4 PUSH1 0x4 DUP1 CALLDATASIZE SUB DUP2 ADD SWAP1 PUSH2 0x1BF SWAP2 SWAP1 PUSH2 0x11B7 JUMP JUMPDEST PUSH2 0x980 JUMP JUMPDEST PUSH1 0x40 MLOAD PUSH2 0x1D1 SWAP2 SWAP1 PUSH2 0x1520 JUMP JUMPDEST PUSH1 0x40 MLOAD DUP1 SWAP2 SUB SWAP1 RETURN JUMPDEST PUSH2 0x1F4 PUSH1 0x4 DUP1 CALLDATASIZE SUB DUP2 ADD SWAP1 PUSH2 0x1EF SWAP2 SWAP1 PUSH2 0x156A JUMP JUMPDEST PUSH2 0xB19 JUMP JUMPDEST PUSH1 0x40 MLOAD PUSH2 0x201 SWAP2 SWAP1 PUSH2 0x15A8 JUMP JUMPDEST PUSH1 0x40 MLOAD DUP1 SWAP2 SUB SWAP1 RETURN JUMPDEST PUSH2 0x224 PUSH1 0x4 DUP1 CALLDATASIZE SUB DUP2 ADD SWAP1 PUSH2 0x21F SWAP2 SWAP1 PUSH2 0x11B7 JUMP JUMPDEST PUSH2 0xBC3 JUMP JUMPDEST PUSH1 0x40 MLOAD PUSH2 0x233 SWAP4 SWAP3 SWAP2 SWAP1 PUSH2 0x15C1 JUMP JUMPDEST PUSH1 0x40 MLOAD DUP1 SWAP2 SUB SWAP1 RETURN JUMPDEST PUSH2 0x256 PUSH1 0x4 DUP1 CALLDATASIZE SUB DUP2 ADD SWAP1 PUSH2 0x251 SWAP2 SWAP1 PUSH2 0x11B7 JUMP JUMPDEST PUSH2 0xC4B JUMP JUMPDEST PUSH1 0x40 MLOAD PUSH2 0x263 SWAP2 SWAP1 PUSH2 0x1507 JUMP JUMPDEST PUSH1 0x40 MLOAD DUP1 SWAP2 SUB SWAP1 RETURN JUMPDEST PUSH2 0x274 PUSH2 0xCD2 JUMP JUMPDEST PUSH1 0x40 MLOAD PUSH2 0x281 SWAP2 SWAP1 PUSH2 0x1507 JUMP JUMPDEST PUSH1 0x40 MLOAD DUP1 SWAP2 SUB SWAP1 RETURN JUMPDEST PUSH2 0x2A4 PUSH1 0x4 DUP1 CALLDATASIZE SUB DUP2 ADD SWAP1 PUSH2 0x29F SWAP2 SWAP1 PUSH2 0x11B7 JUMP JUMPDEST PUSH2 0xCD8 JUMP JUMPDEST PUSH1 0x40 MLOAD PUSH2 0x2B9 SWAP10 SWAP9 SWAP8 SWAP7 SWAP6 SWAP5 SWAP4 SWAP3 SWAP2 SWAP1 PUSH2 0x12BA JUMP JUMPDEST PUSH1 0x40 MLOAD DUP1 SWAP2 SUB SWAP1 RETURN JUMPDEST PUSH2 0x2DC PUSH1 0x4 DUP1 CALLDATASIZE SUB DUP2 ADD SWAP1 PUSH2 0x2D7 SWAP2 SWAP1 PUSH2 0x1620 JUMP JUMPDEST PUSH2 0xEC4 JUMP JUMPDEST STOP JUMPDEST PUSH2 0x2E6 PUSH2 0x1148 JUMP JUMPDEST PUSH1 0x40 MLOAD PUSH2 0x2F3 SWAP2 SWAP1 PUSH2 0x1507 JUMP JUMPDEST PUSH1 0x40 MLOAD DUP1 SWAP2 SUB SWAP1 RETURN JUMPDEST PUSH2 0x304 PUSH2 0x114E JUMP JUMPDEST PUSH1 0x40 MLOAD PUSH2 0x311 SWAP2 SWAP1 PUSH2 0x165E JUMP JUMPDEST PUSH1 0x40 MLOAD DUP1 SWAP2 SUB SWAP1 RETURN JUMPDEST PUSH0 PUSH1 0x20 MSTORE DUP1 PUSH0 MSTORE PUSH1 0x40 PUSH0 KECCAK256 PUSH0 SWAP2 POP SWAP1 POP DUP1 PUSH0 ADD SLOAD SWAP1 DUP1 PUSH1 0x1 ADD DUP1 SLOAD PUSH2 0x33E SWAP1 PUSH2 0x16A4 JUMP JUMPDEST DUP1 PUSH1 0x1F ADD PUSH1 0x20 DUP1 SWAP2 DIV MUL PUSH1 0x20 ADD PUSH1 0x40 MLOAD SWAP1 DUP2 ADD PUSH1 0x40 MSTORE DUP1 SWAP3 SWAP2 SWAP1 DUP2 DUP2 MSTORE PUSH1 0x20 ADD DUP3 DUP1 SLOAD PUSH2 0x36A SWAP1 PUSH2 0x16A4 JUMP JUMPDEST DUP1 ISZERO PUSH2 0x3B5 JUMPI DUP1 PUSH1 0x1F LT PUSH2 0x38C JUMPI PUSH2 0x100 DUP1 DUP4 SLOAD DIV MUL DUP4 MSTORE SWAP2 PUSH1 0x20 ADD SWAP2 PUSH2 0x3B5 JUMP JUMPDEST DUP3 ADD SWAP2 SWAP1 PUSH0 MSTORE PUSH1 0x20 PUSH0 KECCAK256 SWAP1 JUMPDEST DUP2 SLOAD DUP2 MSTORE SWAP1 PUSH1 0x1 ADD SWAP1 PUSH1 0x20 ADD DUP1 DUP4 GT PUSH2 0x398 JUMPI DUP3 SWAP1 SUB PUSH1 0x1F AND DUP3 ADD SWAP2 JUMPDEST POP POP POP POP POP SWAP1 DUP1 PUSH1 0x2 ADD DUP1 SLOAD PUSH2 0x3CA SWAP1 PUSH2 0x16A4 JUMP JUMPDEST DUP1 PUSH1 0x1F ADD PUSH1 0x20 DUP1 SWAP2 DIV MUL PUSH1 0x20 ADD PUSH1 0x40 MLOAD SWAP1 DUP2 ADD PUSH1 0x40 MSTORE DUP1 SWAP3 SWAP2 SWAP1 DUP2 DUP2 MSTORE PUSH1 0x20 ADD DUP3 DUP1 SLOAD PUSH2 0x3F6 SWAP1 PUSH2 0x16A4 JUMP JUMPDEST DUP1 ISZERO PUSH2 0x441 JUMPI DUP1 PUSH1 0x1F LT PUSH2 0x418 JUMPI PUSH2 0x100 DUP1 DUP4 SLOAD DIV MUL DUP4 MSTORE SWAP2 PUSH1 0x20 ADD SWAP2 PUSH2 0x441 JUMP JUMPDEST DUP3 ADD SWAP2 SWAP1 PUSH0 MSTORE PUSH1 0x20 PUSH0 KECCAK256 SWAP1 JUMPDEST DUP2 SLOAD DUP2 MSTORE SWAP1 PUSH1 0x1 ADD SWAP1 PUSH1 0x20 ADD DUP1 DUP4 GT PUSH2 0x424 JUMPI DUP3 SWAP1 SUB PUSH1 0x1F AND DUP3 ADD SWAP2 JUMPDEST POP POP POP POP POP SWAP1 DUP1 PUSH1 0x3 ADD PUSH0 SWAP1 SLOAD SWAP1 PUSH2 0x100 EXP SWAP1 DIV PUSH20 0xFFFFFFFFFFFFFFFFFFFFFFFFFFFFFFFFFFFFFFFF AND SWAP1 DUP1 PUSH1 0x4 ADD SLOAD SWAP1 DUP1 PUSH1 0x5 ADD SLOAD SWAP1 DUP1 PUSH1 0x6 ADD SLOAD SWAP1 DUP1 PUSH1 0x7 ADD SLOAD SWAP1 DUP1 PUSH1 0x8 ADD PUSH0 SWAP1 SLOAD SWAP1 PUSH2 0x100 EXP SWAP1 DIV PUSH1 0xFF AND SWAP1 POP DUP10 JUMP JUMPDEST PUSH1 0x2 PUSH0 SWAP1 SLOAD SWAP1 PUSH2 0x100 EXP SWAP1 DIV PUSH20 0xFFFFFFFFFFFFFFFFFFFFFFFFFFFFFFFFFFFFFFFF AND PUSH20 0xFFFFFFFFFFFFFFFFFFFFFFFFFFFFFFFFFFFFFFFF AND CALLER PUSH20 0xFFFFFFFFFFFFFFFFFFFFFFFFFFFFFFFFFFFFFFFF AND EQ PUSH2 0x529 JUMPI PUSH1 0x40 MLOAD PUSH32 0x8C379A000000000000000000000000000000000000000000000000000000000 DUP2 MSTORE PUSH1 0x4 ADD PUSH2 0x520 SWAP1 PUSH2 0x171E JUMP JUMPDEST PUSH1 0x40 MLOAD DUP1 SWAP2 SUB SWAP1 REVERT JUMPDEST DUP1 PUSH1 0x1 SLOAD DUP2 LT PUSH2 0x56E JUMPI PUSH1 0x40 MLOAD PUSH32 0x8C379A000000000000000000000000000000000000000000000000000000000 DUP2 MSTORE PUSH1 0x4 ADD PUSH2 0x565 SWAP1 PUSH2 0x1786 JUMP JUMPDEST PUSH1 0x40 MLOAD DUP1 SWAP2 SUB SWAP1 REVERT JUMPDEST PUSH0 PUSH0 DUP4 DUP2 MSTORE PUSH1 0x20 ADD SWAP1 DUP2 MSTORE PUSH1 0x20 ADD PUSH0 KECCAK256 PUSH1 0x8 ADD PUSH0 SWAP1 SLOAD SWAP1 PUSH2 0x100 EXP SWAP1 DIV PUSH1 0xFF AND PUSH2 0x5CD JUMPI PUSH1 0x40 MLOAD PUSH32 0x8C379A000000000000000000000000000000000000000000000000000000000 DUP2 MSTORE PUSH1 0x4 ADD PUSH2 0x5C4 SWAP1 PUSH2 0x17EE JUMP JUMPDEST PUSH1 0x40 MLOAD DUP1 SWAP2 SUB SWAP1 REVERT JUMPDEST PUSH0 PUSH0 PUSH0 DUP5 DUP2 MSTORE PUSH1 0x20 ADD SWAP1 DUP2 MSTORE PUSH1 0x20 ADD PUSH0 KECCAK256 PUSH1 0x8 ADD PUSH0 PUSH2 0x100 EXP DUP2 SLOAD DUP2 PUSH1 0xFF MUL NOT AND SWAP1 DUP4 ISZERO ISZERO MUL OR SWAP1 SSTORE POP DUP2 PUSH32 0x887777CCF43690541BED9E00B10D0FCCFA7520B11875F09847A57B3085D8AB92 PUSH1 0x40 MLOAD PUSH1 0x40 MLOAD DUP1 SWAP2 SUB SWAP1 LOG2 POP POP JUMP JUMPDEST PUSH0 PUSH0 DUP5 MLOAD GT PUSH2 0x66C JUMPI PUSH1 0x40 MLOAD PUSH32 0x8C379A000000000000000000000000000000000000000000000000000000000 DUP2 MSTORE PUSH1 0x4 ADD PUSH2 0x663 SWAP1 PUSH2 0x1856 JUMP JUMPDEST PUSH1 0x40 MLOAD DUP1 SWAP2 SUB SWAP1 REVERT JUMPDEST PUSH0 DUP4 MLOAD GT PUSH2 0x6AF JUMPI PUSH1 0x40 MLOAD PUSH32 0x8C379A000000000000000000000000000000000000000000000000000000000 DUP2 MSTORE PUSH1 0x4 ADD PUSH2 0x6A6 SWAP1 PUSH2 0x18BE JUMP JUMPDEST PUSH1 0x40 MLOAD DUP1 SWAP2 SUB SWAP1 REVERT JUMPDEST PUSH0 PUSH0 DUP4 GT PUSH2 0x6BF JUMPI PUSH1 0x3 SLOAD PUSH2 0x6CF JUMP JUMPDEST PUSH3 0x15180 DUP4 PUSH2 0x6CE SWAP2 SWAP1 PUSH2 0x1909 JUMP JUMPDEST JUMPDEST SWAP1 POP PUSH0 PUSH1 0x1 SLOAD SWAP1 POP PUSH0 PUSH0 PUSH0 DUP4 DUP2 MSTORE PUSH1 0x20 ADD SWAP1 DUP2 MSTORE PUSH1 0x20 ADD PUSH0 KECCAK256 SWAP1 POP DUP2 DUP2 PUSH0 ADD DUP2 SWAP1 SSTORE POP DUP7 DUP2 PUSH1 0x1 ADD SWAP1 DUP2 PUSH2 0x703 SWAP2 SWAP1 PUSH2 0x1AEA JUMP JUMPDEST POP DUP6 DUP2 PUSH1 0x2 ADD SWAP1 DUP2 PUSH2 0x715 SWAP2 SWAP1 PUSH2 0x1AEA JUMP JUMPDEST POP CALLER DUP2 PUSH1 0x3 ADD PUSH0 PUSH2 0x100 EXP DUP2 SLOAD DUP2 PUSH20 0xFFFFFFFFFFFFFFFFFFFFFFFFFFFFFFFFFFFFFFFF MUL NOT AND SWAP1 DUP4 PUSH20 0xFFFFFFFFFFFFFFFFFFFFFFFFFFFFFFFFFFFFFFFF AND MUL OR SWAP1 SSTORE POP PUSH0 DUP2 PUSH1 0x4 ADD DUP2 SWAP1 SSTORE POP PUSH0 DUP2 PUSH1 0x5 ADD DUP2 SWAP1 SSTORE POP TIMESTAMP DUP2 PUSH1 0x6 ADD DUP2 SWAP1 SSTORE POP DUP3 TIMESTAMP PUSH2 0x77F SWAP2 SWAP1 PUSH2 0x1BB9 JUMP JUMPDEST DUP2 PUSH1 0x7 ADD DUP2 SWAP1 SSTORE POP PUSH1 0x1 DUP2 PUSH1 0x8 ADD PUSH0 PUSH2 0x100 EXP DUP2 SLOAD DUP2 PUSH1 0xFF MUL NOT AND SWAP1 DUP4 ISZERO ISZERO MUL OR SWAP1 SSTORE POP PUSH1 0x1 PUSH0 DUP2 SLOAD DUP1 SWAP3 SWAP2 SWAP1 PUSH2 0x7B5 SWAP1 PUSH2 0x1BEC JUMP JUMPDEST SWAP2 SWAP1 POP SSTORE POP CALLER PUSH20 0xFFFFFFFFFFFFFFFFFFFFFFFFFFFFFFFFFFFFFFFF AND DUP3 PUSH32 0x9CC3D9DD626042CDEFB76484B91708C3207B637214B44F20111C893548D9C85F DUP10 DUP5 PUSH1 0x7 ADD SLOAD PUSH1 0x40 MLOAD PUSH2 0x807 SWAP3 SWAP2 SWAP1 PUSH2 0x1C33 JUMP JUMPDEST PUSH1 0x40 MLOAD DUP1 SWAP2 SUB SWAP1 LOG3 DUP2 SWAP4 POP POP POP POP SWAP4 SWAP3 POP POP POP JUMP JUMPDEST PUSH0 PUSH0 PUSH0 SWAP1 POP PUSH0 PUSH0 SWAP1 POP JUMPDEST PUSH1 0x1 SLOAD DUP2 LT ISZERO PUSH2 0x88F JUMPI PUSH0 PUSH0 DUP3 DUP2 MSTORE PUSH1 0x20 ADD SWAP1 DUP2 MSTORE PUSH1 0x20 ADD PUSH0 KECCAK256 PUSH1 0x8 ADD PUSH0 SWAP1 SLOAD SWAP1 PUSH2 0x100 EXP SWAP1 DIV PUSH1 0xFF AND DUP1 ISZERO PUSH2 0x86E JUMPI POP PUSH0 PUSH0 DUP3 DUP2 MSTORE PUSH1 0x20 ADD SWAP1 DUP2 MSTORE PUSH1 0x20 ADD PUSH0 KECCAK256 PUSH1 0x7 ADD SLOAD TIMESTAMP LT JUMPDEST ISZERO PUSH2 0x882 JUMPI DUP2 DUP1 PUSH2 0x87E SWAP1 PUSH2 0x1BEC JUMP JUMPDEST SWAP3 POP POP JUMPDEST DUP1 DUP1 PUSH1 0x1 ADD SWAP2 POP POP PUSH2 0x826 JUMP JUMPDEST POP DUP1 SWAP2 POP POP SWAP1 JUMP JUMPDEST PUSH1 0x2 PUSH0 SWAP1 SLOAD SWAP1 PUSH2 0x100 EXP SWAP1 DIV PUSH20 0xFFFFFFFFFFFFFFFFFFFFFFFFFFFFFFFFFFFFFFFF AND PUSH20 0xFFFFFFFFFFFFFFFFFFFFFFFFFFFFFFFFFFFFFFFF AND CALLER PUSH20 0xFFFFFFFFFFFFFFFFFFFFFFFFFFFFFFFFFFFFFFFF AND EQ PUSH2 0x926 JUMPI PUSH1 0x40 MLOAD PUSH32 0x8C379A000000000000000000000000000000000000000000000000000000000 DUP2 MSTORE PUSH1 0x4 ADD PUSH2 0x91D SWAP1 PUSH2 0x171E JUMP JUMPDEST PUSH1 0x40 MLOAD DUP1 SWAP2 SUB SWAP1 REVERT JUMPDEST PUSH0 DUP2 GT PUSH2 0x968 JUMPI PUSH1 0x40 MLOAD PUSH32 0x8C379A000000000000000000000000000000000000000000000000000000000 DUP2 MSTORE PUSH1 0x4 ADD PUSH2 0x95F SWAP1 PUSH2 0x1CAB JUMP JUMPDEST PUSH1 0x40 MLOAD DUP1 SWAP2 SUB SWAP1 REVERT JUMPDEST PUSH3 0x15180 DUP2 PUSH2 0x977 SWAP2 SWAP1 PUSH2 0x1909 JUMP JUMPDEST PUSH1 0x3 DUP2 SWAP1 SSTORE POP POP JUMP JUMPDEST PUSH1 0x60 DUP2 PUSH1 0x1 SLOAD DUP2 LT PUSH2 0x9C7 JUMPI PUSH1 0x40 MLOAD PUSH32 0x8C379A000000000000000000000000000000000000000000000000000000000 DUP2 MSTORE PUSH1 0x4 ADD PUSH2 0x9BE SWAP1 PUSH2 0x1786 JUMP JUMPDEST PUSH1 0x40 MLOAD DUP1 SWAP2 SUB SWAP1 REVERT JUMPDEST PUSH0 PUSH0 PUSH0 DUP6 DUP2 MSTORE PUSH1 0x20 ADD SWAP1 DUP2 MSTORE PUSH1 0x20 ADD PUSH0 KECCAK256 SWAP1 POP DUP1 PUSH1 0x8 ADD PUSH0 SWAP1 SLOAD SWAP1 PUSH2 0x100 EXP SWAP1 DIV PUSH1 0xFF AND DUP1 ISZERO PUSH2 0x9FA JUMPI POP DUP1 PUSH1 0x7 ADD SLOAD TIMESTAMP LT JUMPDEST ISZERO PUSH2 0xA3D JUMPI PUSH1 0x40 MLOAD DUP1 PUSH1 0x40 ADD PUSH1 0x40 MSTORE DUP1 PUSH1 0x6 DUP2 MSTORE PUSH1 0x20 ADD PUSH32 0x4163746976650000000000000000000000000000000000000000000000000000 DUP2 MSTORE POP SWAP3 POP POP PUSH2 0xB13 JUMP JUMPDEST DUP1 PUSH1 0x5 ADD SLOAD DUP2 PUSH1 0x4 ADD SLOAD GT ISZERO PUSH2 0xA8B JUMPI PUSH1 0x40 MLOAD DUP1 PUSH1 0x40 ADD PUSH1 0x40 MSTORE DUP1 PUSH1 0x6 DUP2 MSTORE PUSH1 0x20 ADD PUSH32 0x5061737365640000000000000000000000000000000000000000000000000000 DUP2 MSTORE POP SWAP3 POP POP PUSH2 0xB13 JUMP JUMPDEST DUP1 PUSH1 0x4 ADD SLOAD DUP2 PUSH1 0x5 ADD SLOAD GT ISZERO PUSH2 0xAD9 JUMPI PUSH1 0x40 MLOAD DUP1 PUSH1 0x40 ADD PUSH1 0x40 MSTORE DUP1 PUSH1 0x8 DUP2 MSTORE PUSH1 0x20 ADD PUSH32 0x52656A6563746564000000000000000000000000000000000000000000000000 DUP2 MSTORE POP SWAP3 POP POP PUSH2 0xB13 JUMP JUMPDEST PUSH1 0x40 MLOAD DUP1 PUSH1 0x40 ADD PUSH1 0x40 MSTORE DUP1 PUSH1 0x4 DUP2 MSTORE PUSH1 0x20 ADD PUSH32 0x5469656400000000000000000000000000000000000000000000000000000000 DUP2 MSTORE POP SWAP3 POP POP JUMPDEST POP SWAP2 SWAP1 POP JUMP JUMPDEST PUSH0 DUP3 PUSH1 0x1 SLOAD DUP2 LT PUSH2 0xB5F JUMPI PUSH1 0x40 MLOAD PUSH32 0x8C379A000000000000000000000000000000000000000000000000000000000 DUP2 MSTORE PUSH1 0x4 ADD PUSH2 0xB56 SWAP1 PUSH2 0x1786 JUMP JUMPDEST PUSH1 0x40 MLOAD DUP1 SWAP2 SUB SWAP1 REVERT JUMPDEST PUSH0 PUSH0 DUP6 DUP2 MSTORE PUSH1 0x20 ADD SWAP1 DUP2 MSTORE PUSH1 0x20 ADD PUSH0 KECCAK256 PUSH1 0x9 ADD PUSH0 DUP5 PUSH20 0xFFFFFFFFFFFFFFFFFFFFFFFFFFFFFFFFFFFFFFFF AND PUSH20 0xFFFFFFFFFFFFFFFFFFFFFFFFFFFFFFFFFFFFFFFF AND DUP2 MSTORE PUSH1 0x20 ADD SWAP1 DUP2 MSTORE PUSH1 0x20 ADD PUSH0 KECCAK256 PUSH0 SWAP1 SLOAD SWAP1 PUSH2 0x100 EXP SWAP1 DIV PUSH1 0xFF AND SWAP2 POP POP SWAP3 SWAP2 POP POP JUMP JUMPDEST PUSH0 PUSH0 PUSH0 DUP4 PUSH1 0x1 SLOAD DUP2 LT PUSH2 0xC0B JUMPI PUSH1 0x40 MLOAD PUSH32 0x8C379A000000000000000000000000000000000000000000000000000000000 DUP2 MSTORE PUSH1 0x4 ADD PUSH2 0xC02 SWAP1 PUSH2 0x1786 JUMP JUMPDEST PUSH1 0x40 MLOAD DUP1 SWAP2 SUB SWAP1 REVERT JUMPDEST PUSH0 PUSH0 PUSH0 DUP8 DUP2 MSTORE PUSH1 0x20 ADD SWAP1 DUP2 MSTORE PUSH1 0x20 ADD PUSH0 KECCAK256 SWAP1 POP DUP1 PUSH1 0x4 ADD SLOAD DUP2 PUSH1 0x5 ADD SLOAD DUP3 PUSH1 0x5 ADD SLOAD DUP4 PUSH1 0x4 ADD SLOAD PUSH2 0xC3C SWAP2 SWAP1 PUSH2 0x1BB9 JUMP JUMPDEST SWAP5 POP SWAP5 POP SWAP5 POP POP POP SWAP2 SWAP4 SWAP1 SWAP3 POP JUMP JUMPDEST PUSH0 DUP2 PUSH1 0x1 SLOAD DUP2 LT PUSH2 0xC91 JUMPI PUSH1 0x40 MLOAD PUSH32 0x8C379A000000000000000000000000000000000000000000000000000000000 DUP2 MSTORE PUSH1 0x4 ADD PUSH2 0xC88 SWAP1 PUSH2 0x1786 JUMP JUMPDEST PUSH1 0x40 MLOAD DUP1 SWAP2 SUB SWAP1 REVERT JUMPDEST PUSH0 PUSH0 PUSH0 DUP6 DUP2 MSTORE PUSH1 0x20 ADD SWAP1 DUP2 MSTORE PUSH1 0x20 ADD PUSH0 KECCAK256 SWAP1 POP DUP1 PUSH1 0x7 ADD SLOAD TIMESTAMP LT PUSH2 0xCB8 JUMPI PUSH0 SWAP3 POP POP PUSH2 0xCCC JUMP JUMPDEST TIMESTAMP DUP2 PUSH1 0x7 ADD SLOAD PUSH2 0xCC8 SWAP2 SWAP1 PUSH2 0x1CC9 JUMP JUMPDEST SWAP3 POP POP JUMPDEST POP SWAP2 SWAP1 POP JUMP JUMPDEST PUSH1 0x3 SLOAD DUP2 JUMP JUMPDEST PUSH0 PUSH1 0x60 DUP1 PUSH0 PUSH0 PUSH0 PUSH0 PUSH0 PUSH0 DUP10 PUSH1 0x1 SLOAD DUP2 LT PUSH2 0xD27 JUMPI PUSH1 0x40 MLOAD PUSH32 0x8C379A000000000000000000000000000000000000000000000000000000000 DUP2 MSTORE PUSH1 0x4 ADD PUSH2 0xD1E SWAP1 PUSH2 0x1786 JUMP JUMPDEST PUSH1 0x40 MLOAD DUP1 SWAP2 SUB SWAP1 REVERT JUMPDEST PUSH0 PUSH0 PUSH0 DUP14 DUP2 MSTORE PUSH1 0x20 ADD SWAP1 DUP2 MSTORE PUSH1 0x20 ADD PUSH0 KECCAK256 SWAP1 POP DUP1 PUSH0 ADD SLOAD DUP2 PUSH1 0x1 ADD DUP3 PUSH1 0x2 ADD DUP4 PUSH1 0x3 ADD PUSH0 SWAP1 SLOAD SWAP1 PUSH2 0x100 EXP SWAP1 DIV PUSH20 0xFFFFFFFFFFFFFFFFFFFFFFFFFFFFFFFFFFFFFFFF AND DUP5 PUSH1 0x4 ADD SLOAD DUP6 PUSH1 0x5 ADD SLOAD DUP7 PUSH1 0x6 ADD SLOAD DUP8 PUSH1 0x7 ADD SLOAD DUP9 PUSH1 0x8 ADD PUSH0 SWAP1 SLOAD SWAP1 PUSH2 0x100 EXP SWAP1 DIV PUSH1 0xFF AND DUP8 DUP1 SLOAD PUSH2 0xD9B SWAP1 PUSH2 0x16A4 JUMP JUMPDEST DUP1 PUSH1 0x1F ADD PUSH1 0x20 DUP1 SWAP2 DIV MUL PUSH1 0x20 ADD PUSH1 0x40 MLOAD SWAP1 DUP2 ADD PUSH1 0x40 MSTORE DUP1 SWAP3 SWAP2 SWAP1 DUP2 DUP2 MSTORE PUSH1 0x20 ADD DUP3 DUP1 SLOAD PUSH2 0xDC7 SWAP1 PUSH2 0x16A4 JUMP JUMPDEST DUP1 ISZERO PUSH2 0xE12 JUMPI DUP1 PUSH1 0x1F LT PUSH2 0xDE9 JUMPI PUSH2 0x100 DUP1 DUP4 SLOAD DIV MUL DUP4 MSTORE SWAP2 PUSH1 0x20 ADD SWAP2 PUSH2 0xE12 JUMP JUMPDEST DUP3 ADD SWAP2 SWAP1 PUSH0 MSTORE PUSH1 0x20 PUSH0 KECCAK256 SWAP1 JUMPDEST DUP2 SLOAD DUP2 MSTORE SWAP1 PUSH1 0x1 ADD SWAP1 PUSH1 0x20 ADD DUP1 DUP4 GT PUSH2 0xDF5 JUMPI DUP3 SWAP1 SUB PUSH1 0x1F AND DUP3 ADD SWAP2 JUMPDEST POP POP POP POP POP SWAP8 POP DUP7 DUP1 SLOAD PUSH2 0xE25 SWAP1 PUSH2 0x16A4 JUMP JUMPDEST DUP1 PUSH1 0x1F ADD PUSH1 0x20 DUP1 SWAP2 DIV MUL PUSH1 0x20 ADD PUSH1 0x40 MLOAD SWAP1 DUP2 ADD PUSH1 0x40 MSTORE DUP1 SWAP3 SWAP2 SWAP1 DUP2 DUP2 MSTORE PUSH1 0x20 ADD DUP3 DUP1 SLOAD PUSH2 0xE51 SWAP1 PUSH2 0x16A4 JUMP JUMPDEST DUP1 ISZERO PUSH2 0xE9C JUMPI DUP1 PUSH1 0x1F LT PUSH2 0xE73 JUMPI PUSH2 0x100 DUP1 DUP4 SLOAD DIV MUL DUP4 MSTORE SWAP2 PUSH1 0x20 ADD SWAP2 PUSH2 0xE9C JUMP JUMPDEST DUP3 ADD SWAP2 SWAP1 PUSH0 MSTORE PUSH1 0x20 PUSH0 KECCAK256 SWAP1 JUMPDEST DUP2 SLOAD DUP2 MSTORE SWAP1 PUSH1 0x1 ADD SWAP1 PUSH1 0x20 ADD DUP1 DUP4 GT PUSH2 0xE7F JUMPI DUP3 SWAP1 SUB PUSH1 0x1F AND DUP3 ADD SWAP2 JUMPDEST POP POP POP POP POP SWAP7 POP SWAP11 POP SWAP11 POP SWAP11 POP SWAP11 POP SWAP11 POP SWAP11 POP SWAP11 POP SWAP11 POP SWAP11 POP POP POP SWAP2 SWAP4 SWAP6 SWAP8 SWAP10 SWAP1 SWAP3 SWAP5 SWAP7 SWAP9 POP JUMP JUMPDEST DUP2 PUSH1 0x1 SLOAD DUP2 LT PUSH2 0xF09 JUMPI PUSH1 0x40 MLOAD PUSH32 0x8C379A000000000000000000000000000000000000000000000000000000000 DUP2 MSTORE PUSH1 0x4 ADD PUSH2 0xF00 SWAP1 PUSH2 0x1786 JUMP JUMPDEST PUSH1 0x40 MLOAD DUP1 SWAP2 SUB SWAP1 REVERT JUMPDEST DUP3 PUSH0 PUSH0 DUP3 DUP2 MSTORE PUSH1 0x20 ADD SWAP1 DUP2 MSTORE PUSH1 0x20 ADD PUSH0 KECCAK256 PUSH1 0x8 ADD PUSH0 SWAP1 SLOAD SWAP1 PUSH2 0x100 EXP SWAP1 DIV PUSH1 0xFF AND PUSH2 0xF69 JUMPI PUSH1 0x40 MLOAD PUSH32 0x8C379A000000000000000000000000000000000000000000000000000000000 DUP2 MSTORE PUSH1 0x4 ADD PUSH2 0xF60 SWAP1 PUSH2 0x1D46 JUMP JUMPDEST PUSH1 0x40 MLOAD DUP1 SWAP2 SUB SWAP1 REVERT JUMPDEST PUSH0 PUSH0 DUP3 DUP2 MSTORE PUSH1 0x20 ADD SWAP1 DUP2 MSTORE PUSH1 0x20 ADD PUSH0 KECCAK256 PUSH1 0x7 ADD SLOAD TIMESTAMP LT PUSH2 0xFBE JUMPI PUSH1 0x40 MLOAD PUSH32 0x8C379A000000000000000000000000000000000000000000000000000000000 DUP2 MSTORE PUSH1 0x4 ADD PUSH2 0xFB5 SWAP1 PUSH2 0x1DAE JUMP JUMPDEST PUSH1 0x40 MLOAD DUP1 SWAP2 SUB SWAP1 REVERT JUMPDEST PUSH0 PUSH0 PUSH0 DUP7 DUP2 MSTORE PUSH1 0x20 ADD SWAP1 DUP2 MSTORE PUSH1 0x20 ADD PUSH0 KECCAK256 SWAP1 POP DUP1 PUSH1 0x9 ADD PUSH0 CALLER PUSH20 0xFFFFFFFFFFFFFFFFFFFFFFFFFFFFFFFFFFFFFFFF AND PUSH20 0xFFFFFFFFFFFFFFFFFFFFFFFFFFFFFFFFFFFFFFFF AND DUP2 MSTORE PUSH1 0x20 ADD SWAP1 DUP2 MSTORE PUSH1 0x20 ADD PUSH0 KECCAK256 PUSH0 SWAP1 SLOAD SWAP1 PUSH2 0x100 EXP SWAP1 DIV PUSH1 0xFF AND ISZERO PUSH2 0x105D JUMPI PUSH1 0x40 MLOAD PUSH32 0x8C379A000000000000000000000000000000000000000000000000000000000 DUP2 MSTORE PUSH1 0x4 ADD PUSH2 0x1054 SWAP1 PUSH2 0x1E16 JUMP JUMPDEST PUSH1 0x40 MLOAD DUP1 SWAP2 SUB SWAP1 REVERT JUMPDEST PUSH1 0x1 DUP2 PUSH1 0x9 ADD PUSH0 CALLER PUSH20 0xFFFFFFFFFFFFFFFFFFFFFFFFFFFFFFFFFFFFFFFF AND PUSH20 0xFFFFFFFFFFFFFFFFFFFFFFFFFFFFFFFFFFFFFFFF AND DUP2 MSTORE PUSH1 0x20 ADD SWAP1 DUP2 MSTORE PUSH1 0x20 ADD PUSH0 KECCAK256 PUSH0 PUSH2 0x100 EXP DUP2 SLOAD DUP2 PUSH1 0xFF MUL NOT AND SWAP1 DUP4 ISZERO ISZERO MUL OR SWAP1 SSTORE POP DUP4 ISZERO PUSH2 0x10D8 JUMPI DUP1 PUSH1 0x4 ADD PUSH0 DUP2 SLOAD DUP1 SWAP3 SWAP2 SWAP1 PUSH2 0x10CE SWAP1 PUSH2 0x1BEC JUMP JUMPDEST SWAP2 SWAP1 POP SSTORE POP PUSH2 0x10F2 JUMP JUMPDEST DUP1 PUSH1 0x5 ADD PUSH0 DUP2 SLOAD DUP1 SWAP3 SWAP2 SWAP1 PUSH2 0x10EC SWAP1 PUSH2 0x1BEC JUMP JUMPDEST SWAP2 SWAP1 POP SSTORE POP JUMPDEST CALLER PUSH20 0xFFFFFFFFFFFFFFFFFFFFFFFFFFFFFFFFFFFFFFFF AND DUP6 PUSH32 0xE71FCDAC32DF1877C1700E7BDA2A03157E20993363A28FC35AC495CEFC76E4D4 DUP7 PUSH1 0x40 MLOAD PUSH2 0x1139 SWAP2 SWAP1 PUSH2 0x15A8 JUMP JUMPDEST PUSH1 0x40 MLOAD DUP1 SWAP2 SUB SWAP1 LOG3 POP POP POP POP POP JUMP JUMPDEST PUSH1 0x1 SLOAD DUP2 JUMP JUMPDEST PUSH1 0x2 PUSH0 SWAP1 SLOAD SWAP1 PUSH2 0x100 EXP SWAP1 DIV PUSH20 0xFFFFFFFFFFFFFFFFFFFFFFFFFFFFFFFFFFFFFFFF AND DUP2 JUMP JUMPDEST PUSH0 PUSH1 0x40 MLOAD SWAP1 POP SWAP1 JUMP JUMPDEST PUSH0 PUSH0 REVERT JUMPDEST PUSH0 PUSH0 REVERT JUMPDEST PUSH0 DUP2 SWAP1 POP SWAP2 SWAP1 POP JUMP JUMPDEST PUSH2 0x1196 DUP2 PUSH2 0x1184 JUMP JUMPDEST DUP2 EQ PUSH2 0x11A0 JUMPI PUSH0 PUSH0 REVERT JUMPDEST POP JUMP JUMPDEST PUSH0 DUP2 CALLDATALOAD SWAP1 POP PUSH2 0x11B1 DUP2 PUSH2 0x118D JUMP JUMPDEST SWAP3 SWAP2 POP POP JUMP JUMPDEST PUSH0 PUSH1 0x20 DUP3 DUP5 SUB SLT ISZERO PUSH2 0x11CC JUMPI PUSH2 0x11CB PUSH2 0x117C JUMP JUMPDEST JUMPDEST PUSH0 PUSH2 0x11D9 DUP5 DUP3 DUP6 ADD PUSH2 0x11A3 JUMP JUMPDEST SWAP2 POP POP SWAP3 SWAP2 POP POP JUMP JUMPDEST PUSH2 0x11EB DUP2 PUSH2 0x1184 JUMP JUMPDEST DUP3 MSTORE POP POP JUMP JUMPDEST PUSH0 DUP2 MLOAD SWAP1 POP SWAP2 SWAP1 POP JUMP JUMPDEST PUSH0 DUP3 DUP3 MSTORE PUSH1 0x20 DUP3 ADD SWAP1 POP SWAP3 SWAP2 POP POP JUMP JUMPDEST DUP3 DUP2 DUP4 MCOPY PUSH0 DUP4 DUP4 ADD MSTORE POP POP POP JUMP JUMPDEST PUSH0 PUSH1 0x1F NOT PUSH1 0x1F DUP4 ADD AND SWAP1 POP SWAP2 SWAP1 POP JUMP JUMPDEST PUSH0 PUSH2 0x1233 DUP3 PUSH2 0x11F1 JUMP JUMPDEST PUSH2 0x123D DUP2 DUP6 PUSH2 0x11FB JUMP JUMPDEST SWAP4 POP PUSH2 0x124D DUP2 DUP6 PUSH1 0x20 DUP7 ADD PUSH2 0x120B JUMP JUMPDEST PUSH2 0x1256 DUP2 PUSH2 0x1219 JUMP JUMPDEST DUP5 ADD SWAP2 POP POP SWAP3 SWAP2 POP POP JUMP JUMPDEST PUSH0 PUSH20 0xFFFFFFFFFFFFFFFFFFFFFFFFFFFFFFFFFFFFFFFF DUP3 AND SWAP1 POP SWAP2 SWAP1 POP JUMP JUMPDEST PUSH0 PUSH2 0x128A DUP3 PUSH2 0x1261 JUMP JUMPDEST SWAP1 POP SWAP2 SWAP1 POP JUMP JUMPDEST PUSH2 0x129A DUP2 PUSH2 0x1280 JUMP JUMPDEST DUP3 MSTORE POP POP JUMP JUMPDEST PUSH0 DUP2 ISZERO ISZERO SWAP1 POP SWAP2 SWAP1 POP JUMP JUMPDEST PUSH2 0x12B4 DUP2 PUSH2 0x12A0 JUMP JUMPDEST DUP3 MSTORE POP POP JUMP JUMPDEST PUSH0 PUSH2 0x120 DUP3 ADD SWAP1 POP PUSH2 0x12CE PUSH0 DUP4 ADD DUP13 PUSH2 0x11E2 JUMP JUMPDEST DUP2 DUP2 SUB PUSH1 0x20 DUP4 ADD MSTORE PUSH2 0x12E0 DUP2 DUP12 PUSH2 0x1229 JUMP JUMPDEST SWAP1 POP DUP2 DUP2 SUB PUSH1 0x40 DUP4 ADD MSTORE PUSH2 0x12F4 DUP2 DUP11 PUSH2 0x1229 JUMP JUMPDEST SWAP1 POP PUSH2 0x1303 PUSH1 0x60 DUP4 ADD DUP10 PUSH2 0x1291 JUMP JUMPDEST PUSH2 0x1310 PUSH1 0x80 DUP4 ADD DUP9 PUSH2 0x11E2 JUMP JUMPDEST PUSH2 0x131D PUSH1 0xA0 DUP4 ADD DUP8 PUSH2 0x11E2 JUMP JUMPDEST PUSH2 0x132A PUSH1 0xC0 DUP4 ADD DUP7 PUSH2 0x11E2 JUMP JUMPDEST PUSH2 0x1337 PUSH1 0xE0 DUP4 ADD DUP6 PUSH2 0x11E2 JUMP JUMPDEST PUSH2 0x1345 PUSH2 0x100 DUP4 ADD DUP5 PUSH2 0x12AB JUMP JUMPDEST SWAP11 SWAP10 POP POP POP POP POP POP POP POP POP POP JUMP JUMPDEST PUSH0 PUSH0 REVERT JUMPDEST PUSH0 PUSH0 REVERT JUMPDEST PUSH32 0x4E487B7100000000000000000000000000000000000000000000000000000000 PUSH0 MSTORE PUSH1 0x41 PUSH1 0x4 MSTORE PUSH1 0x24 PUSH0 REVERT JUMPDEST PUSH2 0x1391 DUP3 PUSH2 0x1219 JUMP JUMPDEST DUP2 ADD DUP2 DUP2 LT PUSH8 0xFFFFFFFFFFFFFFFF DUP3 GT OR ISZERO PUSH2 0x13B0 JUMPI PUSH2 0x13AF PUSH2 0x135B JUMP JUMPDEST JUMPDEST DUP1 PUSH1 0x40 MSTORE POP POP POP JUMP JUMPDEST PUSH0 PUSH2 0x13C2 PUSH2 0x1173 JUMP JUMPDEST SWAP1 POP PUSH2 0x13CE DUP3 DUP3 PUSH2 0x1388 JUMP JUMPDEST SWAP2 SWAP1 POP JUMP JUMPDEST PUSH0 PUSH8 0xFFFFFFFFFFFFFFFF DUP3 GT ISZERO PUSH2 0x13ED JUMPI PUSH2 0x13EC PUSH2 0x135B JUMP JUMPDEST JUMPDEST PUSH2 0x13F6 DUP3 PUSH2 0x1219 JUMP JUMPDEST SWAP1 POP PUSH1 0x20 DUP2 ADD SWAP1 POP SWAP2 SWAP1 POP JUMP JUMPDEST DUP3 DUP2 DUP4 CALLDATACOPY PUSH0 DUP4 DUP4 ADD MSTORE POP POP POP JUMP JUMPDEST PUSH0 PUSH2 0x1423 PUSH2 0x141E DUP5 PUSH2 0x13D3 JUMP JUMPDEST PUSH2 0x13B9 JUMP JUMPDEST SWAP1 POP DUP3 DUP2 MSTORE PUSH1 0x20 DUP2 ADD DUP5 DUP5 DUP5 ADD GT ISZERO PUSH2 0x143F JUMPI PUSH2 0x143E PUSH2 0x1357 JUMP JUMPDEST JUMPDEST PUSH2 0x144A DUP5 DUP3 DUP6 PUSH2 0x1403 JUMP JUMPDEST POP SWAP4 SWAP3 POP POP POP JUMP JUMPDEST PUSH0 DUP3 PUSH1 0x1F DUP4 ADD SLT PUSH2 0x1466 JUMPI PUSH2 0x1465 PUSH2 0x1353 JUMP JUMPDEST JUMPDEST DUP2 CALLDATALOAD PUSH2 0x1476 DUP5 DUP3 PUSH1 0x20 DUP7 ADD PUSH2 0x1411 JUMP JUMPDEST SWAP2 POP POP SWAP3 SWAP2 POP POP JUMP JUMPDEST PUSH0 PUSH0 PUSH0 PUSH1 0x60 DUP5 DUP7 SUB SLT ISZERO PUSH2 0x1496 JUMPI PUSH2 0x1495 PUSH2 0x117C JUMP JUMPDEST JUMPDEST PUSH0 DUP5 ADD CALLDATALOAD PUSH8 0xFFFFFFFFFFFFFFFF DUP2 GT ISZERO PUSH2 0x14B3 JUMPI PUSH2 0x14B2 PUSH2 0x1180 JUMP JUMPDEST JUMPDEST PUSH2 0x14BF DUP7 DUP3 DUP8 ADD PUSH2 0x1452 JUMP JUMPDEST SWAP4 POP POP PUSH1 0x20 DUP5 ADD CALLDATALOAD PUSH8 0xFFFFFFFFFFFFFFFF DUP2 GT ISZERO PUSH2 0x14E0 JUMPI PUSH2 0x14DF PUSH2 0x1180 JUMP JUMPDEST JUMPDEST PUSH2 0x14EC DUP7 DUP3 DUP8 ADD PUSH2 0x1452 JUMP JUMPDEST SWAP3 POP POP PUSH1 0x40 PUSH2 0x14FD DUP7 DUP3 DUP8 ADD PUSH2 0x11A3 JUMP JUMPDEST SWAP2 POP POP SWAP3 POP SWAP3 POP SWAP3 JUMP JUMPDEST PUSH0 PUSH1 0x20 DUP3 ADD SWAP1 POP PUSH2 0x151A PUSH0 DUP4 ADD DUP5 PUSH2 0x11E2 JUMP JUMPDEST SWAP3 SWAP2 POP POP JUMP JUMPDEST PUSH0 PUSH1 0x20 DUP3 ADD SWAP1 POP DUP2 DUP2 SUB PUSH0 DUP4 ADD MSTORE PUSH2 0x1538 DUP2 DUP5 PUSH2 0x1229 JUMP JUMPDEST SWAP1 POP SWAP3 SWAP2 POP POP JUMP JUMPDEST PUSH2 0x1549 DUP2 PUSH2 0x1280 JUMP JUMPDEST DUP2 EQ PUSH2 0x1553 JUMPI PUSH0 PUSH0 REVERT JUMPDEST POP JUMP JUMPDEST PUSH0 DUP2 CALLDATALOAD SWAP1 POP PUSH2 0x1564 DUP2 PUSH2 0x1540 JUMP JUMPDEST SWAP3 SWAP2 POP POP JUMP JUMPDEST PUSH0 PUSH0 PUSH1 0x40 DUP4 DUP6 SUB SLT ISZERO PUSH2 0x1580 JUMPI PUSH2 0x157F PUSH2 0x117C JUMP JUMPDEST JUMPDEST PUSH0 PUSH2 0x158D DUP6 DUP3 DUP7 ADD PUSH2 0x11A3 JUMP JUMPDEST SWAP3 POP POP PUSH1 0x20 PUSH2 0x159E DUP6 DUP3 DUP7 ADD PUSH2 0x1556 JUMP JUMPDEST SWAP2 POP POP SWAP3 POP SWAP3 SWAP1 POP JUMP JUMPDEST PUSH0 PUSH1 0x20 DUP3 ADD SWAP1 POP PUSH2 0x15BB PUSH0 DUP4 ADD DUP5 PUSH2 0x12AB JUMP JUMPDEST SWAP3 SWAP2 POP POP JUMP JUMPDEST PUSH0 PUSH1 0x60 DUP3 ADD SWAP1 POP PUSH2 0x15D4 PUSH0 DUP4 ADD DUP7 PUSH2 0x11E2 JUMP JUMPDEST PUSH2 0x15E1 PUSH1 0x20 DUP4 ADD DUP6 PUSH2 0x11E2 JUMP JUMPDEST PUSH2 0x15EE PUSH1 0x40 DUP4 ADD DUP5 PUSH2 0x11E2 JUMP JUMPDEST SWAP5 SWAP4 POP POP POP POP JUMP JUMPDEST PUSH2 0x15FF DUP2 PUSH2 0x12A0 JUMP JUMPDEST DUP2 EQ PUSH2 0x1609 JUMPI PUSH0 PUSH0 REVERT JUMPDEST POP JUMP JUMPDEST PUSH0 DUP2 CALLDATALOAD SWAP1 POP PUSH2 0x161A DUP2 PUSH2 0x15F6 JUMP JUMPDEST SWAP3 SWAP2 POP POP JUMP JUMPDEST PUSH0 PUSH0 PUSH1 0x40 DUP4 DUP6 SUB SLT ISZERO PUSH2 0x1636 JUMPI PUSH2 0x1635 PUSH2 0x117C JUMP JUMPDEST JUMPDEST PUSH0 PUSH2 0x1643 DUP6 DUP3 DUP7 ADD PUSH2 0x11A3 JUMP JUMPDEST SWAP3 POP POP PUSH1 0x20 PUSH2 0x1654 DUP6 DUP3 DUP7 ADD PUSH2 0x160C JUMP JUMPDEST SWAP2 POP POP SWAP3 POP SWAP3 SWAP1 POP JUMP JUMPDEST PUSH0 PUSH1 0x20 DUP3 ADD SWAP1 POP PUSH2 0x1671 PUSH0 DUP4 ADD DUP5 PUSH2 0x1291 JUMP JUMPDEST SWAP3 SWAP2 POP POP JUMP JUMPDEST PUSH32 0x4E487B7100000000000000000000000000000000000000000000000000000000 PUSH0 MSTORE PUSH1 0x22 PUSH1 0x4 MSTORE PUSH1 0x24 PUSH0 REVERT JUMPDEST PUSH0 PUSH1 0x2 DUP3 DIV SWAP1 POP PUSH1 0x1 DUP3 AND DUP1 PUSH2 0x16BB JUMPI PUSH1 0x7F DUP3 AND SWAP2 POP JUMPDEST PUSH1 0x20 DUP3 LT DUP2 SUB PUSH2 0x16CE JUMPI PUSH2 0x16CD PUSH2 0x1677 JUMP JUMPDEST JUMPDEST POP SWAP2 SWAP1 POP JUMP JUMPDEST PUSH32 0x4F6E6C792061646D696E2063616E20706572666F726D20746869730000000000 PUSH0 DUP3 ADD MSTORE POP JUMP JUMPDEST PUSH0 PUSH2 0x1708 PUSH1 0x1B DUP4 PUSH2 0x11FB JUMP JUMPDEST SWAP2 POP PUSH2 0x1713 DUP3 PUSH2 0x16D4 JUMP JUMPDEST PUSH1 0x20 DUP3 ADD SWAP1 POP SWAP2 SWAP1 POP JUMP JUMPDEST PUSH0 PUSH1 0x20 DUP3 ADD SWAP1 POP DUP2 DUP2 SUB PUSH0 DUP4 ADD MSTORE PUSH2 0x1735 DUP2 PUSH2 0x16FC JUMP JUMPDEST SWAP1 POP SWAP2 SWAP1 POP JUMP JUMPDEST PUSH32 0x50726F706F73616C20646F6573206E6F74206578697374000000000000000000 PUSH0 DUP3 ADD MSTORE POP JUMP JUMPDEST PUSH0 PUSH2 0x1770 PUSH1 0x17 DUP4 PUSH2 0x11FB JUMP JUMPDEST SWAP2 POP PUSH2 0x177B DUP3 PUSH2 0x173C JUMP JUMPDEST PUSH1 0x20 DUP3 ADD SWAP1 POP SWAP2 SWAP1 POP JUMP JUMPDEST PUSH0 PUSH1 0x20 DUP3 ADD SWAP1 POP DUP2 DUP2 SUB PUSH0 DUP4 ADD MSTORE PUSH2 0x179D DUP2 PUSH2 0x1764 JUMP JUMPDEST SWAP1 POP SWAP2 SWAP1 POP JUMP JUMPDEST PUSH32 0x50726F706F73616C20616C726561647920636C6F736564000000000000000000 PUSH0 DUP3 ADD MSTORE POP JUMP JUMPDEST PUSH0 PUSH2 0x17D8 PUSH1 0x17 DUP4 PUSH2 0x11FB JUMP JUMPDEST SWAP2 POP PUSH2 0x17E3 DUP3 PUSH2 0x17A4 JUMP JUMPDEST PUSH1 0x20 DUP3 ADD SWAP1 POP SWAP2 SWAP1 POP JUMP JUMPDEST PUSH0 PUSH1 0x20 DUP3 ADD SWAP1 POP DUP2 DUP2 SUB PUSH0 DUP4 ADD MSTORE PUSH2 0x1805 DUP2 PUSH2 0x17CC JUMP JUMPDEST SWAP1 POP SWAP2 SWAP1 POP JUMP JUMPDEST PUSH32 0x5469746C652063616E6E6F7420626520656D7074790000000000000000000000 PUSH0 DUP3 ADD MSTORE POP JUMP JUMPDEST PUSH0 PUSH2 0x1840 PUSH1 0x15 DUP4 PUSH2 0x11FB JUMP JUMPDEST SWAP2 POP PUSH2 0x184B DUP3 PUSH2 0x180C JUMP JUMPDEST PUSH1 0x20 DUP3 ADD SWAP1 POP SWAP2 SWAP1 POP JUMP JUMPDEST PUSH0 PUSH1 0x20 DUP3 ADD SWAP1 POP DUP2 DUP2 SUB PUSH0 DUP4 ADD MSTORE PUSH2 0x186D DUP2 PUSH2 0x1834 JUMP JUMPDEST SWAP1 POP SWAP2 SWAP1 POP JUMP JUMPDEST PUSH32 0x4465736372697074696F6E2063616E6E6F7420626520656D7074790000000000 PUSH0 DUP3 ADD MSTORE POP JUMP JUMPDEST PUSH0 PUSH2 0x18A8 PUSH1 0x1B DUP4 PUSH2 0x11FB JUMP JUMPDEST SWAP2 POP PUSH2 0x18B3 DUP3 PUSH2 0x1874 JUMP JUMPDEST PUSH1 0x20 DUP3 ADD SWAP1 POP SWAP2 SWAP1 POP JUMP JUMPDEST PUSH0 PUSH1 0x20 DUP3 ADD SWAP1 POP DUP2 DUP2 SUB PUSH0 DUP4 ADD MSTORE PUSH2 0x18D5 DUP2 PUSH2 0x189C JUMP JUMPDEST SWAP1 POP SWAP2 SWAP1 POP JUMP JUMPDEST PUSH32 0x4E487B7100000000000000000000000000000000000000000000000000000000 PUSH0 MSTORE PUSH1 0x11 PUSH1 0x4 MSTORE PUSH1 0x24 PUSH0 REVERT JUMPDEST PUSH0 PUSH2 0x1913 DUP3 PUSH2 0x1184 JUMP JUMPDEST SWAP2 POP PUSH2 0x191E DUP4 PUSH2 0x1184 JUMP JUMPDEST SWAP3 POP DUP3 DUP3 MUL PUSH2 0x192C DUP2 PUSH2 0x1184 JUMP JUMPDEST SWAP2 POP DUP3 DUP3 DIV DUP5 EQ DUP4 ISZERO OR PUSH2 0x1943 JUMPI PUSH2 0x1942 PUSH2 0x18DC JUMP JUMPDEST JUMPDEST POP SWAP3 SWAP2 POP POP JUMP JUMPDEST PUSH0 DUP2 SWAP1 POP DUP2 PUSH0 MSTORE PUSH1 0x20 PUSH0 KECCAK256 SWAP1 POP SWAP2 SWAP1 POP JUMP JUMPDEST PUSH0 PUSH1 0x20 PUSH1 0x1F DUP4 ADD DIV SWAP1 POP SWAP2 SWAP1 POP JUMP JUMPDEST PUSH0 DUP3 DUP3 SHL SWAP1 POP SWAP3 SWAP2 POP POP JUMP JUMPDEST PUSH0 PUSH1 0x8 DUP4 MUL PUSH2 0x19A6 PUSH32 0xFFFFFFFFFFFFFFFFFFFFFFFFFFFFFFFFFFFFFFFFFFFFFFFFFFFFFFFFFFFFFFFF DUP3 PUSH2 0x196B JUMP JUMPDEST PUSH2 0x19B0 DUP7 DUP4 PUSH2 0x196B JUMP JUMPDEST SWAP6 POP DUP1 NOT DUP5 AND SWAP4 POP DUP1 DUP7 AND DUP5 OR SWAP3 POP POP POP SWAP4 SWAP3 POP POP POP JUMP JUMPDEST PUSH0 DUP2 SWAP1 POP SWAP2 SWAP1 POP JUMP JUMPDEST PUSH0 PUSH2 0x19EB PUSH2 0x19E6 PUSH2 0x19E1 DUP5 PUSH2 0x1184 JUMP JUMPDEST PUSH2 0x19C8 JUMP JUMPDEST PUSH2 0x1184 JUMP JUMPDEST SWAP1 POP SWAP2 SWAP1 POP JUMP JUMPDEST PUSH0 DUP2 SWAP1 POP SWAP2 SWAP1 POP JUMP JUMPDEST PUSH2 0x1A04 DUP4 PUSH2 0x19D1 JUMP JUMPDEST PUSH2 0x1A18 PUSH2 0x1A10 DUP3 PUSH2 0x19F2 JUMP JUMPDEST DUP5 DUP5 SLOAD PUSH2 0x1977 JUMP JUMPDEST DUP3 SSTORE POP POP POP POP JUMP JUMPDEST PUSH0 PUSH0 SWAP1 POP SWAP1 JUMP JUMPDEST PUSH2 0x1A2F PUSH2 0x1A20 JUMP JUMPDEST PUSH2 0x1A3A DUP2 DUP5 DUP5 PUSH2 0x19FB JUMP JUMPDEST POP POP POP JUMP JUMPDEST JUMPDEST DUP2 DUP2 LT ISZERO PUSH2 0x1A5D JUMPI PUSH2 0x1A52 PUSH0 DUP3 PUSH2 0x1A27 JUMP JUMPDEST PUSH1 0x1 DUP2 ADD SWAP1 POP PUSH2 0x1A40 JUMP JUMPDEST POP POP JUMP JUMPDEST PUSH1 0x1F DUP3 GT ISZERO PUSH2 0x1AA2 JUMPI PUSH2 0x1A73 DUP2 PUSH2 0x194A JUMP JUMPDEST PUSH2 0x1A7C DUP5 PUSH2 0x195C JUMP JUMPDEST DUP2 ADD PUSH1 0x20 DUP6 LT ISZERO PUSH2 0x1A8B JUMPI DUP2 SWAP1 POP JUMPDEST PUSH2 0x1A9F PUSH2 0x1A97 DUP6 PUSH2 0x195C JUMP JUMPDEST DUP4 ADD DUP3 PUSH2 0x1A3F JUMP JUMPDEST POP POP JUMPDEST POP POP POP JUMP JUMPDEST PUSH0 DUP3 DUP3 SHR SWAP1 POP SWAP3 SWAP2 POP POP JUMP JUMPDEST PUSH0 PUSH2 0x1AC2 PUSH0 NOT DUP5 PUSH1 0x8 MUL PUSH2 0x1AA7 JUMP JUMPDEST NOT DUP1 DUP4 AND SWAP2 POP POP SWAP3 SWAP2 POP POP JUMP JUMPDEST PUSH0 PUSH2 0x1ADA DUP4 DUP4 PUSH2 0x1AB3 JUMP JUMPDEST SWAP2 POP DUP3 PUSH1 0x2 MUL DUP3 OR SWAP1 POP SWAP3 SWAP2 POP POP JUMP JUMPDEST PUSH2 0x1AF3 DUP3 PUSH2 0x11F1 JUMP JUMPDEST PUSH8 0xFFFFFFFFFFFFFFFF DUP2 GT ISZERO PUSH2 0x1B0C JUMPI PUSH2 0x1B0B PUSH2 0x135B JUMP JUMPDEST JUMPDEST PUSH2 0x1B16 DUP3 SLOAD PUSH2 0x16A4 JUMP JUMPDEST PUSH2 0x1B21 DUP3 DUP3 DUP6 PUSH2 0x1A61 JUMP JUMPDEST PUSH0 PUSH1 0x20 SWAP1 POP PUSH1 0x1F DUP4 GT PUSH1 0x1 DUP2 EQ PUSH2 0x1B52 JUMPI PUSH0 DUP5 ISZERO PUSH2 0x1B40 JUMPI DUP3 DUP8 ADD MLOAD SWAP1 POP JUMPDEST PUSH2 0x1B4A DUP6 DUP3 PUSH2 0x1ACF JUMP JUMPDEST DUP7 SSTORE POP PUSH2 0x1BB1 JUMP JUMPDEST PUSH1 0x1F NOT DUP5 AND PUSH2 0x1B60 DUP7 PUSH2 0x194A JUMP JUMPDEST PUSH0 JUMPDEST DUP3 DUP2 LT ISZERO PUSH2 0x1B87 JUMPI DUP5 DUP10 ADD MLOAD DUP3 SSTORE PUSH1 0x1 DUP3 ADD SWAP2 POP PUSH1 0x20 DUP6 ADD SWAP5 POP PUSH1 0x20 DUP2 ADD SWAP1 POP PUSH2 0x1B62 JUMP JUMPDEST DUP7 DUP4 LT ISZERO PUSH2 0x1BA4 JUMPI DUP5 DUP10 ADD MLOAD PUSH2 0x1BA0 PUSH1 0x1F DUP10 AND DUP3 PUSH2 0x1AB3 JUMP JUMPDEST DUP4 SSTORE POP JUMPDEST PUSH1 0x1 PUSH1 0x2 DUP9 MUL ADD DUP9 SSTORE POP POP POP JUMPDEST POP POP POP POP POP POP JUMP JUMPDEST PUSH0 PUSH2 0x1BC3 DUP3 PUSH2 0x1184 JUMP JUMPDEST SWAP2 POP PUSH2 0x1BCE DUP4 PUSH2 0x1184 JUMP JUMPDEST SWAP3 POP DUP3 DUP3 ADD SWAP1 POP DUP1 DUP3 GT ISZERO PUSH2 0x1BE6 JUMPI PUSH2 0x1BE5 PUSH2 0x18DC JUMP JUMPDEST JUMPDEST SWAP3 SWAP2 POP POP JUMP JUMPDEST PUSH0 PUSH2 0x1BF6 DUP3 PUSH2 0x1184 JUMP JUMPDEST SWAP2 POP PUSH32 0xFFFFFFFFFFFFFFFFFFFFFFFFFFFFFFFFFFFFFFFFFFFFFFFFFFFFFFFFFFFFFFFF DUP3 SUB PUSH2 0x1C28 JUMPI PUSH2 0x1C27 PUSH2 0x18DC JUMP JUMPDEST JUMPDEST PUSH1 0x1 DUP3 ADD SWAP1 POP SWAP2 SWAP1 POP JUMP JUMPDEST PUSH0 PUSH1 0x40 DUP3 ADD SWAP1 POP DUP2 DUP2 SUB PUSH0 DUP4 ADD MSTORE PUSH2 0x1C4B DUP2 DUP6 PUSH2 0x1229 JUMP JUMPDEST SWAP1 POP PUSH2 0x1C5A PUSH1 0x20 DUP4 ADD DUP5 PUSH2 0x11E2 JUMP JUMPDEST SWAP4 SWAP3 POP POP POP JUMP JUMPDEST PUSH32 0x506572696F64206D7573742062652067726561746572207468616E2030000000 PUSH0 DUP3 ADD MSTORE POP JUMP JUMPDEST PUSH0 PUSH2 0x1C95 PUSH1 0x1D DUP4 PUSH2 0x11FB JUMP JUMPDEST SWAP2 POP PUSH2 0x1CA0 DUP3 PUSH2 0x1C61 JUMP JUMPDEST PUSH1 0x20 DUP3 ADD SWAP1 POP SWAP2 SWAP1 POP JUMP JUMPDEST PUSH0 PUSH1 0x20 DUP3 ADD SWAP1 POP DUP2 DUP2 SUB PUSH0 DUP4 ADD MSTORE PUSH2 0x1CC2 DUP2 PUSH2 0x1C89 JUMP JUMPDEST SWAP1 POP SWAP2 SWAP1 POP JUMP JUMPDEST PUSH0 PUSH2 0x1CD3 DUP3 PUSH2 0x1184 JUMP JUMPDEST SWAP2 POP PUSH2 0x1CDE DUP4 PUSH2 0x1184 JUMP JUMPDEST SWAP3 POP DUP3 DUP3 SUB SWAP1 POP DUP2 DUP2 GT ISZERO PUSH2 0x1CF6 JUMPI PUSH2 0x1CF5 PUSH2 0x18DC JUMP JUMPDEST JUMPDEST SWAP3 SWAP2 POP POP JUMP JUMPDEST PUSH32 0x566F74696E6720697320636C6F73656400000000000000000000000000000000 PUSH0 DUP3 ADD MSTORE POP JUMP JUMPDEST PUSH0 PUSH2 0x1D30 PUSH1 0x10 DUP4 PUSH2 0x11FB JUMP JUMPDEST SWAP2 POP PUSH2 0x1D3B DUP3 PUSH2 0x1CFC JUMP JUMPDEST PUSH1 0x20 DUP3 ADD SWAP1 POP SWAP2 SWAP1 POP JUMP JUMPDEST PUSH0 PUSH1 0x20 DUP3 ADD SWAP1 POP DUP2 DUP2 SUB PUSH0 DUP4 ADD MSTORE PUSH2 0x1D5D DUP2 PUSH2 0x1D24 JUMP JUMPDEST SWAP1 POP SWAP2 SWAP1 POP JUMP JUMPDEST PUSH32 0x566F74696E6720706572696F6420656E64656400000000000000000000000000 PUSH0 DUP3 ADD MSTORE POP JUMP JUMPDEST PUSH0 PUSH2 0x1D98 PUSH1 0x13 DUP4 PUSH2 0x11FB JUMP JUMPDEST SWAP2 POP PUSH2 0x1DA3 DUP3 PUSH2 0x1D64 JUMP JUMPDEST PUSH1 0x20 DUP3 ADD SWAP1 POP SWAP2 SWAP1 POP JUMP JUMPDEST PUSH0 PUSH1 0x20 DUP3 ADD SWAP1 POP DUP2 DUP2 SUB PUSH0 DUP4 ADD MSTORE PUSH2 0x1DC5 DUP2 PUSH2 0x1D8C JUMP JUMPDEST SWAP1 POP SWAP2 SWAP1 POP JUMP JUMPDEST PUSH32 0x416C726561647920766F74656400000000000000000000000000000000000000 PUSH0 DUP3 ADD MSTORE POP JUMP JUMPDEST PUSH0 PUSH2 0x1E00 PUSH1 0xD DUP4 PUSH2 0x11FB JUMP JUMPDEST SWAP2 POP PUSH2 0x1E0B DUP3 PUSH2 0x1DCC JUMP JUMPDEST PUSH1 0x20 DUP3 ADD SWAP1 POP SWAP2 SWAP1 POP JUMP JUMPDEST PUSH0 PUSH1 0x20 DUP3 ADD SWAP1 POP DUP2 DUP2 SUB PUSH0 DUP4 ADD MSTORE PUSH2 0x1E2D DUP2 PUSH2 0x1DF4 JUMP JUMPDEST SWAP1 POP SWAP2 SWAP1 POP JUMP INVALID LOG2 PUSH5 0x6970667358 0x22 SLT KECCAK256 PUSH28 0x8A0086291D4CEFEB1023A474AC00DA7DB226FCD1F9C32268809436A8 0x21 REVERT 0xE8 PUSH5 0x736F6C6343 STOP ADDMOD 0x1F STOP CALLER "
				},
				"gasEstimates": {
					"creation": {
						"codeDepositCost": "1557200",
						"executionCost": "48000",
						"totalCost": "1605200"
					},
					"external": {
						"admin()": "2596",
						"closeProposal(uint256)": "32478",
						"createProposal(string,string,uint256)": "infinite",
						"defaultVotingPeriod()": "2492",
						"getActiveProposalsCount()": "infinite",
						"getProposal(uint256)": "infinite",
						"getProposalStatus(uint256)": "infinite",
						"getResults(uint256)": "infinite",
						"getTimeRemaining(uint256)": "infinite",
						"hasVoted(uint256,address)": "5338",
						"proposalCount()": "2491",
						"proposals(uint256)": "infinite",
						"setDefaultVotingPeriod(uint256)": "infinite",
						"vote(uint256,bool)": "infinite"
					}
				},
				"methodIdentifiers": {
					"admin()": "f851a440",
					"closeProposal(uint256)": "0386a016",
					"createProposal(string,string,uint256)": "0ce0ebf4",
					"defaultVotingPeriod()": "a83bf50a",
					"getActiveProposalsCount()": "19f3dad1",
					"getProposal(uint256)": "c7f758a8",
					"getProposalStatus(uint256)": "401853b7",
					"getResults(uint256)": "81a60c0d",
					"getTimeRemaining(uint256)": "8cd42991",
					"hasVoted(uint256,address)": "43859632",
					"proposalCount()": "da35c664",
					"proposals(uint256)": "013cf08b",
					"setDefaultVotingPeriod(uint256)": "3eb9b79b",
					"vote(uint256,bool)": "c9d27afe"
				}
			},
			"storageLayout": {
				"storage": [
					{
						"astId": 30,
						"contract": "blank.sol:SimpleVoting",
						"label": "proposals",
						"offset": 0,
						"slot": "0",
						"type": "t_mapping(t_uint256,t_struct(Proposal)25_storage)"
					},
					{
						"astId": 32,
						"contract": "blank.sol:SimpleVoting",
						"label": "proposalCount",
						"offset": 0,
						"slot": "1",
						"type": "t_uint256"
					},
					{
						"astId": 34,
						"contract": "blank.sol:SimpleVoting",
						"label": "admin",
						"offset": 0,
						"slot": "2",
						"type": "t_address"
					},
					{
						"astId": 37,
						"contract": "blank.sol:SimpleVoting",
						"label": "defaultVotingPeriod",
						"offset": 0,
						"slot": "3",
						"type": "t_uint256"
					}
				],
				"types": {
					"t_address": {
						"encoding": "inplace",
						"label": "address",
						"numberOfBytes": "20"
					},
					"t_bool": {
						"encoding": "inplace",
						"label": "bool",
						"numberOfBytes": "1"
					},
					"t_mapping(t_address,t_bool)": {
						"encoding": "mapping",
						"key": "t_address",
						"label": "mapping(address => bool)",
						"numberOfBytes": "32",
						"value": "t_bool"
					},
					"t_mapping(t_uint256,t_struct(Proposal)25_storage)": {
						"encoding": "mapping",
						"key": "t_uint256",
						"label": "mapping(uint256 => struct SimpleVoting.Proposal)",
						"numberOfBytes": "32",
						"value": "t_struct(Proposal)25_storage"
					},
					"t_string_storage": {
						"encoding": "bytes",
						"label": "string",
						"numberOfBytes": "32"
					},
					"t_struct(Proposal)25_storage": {
						"encoding": "inplace",
						"label": "struct SimpleVoting.Proposal",
						"members": [
							{
								"astId": 4,
								"contract": "blank.sol:SimpleVoting",
								"label": "id",
								"offset": 0,
								"slot": "0",
								"type": "t_uint256"
							},
							{
								"astId": 6,
								"contract": "blank.sol:SimpleVoting",
								"label": "title",
								"offset": 0,
								"slot": "1",
								"type": "t_string_storage"
							},
							{
								"astId": 8,
								"contract": "blank.sol:SimpleVoting",
								"label": "description",
								"offset": 0,
								"slot": "2",
								"type": "t_string_storage"
							},
							{
								"astId": 10,
								"contract": "blank.sol:SimpleVoting",
								"label": "proposer",
								"offset": 0,
								"slot": "3",
								"type": "t_address"
							},
							{
								"astId": 12,
								"contract": "blank.sol:SimpleVoting",
								"label": "yesVotes",
								"offset": 0,
								"slot": "4",
								"type": "t_uint256"
							},
							{
								"astId": 14,
								"contract": "blank.sol:SimpleVoting",
								"label": "noVotes",
								"offset": 0,
								"slot": "5",
								"type": "t_uint256"
							},
							{
								"astId": 16,
								"contract": "blank.sol:SimpleVoting",
								"label": "createdAt",
								"offset": 0,
								"slot": "6",
								"type": "t_uint256"
							},
							{
								"astId": 18,
								"contract": "blank.sol:SimpleVoting",
								"label": "votingDeadline",
								"offset": 0,
								"slot": "7",
								"type": "t_uint256"
							},
							{
								"astId": 20,
								"contract": "blank.sol:SimpleVoting",
								"label": "isActive",
								"offset": 0,
								"slot": "8",
								"type": "t_bool"
							},
							{
								"astId": 24,
								"contract": "blank.sol:SimpleVoting",
								"label": "hasVoted",
								"offset": 0,
								"slot": "9",
								"type": "t_mapping(t_address,t_bool)"
							}
						],
						"numberOfBytes": "320"
					},
					"t_uint256": {
						"encoding": "inplace",
						"label": "uint256",
						"numberOfBytes": "32"
					}
				}
			},
			"userdoc": {
				"kind": "user",
				"methods": {},
				"notice": "Create proposals, vote, and view results transparently on blockchain",
				"version": 1
			}
		}
	}
}