{
	"data": {
		"bytecode": {
			"linkReferences": {},
			"object": "6080604052348015600e575f5ffd5b505f5f8190555061069b806100225f395ff3fe608060405234801561000f575f5ffd5b5060043610610086575f3560e01c8063a87d942c11610059578063a87d942c146100ea578063d09de08a14610108578063d14e62b814610112578063d826f88f1461012e57610086565b806303df179c1461008a57806306661abd146100a65780632baeceb7146100c45780633721b1d8146100ce575b5f5ffd5b6100a4600480360381019061009f91906103d4565b610138565b005b6100ae61018c565b6040516100bb919061040e565b60405180910390f35b6100cc610191565b005b6100e860048036038101906100e391906103d4565b610228565b005b6100f26102c0565b6040516100ff919061040e565b60405180910390f35b6101106102c8565b005b61012c600480360381019061012791906103d4565b61031c565b005b61013661035e565b005b805f5f8282546101489190610454565b925050819055507f6312957b833157dbcce860c9538737febb9491fde39563488a9c296f930376ed5f54336040516101819291906104c6565b60405180910390a150565b5f5481565b5f5f54116101d4576040517f08c379a00000000000000000000000000000000000000000000000000000000081526004016101cb9061056d565b60405180910390fd5b60015f5f8282546101e5919061058b565b925050819055507f997a19f6ef1f7d292cfd00d9bbec5b42ac91006844edc66c6bcf72e0412512ec5f543360405161021e9291906104c6565b60405180910390a1565b805f54101561026c576040517f08c379a00000000000000000000000000000000000000000000000000000000081526004016102639061062e565b60405180910390fd5b805f5f82825461027c919061058b565b925050819055507f997a19f6ef1f7d292cfd00d9bbec5b42ac91006844edc66c6bcf72e0412512ec5f54336040516102b59291906104c6565b60405180910390a150565b5f5f54905090565b60015f5f8282546102d99190610454565b925050819055507f6312957b833157dbcce860c9538737febb9491fde39563488a9c296f930376ed5f54336040516103129291906104c6565b60405180910390a1565b805f819055507f169da4a124d36158c9688a9525d94fc0ce2604f9d7f25ae76f84e573f7675e8581336040516103539291906104c6565b60405180910390a150565b5f5f819055507f162f46783fcc741c289a7af5bd16474ace09d7e8a9d5fe1ac0d37b12afc0ccac33604051610393919061064c565b60405180910390a1565b5f5ffd5b5f819050919050565b6103b3816103a1565b81146103bd575f5ffd5b50565b5f813590506103ce816103aa565b92915050565b5f602082840312156103e9576103e861039d565b5b5f6103f6848285016103c0565b91505092915050565b610408816103a1565b82525050565b5f6020820190506104215f8301846103ff565b92915050565b7f4e487b71000000000000000000000000000000000000000000000000000000005f52601160045260245ffd5b5f61045e826103a1565b9150610469836103a1565b925082820190508082111561048157610480610427565b5b92915050565b5f73ffffffffffffffffffffffffffffffffffffffff82169050919050565b5f6104b082610487565b9050919050565b6104c0816104a6565b82525050565b5f6040820190506104d95f8301856103ff565b6104e660208301846104b7565b9392505050565b5f82825260208201905092915050565b7f436f756e7465723a2063616e6e6f742064656372656d656e742062656c6f77205f8201527f7a65726f00000000000000000000000000000000000000000000000000000000602082015250565b5f6105576024836104ed565b9150610562826104fd565b604082019050919050565b5f6020820190508181035f8301526105848161054b565b9050919050565b5f610595826103a1565b91506105a0836103a1565b92508282039050818111156105b8576105b7610427565b5b92915050565b7f436f756e7465723a20696e73756666696369656e7420636f756e7420746f20645f8201527f656372656d656e74000000000000000000000000000000000000000000000000602082015250565b5f6106186028836104ed565b9150610623826105be565b604082019050919050565b5f6020820190508181035f8301526106458161060c565b9050919050565b5f60208201905061065f5f8301846104b7565b9291505056fea264697066735822122097ebe3330da74c8dd67d07a9fc9ce7bc732acaadafaa451bed374a680a0023bc64736f6c634300081f0033",
			"opcodes": "PUSH1 0x80 PUSH1 0x40 MSTORE CALLVALUE DUP1 ISZERO PUSH1 0xE JUMPI PUSH0 PUSH0 REVERT JUMPDEST POP PUSH0 PUSH0 DUP2 SWAP1 SSTORE POP PUSH2 0x69B DUP1 PUSH2 0x22 PUSH0 CODECOPY PUSH0 RETURN INVALID PUSH1 0x80 PUSH1 0x40 MSTORE CALLVALUE DUP1 ISZERO PUSH2 0xF JUMPI PUSH0 PUSH0 REVERT JUMPDEST POP PUSH1 0x4 CALLDATASIZE LT PUSH2 0x86 JUMPI PUSH0 CALLDATALOAD PUSH1 0xE0 SHR DUP1 PUSH4 0xA87D942C GT PUSH2 0x59 JUMPI DUP1 PUSH4 0xA87D942C EQ PUSH2 0xEA JUMPI DUP1 PUSH4 0xD09DE08A EQ PUSH2 0x108 JUMPI DUP1 PUSH4 0xD14E62B8 EQ PUSH2 0x112 JUMPI DUP1 PUSH4 0xD826F88F EQ PUSH2 0x12E JUMPI PUSH2 0x86 JUMP JUMPDEST DUP1 PUSH4 0x3DF179C EQ PUSH2 0x8A JUMPI DUP1 PUSH4 0x6661ABD EQ PUSH2 0xA6 JUMPI DUP1 PUSH4 0x2BAECEB7 EQ PUSH2 0xC4 JUMPI DUP1 PUSH4 0x3721B1D8 EQ PUSH2 0xCE JUMPI JUMPDEST PUSH0 PUSH0 REVERT JUMPDEST PUSH2 0xA4 PUSH1 0x4 DUP1 CALLDATASIZE SUB DUP2 ADD SWAP1 PUSH2 0x9F SWAP2 SWAP1 PUSH2 0x3D4 JUMP JUMPDEST PUSH2 0x138 JUMP JUMPDEST STOP JUMPDEST PUSH2 0xAE PUSH2 0x18C JUMP JUMPDEST PUSH1 0x40 MLOAD PUSH2 0xBB SWAP2 SWAP1 PUSH2 0x40E JUMP JUMPDEST PUSH1 0x40 MLOAD DUP1 SWAP2 SUB SWAP1 RETURN JUMPDEST PUSH2 0xCC PUSH2 0x191 JUMP JUMPDEST STOP JUMPDEST PUSH2 0xE8 PUSH1 0x4 DUP1 CALLDATASIZE SUB DUP2 ADD SWAP1 PUSH2 0xE3 SWAP2 SWAP1 PUSH2 0x3D4 JUMP JUMPDEST PUSH2 0x228 JUMP JUMPDEST STOP JUMPDEST PUSH2 0xF2 PUSH2 0x2C0 JUMP JUMPDEST PUSH1 0x40 MLOAD PUSH2 0xFF SWAP2 SWAP1 PUSH2 0x40E JUMP JUMPDEST PUSH1 0x40 MLOAD DUP1 SWAP2 SUB SWAP1 RETURN JUMPDEST PUSH2 0x110 PUSH2 0x2C8 JUMP JUMPDEST STOP JUMPDEST PUSH2 0x12C PUSH1 0x4 DUP1 CALLDATASIZE SUB DUP2 ADD SWAP1 PUSH2 0x127 SWAP2 SWAP1 PUSH2 0x3D4 JUMP JUMPDEST PUSH2 0x31C JUMP JUMPDEST STOP JUMPDEST PUSH2 0x136 PUSH2 0x35E JUMP JUMPDEST STOP JUMPDEST DUP1 PUSH0 PUSH0 DUP3 DUP3 SLOAD PUSH2 0x148 SWAP2 SWAP1 PUSH2 0x454 JUMP JUMPDEST SWAP3 POP POP DUP2 SWAP1 SSTORE POP PUSH32 0x6312957B833157DBCCE860C9538737FEBB9491FDE39563488A9C296F930376ED PUSH0 SLOAD CALLER PUSH1 0x40 MLOAD PUSH2 0x181 SWAP3 SWAP2 SWAP1 PUSH2 0x4C6 JUMP JUMPDEST PUSH1 0x40 MLOAD DUP1 SWAP2 SUB SWAP1 LOG1 POP JUMP JUMPDEST PUSH0 SLOAD DUP2 JUMP JUMPDEST PUSH0 PUSH0 SLOAD GT PUSH2 0x1D4 JUMPI PUSH1 0x40 MLOAD PUSH32 0x8C379A000000000000000000000000000000000000000000000000000000000 DUP2 MSTORE PUSH1 0x4 ADD PUSH2 0x1CB SWAP1 PUSH2 0x56D JUMP JUMPDEST PUSH1 0x40 MLOAD DUP1 SWAP2 SUB SWAP1 REVERT JUMPDEST PUSH1 0x1 PUSH0 PUSH0 DUP3 DUP3 SLOAD PUSH2 0x1E5 SWAP2 SWAP1 PUSH2 0x58B JUMP JUMPDEST SWAP3 POP POP DUP2 SWAP1 SSTORE POP PUSH32 0x997A19F6EF1F7D292CFD00D9BBEC5B42AC91006844EDC66C6BCF72E0412512EC PUSH0 SLOAD CALLER PUSH1 0x40 MLOAD PUSH2 0x21E SWAP3 SWAP2 SWAP1 PUSH2 0x4C6 JUMP JUMPDEST PUSH1 0x40 MLOAD DUP1 SWAP2 SUB SWAP1 LOG1 JUMP JUMPDEST DUP1 PUSH0 SLOAD LT ISZERO PUSH2 0x26C JUMPI PUSH1 0x40 MLOAD PUSH32 0x8C379A000000000000000000000000000000000000000000000000000000000 DUP2 MSTORE PUSH1 0x4 ADD PUSH2 0x263 SWAP1 PUSH2 0x62E JUMP JUMPDEST PUSH1 0x40 MLOAD DUP1 SWAP2 SUB SWAP1 REVERT JUMPDEST DUP1 PUSH0 PUSH0 DUP3 DUP3 SLOAD PUSH2 0x27C SWAP2 SWAP1 PUSH2 0x58B JUMP JUMPDEST SWAP3 POP POP DUP2 SWAP1 SSTORE POP PUSH32 0x997A19F6EF1F7D292CFD00D9BBEC5B42AC91006844EDC66C6BCF72E0412512EC PUSH0 SLOAD CALLER PUSH1 0x40 MLOAD PUSH2 0x2B5 SWAP3 SWAP2 SWAP1 PUSH2 0x4C6 JUMP JUMPDEST PUSH1 0x40 MLOAD DUP1 SWAP2 SUB SWAP1 LOG1 POP JUMP JUMPDEST PUSH0 PUSH0 SLOAD SWAP1 POP SWAP1 JUMP JUMPDEST PUSH1 0x1 PUSH0 PUSH0 DUP3 DUP3 SLOAD PUSH2 0x2D9 SWAP2 SWAP1 PUSH2 0x454 JUMP JUMPDEST SWAP3 POP POP DUP2 SWAP1 SSTORE POP PUSH32 0x6312957B833157DBCCE860C9538737FEBB9491FDE39563488A9C296F930376ED PUSH0 SLOAD CALLER PUSH1 0x40 MLOAD PUSH2 0x312 SWAP3 SWAP2 SWAP1 PUSH2 0x4C6 JUMP JUMPDEST PUSH1 0x40 MLOAD DUP1 SWAP2 SUB SWAP1 LOG1 JUMP JUMPDEST DUP1 PUSH0 DUP2 SWAP1 SSTORE POP PUSH32 0x169DA4A124D36158C9688A9525D94FC0CE2604F9D7F25AE76F84E573F7675E85 DUP2 CALLER PUSH1 0x40 MLOAD PUSH2 0x353 SWAP3 SWAP2 SWAP1 PUSH2 0x4C6 JUMP JUMPDEST PUSH1 0x40 MLOAD DUP1 SWAP2 SUB SWAP1 LOG1 POP JUMP JUMPDEST PUSH0 PUSH0 DUP2 SWAP1 SSTORE POP PUSH32 0x162F46783FCC741C289A7AF5BD16474ACE09D7E8A9D5FE1AC0D37B12AFC0CCAC CALLER PUSH1 0x40 MLOAD PUSH2 0x393 SWAP2 SWAP1 PUSH2 0x64C JUMP JUMPDEST PUSH1 0x40 MLOAD DUP1 SWAP2 SUB SWAP1 LOG1 JUMP JUMPDEST PUSH0 PUSH0 REVERT JUMPDEST PUSH0 DUP2 SWAP1 POP SWAP2 SWAP1 POP JUMP JUMPDEST PUSH2 0x3B3 DUP2 PUSH2 0x3A1 JUMP JUMPDEST DUP2 EQ PUSH2 0x3BD JUMPI PUSH0 PUSH0 REVERT JUMPDEST POP JUMP JUMPDEST PUSH0 DUP2 CALLDATALOAD SWAP1 POP PUSH2 0x3CE DUP2 PUSH2 0x3AA JUMP JUMPDEST SWAP3 SWAP2 POP POP JUMP JUMPDEST PUSH0 PUSH1 0x20 DUP3 DUP5 SUB SLT ISZERO PUSH2 0x3E9 JUMPI PUSH2 0x3E8 PUSH2 0x39D JUMP JUMPDEST JUMPDEST PUSH0 PUSH2 0x3F6 DUP5 DUP3 DUP6 ADD PUSH2 0x3C0 JUMP JUMPDEST SWAP2 POP POP SWAP3 SWAP2 POP POP JUMP JUMPDEST PUSH2 0x408 DUP2 PUSH2 0x3A1 JUMP JUMPDEST DUP3 MSTORE POP POP JUMP JUMPDEST PUSH0 PUSH1 0x20 DUP3 ADD SWAP1 POP PUSH2 0x421 PUSH0 DUP4 ADD DUP5 PUSH2 0x3FF JUMP JUMPDEST SWAP3 SWAP2 POP POP JUMP JUMPDEST PUSH32 0x4E487B7100000000000000000000000000000000000000000000000000000000 PUSH0 MSTORE PUSH1 0x11 PUSH1 0x4 MSTORE PUSH1 0x24 PUSH0 REVERT JUMPDEST PUSH0 PUSH2 0x45E DUP3 PUSH2 0x3A1 JUMP JUMPDEST SWAP2 POP PUSH2 0x469 DUP4 PUSH2 0x3A1 JUMP JUMPDEST SWAP3 POP DUP3 DUP3 ADD SWAP1 POP DUP1 DUP3 GT ISZERO PUSH2 0x481 JUMPI PUSH2 0x480 PUSH2 0x427 JUMP JUMPDEST JUMPDEST SWAP3 SWAP2 POP POP JUMP JUMPDEST PUSH0 PUSH20 0xFFFFFFFFFFFFFFFFFFFFFFFFFFFFFFFFFFFFFFFF DUP3 AND SWAP1 POP SWAP2 SWAP1 POP JUMP JUMPDEST PUSH0 PUSH2 0x4B0 DUP3 PUSH2 0x487 JUMP JUMPDEST SWAP1 POP SWAP2 SWAP1 POP JUMP JUMPDEST PUSH2 0x4C0 DUP2 PUSH2 0x4A6 JUMP JUMPDEST DUP3 MSTORE POP POP JUMP JUMPDEST PUSH0 PUSH1 0x40 DUP3 ADD SWAP1 POP PUSH2 0x4D9 PUSH0 DUP4 ADD DUP6 PUSH2 0x3FF JUMP JUMPDEST PUSH2 0x4E6 PUSH1 0x20 DUP4 ADD DUP5 PUSH2 0x4B7 JUMP JUMPDEST SWAP4 SWAP3 POP POP POP JUMP JUMPDEST PUSH0 DUP3 DUP3 MSTORE PUSH1 0x20 DUP3 ADD SWAP1 POP SWAP3 SWAP2 POP POP JUMP JUMPDEST PUSH32 0x436F756E7465723A2063616E6E6F742064656372656D656E742062656C6F7720 PUSH0 DUP3 ADD MSTORE PUSH32 0x7A65726F00000000000000000000000000000000000000000000000000000000 PUSH1 0x20 DUP3 ADD MSTORE POP JUMP JUMPDEST PUSH0 PUSH2 0x557 PUSH1 0x24 DUP4 PUSH2 0x4ED JUMP JUMPDEST SWAP2 POP PUSH2 0x562 DUP3 PUSH2 0x4FD JUMP JUMPDEST PUSH1 0x40 DUP3 ADD SWAP1 POP SWAP2 SWAP1 POP JUMP JUMPDEST PUSH0 PUSH1 0x20 DUP3 ADD SWAP1 POP DUP2 DUP2 SUB PUSH0 DUP4 ADD MSTORE PUSH2 0x584 DUP2 PUSH2 0x54B JUMP JUMPDEST SWAP1 POP SWAP2 SWAP1 POP JUMP JUMPDEST PUSH0 PUSH2 0x595 DUP3 PUSH2 0x3A1 JUMP JUMPDEST SWAP2 POP PUSH2 0x5A0 DUP4 PUSH2 0x3A1 JUMP JUMPDEST SWAP3 POP DUP3 DUP3 SUB SWAP1 POP DUP2 DUP2 GT ISZERO PUSH2 0x5B8 JUMPI PUSH2 0x5B7 PUSH2 0x427 JUMP JUMPDEST JUMPDEST SWAP3 SWAP2 POP POP JUMP JUMPDEST PUSH32 0x436F756E7465723A20696E73756666696369656E7420636F756E7420746F2064 PUSH0 DUP3 ADD MSTORE PUSH32 0x656372656D656E74000000000000000000000000000000000000000000000000 PUSH1 0x20 DUP3 ADD MSTORE POP JUMP JUMPDEST PUSH0 PUSH2 0x618 PUSH1 0x28 DUP4 PUSH2 0x4ED JUMP JUMPDEST SWAP2 POP PUSH2 0x623 DUP3 PUSH2 0x5BE JUMP JUMPDEST PUSH1 0x40 DUP3 ADD SWAP1 POP SWAP2 SWAP1 POP JUMP JUMPDEST PUSH0 PUSH1 0x20 DUP3 ADD SWAP1 POP DUP2 DUP2 SUB PUSH0 DUP4 ADD MSTORE PUSH2 0x645 DUP2 PUSH2 0x60C JUMP JUMPDEST SWAP1 POP SWAP2 SWAP1 POP JUMP JUMPDEST PUSH0 PUSH1 0x20 DUP3 ADD SWAP1 POP PUSH2 0x65F PUSH0 DUP4 ADD DUP5 PUSH2 0x4B7 JUMP JUMPDEST SWAP3 SWAP2 POP POP JUMP INVALID LOG2 PUSH5 0x6970667358 0x22 SLT KECCAK256 SWAP8 0xEB CALLF 0x330D 0xA7 0x4C DUP14 0xD6 PUSH30 0x7A9FC9CE7BC732ACAADAFAA451BED374A680A0023BC64736F6C63430008 0x1F STOP CALLER "
		},
		"gasEstimates": {
			"creation": {
				"codeDepositCost": "338200",
				"executionCost": "5384",
				"totalCost": "343584"
			},
			"external": {
				"count()": "2447",
				"decrement()": "infinite",
				"decrementBy(uint256)": "infinite",
				"getCount()": "2431",
				"increment()": "infinite",
				"incrementBy(uint256)": "infinite",
				"reset()": "6456",
				"setCount(uint256)": "infinite"
			}
		},
		"methodIdentifiers": {
			"count()": "06661abd",
			"decrement()": "2baeceb7",
			"decrementBy(uint256)": "3721b1d8",
			"getCount()": "a87d942c",
			"increment()": "d09de08a",
			"incrementBy(uint256)": "03df179c",
			"reset()": "d826f88f",
			"setCount(uint256)": "d14e62b8"
		}
	},
	"abi": [
		{
			"inputs": [],
			"stateMutability": "nonpayable",
			"type": "constructor"
		},
		{
			"anonymous": false,
			"inputs": [
				{
					"indexed": false,
					"internalType": "uint256",
					"name": "newCount",
					"type": "uint256"
				},
				{
					"indexed": false,
					"internalType": "address",
					"name": "setBy",
					"type": "address"
				}
			],
			"name": "CountSet",
			"type": "event"
		},
		{
			"anonymous": false,
			"inputs": [
				{
					"indexed": false,
					"internalType": "uint256",
					"name": "newCount",
					"type": "uint256"
				},
				{
					"indexed": false,
					"internalType": "address",
					"name": "decrementedBy",
					"type": "address"
				}
			],
			"name": "Decremented",
			"type": "event"
		},
		{
			"anonymous": false,
			"inputs": [
				{
					"indexed": false,
					"internalType": "uint256",
					"name": "newCount",
					"type": "uint256"
				},
				{
					"indexed": false,
					"internalType": "address",
					"name": "incrementedBy",
					"type": "address"
				}
			],
			"name": "Incremented",
			"type": "event"
		},
		{
			"anonymous": false,
			"inputs": [
				{
					"indexed": false,
					"internalType": "address",
					"name": "resetBy",
					"type": "address"
				}
			],
			"name": "Reset",
			"type": "event"
		},
		{
			"inputs": [],
			"name": "count",
			"outputs": [
				{
					"internalType": "uint256",
					"name": "",
					"type": "uint256"
				}
			],
			"stateMutability": "view",
			"type": "function"
		},
		{
			"inputs": [],
			"name": "decrement",
			"outputs": [],
			"stateMutability": "nonpayable",
			"type": "function"
		},
		{
			"inputs": [
				{
					"internalType": "uint256",
					"name": "amount",
					"type": "uint256"
				}
			],
			"name": "decrementBy",
			"outputs": [],
			"stateMutability": "nonpayable",
			"type": "function"
		},
		{
			"inputs": [],
			"name": "getCount",
			"outputs": [
				{
					"internalType": "uint256",
					"name": "",
					"type": "uint256"
				}
			],
			"stateMutability": "view",
			"type": "function"
		},
		{
			"inputs": [],
			"name": "increment",
			"outputs": [],
			"stateMutability": "nonpayable",
			"type": "function"
		},
		{
			"inputs": [
				{
					"internalType": "uint256",
					"name": "amount",
					"type": "uint256"
				}
			],
			"name": "incrementBy",
			"outputs": [],
			"stateMutability": "nonpayable",
			"type": "function"
		},
		{
			"inputs": [],
			"name": "reset",
			"outputs": [],
			"stateMutability": "nonpayable",
			"type": "function"
		},
		{
			"inputs": [
				{
					"internalType": "uint256",
					"name": "newCount",
					"type": "uint256"
				}
			],
			"name": "setCount",
			"outputs": [],
			"stateMutability": "nonpayable",
			"type": "function"
		}
	]
}